:100000000000032099010000F9610000B1610000C7
:10001000B1610000B1610000B1610000B161000098
:10002000B1610000B1610000B1610000F961000040
:10003000F9610000B1610000357D0000397E0000EB
:10004000F9610000F9610000F9610000F961000048
:10005000F9610000F9610000F9610000F961000038
:10006000F9610000F9610000F9610000F961000028
:10007000F9610000F9610000F9610000F961000018
:10008000F9610000F9610000F9610000F961000008
:10009000F9610000F9610000F9610000F9610000F8
:1000A000DD120000E9120000F9610000F9610000B2
:1000B000F9610000F9610000F961000009850000A4
:1000C000F961000035860000F961000061870000D9
:1000D000F961000059880000F9610000F961000031
:1000E000F9610000F9610000F9610000F9610000A8
:1000F000F9610000F9610000F9610000F961000098
:10010000DD7F0000F17F0000058000001980000005
:10011000F96100004D6D0000F9610000F961000017
:10012000F9610000F9610000F9610000F961000067
:10013000F9610000F9610000F9610000F961000057
:10014000F9610000F9610000C16A0000F961000076
:1001500051890000F9610000F9610000F9610000B7
:10016000F9610000F9610000F5120000F96100007A
:10017000F9610000F9610000F9610000F961000017
:10018000F9610000F9610000F9610000F961000007
:10019000F9610000F9610000584B4CF2205210B593
:1001A0001A804DF628121A8000BF00BF06F028F80A
:1001B000534B4FF030621A60524A9A60524ADA60EA
:1001C000524B4FF470021A60514A136813F4807353
:1001D00004D150490B604FF4A85313604E4B1A786A
:1001E000110703D51A7842F008021A704B4B4C499C
:1001F0002A221A704B4A4C4B8B4204D252F8040FFD
:1002000043F8040BF8E7494B494900228B4202D2DC
:1002100043F8042BFAE74749474A002352F82300E2
:1002200041F823000133662BF8D1444B444A802126
:1002300003F8011B9342FBD1424B3E4A1A60424BEA
:100240008A221A70A3F5805324225A70A0221A70B1
:100250009A799207FCD59A79D406FCD43B4A9379D3
:1002600003F00C03082B394BF9D103221A714622F3
:100270005A719A799006FCD5344A9179334B4906E4
:10028000FBD5334A4FF08271116009215160202261
:100290001A709A7902F00C020C2AFAD12D4B2E4AD0
:1002A0001A602E4B2E4A1A6000225A60072243F829
:1002B000042C2C4AC3F80C2D62B606F02BF9154B12
:1002C0001B68DA0705D5284806F0B8F8274B284AF6
:1002D0001A60284B1B785B0609D5244C244B2268F6
:1002E0009A4204D1204806F0A9F80023236009F0BF
:1002F00081FA05F08BFF07F099FEFEE70E2005401E
:1003000030800440823F04000100002B88ED00E0B3
:1003100010D0034014D0034002D0074000E0074053
:100320002016FF1F08DC0000F806FF1F2016FF1F25
:10033000A020FF1F0002FF1F0000000000E400E0FB
:1003400056E400E008ED00E00050064000400640A2
:100350004480044004800440C010050014E000E024
:10036000BFD4010000002020B0C7B85B1CE00340F0
:10037000A5C3945A00F00740FFFFFFFFFFFFFFFFF8
:10038000FFFFFFFFFFFFFFFFFFFFFFFFFFFFFFFF7D
:10039000FFFFFFFFFFFFFFFFFFFFFFFFFFFFFFFF6D
:1003A000FFFFFFFFFFFFFFFFFFFFFFFFFFFFFFFF5D
:1003B000FFFFFFFFFFFFFFFFFFFFFFFFFFFFFFFF4D
:1003C000FFFFFFFFFFFFFFFFFFFFFFFFFFFFFFFF3D
:1003D000FFFFFFFFFFFFFFFFFFFFFFFFFFFFFFFF2D
:1003E000FFFFFFFFFFFFFFFFFFFFFFFFFFFFFFFF1D
:1003F000FFFFFFFFFFFFFFFFFFFFFFFFFFFFFFFF0D
:10040000FFFFFFFFFFFFFFFFFFFFFFFFDEF9FFFF23
:1004100010B5054C237833B9044B13B10448AFF33E
:1004200000800123237010BD2016FF1F0000000074
:100430000CDC0000084B10B51BB108490848AFF3AD
:1004400000800848036803B910BD074B002BFBD0A0
:10045000BDE81040184700BF000000002416FF1F31
:100460000CDC00002016FF1F0000000008B50F4E36
:100470000F4D104C104801F023F832210F4886ED43
:10048000000A05F0F7FB0C4801F0BCF832210B48DC
:1004900085ED000A05F0EEFB074800F065FF074810
:1004A00084ED000A05F0E4FBE4E700BFAC17FF1F92
:1004B000C017FF1FC417FF1FB417FF1FA81BFF1F84
:1004C00008B5084803F090FF064804F02DF800B97D
:1004D00008BD044804F02EF8BDE808400146014874
:1004E00003F0B2BB5C17FF1F10B504218348844C96
:1004F00007F0BAFA834B186808F0EAFD41EC100BDC
:100500000221814807F00CFE0721804807F0ACFA71
:100510007D4807F0ADFD05217D4807F0A5FA7D4B2C
:10052000186808F0D5FD41EC100B0221764807F061
:10053000F7FD0221784807F097FA734807F098FD15
:100540000921764807F090FA754BDFED767A93ED46
:10055000007AC7EE276A16EE900A08F0B9FD41EC62
:10056000100B0221684807F0DBFD05216E4807F0FB
:100570007BFA654807F07CFD07216C4807F074FAA8
:100580002178614800230A2207F082FD3A2007F013
:10059000EFFA61785C4800230A2207F079FD3A20DF
:1005A00007F0E6FA00230A22A178574807F070FD09
:1005B0002E2007F0DDFAE188534807F0A9FD5248E4
:1005C00007F056FD06215A4807F04EFA61794E4869
:1005D00000230A2207F05CFD2F2007F0C9FA002350
:1005E0000A222179484807F053FD0321514807F0BA
:1005F0003BFA00230A22E178434807F049FD4248CC
:1006000007F036FD05214C4807F02EFA94F83B1010
:100610003D4807F07DFD0A21484807F025FA94F887
:100620003C10394807F074FD374807F021FD94F875
:100630003B3003B910BD0A21414807F015FAA06804
:1006400008F046FD41EC100B04212F4807F068FD2F
:1006500094F8380007F08CFA02213A4807F004FABF
:10066000E06808F035FD41EC100B0421264807F046
:1006700057FD94F8390007F07BFA234807F0F8FC9F
:100680000F21314807F0F0F9A06A08F021FD41EC94
:10069000100B02211C4807F043FD1B4807F0E8FC43
:1006A00007212A4807F0E0F9E06A08F011FD41EC63
:1006B000100B0221144807F033FD134807F0D8FC53
:1006C0000A21234807F0D0F9606A08F001FD41ECE7
:1006D000100B02210C4807F023FD0B4807F0C8FC63
:1006E0000C211C4807F0C0F994F83D10064807F0AB
:1006F0000FFD0548BDE8104007F0BABCB8CC0000BB
:100700005C17FF1FC017FF1FC00BFF1FC0CC0000EE
:10071000C8CC0000C417FF1FD0CC0000D4CC000010
:10072000AC17FF1F00007A44E0CC0000E8CC0000CA
:10073000F0CC0000F8CC0000FCCC000004CD0000A0
:1007400010CD00001CCD000020CD000030CD0000F9
:1007500038CD000044CD000000B50B490B4883B0F4
:1007600003F08CFE0A4A0B4B12680192019A0A4868
:100770001A6000F0C5FD094B094818220A2104F04F
:1007800085FE03B05DF804FBA00BFF1F5C17FF1F85
:10079000341CFF1FBC17FF1FB417FF1F641BFF1F74
:1007A0003C16FF1F10B5554C82B040F6B8312046BC
:1007B00005F06EFB204652494FF4E13205F042FB52
:1007C0002046012105F018FB002840F08880012216
:1007D00000214A4805F024FC0121242005F046FEB2
:1007E0001721484807F040F9FE21474801F062F818
:1007F00000286AD01121454807F036F9404807F033
:1008000037FC08E0424807F02FF93D4807F030FC7C
:10081000642005F031FE3F493F4800F025FE1F21CE
:100820000028EFD04FF416513C4803F061FE3C49DC
:100830003A4803F067FE3B49384803F063FE3A4903
:10084000364803F05FFE4FF47A7005F015FE0B2179
:10085000364806F093F8364807F00AFC0821354878
:1008600007F002F9264807F003FC334804F052FF72
:1008700018B30C21314807F0F7F8214807F0F8FBCE
:100880000A212F4807F0F0F81D4807F0F1FB00227D
:1008900000924FF0FF332B492B4805F051F90A2104
:1008A0002A4807F0E1F8164807F0E2FB012124206E
:1008B00002B0BDE8104005F0D3BD0B21244807F07D
:1008C000D3F80F4807F0D4FBDAE71B21214807F0E3
:1008D000CBF80B4802B0BDE8104007F0C9BB606C14
:1008E0001D49036811225B68984720460A2105F0DC
:1008F000F5F9204605F0A4FA69E700BFE81BFF1FE1
:10090000C00BFF1F68CD0000D017FF1F9CCD00005B
:10091000B0CD00004408FF1FB417FF1F5C17FF1F76
:10092000D0CD000004CE000018CE000028CE00007C
:10093000A00BFF1F34CE00003C16FF1F4CCE000062
:100940005CCE00006D040000A81BFF1F68CE0000F5
:1009500040CE000080CD000054CD000030B589B0FD
:100960000246132368466C4901F050F8684600F0CF
:1009700099FF054660B91A21684807F075F868487C
:1009800007F076FB684600F07DFF284609B030BDD1
:10099000644C002361790A22684607F079FB2F2115
:1009A000684600F0CFFE217900230A22684607F04E
:1009B0006FFB03225C49684600F0DCFEE17800230F
:1009C0000A22684607F064FB01225849684600F095
:1009D000D1FE217800230A22684607F059FB3A210C
:1009E000684600F0AFFE617800230A22684607F0EF
:1009F0004FFB3A21684600F0A5FE0023A1780A22A9
:100A0000684607F045FB01224849684600F0B2FEFF
:100A1000A06808F05DFB41EC100B0421684607F06C
:100A20007FFB94F83810684600F08CFE01223F49A5
:100A3000684600F09FFEE06808F04AFB41EC100BAE
:100A40000421684607F06CFB94F83910684600F002
:100A500079FE01223549684600F08CFE606A08F094
:100A600037FB41EC100B0221684607F059FB0122CD
:100A70002E49684600F07EFE2D4B186808F028FBD2
:100A800041EC100B0221684607F04AFB012227497E
:100A9000684600F06FFE274B186808F019FB41EC20
:100AA000100B0221684607F03BFB01221F496846F4
:100AB00000F060FE94F83B10684607F029FB012225
:100AC0001A49684600F056FE94F83C10684607F054
:100AD0001FFB01221549684600F04CFE94F83D10BA
:100AE000684607F015FB01221349684600F042FEF4
:100AF000684607F0BDFA684600F0C6FE0A210F48B6
:100B000006F0B2FF064807F0B3FA684600F0BAFEF6
:100B1000284609B030BD00BFD017FF1F20CF00000E
:100B2000C00BFF1F5C17FF1FF8CC00000CCF0000AC
:100B3000C417FF1FC017FF1F10CF000014CF000005
:100B400070B5374C88B023680193019B23B92368A3
:100B50000293029B012B20D9324D334E284605F0DB
:100B6000CFF8326831499042034608603DD39A1A63
:100B7000F92A12D94FF4FA712846336005F0CAF801
:100B80000121284605F038F9002830D125480521F3
:100B900005F0A4F8234805F025F9FFF791FC236838
:100BA00023490493049B0A681D489A4203D90368A9
:100BB0000593059A0A6023680693069B18489B1ABA
:100BC000B3F57A7F0FD903680793079B0B60FFF794
:100BD0008BFC1848FFF7C2FE2121174806F044FF9E
:100BE000164807F045FA08B070BD3360D5E72846CF
:100BF000012105F0A1F8686C1149036801225B68C6
:100C00009847236803930399686C00230A2207F02E
:100C10003FFA284605F0D6F8284605F011F9B5E761
:100C2000341CFF1FE81BFF1FB017FF1FC817FF1F53
:100C3000BC17FF1F40CF000048CF0000C00BFF1FB4
:100C40003CCF00000020704790F8392090F8380021
:100C5000101A704790F8383090F839209A4205D928
:100C60005A1C034480F83820187E70474FF0FF303C
:100C7000704700BF90F8383090F839209A4286BF0C
:100C80001B18187E4FF0FF30704700BF704700BF41
:100C900038B50546B0F85E0090B195F85D30144661
:100CA000C3F1210294420CD805F13B0018442246BE
:100CB00005F0E4F995F85D30234485F85D30204671
:100CC00038BD012014462871EEE700BFB0F85E3051
:100CD0006BB190F85D30202B07D8C218013380F833
:100CE0005D30012082F83B10704701230371002022
:100CF000704700BF0023426980F8383080F83930EF
:100D000080F85C3080F85D3080F85E3080F85F30CD
:100D100006CA30B40D68046943662A4383660A60D4
:100D2000A370426990F861301649146813441D7A23
:100D30005B7B01EBC5051B026D6803F4E06343F0C8
:100D400064032B6090F8623013449D7CDB7D01EBE3
:100D5000C5011B02496803F4E06343F064030B60C0
:100D600021685368194205D003692C225A7003691F
:100D700004229A71036920225A71036980229A70B1
:100D800030BC704754D5000038B50269D478E4B25D
:100D9000E106054624D51023D37063061FD504F061
:100DA000040404F0FF03002C5AD042496A6E002369
:100DB0000B7085F85D30002A66D0904795F85D305D
:100DC000002B61D02B69D0229A702B6995F83B20BB
:100DD0001A712B69012285F85C200222DA7038BD75
:100DE00004F0400303F0FF00002BD8D19379DBB26D
:100DF00003F0600160294ED0937803F0100303F0F4
:100E0000FF01B3B114F0010437D195F85C3095F8C7
:100E10005D1099424BD9591C2B4485F85C1093F80E
:100E20003B3013712B69D0229A702B690222DA7041
:100E3000D5E785F86010937943F0200393712B690F
:100E400095F839101A791F29D2B2C6D819480078F6
:100E50000028C2D06818013185F839100276BCE745
:100E60002A6985F83930C02393702B69114A1979A2
:100E7000012111700222DA70B1E7C02393702B694F
:100E80001A790222DA70AAE70122002385F85D2090
:100E900085F83B3096E703F0DF039371AB6E23B127
:100EA00085F8380095F8390098472A69A4E7147145
:100EB000B8E700BFCC17FF1F2DE9F047374FDFF829
:100EC000E0903B68026982B006460093DDF800803E
:100ED00000214FF49675D3789B065BD53B68019350
:100EE000019BC8EB03030F2BF5D949B1102BF2D0AE
:100EF00000209070336980229A7002B0BDE8F087BC
:100F0000726996F8613013440521187A05F0AEFA3B
:100F1000726996F861301344012193F812A050468B
:100F200005F0A4FA09240021504605F099FA2B4651
:100F3000013BFDD10121504605F092FA2B46013BC1
:100F4000FDD1013CEFD1706996F8611001444FF476
:100F500016720C7A4B7B09EBC4011B02496803F43F
:100F6000E06343F064030B6096F862300344997CBD
:100F7000DB7D09EBC1011B02496803F4E06343F028
:100F800064030B60013AFDD13269D3789B064FF0C0
:100F90000101A3D4012002B0BDE8F087341CFF1F7B
:100FA00054D50000F0B503691222DA700269937813
:100FB00003F0200385B004460D46002B5ED0B42319
:100FC00093703C4922690B680093009E05E00B6812
:100FD0000193019B9B1B042B42D8D37803F0200381
:100FE00003F0FF00002BF2D094F85D30002B31D0DD
:100FF0004FF0000E4FF0020C04EB0E0393F83B3061
:1010000013710B680393039F206907E09B060DD5BE
:101010000B680293029BDB1B052B28D8C378DBB23D
:1010200003F0020202F0FF06002AEFD080F803C0AE
:101030002669F378DBB2DF0632462DD49F062BD526
:10104000DB0731D40EF1010E94F85D305FFA8EFEAD
:101050007345D1D800201DBB002384F85E3004E026
:101060009070236980229A70042005B0F0BD8670CC
:101070002369802204209A7005B0F0BD03F0FF06BA
:10108000FFF71AFF10B9042005B0F0BD236984F8FA
:101090005F60B0229A7094E78023B3700420DAE78F
:1010A00026698023B370D7E7BEF1000F0CBF022082
:1010B0000320F6E7341CFF1F2DE9F04106690025E7
:1010C000122780F8385080F83950F770D0F810C0E7
:1010D0009CF802E00EF0200E88B0044688461546C3
:1010E0001E46BEF1000F49D0B4238CF802307A4B73
:1010F00021691A680092DDF800E006E01A680192A2
:101100000198CEEB0000042830D8C87800F0200009
:1011100000F0FF070028F1D04FEA480242F0010238
:10112000D2B20A711A680292DDF808E0206906E07E
:101130001A6803920399CEEB010105292AD8C178D8
:1011400001F0020101F0FF070029F1D04FF0020C7D
:1011500080F803C02269D17811F0110722D12DBB8C
:10116000002E0CBFA0238023937003E08F702369AF
:1011700080229A70384608B0BDE8F0810EF0FF0773
:10118000FFF79AFE0028F5D0236984F85F70B0223B
:101190009A70ACE787702369802238469A7008B04D
:1011A000BDE8F081802393700027E3E7012D78D01C
:1011B000A021917021690A79BE4667464FF0A80CBC
:1011C0001A680492049805E01A680592059A121AA2
:1011D000052A4DD8CA7802F0020202F0FF08002A60
:1011E000F2D0CF702169CA78D2B212F0100F08463F
:1011F0005DD192065BD5013DEDB2012D4CD0BEF123
:101200001F0F3ED90A79012DDAD11A680692069D80
:1012100005E01A680792079A521B052A56D8C27829
:1012200002F0020202F0FF01002AF2D00223C37092
:101230002269D378DBB2D9063BD49B0637D5B023DD
:10124000BEF11F0F937043D8226904EB0E0312798D
:101250001A760EF1010E5FFA8EFE00BF00BF00BFCE
:1012600016B1236980229A7084F839E0774681E7C5
:1012700081F80280236980229A70774684F839E0E9
:1012800078E704EB0E0291F8048082F818800EF1E2
:10129000010E5FFA8EFEB6E781F802C021690846AA
:1012A000ADE7A82191702069BE460279ADE7774687
:1012B00060E710214FF49673D170013BFDD1226994
:1012C000937803F0F7037746937053E78170D1E783
:1012D00023691B79C1E700BF341CFF1F0148FFF7DA
:1012E00053BD00BF4408FF1F0148FFF74DBD00BFBD
:1012F000B008FF1F0148FFF747BD00BFD807FF1F19
:10130000704700BF38B50368C022012583F83B2031
:1013100083F85E5083F85D500446006803681B68DC
:10132000984700212068FFF73DFE2B462A4620689B
:101330006021FFF7C1FE20680A4A03685B69934297
:101340000BD190F8383090F839209A4208D95A19C0
:10135000034480F83820187E38BD9847C0B238BDA5
:10136000FF2038BD550C000070B505460021284609
:10137000FFF7C8FF04460A2005F07EF8A107F5D55F
:101380002B68294EC022012483F83B2083F85E405D
:1013900083F85D402868036804211B689847002192
:1013A0002868FFF7FFFD2346022260212868FFF727
:1013B00083FE286803685B69B3422CD190F838300B
:1013C00090F839209A422BD91A19034480F8382012
:1013D0001C7E286803685B6964B2B3424FEA042448
:1013E0001CD190F8383090F839209A4218D95A1CFC
:1013F000034480F83820187E204340F30B1003B2DA
:10140000020544BF6FEA03536FEA135300EE103A2C
:10141000BAEECE0A70BD98470446DAE79847EBE784
:101420009FED020A70BD00BF550C0000000080BD9A
:1014300038B503680446C025012083F83B5083F883
:101440005E0083F85D00206803681B6815469847B6
:101450002068036829461B68984720680021BDE87A
:101460003840FFF79FBD00BF10B501600446084635
:10147000FFF740FC20460C21FFF744FFC42801D0B1
:10148000002010BD204604222621FFF7D1FF0A20AC
:1014900004F0F2FF26212046FFF734FF10F0040F7E
:1014A0004FF00A00F4D1B822627120462621FFF7DE
:1014B000BFFF204607221321FFF7BAFF012010BD0E
:1014C00070B5044601E004F0D7FF26212046FFF75F
:1014D00019FF00F0020303F0FF010A20002BF2D1F4
:1014E000627961F3C71262712621D2B22046FFF7FA
:1014F0009FFF627942F00202627126212046FFF7C7
:1015000097FF00212046FFF7FDFE05460A2004F064
:10151000B3FF6B07F5D52368384EC022012583F849
:101520003B2083F85E5083F85D50206803682946AD
:101530001B68984700212068FFF734FD2B460322E3
:1015400060212068FFF7B8FD23681A685269B2422B
:1015500037D193F8381093F8390088423DD94A19A9
:1015600083F83820194423680D7E1A685269B24204
:101570004FEA05252ED193F8381093F839008842A8
:101580002BD94A1C194483F83820087E23681A682E
:10159000526940EA0504B2424FEA042421D193F88B
:1015A000382093F83910914224D9511C1A4483F8F9
:1015B0003810107E0443230900EE103ABAEECF0A29
:1015C00070BD1846904723681A685269B2424FEAC4
:1015D0000025D0D018469047D8E7B2420AD06FF025
:1015E000FF04184690472043030900EE103ABAEE74
:1015F000CF0A70BD9FED020A70BD00BF550C000000
:101600000000804C70B5044601E004F035FF26214F
:101610002046FFF777FE10F0020F4FF00A00F4D1DA
:10162000627942F08002627126212046FFF700FFB6
:10163000627942F00202627126212046FFF7F8FE2D
:1016400000212046FFF75EFE05460A2004F014FF45
:101650006B07F5D52368374EC022012583F83B2060
:1016600083F85E5083F85D502068036829461B6844
:10167000984700212068FFF795FC2B460322602144
:101680002068FFF719FD23681A685269B24235D104
:1016900093F8381093F8390088423BD94A1983F8F7
:1016A0003820194423680D7E1A685269B2424FEA05
:1016B00005652CD193F8381093F83900884229D960
:1016C0004A1C194483F83820087E23681A68526936
:1016D000B24245EA004420D193F8382093F83910FB
:1016E000914223D9511C1A4483F83810107E44EAE1
:1016F000002300EE103ABAEEC80A70BD18469047B3
:1017000023681A685269B2424FEA0065D2D018467F
:101710009047DAE7B24209D0074C1846904744EAAE
:10172000002000EE100ABAEEC80A70BD9FED030A51
:1017300070BD00BF550C00000000FFFF000080BB23
:10174000704700BF10B582B002AB026803F8011DFC
:10175000546819460122A04702B010BDC06938B1D3
:101760008369C06847F6FF72181A904228BF104676
:10177000704700BFC36910B504463BB10020187123
:10178000E06901F05DFCE3691B791BB10123237162
:10179000002010BD10BD00BFC06978B100B583B096
:1017A00001220DF1070101F01DFA01280CBF9DF87F
:1017B00007004FF0FF3003B05DF804FB4FF0FF303F
:1017C000704700BFC369C3B110B582B0044601229F
:1017D00018460DF1070101F005FA012803D04FF07A
:1017E000FF3002B010BDE0699DF80740C1680139C3
:1017F00001F0B4FA204602B010BD1846704700BF91
:10180000C06908B101F0DCBA704700BF2DE9F041B2
:1018100005464FF47A731348AB60002328602B71A0
:101820002B7324200C46904608F010F8E861B0B104
:10183000064604F1200E20686168A268E368374616
:101840000FC7103474453E46F5D1206838604146D4
:101850000C2205F10D0008F0B1FC00236B76284640
:10186000BDE8F081F8CF00004FF47A72044982603D
:101870000022016002710273C2614273704700BFAF
:10188000F8CF0000704700BFC36953B110B50446DC
:10189000184601F02FF9E06907F0E0FF0023E3614B
:1018A00010BD7047C06918B18079003018BF0120A1
:1018B000704700BFFE2938B5054617D00A460121FA
:1018C00000F006FE03460BB9002038BD2C1D204653
:1018D0000122294601F0A4FE98B1214605F12C0011
:1018E00001F058F9003018BF012038BD017000F038
:1018F000DDF9044600F0C8F9B4FA84F35B09A87076
:10190000E1E702462946204601F08AFE0028E4D19C
:10191000002038BD2DE9F04F99B04FF00008DFF8F6
:10192000E8A08DF81C808146043106A893460193F7
:101930008DF81E808DF840808DF84280CDF818A07B
:10194000CDF83CA001F026F906AE5D460FAF2F2181
:10195000284608F0EFFA441BE4B2294608B32B7876
:101960002F2B02A81BD00C2C28BF0C24224608F0D9
:1019700025FC18AB2344384603F8588C01F0BAF81C
:10198000012302AA3146384601F04EFB88B33046A7
:1019900001F0B0F8334625443E461F46D7E70135EF
:1019A000D5E7019831797279B379B468377DCBEB9B
:1019B00005050560F068356989F8041089F8052087
:1019C000B16989F80630F269336AC9F80C004846F3
:1019D000C9F800A0C9F80840C9F8105089F8147077
:1019E000C9F81810C9F81C20C9F8203019B0BDE892
:1019F000F08F89F8040089F806004846C9F800A06D
:101A000019B0BDE8F08F00BF20D00000F0B59DB048
:101A100005461F4601A86B461446FFF77BFF009A58
:101A2000A35C1444002B42D09DF80A202F4E0A9646
:101A300000238DF82C308DF82E30002A31D00AA8E2
:101A40003B46224601A901F0EFFA50B301A801F08C
:101A500051F817F0060F43D19DF82C700C9B9DF8A0
:101A60002DE0139622469DF82E408DF850708DF88B
:101A7000524015930D990E989DF83C70109E119C44
:101A8000129B8DF851E01691179013A928468DF8F6
:101A9000607019961A941B93FFF7B8FE28461DB084
:101AA000F0BD2846FFF7E0FE28461DB0F0BD9DF8CA
:101AB00008700E4E9DF809409DF80A30039A8DF883
:101AC000507013968DF851408DF85230159204994C
:101AD00005989DF81870079E089C099B044AD2E758
:101AE0000AA8109901F03AF9B6E700BF20D000002B
:101AF00014D00000064B074ADA6202210022596026
:101B00009A7083F8242083F8302083F832207047BD
:101B1000D017FF1F20D0000010B4114C114B2268C9
:101B200011491340184322F0080240F4602022605B
:101B300020600B681C0706D40C4B01E0013B02D06F
:101B40000A681207FAD5064B094A5DF8044B40F0C3
:101B500008001860136843F480131360704700BFD7
:101B60002C100B400700F0FF24100B40FFFF0F006C
:101B700030100B402149224A0B6843F080030B6070
:101B800011461368DB07FCD40B689B07F9D41D4B87
:101B900030B44FF08072194D186000E0A2B129688E
:101BA000194B164C0B40013A002BF7D062B1012BB8
:101BB0000AD1236813F0800F23680FD043F001137C
:101BC0002360032030BC70470C4A136843F4702331
:101BD00043F001031360012030BC704713F48033DD
:101BE00005D0236843F0011323600520F4E7226841
:101BF00042F0010218462260EEE700BF30100B40B1
:101C000024100B400C100B4001000E0070B50D4D60
:101C10000D480E4E00232B60FFF7ACFF63240346F4
:101C200006E04BB92B60FFF7A5FF013C034605D04A
:101C3000326805485207F4D4184670BD002808BF22
:101C4000052070BD08100B400000DB0C24100B4079
:101C500070B5094C0023054623600848FFF78AFF4A
:101C600000B170BD064E074833682560FFF782FF5C
:101C70000028F6D1336870BD08100B4000001A37F9
:101C800010100B4000000229074B1A784AB99A78C5
:101C90002AB15B78002B0CBF022003207047012083
:101CA00070470020704700BF2418FF1F2DE9F04740
:101CB000674D684E2B68684F6849694C69486A4AA5
:101CC000DFF8C8E143F400332B60336843F400537A
:101CD00033603B6843F002033B600B6843F0020350
:101CE0000B60236805F59F4506F59F4607F59F475E
:101CF00001F5D12123F00103236001F2EC7140F2E0
:101D00000313583554365437036000245748136082
:101D10002C600A4633603B60CEF8003008601368E0
:101D200013F08073FBD1524C524A534853492360FD
:101D30004FF481354FF01013282405600C604FF4E8
:101D400087501360FFF7E8FE4D4A13689C07FCD1EB
:101D5000454EDFF810E14B4C4B4A4C494C4F4D4D32
:101D60004D4840F24343CEF8003033604FF488666C
:101D7000266013604FF6FF76484C3B6002F5C822A0
:101D80000B6020322E604FF4FA710460136843F048
:101D90000063136013681801FCD40139F6D13D4A81
:101DA0003748136843F0800313600368DA0308D4EC
:101DB0003B4B022059709970187059609960BDE8CA
:101DC000F087374C374E21706170A1700846316042
:101DD0006160A160FFF7CEFE68B9334D33482B68D0
:101DE0004FF4D5733360FFF7C5FE40B92B682B68FD
:101DF000B3F5D57F29D001202070BDE8F0870528F4
:101E0000F9D10020FFF724FF0028F4D1264B1A68EF
:101E100012F4401F58D06278254FDFF89880002ACE
:101E200005461E4608BF4FF4401704E03268002AFA
:101E300042DB454546D03846FFF70AFF01351A4BCD
:101E40000028F3D00120BDE8F08701236370D8E7B4
:101E500030800440388004403C800440408004408E
:101E600000D0004000D0044004D0044000800001B5
:101E7000C0100B4044100B4004100B4028100B40C6
:101E800024100B4008D004400CD0044014D004406F
:101E900010D0044030100B4034100B40BB007F11B9
:101EA0002418FF1F08100B4010100B4000001A08E8
:101EB00000003040A0860100554A954202D01B68C0
:101EC0005B0001D400236370524E534800233360FB
:101ED000FFF750FE034600288DD1504D50482A6828
:101EE0003360FFF747FE002885D12B682B684D48EB
:101EF0004D4D1B0C1B0433606360FFF73BFE002855
:101F00007FF479AF494B4A491A68120EEA700A68A1
:101F100012F4400F71D1196846481B6802680068C6
:101F20009B0203F4406343EA9253C0F3C2105A1C6D
:101F3000C1F30321831C093902FA03F38B40AB6020
:101F4000344E636833603C48374FFFF713FE002878
:101F50007FF451AF314D39482B684FF40073336033
:101F6000FFF708FE00287FF446AF7B682A683448F4
:101F70003360FFF7FFFD00287FF43DAF02232A689E
:101F800030483360FFF7F6FD00287FF434AF2E4B66
:101F90002A681A68DFF8B8A0DFF8B890DFF8B880D0
:101FA0002A4C22F006021A601A68A6F5C726A6F285
:101FB000FC76A5F5C82542F002021A6040F2031330
:101FC000CAF80030C9F80030C8F8000033604FF498
:101FD00098702B602360FFF79FFD40F243434FF45E
:101FE0008862CAF80030C9F80030C8F800203360B1
:101FF0002B6023603878BDE8F08701220D4BAA7072
:102000001B68C3F3152313449B02AB6098E700BF22
:10201000A086010008100B400000090210100B40C0
:1020200000001A03000009092418FF1F18100B40B4
:102030001C100B4014100B4000001B0700001A106E
:1020400000001A3700001A0628100B4014D0044074
:1020500000D0044004D0044008D00440F8B5384B08
:102060001A780AB10320F8BD5B78064603B9490225
:10207000344D354C354B36484FF6FF774FF48132AF
:102080002F6021601A60FFF775FD0028EBD1314BFE
:1020900031491B681C3406F1400206F510702B68AC
:1020A000284F43F0200613F4E00F2E603ED1236842
:1020B0001E05FCD50B6842F8403C0B6842F83C3CDE
:1020C0000B6842F8383C0B6842F8343C0B6842F825
:1020D000303C0B6842F82C3C0B6842F8283C0B68FB
:1020E00042F8243C0B6842F8203C0B6842F81C3C48
:1020F0000B6842F8183C0B6842F8143C0B6842F835
:10210000103C0B6842F80C3C0B6842F8083C0B682A
:1021100042F8043C40328242C1D1002009490B6898
:10212000084A9B07FBD50D4B1360F8BD43F4E00351
:1021300043F020033B60FFF769FD0120EEE700BF9D
:102140002418FF1F30100B4008100B4004100B40E8
:1021500010003A1110100B4020100B40220000011B
:10216000F8B52B4B1A780AB10320F8BD5B7804460A
:1021700003B94902274D284E284B29484FF6FF77CF
:102180004FF481322F6031601A60FFF7F3FC0028B2
:10219000EBD1244B24491B682E4604F500772B68AD
:1021A0001C4AD806FBD5336813F4E00F1AD104F1AA
:1021B000400254F8043B0B60A242FAD12B68DFF8CE
:1021C00054E043F010032B602B6813F4E00013D1AC
:1021D0009742E4D10F490B680E4A9B07FBD5134B7E
:1021E0001360F8BD136843F4E00343F01003136079
:1021F000FFF70CFD0120EDE7DEF8003043F4E003CB
:1022000043F01003CEF80030FFF700FD0120E1E7B6
:102210002418FF1F30100B4008100B4004100B4017
:1022200000003A1810100B4020100B401200000163
:10223000052822D8DFE800F003030F151B09124B15
:10224000124A1A60124801F049BC0F4B114A1A6039
:102250000F4801F043BC0C4B0F4A1A600C4801F0C8
:102260003DBC094B0D4A1A60094801F037BC064BCA
:102270000B4A1A60064801F031BC034B094A1A6048
:10228000034801F02BBC00BF3418FF1F000001B849
:102290002009FF1F043000380110003803200038E7
:1022A000010002380650013810B50121007804F011
:1022B000D7F8114A1378C3B11049CB7A00241846D5
:1022C000147093B1DA0703D50D4AC8691060184637
:1022D0009C0703D50B4B0A6AC87A1A60420705D4DB
:1022E000030702D5084B8A6A1A6010BD074B4A6A79
:1022F000C87A1A60F4E700BF3818FF1F2009FF1FD3
:1023000000E100E004E100E00CE100E008E100E0B1
:10231000234B1A781AB10078002104F0A1B870B4E8
:10232000204A2149D47A096801251D70002C26D045
:1023300072B6D47AE607234606D51C4DD3682E68BC
:102340003340D3612B602346A50706D5184D146989
:102350002E68D37A344014622C605C0706D5154D84
:1023600054692E68D37A344054622C601B0705D51B
:10237000114C936925682B409362236062B6136801
:10238000DA688A4207D00D4C1C600D4AD96041F0D2
:1023900080441C611A600078002170BC04F060B8B1
:1023A0003818FF1F2009FF1F3418FF1F80E100E0CD
:1023B00084E100E088E100E08CE100E001403F00C2
:1023C00000003F80F0B41248124A036882B01646FB
:1023D0000093009F4FF00045FF24136843F480638F
:1023E0001360D5625463D36A002BFCDAB36BDBB2A3
:1023F000FF2B09D003680193019BDB1B8B42ECD3BD
:10240000002002B0F0BC7047012002B0F0BC704761
:10241000341CFF1F00C00240F8B50D464FF4967102
:1024200016460446FFF7CEFF284B1A684FF00040CF
:1024300042F4806245F040011A60D8621A4659633E
:10244000D36A002BFCDA214918204FF000470A68B4
:1024500026FA00F342F48062DBB20A60CF624B637B
:10246000CB6A002BFCDA083810F1080FEFD155B316
:10247000082D0CBF8721FF21144B1A684FF0004034
:1024800042F480621A60D8621A465963D36A002BFC
:10249000FCDA0E4A002716464FF00045FF2113686C
:1024A00043F480631360D5625163D36A002BFCDA76
:1024B000B36BD8B21B06607000D4F8BD0137B7F516
:1024C000807FECD1F8BD9521D6E700BF00C0024067
:1024D0002DE9F04300239D4E027085B08370336870
:1024E00001930546884610460121019F03F0B8FF7D
:1024F0002878012103F0BAFF2878012103F0B0FF0A
:10250000934A136843F4805313600620FFF790FE4C
:10251000DFF870E28F4B9EF80BC01A68BCF1000F19
:102520002CD072B69EF80B10C8070B4608D58A4807
:10253000DEF80C3004682340CEF81C3003600B46F4
:102540008C0709D58548DEF8101004689EF80B301A
:102550002140CEF820100160580709D58048DEF8E8
:10256000141004689EF80B302140CEF8241001604E
:10257000190700F1AB8062B69EF80BC0DEF80030A0
:10258000D968914207D0774818607749DA6042F0FD
:10259000804018611960754A0A244FF00040FF21FD
:1025A000136843F480631360D0625163D36A002BD5
:1025B000FCDA013C14F0FF04F2D1BCF1000F21D091
:1025C0001CF0010F05D06A4BDEF81C209EF80BC0F2
:1025D0001A601CF0020F05D0664BDEF820209EF832
:1025E0000BC01A601CF0040F05D0634BDEF82420EA
:1025F0009EF80BC01A601CF0080F03D05F4BDEF88A
:1026000028201A602846FFF783FE06E0336802930D
:10261000029BDB1BB3F5FA6F51D800221146284606
:10262000FFF7FAFE012881466870EFD14FF4D572AA
:1026300008212846FFF7F0FE430726D585F80290CB
:102640004FF0000906E033680393039BDB1BB3F5EF
:10265000FA6F34D8002237212846FFF7DDFE4A46BC
:1026600029212846FFF7D8FE68700028EBD1AB7807
:10267000022B39D02846FFF717FE4046FFF7D8FD5A
:102680000124204605B0BDE8F083384A0421944671
:102690004FF0004EFF20136843F480631360C2F8CC
:1026A0002CE05063D36A002BFCDADCF838300139B7
:1026B000DBB211F0FF016B70EDD1AA2B0FD02846D1
:1026C000FFF7F2FD204605B0BDE8F0832C49DEF8A7
:1026D000183008680340CEF828300B604BE702231F
:1026E000AB704FF08049B5E702463A212846FFF724
:1026F00093FE0028E3D11D4B1A684FF0004442F4CA
:102700008062FF201A601946DC625863CB6A174A60
:10271000002BFBDA936B154A03F0C003C02B04BFF8
:102720000323AB70032116464FF00044FF201368CB
:1027300043F480631360D4625063D36A002BFCDAE5
:10274000013911F0FF01B36BF1D193E7341CFF1F86
:102750003C8004403418FF1F80E100E084E100E089
:1027600088E100E001403F0000003F8000C00240DF
:1027700000E100E004E100E008E100E00CE100E03D
:102780008CE100E02009FF1FF0B41549154A0B68E1
:1027900082B016460093009F4FF00045FF24136857
:1027A00043F480631360D5625463D36A002BFCDA70
:1027B000B36BDBB2FF2B43700AD10B680193019B13
:1027C000DB1BB3F5967FEAD9002002B0F0BC70475E
:1027D000A3F1FE00B0FA80F0400902B0F0BC7047EF
:1027E000341CFF1F00C00240F8B58378032B0E464F
:1027F000044618BF4E021546FFF78AFD32461121E6
:102800002046FFF709FE18B92046FFF7BDFF20B9A3
:102810002046FFF749FD0020F8BD204B2049214A02
:102820001A608E4659631A4659631E46596305F568
:10283000FD70A91C05F5FE77D36A13F0F00FFBD0ED
:10284000C6F834E0B36B01F8013C1B1201F8023CFE
:1028500002318F42F0D105F50075A8420DD20F4A22
:102860001646D36A13F0F00FFBD0B36B191200F8C1
:10287000021BA84200F8013CF3D3084B0949084A5F
:10288000196019465A63CB6A044A13F0F00FFAD064
:102890002046936BFFF708FD0120F8BD00C0024001
:1028A000FFFF009000041F80F0B4314E33684FF0FA
:1028B000004743F4806333603D46F76234467163FA
:1028C0003346511C02F20127E26A002AFCDA1A6838
:1028D00011F8016C42F480621A60DD625E63E26AA4
:1028E000002AFCDA1A6811F8026B42F480628F4207
:1028F0001A60DD625E63E7D11D49CA6A1C4B002A7B
:10290000FBDA1A684FF0004542F48062FF241A6037
:102910001946DD625C63CB6A154A002BFBDA13684B
:102920004FF0004543F48063FF2413601146D562E5
:102930005463CB6A0E4A002BFBDA13684FF0004554
:1029400043F48063FF2413601146D5625463CB6A5D
:10295000074A002BFBDA936BDBB203F01F024370D4
:10296000A2F10500B0FA80F04009F0BC704700BF4A
:1029700000C0024070B5044671B18378032B0D4648
:1029800018BF4D021646FFF7C3FC2A461821204601
:10299000FFF742FD054620B12046FFF785FC0020E9
:1029A00070BD3246FE212046FFF77EFF0028F3D09F
:1029B0004FF416712046FFF705FD0028ECD02A469B
:1029C0000D212046FFF728FD0028E5D10B4B1A68A2
:1029D0004FF0004542F48062FF201A601946DD6224
:1029E0005863CB6A054A002BFBDA936B13F0FF0F99
:1029F000D2D12046FFF758FC012070BD00C0024034
:102A0000014B024A1A6070473418FF1F0320003838
:102A100038B590F90530002B03DBBDE8384000F0F5
:102A200013BC04460121006900F04EFCF8B1257D7D
:102A3000104B13EB45151AD0A3790F4A012B9CBFFD
:102A4000A369EB61E36912686B831B0CAB8232B143
:102A500005F1160105F1180090472B8B6B82637905
:102A600003F07F036371BDE8384000F0EDBB002048
:102A700038BD00BF4818FF1F3C18FF1F10B500F1FC
:102A8000080204460121006A00F012FD50B1E3691A
:102A90003BB96379A268E26163F07F03637101204F
:102AA00010BD012010BD00BF70B50646FFF7E6FF60
:102AB00098B1326AB568117C53691479023D8D4032
:102AC000013B74B11D4402E014F0FF0407D060190B
:102AD00000F06AFC013C0028F6D1002070BD336A8A
:102AE000197CB0694FF4007202FA01F30344B36138
:102AF000012070BD82790AB90020704710B50446E4
:102B0000FFF786FF18B10023A371012010BD00203C
:102B100010BD00BF70B44B1E01F10A04202203F85F
:102B2000012FA342FBD101380025072610F8014FE1
:102B30002CB32E2C1ED0164A01E09C4217D012F85E
:102B4000013B002BF9D1AE421FD3A4F121025D2A33
:102B50001BD8A4F16102192A05F1010398BF203C9A
:102B60000D44DBB298BFE4B22C701D46DEE70020B6
:102B700070BC70470A2EFAD008250A26D6E70B78D3
:102B8000B3F1200018BF0120F2E71846F0E700BFBC
:102B900030D0000038B583793BB991F82020102A55
:102BA0000D46044603D0202A10D0002038BD022252
:102BB00082714A8CC36153018361002301206071DB
:102BC00023752562A360E360236138BD032383710D
:102BD000496AC16100F11802284600F039FC00285A
:102BE000EBD1E2E7837913B94FF0FF3070472DE95D
:102BF000F04F8B464179C90783B005465BD5C16864
:102C00008469641A944228BF144626460194002C15
:102C100069D01A46022ADFF8FC903D4FDFF8F880B1
:102C2000C1F3080A42D0286A0479013C04EA51241D
:102C3000E4B2BAF1000F62D1002C60D1002956D164
:102C4000EA69AA6090F810E04169023A02FA0EF2CD
:102C500021441144CAF500746A79B442A8BF3446CD
:102C600053062DD4B4F5007F2AD00846002100F089
:102C70002BFB00B30AEB090E0EEB040086450BD0CC
:102C80000BF1FF32734613F8011B02F8011F984243
:102C9000F9D1CEEB00008344E968361B2144E9609A
:102CA00021D0AA79022AC1F3080ABCD12A6A506A43
:102CB00000EB5121CEE74FF0FF3003B0BDE8F08FBD
:102CC0003A689142D1D0D8F800000378FE2B18D092
:102CD0005A46FFF789FD0028EDD0E968361B2144EC
:102CE000A344E960DDD1019803B0BDE8F08F05F1A0
:102CF0000802A96800F074FB0028DCD0286AAA68E2
:102D0000A0E75846FFF7AAF9B0FA80F04009E2E7D9
:102D10001C09FF1F4818FF1F4418FF1F8379012B50
:102D200017D930B5C36883B001220DF107010446FD
:102D3000C3F34315FFF756FF012802D0002003B06C
:102D400030BDE36804481F3300EB4510E36003B077
:102D500030BD0020704700BF4818FF1FF8B58379C9
:102D600013B182698A4201D20020F8BD022B0F46BE
:102D700005461AD007B32B6AE9681C7C4A1E04F189
:102D800009037C1EDA40DC40A24211D9EB69AB603A
:102D900005F1080606E0A968286A00F021FB013C5D
:102DA0000028E1D03246002CF5D1EF600120F8BDBB
:102DB0000029EBD0A41AEBE7AF60EF600120F8BD6B
:102DC00083790BB1FFF724BE184670478379012B36
:102DD00001D000207047F0B54579AC0783B00246BA
:102DE0001CD585698D420C4618D3D5B12546D668C9
:102DF0001446FFF7B3FF88B1B5B9E169206A00F066
:102E0000E1FB58B1E56122E000F0DCFB30B16FF08E
:102E10007042A168206A00F0C3FBC0B9002003B073
:102E2000F0BD184603B0F0BD01AAA168206A00F009
:102E3000D7FA0028F2D0206A0F4B90F82070019941
:102E40004FF6F872102F08BF13469942DCD363790E
:102E5000A279A56163F07F036371002ADED020466A
:102E6000FFF7D6FD0028D9D0B5422946204628BF15
:102E70003146FFF773FFD2E7F8FFFF0F70B51D4B28
:102E800003EB4116F37A13F0110F02D012F0420F48
:102E90001ED1194B01751B680361738BB18A43EA1C
:102EA0000141C161F37A13F01803154604460DD1B0
:102EB000F36983610123837105F00F0300216371BE
:102EC0006B06A160E1600FD4012070BD102B01D012
:102ED000002070BD00F11802006A00F0B9FA002865
:102EE000F6D00423A371E7E72046BDE87040FFF762
:102EF0006DBF00BF4818FF1F1C09FF1F2DE9F047D9
:102F000084B001AF06460C46104639469946FFF795
:102F100001FE78B30022216A316213461546A26091
:102F2000E260DFF8008108E0E52B1CD001460B22AF
:102F3000384606F069FF88B3E368A2699A421DD952
:102F40002046C3F3431AFFF7E9FE98B10378002B3C
:102F5000EAD15DB9D8F8003086F814A0336103785F
:102F600023B10125E8E7002DFBD1F3E709F01203B7
:102F7000122B1DD0002004B0BDE8F08709F0120329
:102F8000122BF7D1A5B9A379022BF3D02046FFF776
:102F90008BFD0028EED0214C357514E009F030038C
:102FA000302BE7D04A4651463046FFF767FFE2E74D
:102FB0000121306900F088F90028DBD0347D174BFF
:102FC00013EB4414D6D020220021204606F04EFFF9
:102FD00097E80700234603C3114923F8022B0D6825
:102FE000120C1A709DB104F10E0104F11000A847F3
:102FF000238AE28963822383E28200F025F9002894
:10300000B8D04A46317D3046FFF738FFB3E742F685
:1030100021034FF400622382E281EBE74818FF1F8F
:103020003C18FF1F1C09FF1F10B484791CB100203D
:103030005DF8044B70475DF8044BFFF75FBF00BFBE
:103040002DE9F04F8B46817985B001290746019221
:1030500005D001233B71002005B0BDE8F08F427917
:103060009107F6D5530708D5FC68B9698C4200F082
:10307000B480FFF773FE0028EBD0019BFC68002BA7
:103080004AD0DFF8A491DFF8A4A1DDF80480386A03
:103090000679013E06EA542616F0FF06C4F308043A
:1030A00043D1002C41D1B968002973D1FA69002AB3
:1030B00000F08380BA60C4F50075ADB245453AD9D9
:1030C000057C4169023AAA400E4416441FFA88F56D
:1030D0001CB9F868BA6990424FD23046012100F01D
:1030E000F3F80028B5D04C4404EB050E74450DD020
:1030F0000BF1FF31621E0EF1FF3611F8010F02F8DD
:10310000010F9642F9D1C4EB0E04A344FC68B8EB5E
:1031100005082C44FC60BAD1BB69A34262D27A791B
:10312000BC6142F080027A7165E0C4F50075ADB211
:103130004545BA68C4D8017C4069023A8A400644D1
:10314000B5F5007F1644C3D1DAF80020964204BFDB
:103150004FF0FF32CAF800202F4A10680278FE2A8A
:10316000314633D05A46FFF705FC00283FF471AFD3
:103170000BF5007B4FF40075C8E700F065F80028F8
:103180003FF467AF2549CAF800600A7842F00102AF
:103190000A70A8E703AA00F023F900283FF45CAF07
:1031A000386A1F4B90F82050039A4FF6F871102D93
:1031B00018BF19468A42FFF47DAF3846FFF75EFC20
:1031C00000283FF446AF386ABA6874E75846FEF7FD
:1031D000C7FFB0FA80F04009C7E7019B002B7FF4DE
:1031E00050AF08E00F4B7A791B6823B1019B13B1F4
:1031F00042F080027A71120709D5BB79002B3FF4A7
:1032000028AF3846FFF704FC00283FF422AF0198AE
:1032100005B0BDE8F08F00BF4418FF1F481AFF1F1C
:10322000F8FFFF0F3C18FF1F4818FF1F1C09FF1F66
:1032300000B583B002AB012203F8011D1946FFF768
:10324000FFFE03B05DF804FB70B51A4C23780BB990
:10325000012070BD184D194B286819680378FE2BA2
:1032600017D0174AFFF786FB88B1164E316819B997
:1032700000232370012070BD28680378FE2B0FD037
:103280000F4AFFF777FB10B100233360F0E700200F
:1032900070BD0B48FEF764FFB0FA80F04009E3E729
:1032A0000748FEF75DFFB0FA80F040090028EBD137
:1032B000EDE700BF481AFF1F4418FF1F1C09FF1F3E
:1032C0004818FF1F4018FF1F70B5124D2B6883422E
:1032D0000E4611D00446FFF7B7FF08B9002070BDB5
:1032E0000D4B18680378FE2B0CD00C4A2146FFF7D3
:1032F0007BFA0028F2D02C60094B19783143197001
:10330000012070BD21460548FEF7A8FEB0FA80F006
:103310004009EEE71C09FF1F4418FF1F4818FF1F54
:10332000481AFF1FF8B590F82030C469102B1A4BCB
:1033300005460E4617461B6816D004EBD1149C4276
:1033400016D106F07F06154A42F826701449287EE9
:103350000A78012842F001020A7018D9A968114AB6
:103360000B4413600120F8BD04EB11249C4208D0EB
:1033700000212046FFF7A8FF50B195F82030102B10
:1033800007D1F6B2054A234622F81670DEE701207F
:10339000F8BD2346D5E700BF1C09FF1F4818FF1FD3
:1033A000481AFF1F4018FF1F10B50446FFF74CFFD7
:1033B00078B1084B002103F5007203F8011F934216
:1033C000FBD1054A054913780C6043F001031370E3
:1033D000012010BD4718FF1F481AFF1F1C09FF1FBF
:1033E000C36801338B4218D370B590F82030102B8E
:1033F000154B044616460D46C0691B680FD000EBFE
:10340000D11098420FD105F07F01104B53F82130B5
:1034100023F070433360012070BD0020704700EB43
:103420001120984207D00021FFF74EFF50B194F8C9
:103430002030102BE7D1E9B2044B33F81130336060
:10344000012070BD002070BD1C09FF1F4818FF1F20
:103450002DE9F04782B002ADDFF8508045F8041D39
:10346000044691464FF0000A4FF400774FF6F87685
:103470000CE094F82030227C0199102B14BF4346B5
:10348000334607FA02F29942924408D22A4620466D
:10349000FFF7A6FF0028ECD102B0BDE8F0870120BD
:1034A000C9F800A002B0BDE8F08700BFF8FFFF0F29
:1034B0002DE9F04F176883B06FB301374FF0000A62
:1034C000C36803F1010813B38B46064691463C4698
:1034D000002505E01C461F46F3680135AB4216D9AE
:1034E000A04538BF0224214601AA304638BF2746EE
:1034F000FFF776FF631CD91B48B1019A002AE9D176
:103500008B4510D01C46F3680135AB42E8D800204B
:1035100003B0BDE8F08FA1F1010ABAFA8AFA076890
:103520004FEA5A1ACCE7012CF1D9F36801339C42D7
:10353000EDD86FF0704221463046FFF7F3FE0028C9
:10354000E5D0A74214D2013C012CE0D9F368013345
:103550009C42DCD8621C21463046FFF7E3FE00287F
:10356000D5D0A74204F1FF3402D0012CEED1CEE732
:10357000D9F8001059B10129C9D9F368013399422A
:10358000C5D83A463046FFF7CDFE0028BFD0C9F86F
:103590000070BAF1000F01D0013737600120B7E7A2
:1035A00001290CD9C3680133994210B403D85DF8DE
:1035B000044BFFF7B7BE00205DF8044B70470020B6
:1035C000704700BFF0B5022383B00546134F036078
:1035D0000C464FF6F8760FE0EB6801339C4216D8A4
:1035E000FFF7A0FE98B195F82030019C102B0CBF7E
:1035F00033463B469C420DD201AA21462846FFF79E
:10360000EFFE2146002210B1012C2846E4D800200C
:1036100003B0F0BD012003B0F0BD00BFF8FFFF0F05
:10362000F8B53E4B054619601446DAB1042A01D9B3
:103630000020F8BD00210846FFF746FE0028F7D01D
:10364000374B03EB041292F8AE215206F0D11B3433
:1036500003EB0414D4F80A30632BE9D9D4F80640FC
:10366000002CE5D000212046FFF72EFE0028DFD0F9
:103670002B4AB2F80B30B3F5007FD9D1117C002969
:10368000D6D0D389002BD3D0567B002ED0D00023A8
:1036900029762E712B74012703E009290B46297422
:1036A000C6D007FA03F0B04203F10101F5D1D68A82
:1036B0001B4906B94E6AB2F80EE0AE60A644C5F8E2
:1036C0001CE0B2F81110177C6984480106FB07E67C
:1036D00000F2FF1006EB60206E626861B2F8131012
:1036E0000F4E01B9316A241A0C4424FA03F340F650
:1036F000F4718B42EB600BD94FF6F4718B4285BFAE
:10370000D36A6B621023202385F820300120F8BD96
:103710000C2385F820300120F8BD00BF4418FF1F9E
:103720004818FF1F10B4047F4160022CC26003D010
:103730005DF8044B04F09CBA83685DF8044B1847AD
:10374000F0B4464B464A986B5C6B01791170454961
:1037500022790A701A6B00790870002A46D05968DD
:10376000C9688A423ED82168CC8B240402F1FF301C
:1037700065D4C0F30E00C883C88B80B2C882996B31
:103780000968C88B000452D4C2F30E00C883C88BEA
:10379000002480B212F1FF32C88218BF01221C63DC
:1037A000596B2E4809680D6800F12C04A54236D0EB
:1037B0000068C46814F0804F0C680D6815BF248839
:1037C00024780235013544F000440D604463996B60
:1037D000254B09791970214912B14A6B12791A7077
:1037E000F0BC7047521A1A630122D9E7D86B1968E6
:1037F00005681E4C0A63CC62CC682D681C4E24F010
:1038000080440327B542CC6083F82D701FD1037F1D
:103810004260022BC2601ED0F0BC04F029BA0168DD
:1038200090F82C00CC6840F000404863CFE7CC8B88
:10383000C2F3080004F47E442043C883A7E7CC8B7E
:10384000C0F3080004F47E442043C88394E72B4669
:103850001146F0BC18478368F0BC18476009FF1F89
:103860001F8000401C8000401B80004000000FFFB4
:1038700025370000F0B4464B464A986B5C6B0179E3
:103880001170454922790A701A6B00790870002A74
:1038900046D05968C9688A423ED82168CC8B240436
:1038A00002F1FF3065D4C0F30E00C883C88B80B22C
:1038B000C882996B0968C88B000452D4C2F30E0009
:1038C000C883C88B002480B212F1FF32C88218BFAF
:1038D00001221C63596B2E4809680D6800F12C0405
:1038E000A54236D00068C46814F0804F0C680D689B
:1038F00015BF248824780235013544F000440D605A
:103900004463996B254B09791970214912B14A6BAF
:1039100012791A70F0BC7047521A1A630122D9E763
:10392000D86B196805681E4C0A63CC62CC682D6898
:103930001C4E24F080440327B542CC6083F82D70E0
:103940001FD1037F4260022BC2601ED0F0BC04F086
:103950008FB9016890F82C00CC6840F000404863B3
:10396000CFE7CC8BC2F3080004F47E442043C88325
:10397000A7E7CC8BC0F3080004F47E442043C8833F
:1039800094E72B461146F0BC18478368F0BC1847F3
:10399000A009FF1F1F8000401C8000401B800040CA
:1039A00000000FFF25370000F0B4464B464A986BE5
:1039B0005C6B01791170454922790A701A6B0079A4
:1039C0000870002A46D05968C9688A423ED82168E2
:1039D000CC8B240402F1FF3065D4C0F30E00C88301
:1039E000C88B80B2C882996B0968C88B000452D416
:1039F000C2F30E00C883C88B002480B212F1FF32DC
:103A0000C88218BF01221C63596B2E4809680D68D3
:103A100000F12C04A54236D00068C46814F0804F31
:103A20000C680D6815BF248824780235013544F0F0
:103A300000440D604463996B254B09791970214945
:103A400012B14A6B12791A70F0BC7047521A1A639D
:103A50000122D9E7D86B196805681E4C0A63CC624D
:103A6000CC682D681C4E24F080440327B542CC60FE
:103A700083F82D701FD1037F4260022BC2601ED0DD
:103A8000F0BC04F0F5B8016890F82C00CC6840F068
:103A900000404863CFE7CC8BC2F3080004F47E44B7
:103AA0002043C883A7E7CC8BC0F3080004F47E440E
:103AB0002043C88394E72B461146F0BC184783681F
:103AC000F0BC18472009FF1F1F8000401C800040E9
:103AD0001B80004000000FFF2537000090E80C001D
:103AE000F0B41C6859682568164F174E29432160A9
:103AF000164D17491760D66015611160417A154A55
:103B00005C180C3194F82C4053F8215002EBC4019E
:103B100049680D60017A5C1803EB8101247ECD6950
:103B200002EBC40149680D60817A581803EB8103E8
:103B300090F84000596C02EBC002F0BC5368196069
:103B4000704700BF01401F000110003801100078CD
:103B500000001F8054D5000070B4417A44680E4BB9
:103B600005680E4E2144002291F82C1003EBC10190
:103B700049680A60017A2144097E03EBC101496862
:103B80000A60817A214491F8401003EBC1035B681D
:103B90001A602E6070BC704754D5000001401F00B1
:103BA0004268036805CA10B4046822430260DA68F8
:103BB00089B942F08072D9688A4209D019684804EC
:103BC0000CD40A48186042F08040DA60186119602D
:103BD0005DF8044B704722F08072ECE742F08041C0
:103BE000DA605DF8044B1961704700BF01401F00A7
:103BF0004268036805CA10B4046822430260D868AA
:103C0000840100F0E06205D5080900F4706021F439
:103C100070410143D8681143814209D01A685004A9
:103C200009D40848186041F08040D96018611A60D2
:103C30005DF8044B704741F08042D9605DF8044B59
:103C40001A61704701401F002DE9F047044684B017
:103C500008460D4606F0F4F9061FAB5D2A2B00F06E
:103C60003583C349284606F039FC0646002800F093
:103C700093812C21284606F05DF9451C284605F065
:103C8000A1FD51EC100B05F047FD07EE900AFCEE8C
:103C9000E77AB84AB84E17EE907AA2FB0712520B99
:103CA00042F2107303FB1273A6FB07E14909A6FB5E
:103CB000036364265B0906FB117122706370A170B7
:103CC00005F006FA9FEDA81B41EC100B04F0F4FE82
:103CD000AA4B002251EC100B05F04EFA05F0FCFC4B
:103CE0002C21E080284606F025F943782C2B8046CD
:103CF00000F101055AD0294602220DF1100901A850
:103D000006F05CFA4FF0000A01A809F80AAD05F0C8
:103D100061FD9B4F022207FB00F708F1030101A898
:103D200008F1060506F04AFA29460422484606F03C
:103D300045FA01A88DF80AA005F04CFD3221914BFF
:103D4000914ADFED926A9FED927A9FED926A01FBB4
:103D500000F082FB001283FB0731FB17A2EBE0703F
:103D6000C3EB613307EE903A05EE900AF8EEE77A7E
:103D7000F8EEE55A3844E5EEA67A2061C7EE876A88
:103D8000C4ED027AFDEEE66A16EE903A06FB03F603
:103D900007EE106AB8EEC77AF8EEE66A77EEC77AF1
:103DA00087EE867A77EE266AC4ED066A28462C21CD
:103DB00006F0C0F843782C2B00F1010208D0532BF9
:103DC00000F0CE824E2B40F0A6814E2384F838308E
:103DD00010462C2106F0AEF843782C2B054600F156
:103DE000010658D03146032201A806F0E7F94FF04A
:103DF000000801A88DF8078005F0ECFC604F022256
:103E000007FB00F7291D01A8EE1D06F0D7F9314682
:103E100004220DF1060006F0D1F901A88DF80A8000
:103E200005F0D8FC3221574B574A9FED587ADFED09
:103E3000586A9FED586A01FB00F082FB001283FB79
:103E40000731FB17A2EBE070C3EB613307EE903A4A
:103E500005EE900AF8EEE77AF8EEE55A6423E5EE0F
:103E6000877A3844606187EEA67AC4ED037ABDEEA6
:103E7000C77A17EE102A03FB02F306EE903AF8EE2B
:103E8000E66AB8EEC77A77EEE67AC7EE866A36EE6D
:103E9000877A84ED077A30462C2106F04BF8437878
:103EA0002C2B00F1010208D0572B00F06C82452B1F
:103EB00040F03181452384F8393010462C2106F03A
:103EC00039F843782C2B00F1010504D0284605F081
:103ED0007DFC84F83C0028462C2106F02BF8437822
:103EE0002C2B00F1010504D0284605F06FFC84F866
:103EF0003D0028462C2106F01DF843782C2B00F1BC
:103F0000010507D0284605F05DFC51EC100B05F0CB
:103F100003FC606328462C2106F00CF843782C2B18
:103F200000F1010507D0284605F04CFC51EC100BC0
:103F300005F0F2FB60622C21284605F0FBFF2C21E6
:103F4000013005F0F7FF43782C2B00F0BA810130E7
:103F500005F038FC51EC100B05F0DEFB012320626C
:103F6000184604B0BDE8F087000000000000F03FF4
:103F700088D200005917B7D11F85EB5100408F4000
:103F80008096980089B5F814565555559C53C936F6
:103F90000000C84200007042DF49284606F09EFA41
:103FA000002800F0B8802C21284605F0C3FF451CEE
:103FB000284605F007FC51EC100B05F0ADFB07EEB1
:103FC000900AFCEEE77AD54ADFF870E317EE901A14
:103FD000A2FB0132AEFB0137520B42F2107303FB1E
:103FE00012134FF0640CAEFB03E37F090CFB1711B7
:103FF0005B0922706370A17005F06AF89FEDC41B25
:1040000041EC100B04F058FDC54B002251EC100B95
:1040100005F0B2F805F060FB2C21E080284605F0A1
:1040200089FF4378412B00F09181562B73D184F89E
:104030003B6001302C2105F07DFF43782C2B054699
:1040400000F1010659D0314602220DF1100801A8F5
:1040500006F0B4F84FF0000901A808F80A9D05F031
:10406000B9FBB04F022207FB00F7E91C01A8AE1D07
:1040700006F0A4F831460422404606F09FF801A855
:104080008DF80A9005F0A6FB3221A74BA74A9FEDB9
:10409000A87ADFEDA86A9FEDA86A01FB00F082FB19
:1040A000001283FB0731FB17A2EBE070C3EB613317
:1040B00007EE903A05EE900AF8EEE77AF8EEE55A48
:1040C0006423E5EE877A3844206187EEA67AC4ED52
:1040D000027ABDEEC77A17EE102A03FB02F306EE52
:1040E000903AF8EEE66AB8EEC77A77EEE67AC7EE6F
:1040F000866A36EE877A84ED067A30462C2105F002
:1041000019FF43782C2B00F101021AD0532B07D052
:104110004E2B00F056810023184604B0BDE8F0870E
:10412000D4ED067AF1EE677AC4ED067A43784E2B29
:1041300000F04781532B02D02C2BECD1002384F8C4
:10414000383010462C2105F0F5FE43782C2B05461F
:1041500000F1010658D03146032201A806F02EF8DE
:104160004FF0000801A88DF8078005F033FB6D4F74
:10417000022207FB00F7291D01A8EE1D06F01EF81C
:10418000314604220DF1060006F018F801A88DF85A
:104190000A8005F01FFB654B63499FED657ADFEDF3
:1041A000656A9FED656A322202FB00F083FB0032F4
:1041B00081FB0731FB17A2EBE070C3EB613307EE25
:1041C000903A05EE900AF8EEE77AF8EEE55A6423A5
:1041D000E5EE877A3844606187EEA67AC4ED037A0B
:1041E000BDEEC77A17EE102A03FB02F306EE903AF3
:1041F000F8EEE66AB8EEC77A77EEE67AC7EE866A38
:1042000036EE877A84ED077A30462C2105F092FE4F
:1042100043782C2B00F101020ED0572B40F0C780C1
:10422000D4ED077AF1EE677AC4ED077A4378572B1D
:1042300040F0D38084F8393010462C2105F07AFE06
:1042400043782C2B00F1010507D0284605F0BAFA77
:1042500051EC100B05F060FAA06228462C2105F005
:1042600069FE43782C2B00F1010507D0284605F0A4
:10427000A9FA51EC100B05F04FFAE06228462C2108
:1042800005F058FE43782C2B1BD0013005F09AFA2C
:1042900051EC100B05F020FA204A284EA2FB003208
:1042A000520B42F21073A6FB001503FB12036D09BB
:1042B0006421A6FB036301FB15015B09E1706271D8
:1042C00023710123184604B0BDE8F087284410F894
:1042D000033C2F2B34D8002310F8022C2F2A3DD971
:1042E000392A37D8303AD2B2022E1A4409D90221DB
:1042F0000B46695C0133DBB24A409E4292B21946DA
:10430000F7D8002A3FF4ADAC05E700BFAFF300805B
:10431000000000000000F03F90D200005917B7D114
:1043200000408F408096980089B5F8145655555531
:104330009C53C9360000C842000070421F85EB51F3
:10434000392B2CD8303BDBB21B01C5E7012384F8A5
:104350003B306EE6A2F1410105292FD90022C3E7C7
:10436000D4ED067AF1EE677AC4ED067A43784E2BE7
:104370003FF42BAD532B03D02C2B7FF4CCAE00237A
:1043800084F8383024E5D4ED077AF1EE677AC4ED8D
:10439000077A4378572B18D184F839308DE5A3F18B
:1043A0004102052A97D8373BDBB21B0194E7452B26
:1043B0007FF4B1AE452384F839303DE7373AD2B2C5
:1043C00092E74E2384F83830BBE6452B3FF472ADBC
:1043D0002C2B7FF4A0AE0023DEE7452BEAD02C2B5C
:1043E0007FF499AE002325E770B590F84A500DB1DF
:1043F000002070BD0446C06C03681B699847002804
:10440000F6D0E06C03685B699847C0B20A280FD009
:10441000144B154A1C681378134DDBB2591CC9B2F2
:104420001170E0541378772B84BF77232B7070BD05
:104430000D4A0C4B11781E680C4CC9B275541968A2
:10444000A14209D00A490B4D1C600D600A4B0025A2
:10445000012115701970DEE7054D064C1C602960BE
:10446000F4E700BF4C1AFF1F501AFF1F541AFF1F1A
:10447000481BFF1FCC1AFF1F441BFF1FF0B4164B35
:10448000164E174F174A1A60174DC16400220024B8
:104490003270164E3A702E6044630463C4628462C4
:1044A00044620462C460846080F84A2080F83D2041
:1044B00080F83C2042710271C270827042700270BA
:1044C00080F83A2080F8392080F8382080F83B20A6
:1044D000C280F0BC704700BF4C1AFF1F441BFF1F77
:1044E000501AFF1F541AFF1F481BFF1FCC1AFF1F33
:1044F00008B5C06C0368DB6998470A20BDE808402E
:1045000001F0BABF38B5C46C08460D4605F098FDF9
:104510002368024629465B68204698472046BDE846
:10452000384003F0A5BD00BF014B1878704700BFAD
:10453000441BFF1F024A034B00211170186870478B
:10454000441BFF1F481BFF1F0120704781717047EC
:1045500041717047C1727047017370474173704772
:10456000837B23EA0202114381737047C07970474D
:10457000007A7047407A7047807A70470020704711
:1045800010B5044601E003F0B7FE236820465B68DF
:1045900098470028F7D010BDF0B5104D83B02B68B8
:1045A0000093009F2B680193019BDB1B8B4212D26F
:1045B0000E46044607E003F09FFE2B680193019B23
:1045C000DB1BB34207D2236820465B68984700286C
:1045D000F1D003B0F0BD002003B0F0BD341CFF1FCC
:1045E0000379032B08D110B5044603F085FE237927
:1045F000032BFAD0012010BD01207047F0B50F4EFB
:1046000083B033680093009F33680193019BDB1BE9
:104610008B4210D205460C4607E003F06DFE33686E
:104620000193019BDB1BA34205D22B79032BF4D012
:10463000012003B0F0BD002003B0F0BD341CFF1F0B
:10464000064A0260FF2100220271427302828273D5
:10465000428241718282C172017370470CD30000A3
:10466000704700BF704700BF704700BF704700BF72
:1046700041717047817170470171704730B4034DCB
:10468000056001714271837130BC704764D30000D2
:10469000054B1A684FF00043D3625163D36A002B75
:1046A000FCDA906BC0B27047A009FF1F704700BFD3
:1046B00030B41D4B8268D97A01B372B6D87AC50777
:1046C000014606D5194CD96825682940D961216071
:1046D0000146840706D5164C18692568D97A284002
:1046E00018622060480706D5124C58692568D97AA7
:1046F00028405862206009070ED462B61B68D9684A
:10470000914207D00C4818600C49DA6042F08040B2
:104710001861196030BC70470948996904682140E4
:1047200099620160E9E700BFA009FF1F80E100E096
:1047300084E100E088E100E001403F0000003F80AC
:104740008CE100E00148FFF707BA00BFA009FF1F96
:104750000D4AD37A1946B3B1D80703D50B49D069AE
:10476000086019469B0703D5094B106AD17A186077
:10477000480703D5074B506AD17A18600B0702D55A
:10478000054B926A1A607047A009FF1F00E100E024
:1047900004E100E008E100E00CE100E082792DE9AD
:1047A000F04104464AB1012A00F09680022A00F046
:1047B000A680032A00F093800022154672497348B0
:1047C0000B6843F480530B60C368990167D423F0EE
:1047D00080636E49C868834203D00868470466D581
:1047E000CB602379042B6CD0032B6FD0022B70D0BD
:1047F00067496848012B14BF8E46864694F805C069
:104800006549DFF8C081BCF1010F0CBF4FF0645661
:104810004FF06056002702E0172808D0074631F80D
:10482000023F98FBF3F39E4507F10100F4D30DB16D
:1048300046F08066594B53F827303AB11A0902F412
:10484000706223F4704346F00076134333431CF147
:10485000FF31A36018BF01215148FFF7A1F9237967
:10486000013BDBB2032B74D84E4AD35C042B56D0E9
:10487000002B37D0052B5FD0012B6AD0062B75D0CB
:10488000022B3FD048494648FFF7B2F94448FFF7AA
:1048900025F945494248BDE8F041FFF7A9B923F0A1
:1048A000C06323F47F43190389B20B4391E740F4BB
:1048B000804646F001060E60CB6023790860042B29
:1048C00092D194F805C0DFF800E199E7DFF8FCE049
:1048D00094E7DFF8FCE091E7042200256EE704226C
:1048E00008256BE731492E48FFF782F92C48FFF77E
:1048F000F5F82E492A48BDE8F041FFF779B90022C2
:1049000008255BE72A492648FFF772F92448FFF794
:10491000E5F827492248BDE8F041FFF769B9254984
:104920001F48FFF765F91E48FFF7D8F821491C48D2
:10493000BDE8F041FFF75CB91F491948FFF758F986
:104940001748FFF7CBF81C491548BDE8F041FFF7C1
:104950004FB91A491248FFF74BF91148FFF7BEF853
:1049600016490F48BDE8F041FFF742B914490C4819
:10497000FFF73EF90A48FFF7B1F811490848BDE8CA
:10498000F041FFF735B900BF3C80044000C0024051
:1049900040420F0080841E0066D100002CD200002F
:1049A000A009FF1F8CD300000870003803200038D6
:1049B00007600038000002B80430003805400038B5
:1049C00006500038008793030024F40000127A0098
:1049D00000093D0010B5064C00231A461946204632
:1049E000FFF74CFE034A044B2260A36010BD00BFDA
:1049F0004C1BFF1F98D3000003200038054B1A689A
:104A00004FF00043D3625163D36A002BFCDA906B02
:104A1000C0B270476009FF1F704700BF30B41D4B24
:104A20008268D97A01B372B6D87AC507014606D52D
:104A3000194CD96825682940D9612160014684074D
:104A400006D5164C18692568D97A28401862206066
:104A5000480706D5124C58692568D97A284058620B
:104A6000206009070ED462B61B68D968914207D04E
:104A70000C4818600C49DA6042F0804018611960F7
:104A800030BC704709489969046821409962016007
:104A9000E9E700BF6009FF1F80E100E084E100E07A
:104AA00088E100E001403F0000003F808CE100E031
:104AB0000148FFF751B800BF6009FF1F0D4AD37AC4
:104AC0001946B3B1D80703D50B49D0690860194618
:104AD0009B0703D5094B106AD17A1860480703D5A4
:104AE000074B506AD17A18600B0702D5054B926AC2
:104AF0001A6070476009FF1F00E100E004E100E078
:104B000008E100E00CE100E082792DE9F041044683
:104B10004AB1012A00F09680022A00F0A680032AFA
:104B200000F0938000221546724973480B6843F4E5
:104B300080530B60C368990167D423F080636E498A
:104B4000C868834203D00868470466D5CB602379E0
:104B5000042B6CD0032B6FD0022B70D067496848B0
:104B6000012B14BF8E46864694F805C06549DFF8D0
:104B7000C081BCF1010F0CBF4FF064564FF060567E
:104B8000002702E0172808D0074631F8023F98FBBB
:104B9000F3F39E4507F10100F4D30DB146F08066B2
:104BA000594B53F827303AB11A0902F4706223F4D2
:104BB000704346F00076134333431CF1FF31A3608A
:104BC00018BF01215148FEF7EBFF2379013BDBB20F
:104BD000032B74D84E4AD35C042B56D0002B37D00D
:104BE000052B5FD0012B6AD0062B75D0022B3FD04E
:104BF00048494648FEF7FCFF4448FEF76FFF454929
:104C00004248BDE8F041FEF7F3BF23F0C06323F450
:104C10007F43190389B20B4391E740F4804646F085
:104C200001060E60CB6023790860042B92D194F8C2
:104C300005C0DFF800E199E7DFF8FCE094E7DFF872
:104C4000FCE091E7042200256EE7042208256BE7CB
:104C500031492E48FEF7CCFF2C48FEF73FFF2E4986
:104C60002A48BDE8F041FEF7C3BF002208255BE7F4
:104C70002A492648FEF7BCFF2448FEF72FFF2749A4
:104C80002248BDE8F041FEF7B3BF25491F48FEF7B3
:104C9000AFFF1E48FEF722FF21491C48BDE8F04146
:104CA000FEF7A6BF1F491948FEF7A2FF1748FEF7F7
:104CB00015FF1C491548BDE8F041FEF799BF1A4998
:104CC0001248FEF795FF1148FEF708FF16490F48F6
:104CD000BDE8F041FEF78CBF14490C48FEF788FF91
:104CE0000A48FEF7FBFE11490848BDE8F041FEF70F
:104CF0007FBF00BF3C80044000C0024040420F0024
:104D000080841E0066D100002CD200006009FF1FC5
:104D1000C0D3000008700038032000380760003856
:104D2000000002B804300038054000380650003852
:104D3000008793030024F40000127A0000093D006C
:104D400010B5064C00231A4619462046FFF796FC7C
:104D5000034A044B2260A36010BD00BF581BFF1F15
:104D6000CCD3000003200038054B1A684FF00043F5
:104D7000D3625163D36A002BFCDA906BC0B27047E8
:104D80002009FF1F704700BF30B41D4B8268D97ADD
:104D900001B372B6D87AC507014606D5194CD96851
:104DA00025682940D96121600146840706D5164C43
:104DB00018692568D97A284018622060480706D506
:104DC000124C58692568D97A284058622060090732
:104DD0000ED462B61B68D968914207D00C4818609F
:104DE0000C49DA6042F080401861196030BC7047AD
:104DF000094899690468214099620160E9E700BFA8
:104E00002009FF1F80E100E084E100E088E100E08C
:104E100001403F0000003F808CE100E00148FEF7C8
:104E20009BBE00BF2009FF1F0D4AD37A1946B3B1BC
:104E3000D80703D50B49D069086019469B0703D5ED
:104E4000094B106AD17A1860480703D5074B506A9E
:104E5000D17A18600B0702D5054B926A1A60704729
:104E60002009FF1F00E100E004E100E008E100E0AC
:104E70000CE100E082792DE9F04104464AB1012AB3
:104E800000F09680022A00F0A680032A00F09380AA
:104E900000221546724973480B6843F480530B6037
:104EA000C368990167D423F080636E49C868834260
:104EB00003D00868470466D5CB602379042B6CD0F7
:104EC000032B6FD0022B70D067496848012B14BFA9
:104ED0008E46864694F805C06549DFF8C081BCF16E
:104EE000010F0CBF4FF064564FF06056002702E0F0
:104EF000172808D0074631F8023F98FBF3F39E4588
:104F000007F10100F4D30DB146F08066594B53F818
:104F100027303AB11A0902F4706223F4704346F064
:104F20000076134333431CF1FF31A36018BF012106
:104F30005148FEF735FE2379013BDBB2032B74D8D1
:104F40004E4AD35C042B56D0002B37D0052B5FD0B4
:104F5000012B6AD0062B75D0022B3FD0484946481A
:104F6000FEF746FE4448FEF7B9FD45494248BDE814
:104F7000F041FEF73DBE23F0C06323F47F431903E5
:104F800089B20B4391E740F4804646F001060E607B
:104F9000CB6023790860042B92D194F805C0DFF828
:104FA00000E199E7DFF8FCE094E7DFF8FCE091E747
:104FB000042200256EE7042208256BE731492E48BC
:104FC000FEF716FE2C48FEF789FD2E492A48BDE85B
:104FD000F041FEF70DBE002208255BE72A4926486E
:104FE000FEF706FE2448FEF779FD27492248BDE872
:104FF000F041FEF7FDBD25491F48FEF7F9FD1E48AB
:10500000FEF76CFD21491C48BDE8F041FEF7F0BDFC
:105010001F491948FEF7ECFD1748FEF75FFD1C49D4
:105020001548BDE8F041FEF7E3BD1A491248FEF706
:10503000DFFD1148FEF752FD16490F48BDE8F0416B
:10504000FEF7D6BD14490C48FEF7D2FD0A48FEF71C
:1050500045FD11490848BDE8F041FEF7C9BD00BF54
:105060003C80044000C0024040420F0080841E008B
:1050700066D100002CD200002009FF1F24D40000BC
:10508000087000380320003807600038000002B8BC
:10509000043000380540003806500038008793037C
:1050A0000024F40000127A0000093D0010B5064CFF
:1050B00000231A4619462046FFF7E0FA034A044B3C
:1050C0002260A36010BD00BF641BFF1FFCD3000063
:1050D0000320003810B5044680690368DB689847F0
:1050E000207F012101F0C2F9207F012101F0B8F9F0
:1050F000642001F0C1F9012010BD00BF70B5044665
:105100000D461646FFF79CFA024B2577A6612360F1
:10511000204670BD30D4000070B504460E46EFF353
:10512000108572B6BFF35F8FBFF34F8FBFF36F8FE2
:10513000806903681B6A9847207F002101F090F97D
:10514000A069036806F07F011B689847A06903689F
:1051500000211B68984701210646207F01F080F955
:10516000A06903685B6A984785F31088BFF35F8F77
:10517000BFF34F8FBFF36F8FBFF35F8FBFF34F8FBF
:10518000BFF36F8F304670BDF8B504460E46174624
:10519000EFF3108572B6BFF35F8FBFF34F8FBFF38E
:1051A0006F8F806903681B6A9847207F002101F098
:1051B00057F9A069036846F080011B6898470646C6
:1051C000A069036839461B689847207F012101F0D8
:1051D00047F9A06903685B6A984785F31088BFF3B5
:1051E0005F8FBFF34F8FBFF36F8FBFF35F8FBFF33F
:1051F0004F8FBFF36F8F3046F8BD00BF2DE9F843E6
:1052000005460E4614469946EFF3108772B6BFF373
:105210005F8FBFF34F8FBFF36F8F806903681B6A87
:105220009847287F002101F01BF9A869036806F060
:105230007F011B6898478046B9F1000F0DD009F136
:10524000FF36F6B22644013CA869036800211B68BA
:10525000984704F8010FB442F6D10121287F01F0EC
:10526000FFF8A86903685B6A984787F31088BFF363
:105270005F8FBFF34F8FBFF36F8FBFF35F8FBFF3AE
:105280004F8FBFF36F8F4046BDE8F8832DE9F84399
:1052900005460E4614469946EFF3108772B6BFF3E3
:1052A0005F8FBFF34F8FBFF36F8F806903681B6AF7
:1052B0009847287F002101F0D3F8A869036846F0D9
:1052C00080011B6898478046B9F1000F0CD009F1A6
:1052D000FF36F6B22644013CA86914F8011F0368A2
:1052E0001B689847B442F7D10121287F01F0B8F834
:1052F000A86903685B6A984787F31088BFF35F8FDC
:10530000BFF34F8FBFF36F8FBFF35F8FBFF34F8F2D
:10531000BFF36F8F4046BDE8F88300BFFB207047A6
:10532000172938B505460FDC0429D8BF802418DCBE
:1053300004224D212846FFF727FF2246284609214F
:10534000BDE83840FFF720BF8F2407224D212846B3
:10535000FFF71AFF224628460921BDE83840FFF72B
:1053600013BF142905DDCCB2083C64F07F04E4B21D
:10537000EBE74C1F64F07F04E4B2D9E710B50423D7
:105380000446052201210371FFF7FEFE204600229C
:105390004021BDE81040FFF7F7BE00BF0279032AA5
:1053A0000AD00379042B10B5044601D0FFF7E6FFBD
:1053B00094F81F01C0B210BD0020704710B5032241
:1053C000027101210446FFF7DFFE4022204611460C
:1053D000BDE81040FFF7D8BE10B5012204461146C3
:1053E000FFF7D2FE0223237110BD00BFFB2A01D9B3
:1053F00000207047036870B504469B690E46154649
:1054000098472379022B02D02046FFF7E5FF0022C0
:105410000D212046FFF7B8FEE27A00212046FFF773
:10542000B3FE227B00212046FFF7AEFE627B002107
:105430002046FFF7A9FEA27B00212046FFF7A4FE2D
:105440002B46324600212046FFF720FF2A1DD2B20C
:1054500022212046FFF798FE2379032B04D0204613
:10546000FFF7ACFF012070BD012070BD0279012A59
:1054700009D010B5002204460121FFF785FE012363
:105480002371012010BD0120704700BF38B50446CC
:1054900015461A46FFF732FEFF23044965770022BE
:1054A000A377216084F81F21204638BD94D40000E2
:1054B000C37F032B16D9837990F8221090F823200C
:1054C00030B490F8205090F82140C57104724172B8
:1054D000827243B1438A01339BB20122438280F836
:1054E0001F2130BC7047C37942799A42F2D0C37908
:1054F000FF2BF6D1EEE700BF38B504461221FFF7C7
:105500000BFE2379042B0CD02379042B1ED0237996
:10551000032B0ED02046FF221221BDE83840FFF7B2
:1055200033BE10F0A00FEFD0238A01339BB2238249
:10553000F0E70307EED5A38A01339BB2A382237958
:10554000022BE7D02046FFF747FFE3E74206DED510
:1055500013212046FFF7E0FD102105462046FFF706
:10556000DBFD0D2102462046FFF70EFE2B4604F11F
:10557000200200212046FFF741FEFF221221E5779D
:105580002046FFF701FE1A212046FFF7C5FD7730C0
:1055900040B2E0732046FFF78BFF94F81F31002BD9
:1055A000B8D02379022BCDD1B4E700BF024B1868E5
:1055B00008B1FFF7A1BF7047701BFF1F024B58686F
:1055C00008B1FFF799BF7047701BFF1F024B986827
:1055D00008B1FFF791BF7047701BFF1FEFF31083F7
:1055E00072B6BFF35F8FBFF34F8FBFF36F8F002291
:1055F00080F81F21C27783F31088BFF35F8FBFF35A
:105600004F8FBFF36F8FBFF35F8FBFF34F8FBFF32A
:105610006F8F704703682DE9F0415B680446884648
:1056200017469847064658B3B8F1000F25D027B360
:10563000EFF3108572B6BFF35F8FBFF34F8FBFF3E9
:105640006F8FE37F3A78033B934203DCE37F043BB5
:10565000DAB23A70404604F1240100F00FFD85F300
:105660001088BFF35F8FBFF34F8FBFF36F8FBFF310
:105670005F8FBFF34F8FBFF36F8F2046FFF7AEFFF3
:105680003046BDE8F08100BFDFED0F7A9FED0F7A65
:1056900020EE270A38B5C0EE077A05460621FCEE53
:1056A000E77A17EE904AC4F30742FFF76DFDC4F3A3
:1056B000072228460721FFF767FDE2B228460821A6
:1056C000FFF762FD012038BD0024744900247442B4
:1056D00038B50C4605460A781D21FFF755FD62785E
:1056E00028461E21FFF750FDA27828462621BDE856
:1056F0003840FFF749BD00BF38B50A0A0C460546D9
:105700002021FFF741FDE2B228462121BDE83840C3
:10571000FFF73ABD70B582B00546FFF7DBFC10B16C
:105720006E7F3F2E03D90024204602B070BD802238
:10573000012104462846FFF727FD0A2000F09CFEC1
:1057400001212846FFF7E8FC8028ECD10021687F82
:1057500000F08CFEAB7FFF2B3BD0254A42F8235054
:105760008BB3012B3DD0022BDDD1304603222149E2
:1057700000F0E8FD00220E212846FFF705FD00227B
:105780000F212846FFF700FD2B79022B02D0284677
:10579000FFF722FE184B1B68ADF8043001A91B0C63
:1057A00028468DF80630FFF793FF08212846FFF7BB
:1057B000A3FF9FED120A2846FFF766FF28460D213A
:1057C000FFF7AEFDB0E7304603220D4900F0BAFD09
:1057D000D0E70C4A1378032BA5D8591CAB7711706E
:1057E000BBE730460322084900F0ACFDC2E700BF2A
:1057F000701BFF1FCD55000080D400000000D9436E
:10580000AD5500007C1BFF1FBD55000072B616E0B1
:1058100072B618E072B6224800680121016006E005
:1058200072B61EF10F0F38D01EF11F0F35D01D4874
:105830000168002903D0A1F1010101602DE01A489F
:105840000068012829D119480068A0E8F04FA0ECB1
:10585000200AF1EE101A02C015480068002803D192
:10586000EFF309801349086000F064F90F480068FD
:10587000B0E8F04FB0EC200A02C8E1EE101A0EF0CA
:10588000100E6EF0160E0A480068002805D109486F
:10589000006880F309884EF0040E62B6704700007D
:1058A000E41BFF1FA01BFF1F9C1BFF1F801BFF1F74
:1058B000841BFF1FA41BFF1F064B1B681BB11FB5DA
:1058C0009847BDE81F40044B1B680BB1FFF7A8BF0A
:1058D000704700BF941BFF1F981BFF1F0F4B1B68D7
:1058E0001BB11FB59847BDE81F401EF0040F0CBF49
:1058F000EFF30880EFF30980836913F8023C212B52
:1059000008D0222B00D07047054B01221A60FFF708
:105910007FBF7047FFF77ABF704700BFE01BFF1FD4
:105920009C1BFF1F30B472B60A4902250B680D603C
:1059300062B6094AD46810690634013852F8244026
:105940001061C4F8B45072B65A1C08BF01230B6032
:1059500062B6FEE79C1BFF1FA81BFF1F10B5044685
:1059600002F01AFB204610BD024B1B680222C3F84E
:10597000B4207047881BFF1FF8B504460346002279
:105980000A214FF480654FF42050A16025606060CB
:10599000E260226143F8142F04F1340143F8042F2C
:1059A0008B424FF00005F9D1C42002F047FB294695
:1059B000C42206461B4F04F059FA61681A4A3E6039
:1059C000521A1A4F1A4B316072601A49DFF884E09C
:1059D000A66106F10C023A600122D86AC6F8B450FA
:1059E0000A60C6F8B420CEF80020134ADFF868C079
:1059F000A168C6F8C0109042104A114FCCF80010B0
:105A0000104918BF10604FF003060F4808BF15601B
:105A10003D600E60DD6B0D490D4A0560D962204680
:105A2000DA63F8BD881BFF1F00000320801BFF1FE7
:105A30000002FF1F841BFF1FF9610000E01BFF1F16
:105A4000A41BFF1F9C1BFF1F941BFF1FDD580000A2
:105A5000B9580000981BFF1FA01BFF1FC168F0B5BD
:105A60008B1D2F4E50F823303268C3F8BC2083B012
:105A70002C4F31B13A68D2F8BC3052689B1A082BCF
:105A800042DD00F11404002202E00132082A1AD09B
:105A900054F8043F8D1D002BF7D050F82550D5F851
:105AA000B450012DF1D1D3F8B850002DEDD01E4CDB
:105AB000D3F8C050C2600021B2FA82F252092560C8
:105AC000C3F8B81015E0CA1D00EB820201310729A6
:105AD00020DC52F8043B002BF8D0D3F8B440012C62
