:1000000000000320D1010000C1510000795100001F
:1000100079510000795100007951000079510000B8
:10002000795100007951000079510000C151000060
:10003000C151000079510000C16C0000C56D000085
:10004000C1510000C1510000C1510000C151000068
:10005000C1510000C1510000C1510000C151000058
:10006000C1510000C1510000C1510000C151000048
:10007000C1510000C1510000C1510000C151000038
:10008000C1510000C1510000C1510000C151000028
:10009000C1510000C1510000C1510000C151000018
:1000A000C9100000D5100000C1510000C15100006E
:1000B000C1510000C1510000C15100009174000005
:1000C000C1510000BD750000C1510000E97600007B
:1000D000C1510000E1770000C1510000C151000092
:1000E000C1510000C1510000C1510000C1510000C8
:1000F000C1510000C1510000C1510000C1510000B8
:10010000696F00007D6F0000916F0000A56F000017
:10011000C1510000CD5C0000C1510000C151000080
:10012000C1510000C1510000C1510000C151000087
:10013000C1510000C1510000C1510000C151000077
:10014000C1510000C1510000415A0000C1510000DE
:10015000C1510000C1510000C1510000C151000057
:10016000C1510000C1510000E1100000C151000068
:10017000C1510000C1510000C1510000C151000037
:10018000C1510000C1510000C1510000C151000027
:10019000C1510000C1510000D9780000C1510000D8
:1001A000C1510000C1510000C1510000C151000007
:1001B000C1510000C1510000C1510000C1510000F7
:1001C000C1510000C1510000C1510000C1510000E7
:1001D0005C4B4CF2205210B51A804DF628121A8052
:1001E00000BF00BF04F0F0FF574B4FF030621A60C1
:1001F000564A9A60564ADA60564B4FF470021A60BB
:10020000554B564A1A60564A136813F4807304D14A
:1002100054490B604FF4A8531360534B1A781107DD
:1002200003D51A7842F008021A70504B5049AA229E
:100230001A70504A504B8B4204D252F8040F43F8C4
:10024000040BF8E74D4B4E4900228B4202D243F893
:10025000042BFAE74B494C4A002352F8230041F89B
:1002600023000133742BF8D1484B494A802103F80D
:10027000011B9342FBD1474B424A1A60464B8A22EC
:100280001A70A3F5805324225A70A0221A709A790A
:100290009207FCD59A79D406FCD4404A937903F0AE
:1002A0000C03082BFAD13E4B60221A7002331A78E5
:1002B000802AFCD1394B01221A715D225A719A7938
:1002C0009006FCD59979354A4906FBD5354B364918
:1002D00019600021596020231370937903F00C03F7
:1002E0000C2BFAD1314B324A1A60324B324A1A6027
:1002F00000225A60072243F8042C304AC3F80C2D20
:1003000062B605F0A5F8174B1B68DA0705D52C482F
:1003100005F02EF82B4B2C4A1A602C4B1B785B06F1
:1003200009D5284C284B22689A4204D1244805F06C
:100330001FF80023236008F02BFA04F04BFF06F0AF
:100340003BFEFEE70E20054030800440823F040063
:100350000100002B88ED00E0002008E0030000858C
:1003600010D0034014D0034002D0074000E0074003
:10037000C813FF1F90C900003007FF1FC813FF1FDD
:100380000C1DFF1F0002FF1F0000000000E400E042
:1003900064E400E008ED00E0005006400040064044
:1003A00001E007404480044000000602048004404D
:1003B000C010070014E000E01FBF02000000202072
:1003C0009FD7B75B1CE00340A5C3945A00F00740D9
:1003D000FFFFFFFFFFFFFFFFFFFFFFFFFFFFFFFF2D
:1003E000FFFFFFFFFFFFFFFFFFFFFFFFFFFFFFFF1D
:1003F000FFFFFFFFFFFFFFFFFFFFFFFFFFFFFFFF0D
:10040000FFFFFFFFFFFFFFFFFFFFFFFFDEF9FFFF23
:1004100010B5054C237833B9044B13B10448AFF33E
:1004200000800123237010BDC813FF1F00000000CF
:1004300094C90000084B10B51BB108490848AFF338
:1004400000800848036803B910BD074B002BFBD0A0
:10045000BDE81040184700BF00000000CC13FF1F8C
:1004600094C90000C813FF1F0000000010B5404CE5
:1004700040F6B831204604F0EFFC20463D494FF4E9
:10048000E13204F0C3FC2046012104F099FC00286D
:100490005FD101220021364804F0A6FD012124206D
:1004A00004F07EFF1721344806F0A4FAFE213348F9
:1004B00000F052FF002843D01121314806F09AFA8B
:1004C0002C4806F097FD08E02E4806F093FA2948DC
:1004D00006F090FD642004F069FF2B492B4800F0E2
:1004E00055FE1F210028EFD04FF41651284803F085
:1004F00053FD2849264803F059FD2749244803F0B5
:1005000055FD2649224803F051FD4FF47A7004F05E
:100510004DFF0B21224805F0F1F9224806F06AFD53
:100520000821214806F066FA124806F063FD0A2108
:100530001E4806F05FFA0F48BDE8104006F05ABDAD
:100540001B211B4806F056FA0A48BDE8104006F089
:1005500051BD606C1749036811225B6898472046BB
:100560000A2104F01BFC204604F04EFC91E700BF7A
:100570005418FF1F6809FF1F4CBC00004C14FF1FDC
:1005800080BC000094BC0000A007FF1F3414FF1FB4
:10059000E413FF1FB4BC0000E8BC0000FCBC00007A
:1005A0000CBD00004809FF1F18BD000024BD00005D
:1005B00064BC000038BC000008B5084803F068FCC3
:1005C000064803F005FD00B908BD044803F006FD28
:1005D000BDE808400146014803F08AB8E413FF1F54
:1005E00010B5614C6148072106F004FA2178604893
:1005F00000230A2206F00EFD3A2006F07FFA617809
:100600005B4800230A2206F005FD3A2006F076FA40
:1006100000230A22A178564806F0FCFC2E2006F0A2
:100620006DFAE188524806F035FD514806F0E2FCCB
:100630000621504806F0DEF961794D4800230A2270
:1006400006F0E8FC2F2006F059FA00230A2221794F
:10065000474806F0DFFC0321474806F0CBF90023AA
:100660000A22E178424806F0D5FC414806F0C2FC77
:100670000521424806F0BEF994F83B103C4806F0CC
:1006800009FD0A213E4806F0B5F994F83C103848B7
:1006900006F000FD364806F0ADFC94F83B3003B997
:1006A00010BD0A21374806F0A5F9A06807F0DEFC66
:1006B00041EC100B04212E4806F0F6FC94F83800AB
:1006C00006F01CFA0221304806F094F9E06807F0C1
:1006D000CDFC41EC100B0421254806F0E5FC94F814
:1006E000390006F00BFA224806F084FC0F21274857
:1006F00006F080F9A06A07F0B9FC41EC100B02216A
:100700001B4806F0D1FC1A4806F074FC072120486B
:1007100006F070F9E06A07F0A9FC41EC100B022129
:10072000134806F0C1FC124806F064FC0A2119487F
:1007300006F060F9606A07F099FC41EC100B0221A9
:100740000B4806F0B1FC0A4806F054FC0C21124894
:1007500006F050F994F83D10054806F09BFC04485B
:10076000BDE8104006F046BCE413FF1F40BD00008A
:100770006809FF1F48BD000050BD000054BD0000C7
:100780005CBD000068BD000074BD000078BD0000C5
:1007900088BD000090BD00009CBD000000B5084968
:1007A000084883B003F0BEFB074A084B1268019269
:1007B000019A07481A6000F099FC03B05DF804FB49
:1007C0004809FF1FE413FF1FA018FF1F3C14FF1F61
:1007D0003414FF1F30B589B00246132368466D49B3
:1007E00000F066FE684600F0AFFD054660B91A21CC
:1007F000694806F0FFF8694806F0FCFB684600F01F
:1008000093FD284609B030BD654C002361790A226A
:10081000684606F0FFFB2F21684600F0E5FC2179D1
:1008200000230A22684606F0F5FB03225D4968466C
:1008300000F0F2FCE17800230A22684606F0EAFBA9
:1008400001225949684600F0E7FC217800230A227A
:10085000684606F0DFFB3A21684600F0C5FC617887
:1008600000230A22684606F0D5FB3A21684600F0CC
:10087000BBFC0023A1780A22684606F0CBFB0122CC
:100880004949684600F0C8FCA06807F0EFFB41EC5E
:10089000100B0421684606F007FC94F838106846EF
:1008A00000F0A2FC01224049684600F0B5FCE06877
:1008B00007F0DCFB41EC100B0421684606F0F4FB6A
:1008C00094F83910684600F08FFC684606F092FBF9
:1008D00001223549684600F09FFC606A07F0C6FBBC
:1008E00041EC100B0221684606F0DEFB01222E4986
:1008F000684600F091FC2D4B186807F0B7FB41ECFF
:10090000100B0221684606F0CFFB012226496846FB
:1009100000F082FC264B186807F0A8FB41EC100B96
:100920000221684606F0C0FB01221F49684600F01C
:1009300073FC94F83B10684606F0ACFB01221A49A0
:10094000684600F069FC94F83C10684606F0A2FB8B
:1009500001221549684600F05FFC94F83D10684696
:1009600006F098FB01221349684600F055FC6846E2
:1009700006F040FB684600F0D9FC0A210E4806F05C
:1009800039F8064806F036FB684600F0CDFC2846EC
:1009900009B030BD4C14FF1FC0BD00006809FF1F27
:1009A000E413FF1F50BD0000ACBD00004414FF1F46
:1009B0004014FF1FB0BD0000B4BD000000B585B0FD
:1009C000FFF7FAFD154B16491A68009200980A685D
:1009D000824203D91A680192019A0A601B68029345
:1009E000029B0E489B1AB3F57A7F0FD903680393D5
:1009F000039B0C480B60FFF7EDFEFFF7F1FD212193
:100A0000094805F0F7FF094806F0F4FA012124200F
:100A100004F0C0FC05B05DF804FB00BFA018FF1F88
:100A20003C14FF1FDCBD0000E4BD00006809FF1F8F
:100A30000020704790F8392090F83800101A70475D
:100A400090F8383090F839209A4205D95A1C03445E
:100A500080F83820187E70474FF0FF30704700BF95
:100A600090F8383090F839209A4286BF1B18187ECB
:100A70004FF0FF30704700BF704700BF38B50546E4
:100A8000B0F85E0090B195F85D301446C3F12102D4
:100A900094420CD805F13B001844224604F0D2FAE7
:100AA00095F85D30234485F85D30204638BD01203F
:100AB00014462871EEE700BFB0F85E306BB190F8D5
:100AC0005D30202B07D8C218013380F85D3001203B
:100AD00082F83B107047012303710020704700BF6C
:100AE0000023426980F8383080F8393080F85C3073
:100AF00080F85D3080F85E3080F85F3006CA30B430
:100B00000D68046943662A4383660A60A3704269DC
:100B100090F861301649146813441D7A5B7B01EB31
:100B2000C5051B026D6803F4E06343F064032B60AA
:100B300090F8623013449D7CDB7D01EBC5011B0204
:100B4000496803F4E06343F064030B602168536871
:100B5000194205D003692C225A70036904229A7144
:100B6000036920225A71036980229A7030BC704751
:100B7000E0C2000038B50269D478E4B2E106054667
:100B800024D51023D37063061FD504F0040404F0A9
:100B9000FF03002C5AD042496A6E00230B7085F87F
:100BA0005D30002A66D0904795F85D30002B61D00B
:100BB0002B69D0229A702B6995F83B201A712B690A
:100BC000012285F85C200222DA7038BD04F040036F
:100BD00003F0FF00002BD8D19379DBB203F0600162
:100BE00060294ED0937803F0100303F0FF01B3B1F6
:100BF00014F0010437D195F85C3095F85D109942F6
:100C00004BD9591C2B4485F85C1093F83B30137179
:100C10002B69D0229A702B690222DA70D5E785F809
:100C20006010937943F0200393712B6995F8391084
:100C30001A791F29D2B2C6D8194800780028C2D024
:100C40006818013185F839100276BCE72A6985F801
:100C50003930C02393702B69114A19790121117021
:100C60000222DA70B1E7C02393702B691A7902224D
:100C7000DA70AAE70122002385F85D2085F83B3071
:100C800096E703F0DF039371AB6E23B185F838006C
:100C900095F8390098472A69A4E71471B8E700BFAE
:100CA0004814FF1F2DE9F047374FDFF8E0903B680D
:100CB000026982B006460093DDF8008000214FF4FF
:100CC0009675D3789B065BD53B680193019BC8EB77
:100CD00003030F2BF5D949B1102BF2D000209070EF
:100CE000336980229A7002B0BDE8F087726996F885
:100CF000613013440521187A04F052FB726996F8AA
:100D000061301344012193F812A0504604F048FBCF
:100D100009240021504604F03DFB2B46013BFDD148
:100D20000121504604F036FB2B46013BFDD1013C2E
:100D3000EFD1706996F8611001444FF416720C7A85
:100D40004B7B09EBC4011B02496803F4E06343F0E9
:100D500064030B6096F862300344997CDB7D09EBF9
:100D6000C1011B02496803F4E06343F064030B60B4
:100D7000013AFDD13269D3789B064FF00101A3D42B
:100D8000012002B0BDE8F087A018FF1FE0C20000FC
:100D9000F0B503691222DA700269937803F0200338
:100DA00085B004460D46002B5ED0B42393703C49B9
:100DB00022690B680093009E05E00B680193019B7C
:100DC0009B1B042B42D8D37803F0200303F0FF00D1
:100DD000002BF2D094F85D30002B31D04FF0000E94
:100DE0004FF0020C04EB0E0393F83B3013710B68C9
:100DF0000393039F206907E09B060DD50B680293C0
:100E0000029BDB1B052B28D8C378DBB203F0020260
:100E100002F0FF06002AEFD080F803C02669F378BD
:100E2000DBB2DF0632462DD49F062BD5DB0731D44B
:100E30000EF1010E94F85D305FFA8EFE7345D1D845
:100E400000201DBB002384F85E3004E0907023690D
:100E500080229A70042005B0F0BD8670236980223C
:100E600004209A7005B0F0BD03F0FF06FFF71AFFEB
:100E700010B9042005B0F0BD236984F85F60B0228A
:100E80009A7094E78023B3700420DAE72669802300
:100E9000B370D7E7BEF1000F0CBF02200320F6E7C6
:100EA000A018FF1F2DE9F04106690025122780F8E0
:100EB000385080F83950F770D0F810C09CF802E034
:100EC0000EF0200E88B00446884615461E46BEF138
:100ED000000F49D0B4238CF802307A4B21691A688C
:100EE0000092DDF800E006E01A6801920198CEEB6E
:100EF0000000042830D8C87800F0200000F0FF0778
:100F00000028F1D04FEA480242F00102D2B20A7141
:100F10001A680292DDF808E0206906E01A68039278
:100F20000399CEEB010105292AD8C17801F002010D
:100F300001F0FF070029F1D04FF0020C80F803C048
:100F40002269D17811F0110722D12DBB002E0CBFE0
:100F5000A0238023937003E08F70236980229A700E
:100F6000384608B0BDE8F0810EF0FF07FFF79AFEA3
:100F70000028F5D0236984F85F70B0229A70ACE73E
:100F800087702369802238469A7008B0BDE8F081E6
:100F9000802393700027E3E7012D78D0A021917082
:100FA00021690A79BE4667464FF0A80C1A68049278
:100FB000049805E01A680592059A121A052A4DD878
:100FC000CA7802F0020202F0FF08002AF2D0CF70C5
:100FD0002169CA78D2B212F0100F08465DD192068C
:100FE0005BD5013DEDB2012D4CD0BEF11F0F3ED9B6
:100FF0000A79012DDAD11A680692069D05E01A6871
:101000000792079A521B052A56D8C27802F00202AC
:1010100002F0FF01002AF2D00223C3702269D378C4
:10102000DBB2D9063BD49B0637D5B023BEF11F0FE8
:10103000937043D8226904EB0E0312791A760EF1ED
:10104000010E5FFA8EFE00BF00BF00BF16B123691C
:1010500080229A7084F839E0774681E781F802802F
:10106000236980229A70774684F839E078E704EBA8
:101070000E0291F8048082F818800EF1010E5FFADA
:101080008EFEB6E781F802C021690846ADE7A821C7
:1010900091702069BE460279ADE7774660E710217E
:1010A0004FF49673D170013BFDD12269937803F020
:1010B000F7037746937053E78170D1E723691B7973
:1010C000C1E700BFA018FF1F0148FFF753BD00BFD5
:1010D000A007FF1F0148FFF74DBD00BF0C08FF1F11
:1010E0000148FFF747BD00BF3407FF1F704700BF2F
:1010F00038B50368C022012583F83B2083F85E5091
:1011000083F85D500446006803681B689847002117
:101110002068FFF73DFE2B462A4620686021FFF736
:10112000C1FE20680A4A03685B6993420BD190F8BC
:10113000383090F839209A4208D95A19034480F877
:101140003820187E38BD9847C0B238BDFF2038BD62
:10115000410A000038B503680446C025012083F821
:101160003B5083F85E0083F85D00206803681B68CD
:10117000154698472068036829461B6898472068E9
:101180000021BDE83840FFF703BE00BF10B5016085
:1011900004460846FFF7A4FC20460C21FFF7A8FFF1
:1011A000C42801D0002010BD204604222621FFF7CC
:1011B000D1FF0A2004F0FAF826212046FFF798FF15
:1011C00010F0040F4FF00A00F4D1B82262712046EB
:1011D0002621FFF7BFFF204607221321FFF7BAFFA2
:1011E000012010BD704700BF10B582B002AB02688D
:1011F00003F8011D546819460122A04702B010BD32
:10120000C06938B18369C06847F6FF72181A904206
:1012100028BF1046704700BFC36910B504463BB1F4
:1012200000201871E06901F05DFCE3691B791BB1D6
:1012300001232371002010BD10BD00BFC06978B12B
:1012400000B583B001220DF1070101F01DFA01285C
:101250000CBF9DF807004FF0FF3003B05DF804FBB2
:101260004FF0FF30704700BFC369C3B110B582B003
:101270000446012218460DF1070101F005FA012884
:1012800003D04FF0FF3002B010BDE0699DF8074079
:10129000C168013901F0B4FA204602B010BD184609
:1012A000704700BFC06908B101F0DCBA704700BFE9
:1012B0002DE9F04105464FF47A731348AB600023E3
:1012C00028602B712B7324200C46904607F08CFA73
:1012D000E861B0B1064604F1200E20686168A2689A
:1012E000E36837460FC7103474453E46F5D1206891
:1012F000386041460C2205F10D0007F01FFF002366
:101300006B762846BDE8F08194BE00004FF47A72F7
:10131000044982600022016002710273C26142735B
:10132000704700BF94BE0000704700BFC36953B14F
:1013300010B50446184601F02FF9E06907F05CFA91
:101340000023E36110BD7047C06918B18079003097
:1013500018BF0120704700BFFE2938B5054617D0D9
:101360000A46012100F006FE03460BB9002038BDF5
:101370002C1D20460122294601F0A4FE98B12146E9
:1013800005F12C0001F058F9003018BF012038BDDC
:10139000017000F0DDF9044600F0C8F9B4FA84F3F6
:1013A0005B09A870E1E702462946204601F08AFE63
:1013B0000028E4D1002038BD2DE9F04F99B04FF05E
:1013C0000008DFF8E8A08DF81C808146043106A8EB
:1013D000934601938DF81E808DF840808DF84280F1
:1013E000CDF818A0CDF83CA001F026F906AE5D4678
:1013F0000FAF2F21284607F06BFD441BE4B22946AE
:1014000008B32B782F2B02A81BD00C2C28BF0C2440
:10141000224607F093FE18AB2344384603F8588C55
:1014200001F0BAF8012302AA3146384601F04EFB1A
:1014300088B3304601F0B0F8334625443E461F4697
:10144000D7E70135D5E7019831797279B379B46876
:10145000377DCBEB05050560F068356989F8041028
:1014600089F80520B16989F80630F269336AC9F84C
:101470000C004846C9F800A0C9F80840C9F8105047
:1014800089F81470C9F81810C9F81C20C9F8203060
:1014900019B0BDE8F08F89F8040089F806004846C5
:1014A000C9F800A019B0BDE8F08F00BFBCBE0000B5
:1014B000F0B59DB005461F4601A86B461446FFF7E0
:1014C0007BFF009AA35C1444002B42D09DF80A20B5
:1014D0002F4E0A9600238DF82C308DF82E30002ADE
:1014E00031D00AA83B46224601A901F0EFFA50B3D9
:1014F00001A801F051F817F0060F43D19DF82C70A8
:101500000C9B9DF82DE0139622469DF82E408DF8F9
:1015100050708DF8524015930D990E989DF83C70BF
:10152000109E119C129B8DF851E01691179013A9F3
:1015300028468DF8607019961A941B93FFF7B8FE31
:1015400028461DB0F0BD2846FFF7E0FE28461DB036
:10155000F0BD9DF808700E4E9DF809409DF80A30C8
:10156000039A8DF8507013968DF851408DF85230D3
:101570001592049905989DF81870079E089C099B80
:10158000044AD2E70AA8109901F03AF9B6E700BF79
:10159000BCBE0000B0BE0000064B074ADA62022162
:1015A000002259609A7083F8242083F8302083F851
:1015B000322070474C14FF1FBCBE000010B4114C09
:1015C000114B226811491340184322F0080240F4DD
:1015D0006020226020600B681C0706D40C4B01E0E1
:1015E000013B02D00A681207FAD5064B094A5DF89A
:1015F000044B40F008001860136843F48013136034
:10160000704700BF2C100B400700F0FF24100B4068
:10161000FFFF0F0030100B402149224A0B6843F0B6
:1016200080030B6011461368DB07FCD40B689B0733
:10163000F9D41D4B30B44FF08072194D186000E0A2
:10164000A2B12968194B164C0B40013A002BF7D078
:1016500062B1012B0AD1236813F0800F23680FD0E9
:1016600043F001132360032030BC70470C4A136819
:1016700043F4702343F001031360012030BC704732
:1016800013F4803305D0236843F001132360052051
:10169000F4E7226842F0010218462260EEE700BF3C
:1016A00030100B4024100B400C100B4001000E00BA
:1016B00070B50D4D0D480E4E00232B60FFF7ACFFAB
:1016C0006324034606E04BB92B60FFF7A5FF013CFE
:1016D000034605D0326805485207F4D4184670BD59
:1016E000002808BF052070BD08100B400000DB0C6F
:1016F00024100B4070B5094C0023054623600848B0
:10170000FFF78AFF00B170BD064E074833682560B9
:10171000FFF782FF0028F6D1336870BD08100B4038
:1017200000001A3710100B4000000229074B1A78EE
:101730004AB99A782AB15B78002B0CBF02200320AB
:101740007047012070470020704700BFA014FF1FA2
:101750002DE9F047674D684E2B68684F6849694C22
:1017600069486A4ADFF8C8E143F400332B60336804
:1017700043F4005333603B6843F002033B600B6863
:1017800043F002030B60236805F59F4506F59F466D
:1017900007F59F4701F5D12123F00103236001F2F2
:1017A000EC7140F20313583554365437036000246B
:1017B000574813602C600A4633603B60CEF8003017
:1017C0000860136813F08073FBD1524C524A53489F
:1017D000534923604FF481354FF0101328240560DE
:1017E0000C604FF487501360FFF7E8FE4D4A136812
:1017F0009C07FCD1454EDFF810E14B4C4B4A4C495D
:101800004C4F4D4D4D4840F24343CEF800303360CD
:101810004FF48866266013604FF6FF76484C3B60B5
:1018200002F5C8220B6020322E604FF4FA7104607A
:10183000136843F00063136013681801FCD4013986
:10184000F6D13D4A3748136843F0800313600368BC
:10185000DA0308D43B4B0220597099701870596014
:101860009960BDE8F087374C374E21706170A170E8
:10187000084631606160A160FFF7CEFE68B9334D64
:1018800033482B684FF4D5733360FFF7C5FE40B97A
:101890002B682B68B3F5D57F29D001202070BDE8D7
:1018A000F0870528F9D10020FFF724FF0028F4D1A4
:1018B000264B1A6812F4401F58D06278254FDFF883
:1018C0009880002A05461E4608BF4FF4401704E0E2
:1018D0003268002A42DB454546D03846FFF70AFF0A
:1018E00001351A4B0028F3D00120BDE8F087012311
:1018F0006370D8E730800440388004403C80044066
:101900004080044000D0004000D0044004D0044097
:1019100000800001C0100B4044100B4004100B402D
:1019200028100B4024100B4008D004400CD0044079
:1019300014D0044010D0044030100B4034100B4041
:10194000BB007F11A014FF1F08100B4010100B40AC
:1019500000001A0800003040A0860100554A954258
:1019600002D01B685B0001D400236370524E5348C1
:1019700000233360FFF750FE034600288DD1504D01
:1019800050482A683360FFF747FE002885D12B684E
:101990002B684D484D4D1B0C1B0433606360FFF7F3
:1019A0003BFE00287FF479AF494B4A491A68120E72
:1019B000EA700A6812F4400F71D1196846481B6832
:1019C000026800689B0203F4406343EA9253C0F349
:1019D000C2105A1CC1F30321831C093902FA03F314
:1019E0008B40AB60344E636833603C48374FFFF741
:1019F00013FE00287FF451AF314D39482B684FF466
:101A000000733360FFF708FE00287FF446AF7B6861
:101A10002A6834483360FFF7FFFD00287FF43DAFAC
:101A200002232A6830483360FFF7F6FD00287FF470
:101A300034AF2E4B2A681A68DFF8B8A0DFF8B890E8
:101A4000DFF8B8802A4C22F006021A601A68A6F560
:101A5000C726A6F2FC76A5F5C82542F002021A6058
:101A600040F20313CAF80030C9F80030C8F800008B
:101A700033604FF498702B602360FFF79FFD40F2B6
:101A800043434FF48862CAF80030C9F80030C8F800
:101A9000002033602B6023603878BDE8F087012296
:101AA0000D4BAA701B68C3F3152313449B02AB6054
:101AB00098E700BFA086010008100B400000090253
:101AC00010100B4000001A0300000909A014FF1FAA
:101AD00018100B401C100B4014100B4000001B078B
:101AE00000001A1000001A3700001A0628100B40D8
:101AF00014D0044000D0044004D0044008D0044076
:101B0000F8B5384B1A780AB10320F8BD5B78064661
:101B100003B94902344D354C354B36484FF6FF7703
:101B20004FF481322F6021601A60FFF775FD0028A5
:101B3000EBD1314B31491B681C3406F1400206F5EC
:101B400010702B68284F43F0200613F4E00F2E602E
:101B50003ED123681E05FCD50B6842F8403C0B685B
:101B600042F83C3C0B6842F8383C0B6842F8343C85
:101B70000B6842F8303C0B6842F82C3C0B6842F88A
:101B8000283C0B6842F8243C0B6842F8203C0B6868
:101B900042F81C3C0B6842F8183C0B6842F8143CB5
:101BA0000B6842F8103C0B6842F80C3C0B6842F89A
:101BB000083C0B6842F8043C40328242C1D100200C
:101BC00009490B68084A9B07FBD50D4B1360F8BD0C
:101BD00043F4E00343F020033B60FFF769FD01207D
:101BE000EEE700BFA014FF1F30100B4008100B40A1
:101BF00004100B4010003A1110100B4020100B4045
:101C000022000001F8B52B4B1A780AB10320F8BD69
:101C10005B78044603B94902274D284E284B2948D2
:101C20004FF6FF774FF481322F6031601A60FFF773
:101C3000F3FC0028EBD1244B24491B682E4604F505
:101C400000772B681C4AD806FBD5336813F4E00FE5
:101C50001AD104F1400254F8043B0B60A242FAD1BD
:101C60002B68DFF854E043F010032B602B6813F46B
:101C7000E00013D19742E4D10F490B680E4A9B074D
:101C8000FBD5134B1360F8BD136843F4E00343F036
:101C900010031360FFF70CFD0120EDE7DEF80030C4
:101CA00043F4E00343F01003CEF80030FFF700FDEB
:101CB0000120E1E7A014FF1F30100B4008100B407B
:101CC00004100B4000003A1810100B4020100B407D
:101CD00012000001052822D8DFE800F003030F15E9
:101CE0001B09124B124A1A60124801F049BC0F4BF3
:101CF000114A1A600F4801F043BC0C4B0F4A1A609E
:101D00000C4801F03DBC094B0D4A1A60094801F02E
:101D100037BC064B0B4A1A60064801F031BC034B36
:101D2000094A1A60034801F02BBC00BFB014FF1F22
:101D3000000001B87C08FF1F043000380110003893
:101D400003200038010002380650013810B5012187
:101D5000007803F01FFB114A1378C3B11049CB7A06
:101D600000241846147093B1DA0703D50D4AC869E8
:101D7000106018469C0703D50B4B0A6AC87A1A6094
:101D8000420705D4030702D5084B8A6A1A6010BDC2
:101D9000074B4A6AC87A1A60F4E700BFB414FF1F01
:101DA0007C08FF1F00E100E004E100E00CE100E03E
:101DB00008E100E0234B1A781AB10078002103F003
:101DC000E9BA70B4204A2149D47A096801251D7006
:101DD000002C26D072B6D47AE607234606D51C4DD1
:101DE000D3682E683340D3612B602346A50706D500
:101DF000184D14692E68D37A344014622C605C0745
:101E000006D5154D54692E68D37A344054622C603F
:101E10001B0705D5114C936925682B4093622360FD
:101E200062B61368DA688A4207D00D4C1C600D4A0E
:101E3000D96041F080441C611A600078002170BCB8
:101E400003F0A8BAB414FF1F7C08FF1FB014FF1FD3
:101E500080E100E084E100E088E100E08CE100E066
:101E600001403F0000003F80F0B41248124A03686E
:101E700082B016460093009F4FF00045FF24136880
:101E800043F480631360D5625463D36A002BFCDA99
:101E9000B36BDBB2FF2B09D003680193019BDB1B03
:101EA0008B42ECD3002002B0F0BC7047012002B09E
:101EB000F0BC7047A018FF1F00C00240F8B50D46E7
:101EC0004FF4967116460446FFF7CEFF284B1A686A
:101ED0004FF0004042F4806245F040011A60D86241
:101EE0001A465963D36A002BFCDA214918204FF0B7
:101EF00000470A6826FA00F342F48062DBB20A6007
:101F0000CF624B63CB6A002BFCDA083810F1080F64
:101F1000EFD155B3082D0CBF8721FF21144B1A6850
:101F20004FF0004042F480621A60D8621A4659634A
:101F3000D36A002BFCDA0E4A002716464FF0004504
:101F4000FF21136843F480631360D5625163D36A41
:101F5000002BFCDAB36BD8B21B06607000D4F8BD5E
:101F60000137B7F5807FECD1F8BD9521D6E700BFEA
:101F700000C002402DE9F04300239D4E027085B061
:101F80008370336801930546884610460121019FFE
:101F900003F000FA2878012103F002FA28780121E1
:101FA00003F0F8F9934A136843F480531360062052
:101FB000FFF790FEDFF870E28F4B9EF80BC01A68B7
:101FC000BCF1000F2CD072B69EF80B10C8070B4660
:101FD00008D58A48DEF80C3004682340CEF81C305F
:101FE00003600B468C0709D58548DEF8101004689D
:101FF0009EF80B302140CEF820100160580709D51B
:102000008048DEF8141004689EF80B302140CEF8AA
:1020100024100160190700F1AB8062B69EF80BC076
:10202000DEF80030D968914207D0774818607749C8
:10203000DA6042F0804018611960754A0A244FF056
:102040000040FF21136843F480631360D062516342
:10205000D36A002BFCDA013C14F0FF04F2D1BCF18E
:10206000000F21D01CF0010F05D06A4BDEF81C20B8
:102070009EF80BC01A601CF0020F05D0664BDEF80C
:1020800020209EF80BC01A601CF0040F05D0634B93
:10209000DEF824209EF80BC01A601CF0080F03D055
:1020A0005F4BDEF828201A602846FFF783FE06E023
:1020B00033680293029BDB1BB3F5FA6F51D8002201
:1020C00011462846FFF7FAFE012881466870EFD1D5
:1020D0004FF4D57208212846FFF7F0FE430726D5B6
:1020E00085F802904FF0000906E033680393039BE4
:1020F000DB1BB3F5FA6F34D8002237212846FFF7EF
:10210000DDFE4A4629212846FFF7D8FE68700028E0
:10211000EBD1AB78022B39D02846FFF717FE4046AB
:10212000FFF7D8FD0124204605B0BDE8F083384A0A
:10213000042194464FF0004EFF20136843F480635F
:102140001360C2F82CE05063D36A002BFCDADCF891
:1021500038300139DBB211F0FF016B70EDD1AA2BE1
:102160000FD02846FFF7F2FD204605B0BDE8F0830A
:102170002C49DEF8183008680340CEF828300B6090
:102180004BE70223AB704FF08049B5E702463A2196
:102190002846FFF793FE0028E3D11D4B1A684FF045
:1021A000004442F48062FF201A601946DC625863E2
:1021B000CB6A174A002BFBDA936B154A03F0C00376
:1021C000C02B04BF0323AB70032116464FF000441D
:1021D000FF20136843F480631360D4625063D36AB2
:1021E000002BFCDA013911F0FF01B36BF1D193E759
:1021F000A018FF1F3C800440B014FF1F80E100E0E6
:1022000084E100E088E100E001403F0000003F8001
:1022100000C0024000E100E004E100E008E100E06D
:102220000CE100E08CE100E07C08FF1FF0B41549F0
:10223000154A0B6882B016460093009F4FF0004588
:10224000FF24136843F480631360D5625463D36A38
:10225000002BFCDAB36BDBB2FF2B43700AD10B68A7
:102260000193019BDB1BB3F5967FEAD9002002B0F6
:10227000F0BC7047A3F1FE00B0FA80F0400902B054
:10228000F0BC7047A018FF1F00C00240F8B583786B
:10229000032B0E46044618BF4E021546FFF78AFD73
:1022A000324611212046FFF709FE18B92046FFF7F4
:1022B000BDFF20B92046FFF749FD0020F8BD204BA7
:1022C0002049214A1A608E4659631A4659631E46B0
:1022D000596305F5FD70A91C05F5FE77D36A13F067
:1022E000F00FFBD0C6F834E0B36B01F8013C1B12D1
:1022F00001F8023C02318F42F0D105F50075A84289
:102300000DD20F4A1646D36A13F0F00FFBD0B36B11
:10231000191200F8021BA84200F8013CF3D3084B45
:102320000949084A196019465A63CB6A044A13F0EE
:10233000F00FFAD02046936BFFF708FD0120F8BD9F
:1023400000C00240FFFF009000041F80F0B4314E37
:1023500033684FF0004743F4806333603D46F762D3
:10236000344671633346511C02F20127E26A002AA7
:10237000FCDA1A6811F8016C42F480621A60DD62BE
:102380005E63E26A002AFCDA1A6811F8026B42F412
:1023900080628F421A60DD625E63E7D11D49CA6ABE
:1023A0001C4B002AFBDA1A684FF0004542F48062A9
:1023B000FF241A601946DD625C63CB6A154A002B64
:1023C000FBDA13684FF0004543F48063FF24136089
:1023D0001146D5625463CB6A0E4A002BFBDA1368B0
:1023E0004FF0004543F48063FF2413601146D5622B
:1023F0005463CB6A074A002BFBDA936BDBB203F022
:102400001F024370A2F10500B0FA80F04009F0BC51
:10241000704700BF00C0024070B5044671B18378B8
:10242000032B0D4618BF4D021646FFF7C3FC2A4684
:1024300018212046FFF742FD054620B12046FFF750
:1024400085FC002070BD3246FE212046FFF77EFF4E
:102450000028F3D04FF416712046FFF705FD002841
:10246000ECD02A460D212046FFF728FD0028E5D1B3
:102470000B4B1A684FF0004542F48062FF201A604F
:102480001946DD625863CB6A054A002BFBDA936B71
:1024900013F0FF0FD2D12046FFF758FC012070BD8A
:1024A00000C00240014B024A1A607047B014FF1F7F
:1024B0000320003838B590F90530002B03DBBDE868
:1024C000384000F013BC04460121006900F04EFCC6
:1024D000F8B1257D104B13EB45151AD0A3790F4A9F
:1024E000012B9CBFA369EB61E36912686B831B0C32
:1024F000AB8232B105F1160105F1180090472B8B24
:102500006B82637903F07F036371BDE8384000F0AC
:10251000EDBB002038BD00BFC414FF1FB814FF1F5F
:1025200010B500F1080204460121006A00F012FD16
:1025300050B1E3693BB96379A268E26163F07F035C
:102540006371012010BD012010BD00BF70B50646AB
:10255000FFF7E6FF98B1326AB568117C53691479C8
:10256000023D8D40013B74B11D4402E014F0FF04B4
:1025700007D0601900F06AFC013C0028F6D1002069
:1025800070BD336A197CB0694FF4007202FA01F32E
:102590000344B361012070BD82790AB900207047FD
:1025A00010B50446FFF786FF18B10023A371012080
:1025B00010BD002010BD00BF70B44B1E01F10A0415
:1025C000202203F8012FA342FBD101380025072662
:1025D00010F8014F2CB32E2C1ED0164A01E09C425D
:1025E00017D012F8013B002BF9D1AE421FD3A4F152
:1025F00021025D2A1BD8A4F16102192A05F1010309
:1026000098BF203C0D44DBB298BFE4B22C701D464D
:10261000DEE7002070BC70470A2EFAD008250A2693
:10262000D6E70B78B3F1200018BF0120F2E7184677
:10263000F0E700BFCCBE000038B583793BB991F814
:102640002020102A0D46044603D0202A10D0002056
:1026500038BD022282714A8CC36153018361002319
:102660000120607123752562A360E360236138BD9A
:1026700003238371496AC16100F11802284600F002
:1026800039FC0028EBD1E2E7837913B94FF0FF3032
:1026900070472DE9F04F8B464179C90783B0054655
:1026A0005BD5C1688469641A944228BF14462646E3
:1026B0000194002C69D01A46022ADFF8FC903D4FA5
:1026C000DFF8F880C1F3080A42D0286A0479013C97
:1026D00004EA5124E4B2BAF1000F62D1002C60D1B7
:1026E000002956D1EA69AA6090F810E04169023ADF
:1026F00002FA0EF221441144CAF500746A79B44218
:10270000A8BF344653062DD4B4F5007F2AD008461E
:10271000002100F02BFB00B30AEB090E0EEB0400C6
:1027200086450BD00BF1FF32734613F8011B02F8FC
:10273000011F9842F9D1CEEB00008344E968361BB3
:102740002144E96021D0AA79022AC1F3080ABCD148
:102750002A6A506A00EB5121CEE74FF0FF3003B0F8
:10276000BDE8F08F3A689142D1D0D8F800000378E4
:10277000FE2B18D05A46FFF789FD0028EDD0E968F6
:10278000361B2144A344E960DDD1019803B0BDE8C4
:10279000F08F05F10802A96800F074FB0028DCD076
:1027A000286AAA68A0E75846FFF7AAF9B0FA80F0AD
:1027B0004009E2E77808FF1FC414FF1FC014FF1F81
:1027C0008379012B17D930B5C36883B001220DF18D
:1027D00007010446C3F34315FFF756FF012802D053
:1027E000002003B030BDE36804481F3300EB451000
:1027F000E36003B030BD0020704700BFC414FF1F6A
:10280000F8B5837913B182698A4201D20020F8BDFC
:10281000022B0F4605461AD007B32B6AE9681C7CC9
:102820004A1E04F109037C1EDA40DC40A24211D9A1
:10283000EB69AB6005F1080606E0A968286A00F0BC
:1028400021FB013C0028E1D03246002CF5D1EF609D
:102850000120F8BD0029EBD0A41AEBE7AF60EF60D0
:102860000120F8BD83790BB1FFF724BE18467047ED
:102870008379012B01D000207047F0B54579AC0772
:1028800083B002461CD585698D420C4618D3D5B15C
:102890002546D6681446FFF7B3FF88B1B5B9E1699C
:1028A000206A00F0E1FB58B1E56122E000F0DCFBBA
:1028B00030B16FF07042A168206A00F0C3FBC0B96C
:1028C000002003B0F0BD184603B0F0BD01AAA16816
:1028D000206A00F0D7FA0028F2D0206A0F4B90F857
:1028E000207001994FF6F872102F08BF13469942D5
:1028F000DCD36379A279A56163F07F036371002A59
:10290000DED02046FFF7D6FD0028D9D0B5422946B3
:10291000204628BF3146FFF773FFD2E7F8FFFF0FCD
:1029200070B51D4B03EB4116F37A13F0110F02D073
:1029300012F0420F1ED1194B01751B680361738B96
:10294000B18A43EA0141C161F37A13F018031546D5
:1029500004460DD1F36983610123837105F00F03F0
:10296000002163716B06A160E1600FD4012070BD8E
:10297000102B01D0002070BD00F11802006A00F099
:10298000B9FA0028F6D00423A371E7E72046BDE892
:102990007040FFF76DBF00BFC414FF1F7808FF1F12
:1029A0002DE9F04784B001AF06460C461046394683
:1029B0009946FFF701FE78B30022216A316213467F
:1029C0001546A260E260DFF8008108E0E52B1CD02C
:1029D00001460B22384606F0E5F988B3E368A269A0
:1029E0009A421DD92046C3F3431AFFF7E9FE98B176
:1029F0000378002BEAD15DB9D8F8003086F814A02E
:102A00003361037823B10125E8E7002DFBD1F3E71B
:102A100009F01203122B1DD0002004B0BDE8F0878E
:102A200009F01203122BF7D1A5B9A379022BF3D029
:102A30002046FFF78BFD0028EED0214C357514E0C1
:102A400009F03003302BE7D04A4651463046FFF7B5
:102A500067FFE2E70121306900F088F90028DBD048
:102A6000347D174B13EB4414D6D02022002120468E
:102A700006F0CAF997E80700234603C3114923F873
:102A8000022B0D68120C1A709DB104F10E0104F1B5
:102A90001000A847238AE28963822383E28200F040
:102AA00025F90028B8D04A46317D3046FFF738FF77
:102AB000B3E742F621034FF400622382E281EBE7A1
:102AC000C414FF1FB814FF1F7808FF1F10B48479C7
:102AD0001CB100205DF8044B70475DF8044BFFF714
:102AE0005FBF00BF2DE9F04F8B46817985B001298A
:102AF0000746019205D001233B71002005B0BDE8D7
:102B0000F08F42799107F6D5530708D5FC68B9696B
:102B10008C4200F0B480FFF773FE0028EBD0019BDD
:102B2000FC68002B4AD0DFF8A491DFF8A4A1DDF8FF
:102B30000480386A0679013E06EA542616F0FF063C
:102B4000C4F3080443D1002C41D1B968002973D1E2
:102B5000FA69002A00F08380BA60C4F50075ADB24E
:102B600045453AD9057C4169023AAA400E441644CB
:102B70001FFA88F51CB9F868BA6990424FD23046FE
:102B8000012100F0F3F80028B5D04C4404EB050E09
:102B900074450DD00BF1FF31621E0EF1FF3611F8B6
:102BA000010F02F8010F9642F9D1C4EB0E04A344C1
:102BB000FC68B8EB05082C44FC60BAD1BB69A342A1
:102BC00062D27A79BC6142F080027A7165E0C4F524
:102BD0000075ADB24545BA68C4D8017C4069023A77
:102BE0008A400644B5F5007F1644C3D1DAF80020C8
:102BF000964204BF4FF0FF32CAF800202F4A1068F7
:102C00000278FE2A314633D05A46FFF705FC0028E9
:102C10003FF471AF0BF5007B4FF40075C8E700F08F
:102C200065F800283FF467AF2549CAF800600A78C4
:102C300042F001020A70A8E703AA00F023F9002875
:102C40003FF45CAF386A1F4B90F82050039A4FF660
:102C5000F871102D18BF19468A42FFF47DAF38462F
:102C6000FFF75EFC00283FF446AF386ABA6874E7A5
:102C70005846FEF7C7FFB0FA80F04009C7E7019B4E
:102C8000002B7FF450AF08E00F4B7A791B6823B11B
:102C9000019B13B142F080027A71120709D5BB790A
:102CA000002B3FF428AF3846FFF704FC00283FF420
:102CB00022AF019805B0BDE8F08F00BFC014FF1F20
:102CC000C416FF1FF8FFFF0FB814FF1FC414FF1F27
:102CD0007808FF1F00B583B002AB012203F8011D85
:102CE0001946FFF7FFFE03B05DF804FB70B51A4C00
:102CF00023780BB9012070BD184D194B286819684D
:102D00000378FE2B17D0174AFFF786FB88B1164EC3
:102D1000316819B900232370012070BD2868037839
:102D2000FE2B0FD00F4AFFF777FB10B10023336063
:102D3000F0E7002070BD0B48FEF764FFB0FA80F0AA
:102D40004009E3E70748FEF75DFFB0FA80F040096D
:102D50000028EBD1EDE700BFC416FF1FC014FF1F12
:102D60007808FF1FC414FF1FBC14FF1F70B5124D5D
:102D70002B6883420E4611D00446FFF7B7FF08B90F
:102D8000002070BD0D4B18680378FE2B0CD00C4A48
:102D90002146FFF77BFA0028F2D02C60094B197806
:102DA00031431970012070BD21460548FEF7A8FE89
:102DB000B0FA80F04009EEE77808FF1FC014FF1F4B
:102DC000C414FF1FC416FF1FF8B590F82030C46963
:102DD000102B1A4B05460E4617461B6816D004EBFF
:102DE000D1149C4216D106F07F06154A42F826708F
:102DF0001449287E0A78012842F001020A7018D985
:102E0000A968114A0B4413600120F8BD04EB11249A
:102E10009C4208D000212046FFF7A8FF50B195F84A
:102E20002030102B07D1F6B2054A234622F816703F
:102E3000DEE70120F8BD2346D5E700BF7808FF1F75
:102E4000C414FF1FC416FF1FBC14FF1F10B5044697
:102E5000FFF74CFF78B1084B002103F5007203F82F
:102E6000011F9342FBD1054A054913780C6043F0DA
:102E700001031370012010BDC314FF1FC416FF1FF0
:102E80007808FF1FC36801338B4218D370B590F8E0
:102E90002030102B154B044616460D46C0691B68A2
:102EA0000FD000EBD11098420FD105F07F01104BED
:102EB00053F8213023F070433360012070BD0020AF
:102EC000704700EB1120984207D00021FFF74EFF1A
:102ED00050B194F82030102BE7D1E9B2044B33F80D
:102EE00011303360012070BD002070BD7808FF1FD5
:102EF000C414FF1F2DE9F04782B002ADDFF8508007
:102F000045F8041D044691464FF0000A4FF400773F
:102F10004FF6F8760CE094F82030227C0199102BC3
:102F200014BF4346334607FA02F29942924408D24C
:102F30002A462046FFF7A6FF0028ECD102B0BDE8E4
:102F4000F0870120C9F800A002B0BDE8F08700BFFB
:102F5000F8FFFF0F2DE9F04F176883B06FB301370B
:102F60004FF0000AC36803F1010813B38B4606460D
:102F700091463C46002505E01C461F46F368013596
:102F8000AB4216D9A04538BF0224214601AA3046DB
:102F900038BF2746FFF776FF631CD91B48B1019A5B
:102FA000002AE9D18B4510D01C46F3680135AB42AD
:102FB000E8D8002003B0BDE8F08FA1F1010ABAFA09
:102FC0008AFA07684FEA5A1ACCE7012CF1D9F3685C
:102FD00001339C42EDD86FF0704221463046FFF736
:102FE000F3FE0028E5D0A74214D2013C012CE0D921
:102FF000F36801339C42DCD8621C21463046FFF75F
:10300000E3FE0028D5D0A74204F1FF3402D0012C02
:10301000EED1CEE7D9F8001059B10129C9D9F3682A
:1030200001339942C5D83A463046FFF7CDFE002815
:10303000BFD0C9F80070BAF1000F01D00137376076
:103040000120B7E701290CD9C3680133994210B4B4
:1030500003D85DF8044BFFF7B7BE00205DF8044BC2
:1030600070470020704700BFF0B5022383B00546CB
:10307000134F03600C464FF6F8760FE0EB68013310
:103080009C4216D8FFF7A0FE98B195F82030019C1D
:10309000102B0CBF33463B469C420DD201AA214661
:1030A0002846FFF7EFFE2146002210B1012C2846EA
:1030B000E4D8002003B0F0BD012003B0F0BD00BF94
:1030C000F8FFFF0FF8B53E4B054619601446DAB11C
:1030D000042A01D90020F8BD00210846FFF746FE6A
:1030E0000028F7D0374B03EB041292F8AE215206BA
:1030F000F0D11B3403EB0414D4F80A30632BE9D964
:10310000D4F80640002CE5D000212046FFF72EFE23
:103110000028DFD02B4AB2F80B30B3F5007FD9D1AD
:10312000117C0029D6D0D389002BD3D0567B002E1A
:10313000D0D0002329762E712B74012703E00929B2
:103140000B462974C6D007FA03F0B04203F101011F
:10315000F5D1D68A1B4906B94E6AB2F80EE0AE60C8
:10316000A644C5F81CE0B2F81110177C6984480128
:1031700006FB07E600F2FF1006EB60206E62686156
:10318000B2F813100F4E01B9316A241A0C4424FA14
:1031900003F340F6F4718B42EB600BD94FF6F471F8
:1031A0008B4285BFD36A6B621023202385F82030C1
:1031B0000120F8BD0C2385F820300120F8BD00BFA8
:1031C000C014FF1FC414FF1F10B4047F4160022C01
:1031D000C26003D05DF8044B03F010BD83685DF856
:1031E000044B1847F0B4464B464A986B5C6B017928
:1031F0001170454922790A701A6B00790870002A0B
:1032000046D05968C9688A423ED82168CC8B2404CC
:1032100002F1FF3065D4C0F30E00C883C88B80B2C2
:10322000C882996B0968C88B000452D4C2F30E009F
:10323000C883C88B002480B212F1FF32C88218BF45
:1032400001221C63596B2E4809680D6800F12C049B
:10325000A54236D00068C46814F0804F0C680D6831
:1032600015BF248824780235013544F000440D60F0
:103270004463996B254B09791970214912B14A6B46
:1032800012791A70F0BC7047521A1A630122D9E7FA
:10329000D86B196805681E4C0A63CC62CC682D682F
:1032A0001C4E24F080440327B542CC6083F82D7077
:1032B0001FD1037F4260022BC2601ED0F0BC03F01E
:1032C0009DBC016890F82C00CC6840F00040486339
:1032D000CFE7CC8BC2F3080004F47E442043C883BC
:1032E000A7E7CC8BC0F3080004F47E442043C883D6
:1032F00094E72B461146F0BC18478368F0BC18478A
:10330000BC08FF1F1F8000401C8000401B80004045
:1033100000000FFFC9310000F0B4464B464A986BDD
:103320005C6B01791170454922790A701A6B00793A
:103330000870002A46D05968C9688A423ED8216878
:10334000CC8B240402F1FF3065D4C0F30E00C88397
:10335000C88B80B2C882996B0968C88B000452D4AC
:10336000C2F30E00C883C88B002480B212F1FF3272
:10337000C88218BF01221C63596B2E4809680D686A
:1033800000F12C04A54236D00068C46814F0804FC8
:103390000C680D6815BF248824780235013544F087
:1033A00000440D604463996B254B097919702149DC
:1033B00012B14A6B12791A70F0BC7047521A1A6334
:1033C0000122D9E7D86B196805681E4C0A63CC62E4
:1033D000CC682D681C4E24F080440327B542CC6095
:1033E00083F82D701FD1037F4260022BC2601ED074
:1033F000F0BC03F003BC016890F82C00CC6840F0EE
:1034000000404863CFE7CC8BC2F3080004F47E444D
:103410002043C883A7E7CC8BC0F3080004F47E44A4
:103420002043C88394E72B461146F0BC18478368B5
:10343000F0BC1847FC08FF1F1F8000401C800040A4
:103440001B80004000000FFFC9310000F0B4464B64
:10345000464A986B5C6B01791170454922790A7074
:103460001A6B00790870002A46D05968C9688A42E8
:103470003ED82168CC8B240402F1FF3065D4C0F320
:103480000E00C883C88B80B2C882996B0968C88B4C
:10349000000452D4C2F30E00C883C88B002480B24B
:1034A00012F1FF32C88218BF01221C63596B2E48EB
:1034B00009680D6800F12C04A54236D00068C46884
:1034C00014F0804F0C680D6815BF248824780235ED
:1034D000013544F000440D604463996B254B097934
:1034E0001970214912B14A6B12791A70F0BC7047F9
:1034F000521A1A630122D9E7D86B196805681E4C65
:103500000A63CC62CC682D681C4E24F080440327EB
:10351000B542CC6083F82D701FD1037F4260022B2F
:10352000C2601ED0F0BC03F069BB016890F82C00AB
:10353000CC6840F000404863CFE7CC8BC2F3080072
:1035400004F47E442043C883A7E7CC8BC0F3080073
:1035500004F47E442043C88394E72B461146F0BC14
:1035600018478368F0BC18477C08FF1F1F80004085
:103570001C8000401B80004000000FFFC93100008C
:1035800090E80C00F0B41C6859682568164F174E77
:1035900029432160164D17491760D66015611160E7
:1035A000417A154A5C180C3194F82C4053F821509C
:1035B00002EBC40149680D60017A5C1803EB8101DC
:1035C000247ECD6902EBC40149680D60817A5818E8
:1035D00003EB810390F84000596C02EBC002F0BC91
:1035E00053681960704700BF01401F000110003888
:1035F0000110007800001F80E0C2000070B4417A22
:1036000044680E4B05680E4E2144002291F82C10A0
:1036100003EBC10149680A60017A2144097E03EB8A
:10362000C10149680A60817A214491F8401003EB96
:10363000C1035B681A602E6070BC7047E0C2000076
:1036400001401F004268036805CA10B404682243A1
:103650000260DA6889B942F08072D9688A4209D07A
:10366000196848040CD40A48186042F08040DA60B7
:10367000186119605DF8044B704722F08072ECE726
:1036800042F08041DA605DF8044B1961704700BF79
:1036900001401F004268036805CA10B40468224351
:1036A0000260D868840100F0E06205D5080900F4E2
:1036B000706021F470410143D8681143814209D000
:1036C0001A68500409D40848186041F08040D96055
:1036D00018611A605DF8044B704741F08042D96070
:1036E0005DF8044B1A61704701401F00FFFFFFFFA8
:1036F0002DE9F047044684B008460D4605F060FC0D
:10370000061FAB5D2A2B00F03583C349284605F020
:10371000A5FE0646002800F093812C21284605F0DE
:10372000D7FB451C284605F01BF851EC100B04F0A4
:10373000C1FF07EE900AFCEEE77AB84AB84E17EEE2
:10374000907AA2FB0712520B42F2107303FB127322
:10375000A6FB07E14909A6FB036364265B0906FB98
:10376000117122706370A17004F080FC9FEDA81BA2
:1037700041EC100B04F06EF9AA4B002251EC100B37
:1037800004F0C8FC04F076FF2C21E080284605F008
:103790009FFB43782C2B804600F101055AD0294627
:1037A00002220DF1100901A805F0C8FC4FF0000A33
:1037B00001A809F80AAD04F0DBFF9B4F022207FBCA
:1037C00000F708F1030101A808F1060505F0B6FCB1
:1037D00029460422484605F0B1FC01A88DF80AA04C
:1037E00004F0C6FF3221914B914ADFED926A9FEDC2
:1037F000927A9FED926A01FB00F082FB001283FB3C
:103800000731FB17A2EBE070C3EB613307EE903A90
:1038100005EE900AF8EEE77AF8EEE55A3844E5EE60
:10382000A67A2061C7EE876AC4ED027AFDEEE66AE9
:1038300016EE903A06FB03F607EE106AB8EEC77A6A
:10384000F8EEE66A77EEC77A87EE867A77EE266A32
:10385000C4ED066A28462C2105F03AFB43782C2B50
:1038600000F1010208D0532B00F0CE824E2B40F025
:10387000A6814E2384F8383010462C2105F028FB11
:1038800043782C2B054600F1010658D0314603221F
:1038900001A805F053FC4FF0000801A88DF807803F
:1038A00004F066FF604F022207FB00F7291D01A804
:1038B000EE1D05F043FC314604220DF1060005F033
:1038C0003DFC01A88DF80A8004F052FF3221574BCD
:1038D000574A9FED587ADFED586A9FED586A01FB11
:1038E00000F082FB001283FB0731FB17A2EBE070B4
:1038F000C3EB613307EE903A05EE900AF8EEE77AF3
:10390000F8EEE55A6423E5EE877A3844606187EE85
:10391000A67AC4ED037ABDEEC77A17EE102A03FB30
:1039200002F306EE903AF8EEE66AB8EEC77A77EE62
:10393000E67AC7EE866A36EE877A84ED077A3046F5
:103940002C2105F0C5FA43782C2B00F1010208D098
:10395000572B00F06C82452B40F03181452384F8D1
:10396000393010462C2105F0B3FA43782C2B00F1A6
:10397000010504D0284604F0F7FE84F83C002846F0
:103980002C2105F0A5FA43782C2B00F1010504D079
:10399000284604F0E9FE84F83D0028462C2105F075
:1039A00097FA43782C2B00F1010507D0284604F044
:1039B000D7FE51EC100B04F07DFE606328462C21ED
:1039C00005F086FA43782C2B00F1010507D0284634
:1039D00004F0C6FE51EC100B04F06CFE60622C216A
:1039E000284605F075FA2C21013005F071FA43786C
:1039F0002C2B00F0BA81013004F0B2FE51EC100B18
:103A000004F058FE01232062184604B0BDE8F08798
:103A1000000000000000F03F24C100005917B7D19A
:103A20001F85EB5100408F408096980089B5F814AF
:103A3000565555559C53C9360000C8420000704287
:103A4000DF49284605F00AFD002800F0B8802C2147
:103A5000284605F03DFA451C284604F081FE51EC4D
:103A6000100B04F027FE07EE900AFCEEE77AD54A29
:103A7000DFF870E317EE901AA2FB0132AEFB0137BC
:103A8000520B42F2107303FB12134FF0640CAEFBA7
:103A900003E37F090CFB17115B0922706370A170AF
:103AA00004F0E4FA9FEDC41B41EC100B03F0D2FFCD
:103AB000C54B002251EC100B04F02CFB04F0DAFD96
:103AC0002C21E080284605F003FA4378412B00F0D2
:103AD0009181562B73D184F83B6001302C2105F085
:103AE000F7F943782C2B054600F1010659D03146F1
:103AF00002220DF1100801A805F020FB4FF000098B
:103B000001A808F80A9D04F033FEB04F022207FB1B
:103B100000F7E91C01A8AE1D05F010FB3146042298
:103B2000404605F00BFB01A88DF80A9004F020FE3A
:103B30003221A74BA74A9FEDA87ADFEDA86A9FED37
:103B4000A86A01FB00F082FB001283FB0731FB1720
:103B5000A2EBE070C3EB613307EE903A05EE900AFA
:103B6000F8EEE77AF8EEE55A6423E5EE877A384412
:103B7000206187EEA67AC4ED027ABDEEC77A17EE11
:103B8000102A03FB02F306EE903AF8EEE66AB8EE6E
:103B9000C77A77EEE67AC7EE866A36EE877A84EDE4
:103BA000067A30462C2105F093F943782C2B00F14E
:103BB00001021AD0532B07D04E2B00F05681002360
:103BC000184604B0BDE8F087D4ED067AF1EE677AC6
:103BD000C4ED067A43784E2B00F04781532B02D078
:103BE0002C2BECD1002384F8383010462C2105F022
:103BF0006FF943782C2B054600F1010658D0314669
:103C0000032201A805F09AFA4FF0000801A88DF8E8
:103C1000078004F0ADFD6D4F022207FB00F7291D60
:103C200001A8EE1D05F08AFA314604220DF10600C6
:103C300005F084FA01A88DF80A8004F099FD654B1F
:103C400063499FED657ADFED656A9FED656A322213
:103C500002FB00F083FB003281FB0731FB17A2EB74
:103C6000E070C3EB613307EE903A05EE900AF8EE90
:103C7000E77AF8EEE55A6423E5EE877A3844606126
:103C800087EEA67AC4ED037ABDEEC77A17EE102A46
:103C900003FB02F306EE903AF8EEE66AB8EEC77A56
:103CA00077EEE67AC7EE866A36EE877A84ED077A93
:103CB00030462C2105F00CF943782C2B00F1010241
:103CC0000ED0572B40F0C780D4ED077AF1EE677A1B
:103CD000C4ED077A4378572B40F0D38084F839300D
:103CE00010462C2105F0F4F843782C2B00F1010547
:103CF00007D0284604F034FD51EC100B04F0DAFC38
:103D0000A06228462C2105F0E3F843782C2B00F123
:103D1000010507D0284604F023FD51EC100B04F0F8
:103D2000C9FCE06228462C2105F0D2F843782C2B00
:103D30001BD0013004F014FD51EC100B04F09AFC80
:103D4000204A284EA2FB0032520B42F21073A6FB0F
:103D5000001503FB12036D096421A6FB036301FB3D
:103D600015015B09E170627123710123184604B0EB
:103D7000BDE8F087284410F8033C2F2B34D80023EB
:103D800010F8022C2F2A3DD9392A37D8303AD2B22E
:103D9000022E1A4409D902210B46695C0133DBB2B9
:103DA0004A409E4292B21946F7D8002A3FF4ADAC81
:103DB00005E700BFAFF30080000000000000F03F07
:103DC0002CC100005917B7D100408F408096980051
:103DD00089B5F814565555559C53C9360000C8424C
:103DE000000070421F85EB51392B2CD8303BDBB2E1
:103DF0001B01C5E7012384F83B306EE6A2F14101C7
:103E000005292FD90022C3E7D4ED067AF1EE677AAF
:103E1000C4ED067A43784E2B3FF42BAD532B03D0E1
:103E20002C2B7FF4CCAE002384F8383024E5D4ED7D
:103E3000077AF1EE677AC4ED077A4378572B18D1E9
:103E400084F839308DE5A3F14102052A97D8373B34
:103E5000DBB21B0194E7452B7FF4B1AE452384F818
:103E600039303DE7373AD2B292E74E2384F8383002
:103E7000BBE6452B3FF472AD2C2B7FF4A0AE0023A4
:103E8000DEE7452BEAD02C2B7FF499AE002325E703
:103E900070B590F84A500DB1002070BD0446C06C5A
:103EA00003681B6998470028F6D0E06C03685B69DB
:103EB0009847C0B20A280FD0144B154A1C681378D3
:103EC000134DDBB2591CC9B21170E0541378772B33
:103ED00084BF77232B7070BD0D4A0C4B11781E6880
:103EE0000C4CC9B275541968A14209D00A490B4D4E
:103EF0001C600D600A4B0025012115701970DEE76A
:103F0000054D064C1C602960F4E700BFC816FF1F72
:103F1000CC16FF1FD016FF1FC417FF1F4817FF1F27
:103F2000C017FF1FF0B4164B164E174F174A1A60F2
:103F3000174DC164002200243270164E3A702E6074
:103F400044630463C462846244620462C460846043
:103F500080F84A2080F83D2080F83C2042710271B0
:103F6000C27082704270027080F83A2080F8392066
:103F700080F8382080F83B20C280F0BC704700BF3A
:103F8000C816FF1FC017FF1FCC16FF1FD016FF1F3C
:103F9000C417FF1F4817FF1F08B5C06C0368DB6913
:103FA00098470A20BDE8084001F000BA38B5C46C53
:103FB00008460D4605F004F82368024629465B686A
:103FC000204698472046BDE8384003F013B800BFAC
:103FD000014B1878704700BFC017FF1F024A034B00
:103FE0000021117018687047C017FF1FC417FF1F0A
:103FF000704700BF704700BF704700BF704700BFE9
:1040000041717047817170470171704730B4034D41
:10401000056001714271837130BC7047A8C1000016
:10402000054B1A684FF00043D3625163D36A002BEB
:10403000FCDA906BC0B27047FC08FF1F704700BFEE
:1040400030B41D4B8268D97A01B372B6D87AC507ED
:10405000014606D5194CD96825682940D9612160E7
:104060000146840706D5164C18692568D97A284078
:1040700018622060480706D5124C58692568D97A1D
:1040800028405862206009070ED462B61B68D968C0
:10409000914207D00C4818600C49DA6042F0804029
:1040A0001861196030BC704709489969046821405B
:1040B00099620160E9E700BFFC08FF1F80E100E0B2
:1040C00084E100E088E100E001403F0000003F8023
:1040D0008CE100E00148FFF791BA00BFFC08FF1F28
:1040E0000D4AD37A1946B3B1D80703D50B49D06925
:1040F000086019469B0703D5094B106AD17A1860EE
:10410000480703D5074B506AD17A18600B0702D5D0
:10411000054B926A1A607047FC08FF1F00E100E03F
:1041200004E100E008E100E00CE100E082792DE923
:10413000F04104464AB1012A00F09680022A00F0BC
:10414000A680032A00F09380002215467249734826
:104150000B6843F480530B60C368990167D423F064
:1041600080636E49C868834203D00868470466D5F7
:10417000CB602379042B6CD0032B6FD0022B70D033
:1041800067496848012B14BF8E46864694F805C0DF
:104190006549DFF8C081BCF1010F0CBF4FF06456D8
:1041A0004FF06056002702E0172808D0074631F884
:1041B000023F98FBF3F39E4507F10100F4D30DB1E4
:1041C00046F08066594B53F827303AB11A0902F489
:1041D000706223F4704346F00076134333431CF1BE
:1041E000FF31A36018BF01215148FFF72BFA237953
:1041F000013BDBB2032B74D84E4AD35C042B56D060
:10420000002B37D0052B5FD0012B6AD0062B75D041
:10421000022B3FD048494648FFF73CFA4448FFF795
:10422000AFF945494248BDE8F041FFF733BA23F002
:10423000C06323F47F43190389B20B4391E740F431
:10424000804646F001060E60CB6023790860042B9F
:1042500092D194F805C0DFF800E199E7DFF8FCE0BF
:1042600094E7DFF8FCE091E7042200256EE70422E2
:1042700008256BE731492E48FFF70CFA2C48FFF769
:104280007FF92E492A48BDE8F041FFF703BA002222
:1042900008255BE72A492648FFF7FCF92448FFF781
:1042A0006FF927492248BDE8F041FFF7F3B92549E6
:1042B0001F48FFF7EFF91E48FFF762F921491C4834
:1042C000BDE8F041FFF7E6B91F491948FFF7E2F9E9
:1042D0001748FFF755F91C491548BDE8F041FFF7AD
:1042E000D9B91A491248FFF7D5F91148FFF748F92B
:1042F00016490F48BDE8F041FFF7CCB914490C4806
:10430000FFF7C8F90A48FFF73BF911490848BDE82B
:10431000F041FFF7BFB900BF3C80044000C002403D
:1043200040420F0080841E0002C00000C8C0000090
:10433000FC08FF1FD0C100000870003803200038BF
:1043400007600038000002B804300038054000382B
:1043500006500038008793030024F40000127A000E
:1043600000093D0010B5064C00231A4619462046A8
:10437000FFF74CFE034A044B2260A36010BD00BF50
:10438000C817FF1FDCC1000003200038054B1A6866
:104390004FF00043D3625163D36A002BFCDA906B79
:1043A000C0B27047BC08FF1F704700BF30B41D4B40
:1043B0008268D97A01B372B6D87AC507014606D5A4
:1043C000194CD96825682940D961216001468407C4
:1043D00006D5164C18692568D97A284018622060DD
:1043E000480706D5124C58692568D97A2840586282
:1043F000206009070ED462B61B68D968914207D0C5
:104400000C4818600C49DA6042F08040186119606D
:1044100030BC70470948996904682140996201607D
:10442000E9E700BFBC08FF1F80E100E084E100E095
:1044300088E100E001403F0000003F808CE100E0A7
:104440000148FFF7DBB800BFBC08FF1F0D4AD37A55
:104450001946B3B1D80703D50B49D069086019468E
:104460009B0703D5094B106AD17A1860480703D51A
:10447000074B506AD17A18600B0702D5054B926A38
:104480001A607047BC08FF1F00E100E004E100E093
:1044900008E100E00CE100E082792DE9F0410446FA
:1044A0004AB1012A00F09680022A00F0A680032A71
:1044B00000F0938000221546724973480B6843F45C
:1044C00080530B60C368990167D423F080636E4901
:1044D000C868834203D00868470466D5CB60237957
:1044E000042B6CD0032B6FD0022B70D06749684827
:1044F000012B14BF8E46864694F805C06549DFF847
:10450000C081BCF1010F0CBF4FF064564FF06056F4
:10451000002702E0172808D0074631F8023F98FB31
:10452000F3F39E4507F10100F4D30DB146F0806628
:10453000594B53F827303AB11A0902F4706223F448
:10454000704346F00076134333431CF1FF31A36000
:1045500018BF01215148FFF775F82379013BDBB201
:10456000032B74D84E4AD35C042B56D0002B37D083
:10457000052B5FD0012B6AD0062B75D0022B3FD0C4
:1045800048494648FFF786F84448FEF7F9FF454991
:104590004248BDE8F041FFF77DB823F0C06323F443
:1045A0007F43190389B20B4391E740F4804646F0FC
:1045B00001060E60CB6023790860042B92D194F839
:1045C00005C0DFF800E199E7DFF8FCE094E7DFF8E9
:1045D000FCE091E7042200256EE7042208256BE742
:1045E00031492E48FFF756F82C48FEF7C9FF2E49EF
:1045F0002A48BDE8F041FFF74DB8002208255BE7E7
:104600002A492648FFF746F82448FEF7B9FF27490C
:104610002248BDE8F041FFF73DB825491F48FFF7A4
:1046200039F81E48FEF7ACFF21491C48BDE8F041AF
:10463000FFF730B81F491948FFF72CF81748FEF765
:104640009FFF1C491548BDE8F041FFF723B81A4900
:104650001248FFF71FF81148FEF792FF16490F485E
:10466000BDE8F041FFF716B814490C48FFF712F8FF
:104670000A48FEF785FF11490848BDE8F041FFF7F9
:1046800009B800BF3C80044000C0024040420F0017
:1046900080841E0002C00000C8C00000BC08FF1FCC
:1046A00004C200000870003803200038076000389A
:1046B000000002B8043000380540003806500038C9
:1046C000008793030024F40000127A0000093D00E3
:1046D00010B5064C00231A4619462046FFF796FCF3
:1046E000034A044B2260A36010BD00BFD417FF1F14
:1046F00010C2000003200038054B1A684FF0004339
:10470000D3625163D36A002BFCDA906BC0B270475E
:104710007C08FF1F704700BF30B41D4B8268D97AF8
:1047200001B372B6D87AC507014606D5194CD968C7
:1047300025682940D96121600146840706D5164CB9
:1047400018692568D97A284018622060480706D57C
:10475000124C58692568D97A2840586220600907A8
:104760000ED462B61B68D968914207D00C48186015
:104770000C49DA6042F080401861196030BC704723
:10478000094899690468214099620160E9E700BF1E
:104790007C08FF1F80E100E084E100E088E100E0A8
:1047A00001403F0000003F808CE100E00148FEF73F
:1047B00025BF00BF7C08FF1F0D4AD37A1946B3B14D
:1047C000D80703D50B49D069086019469B0703D564
:1047D000094B106AD17A1860480703D5074B506A15
:1047E000D17A18600B0702D5054B926A1A607047A0
:1047F0007C08FF1F00E100E004E100E008E100E0C8
:104800000CE100E082792DE9F04104464AB1012A29
:1048100000F09680022A00F0A680032A00F0938020
:1048200000221546724973480B6843F480530B60AD
:10483000C368990167D423F080636E49C8688342D6
:1048400003D00868470466D5CB602379042B6CD06D
:10485000032B6FD0022B70D067496848012B14BF1F
:104860008E46864694F805C06549DFF8C081BCF1E4
:10487000010F0CBF4FF064564FF06056002702E066
:10488000172808D0074631F8023F98FBF3F39E45FE
:1048900007F10100F4D30DB146F08066594B53F88F
:1048A00027303AB11A0902F4706223F4704346F0DB
:1048B0000076134333431CF1FF31A36018BF01217D
:1048C0005148FEF7BFFE2379013BDBB2032B74D8BE
:1048D0004E4AD35C042B56D0002B37D0052B5FD02B
:1048E000012B6AD0062B75D0022B3FD04849464891
:1048F000FEF7D0FE4448FEF743FE45494248BDE876
:10490000F041FEF7C7BE23F0C06323F47F431903D1
:1049100089B20B4391E740F4804646F001060E60F1
:10492000CB6023790860042B92D194F805C0DFF89E
:1049300000E199E7DFF8FCE094E7DFF8FCE091E7BD
:10494000042200256EE7042208256BE731492E4832
:10495000FEF7A0FE2C48FEF713FE2E492A48BDE8BC
:10496000F041FEF797BE002208255BE72A4926485A
:10497000FEF790FE2448FEF703FE27492248BDE8D3
:10498000F041FEF787BE25491F48FEF783FE1E480B
:10499000FEF7F6FD21491C48BDE8F041FEF77ABE5E
:1049A0001F491948FEF776FE1748FEF7E9FD1C4936
:1049B0001548BDE8F041FEF76DBE1A491248FEF7F2
:1049C00069FE1148FEF7DCFD16490F48BDE8F041CD
:1049D000FEF760BE14490C48FEF75CFE0A48FEF77D
:1049E000CFFD11490848BDE8F041FEF753BE00BFB6
:1049F0003C80044000C0024040420F0080841E0002
:104A000002C00000C8C000007C08FF1F68C2000090
:104A1000087000380320003807600038000002B832
:104A200004300038054000380650003800879303F2
:104A30000024F40000127A0000093D0010B5064C75
:104A400000231A4619462046FFF7E0FA034A044BB2
:104A50002260A36010BD00BFE017FF1F40C200002E
:104A60000320003872B616E072B618E072B622481B
:104A700000680121016006E072B61EF10F0F38D008
:104A80001EF11F0F35D01D480168002903D0A1F188
:104A9000010101602DE01A480068012829D1194858
:104AA0000068A0E8F04FA0EC200AF1EE101A02C056
:104AB00015480068002803D1EFF309801349086006
:104AC00000F048F90F480068B0E8F04FB0EC200A59
:104AD00002C8E1EE101A0EF0100E6EF0160E0A4823
:104AE0000068002805D10948006880F309884EF065
:104AF000040E62B6704700005018FF1F0C18FF1F0D
:104B00000818FF1FEC17FF1FF017FF1F1018FF1FDB
:104B1000064B1B681BB11FB59847BDE81F40044BEF
:104B20001B680BB1FFF7A8BF704700BF0018FF1F3D
:104B30000418FF1F0F4B1B681BB11FB59847BDE83A
:104B40001F401EF0040F0CBFEFF30880EFF3098045
:104B5000836913F8023C212B08D0222B00D0704728
:104B6000054B01221A60FFF77FBF7047FFF77ABF3E
:104B7000704700BF4C18FF1F0818FF1F10B50446F0
:104B800002F0D0F9204610BD024B1B680222C3F888
:104B9000B4207047F417FF1FF8B5044603460022FF
:104BA0000A214FF480654FF42050A16025606060B9
:104BB000E260226143F8142F04F1340143F8042F1A
:104BC0008B424FF00005F9D1C42002F0FDF92946CF
:104BD000C42206461B4F04F017F961681A4A3E606A
:104BE000521A1A4F1A4B316072601A49DFF884E08A
:104BF000A66106F10C023A600122D86AC6F8B450E8
:104C00000A60C6F8B420CEF80020134ADFF868C066
:104C1000A168C6F8C0109042104A114FCCF800109D
:104C2000104918BF10604FF003060F4808BF156009
:104C30003D600E60DD6B0D490D4A0560D96220466E
:104C4000DA63F8BDF417FF1F00000320EC17FF1F05
:104C50000002FF1FF017FF1FC15100004C18FF1F7B
:104C60001018FF1F0818FF1F0018FF1F354B00000A
:104C7000114B00000418FF1F0C18FF1FC168F0B58E
:104C80008B1D2F4E50F823303268C3F8BC2083B000
:104C90002C4F31B13A68D2F8BC3052689B1A082BBD
:104CA00042DD00F11404002202E00132082A1AD089
:104CB00054F8043F8D1D002BF7D050F82550D5F83F
:104CC000B450012DF1D1D3F8B850002DEDD01E4CC9
:104CD000D3F8C050C2600021B2FA82F252092560B6
:104CE000C3F8B81015E0CA1D00EB82020131072994
:104CF00020DC52F8043B002BF8D0D3F8B440012C50
:104D0000F4D1B1FA81F2C16052090F49D3F8C00061
:104D10000860D3F8BC000D4C0D493B600C33236098
:104D200030600A6003B0F0BD0190FFF72DFF0198DD
:104D3000C168B6E70023C36001228369E5E700BFCD
:104D40001018FF1FF417FF1F0C18FF1FEC17FF1F91
:104D5000F017FF1F0148FFF791BF00BF1418FF1F96
:104D600038B5074B074A08490025802418461D60BE
:104D70001C7103F0EFFC0548BDE83840FFF70CBF9D
:104D8000F817FF1F3007FF1F7D4B00001418FF1F8F
:104D900001F0CABD01F0ECBD01F002BE074882B0CF
:104DA00003680193019A114401E0994204D3036816
:104DB0000093009B9A42F8D902B07047A018FF1FD9
:104DC00010B4104A85B0A1B9136800934168009BE4
:104DD000591A31290DD813680293029C04F1320349
:104DE000591A01E0994204D313680193019B9C4234
:104DF000F8D913680393039B4360012005B05DF865
:104E0000044B7047A018FF1F704700BF2DE9F04109
:104E10000D4D0E4EDFF83C800D4F41641B2401E028
:104E200000F0C4FA2B78C82043B13378DB0705D5EE
:104E3000D8F800303A689B1A0E2B03D8013CEFD10A
:104E4000BDE8F081BDE8F081001AFF1F181AFF1FAE
:104E5000041DFF1FA018FF1F00238364436071B16E
:104E6000074882B003680193019A114401E0994216
:104E700004D303680093009B9A42F8D902B07047AC
:104E8000A018FF1F70B5144C84B00546406C236811
:104E900003930368039A6A600E465B680F49062213
:104EA0009847314600230A22686C02F0B3F8686C18
:104EB0000B49036808225B68984723680293029AAB
:104EC00002F1320101E0994204D323680193019B6E
:104ED0009A42F8D904B070BDA018FF1F84C2000028
:104EE0008CC20000F8B5037E0BB96320F8BD044600
:104EF000406C3B4E03681B69B3420D466AD101F01A
:104F00004FFD10F0FF0F01D16520F8BD354F606CEB
:104F100003681B69B3425FD101F042FD10F0FF0F3F
:104F2000F2D0606C03685B69BB4257D101F0FCFCB6
:104F3000C3B2A3F158021E2AE9D801A151F822F008
:104F4000CD4F00000F4F00000F4F00000F4F00002B
:104F50000F4F00000F4F00000F4F00000F4F0000D9
:104F60000F4F00000F4F00000F4F0000C14F000017
:104F70000F4F00000F4F00000F4F00000F4F0000B9
:104F8000EB4E00000F4F00000F4F00000F4F0000CE
:104F90000F4F00000F4F00000F4F00000F4F000099
:104FA0000F4F0000EB4E00000F4F00000F4F0000AE
:104FB0000F4F00000F4F0000BD4F00001846F8BD16
:104FC00020462946FFF75EFF6320F8BD00232376C5
:104FD0006320F8BD984794E798479FE79847A7E76D
:104FE000994D0000914D000070B5054682B01646FF
:104FF000C9B101230D4C037600212846FFF772FF4B
:10500000632810D023680193019A511C23680093F0
:10501000009B9A42F0D89942F8D200212846FFF727
:1050200061FF6328EED12E7602B070BDA018FF1F7D
:10503000034B00229A60DA601A615A61704700BF20
:105040005418FF1F844641EA000313F003036DD197
:10505000403A41D351F8043B40F8043B51F8043B3B
:1050600040F8043B51F8043B40F8043B51F8043B42
:1050700040F8043B51F8043B40F8043B51F8043B32
:1050800040F8043B51F8043B40F8043B51F8043B22
:1050900040F8043B51F8043B40F8043B51F8043B12
:1050A00040F8043B51F8043B40F8043B51F8043B02
:1050B00040F8043B51F8043B40F8043B51F8043BF2
:1050C00040F8043B51F8043B40F8043B51F8043BE2
:1050D00040F8043B403ABDD2303211D351F8043B82
:1050E00040F8043B51F8043B40F8043B51F8043BC2
:1050F00040F8043B51F8043B40F8043B103AEDD231
:105100000C3205D351F8043B40F8043B043AF9D281
:10511000043208D0D2071CBF11F8013B00F8013B54
:1051200001D30B8803806046704700BF082A13D361
:105130008B078DD010F003038AD0C3F10403D21A79
:10514000DB071CBF11F8013B00F8013B80D331F8AD
:10515000023B20F8023B7BE7043AD9D3013A11F82D
:10516000013B00F8013BF9D20B7803704B78437098
:105170008B7883706046704708B5104C08E0236850
:1051800059050DD423681A050FD42368DB0411D404
:1051900023685803F3D500F099FD23685905F1D52C
:1051A00002F076F923681A05EFD502F007FA2368B2
:1051B000DB04EDD502F098FAEAE700BF3480044042
:1051C00008B5FFF7D9FF00BF014B10221A807047C6
:1051D00000200540704700BF094908B50B6830B191
:1051E0006A461844A2F50052904202D2086018465E
:1051F00008BD03F0C7FA0C2303604FF0FF3008BD71
:105200003C09FF1FFEE700BFEFF3138070B9EFF317
:1052100010836BB9EFF305825AB94FF48070EFF346
:1052200011832BB1984228BF184670474FF0FF30CA
:1052300070470F2A01D81846F1E7014BD05CEEE722
:10524000F0E300E0084A1378802B01D0002070477B
:105250000649074B07480860002119701378802B16
:10526000FCD00120704700BF03E0074044800440A9
:1052700001E0074000002822094A1378012B01D0E1
:105280000020704703F1804303F5FC23602119706F
:105290001378802BFCD1034B034A1A60012070471E
:1052A00003E00740448004400000060210B4114BA4
:1052B00053F8302092F8804234B1012379B182F85A
:1052C00080305DF8044B704703EBC0035B681A68DD
:1052D00051B922F002021A605DF8044B704782F85F
:1052E00000315DF8044B704742F003021A605DF82C
:1052F000044B7047E0C200001C4A02EBC0030129C6
:105300005B6811D004291BD052F83000002280F8CD
:10531000802229B1022920D0032922D01A607047A7
:105320004FF480721A60704752F830004FF4A27246
:1053300080F880121A601A6822F020021A60704702
:1053400052F830104FF4A272012081F880021A60E6
:105350001A6842F020021A60704740F203121A6085
:1053600070474FF481721A60704700BFE0C20000BE
:1053700030B4054B054D064C002210211A602A60FE
:105380002060196030BC704714D0034004D0034043
:1053900000D003403F2801D8FFF788BF704700BF07
:1053A0003F2801D8FFF7A8BF704700BF2DE9F84399
:1053B000054672B6224F234B234A1B683C6812688D
:1053C00062B6520102D5322B88BF0134B5B3C3F5A2
:1053D0002F3303F21F331D4EDFF86890DFF868802B
:1053E0009B084FF47A72A6FB031302FB04F404EB50
:1053F000930472B6D9F800103A68D8F800E062B6A3
:10540000C1F52F3303F21F339B08A6FB03031EF0E5
:10541000806FC4EB93034FF47A7002D0322988BFB7
:10542000013200FB0233B3F57A7F04D3013D05D08E
:1054300004F57A74DDE701F023FFDAE7BDE8F883CD
:10544000A018FF1F18E000E004ED00E0176CC11683
:10545000F8B54E4B4E48DFF85CC14E4C4E49DFF874
:1054600058E14E4E4E4D4F4F4FF000621A604FF0D4
:1054700080521A604FF000521A604FF080421A605A
:105480004FF000421A600022026028234EF6FF709F
:10549000CCF80000CEF8003023600EF5012E0B6032
:1054A00033602B6006F500263B6005F50025A362FE
:1054B00007F500278B6204F5012401F5012106F6AA
:1054C000E87605F6E87507F57F6710310EF1100EE6
:1054D000203433602B60CEF800303B600B602360DB
:1054E000314CBB618B6109212160A7F5002704F5D0
:1054F0008054203F08343A602060BB60E36047F886
:10550000041C04F5FD2407F5FE27043704F2FC749F
:1055100022603860A360FB6044F8041C083404F681
:10552000FC74C7F8FC2F2060A4F5E124A4F2DC741D
:1055300033602B60C7F8F81F21681C4841F40071E4
:10554000216001681A4C0EF57F4E0EF1E80E07F54A
:10555000883706F5803605F5803541F00071016029
:10556000CEF8002047F6FF710822396033602B60C7
:10557000226001F0E7FE1920FFF718FF01F00EF995
:1055800040F21310BDE8F840FFF710BF04E100E05F
:1055900004800340148003401C80034024800340A7
:1055A0002C8003403480034000800340048004408A
:1055B00000900C40088003400C8003402DE9F84F18
:1055C000214B1B6807460BB101221A70DFF8889047
:1055D0001E4D99F80040DFF884801D4E0134272CC1
:1055E0008ABF4FF0000A5FFA84FA5446AB462B7824
:1055F000A34216D1FFF708FE40281FDC33791B06B3
:10560000F5D59BF800300133272B86BF00221346C7
:10561000DAB218F80330DBB2F3712A702B78A342A8
:10562000E8D00C490A4BFFB208F804700120AC2204
:10563000087089F800A0DA70BDE8F88FFF28D6DD81
:1056400001F01EFED3E700BF1819FF1F1519FF1F39
:1056500000A00E401419FF1F1C19FF1FAC18FF1FDC
:105660001B4BDFF890C01A681A49F0B542F480620B
:10567000194D1A60DFF880E0184F194E194C0023BD
:105680008CF800304FF451722B701F2840F2133504
:105690008EF800303B70337025600A6011D81946CF
:1056A0000124114A114D11701148547000212C270A
:1056B00040269372042491701174D7702E70046088
:1056C000F0BDC0F34431C0F3471400F01F03E8E716
:1056D0002880044060D00440A918FF1F1519FF1F3F
:1056E0001419FF1F64D0044000A00E4042E400E003
:1056F00008E100E0A818FF1F1C19FF1F194B1949EA
:105700009B7803F0EC0200F003031343420700F020
:105710000F0248BF43F01003042A8B701CD0114BBA
:10572000104A5B79C10603F0EF0348BF43F0100352
:1057300053719379820603F0EF030A4A48BF43F09E
:1057400010039371C30506D553781178DBB241F08D
:1057500020011170537070478B7943F040038B71B7
:10576000DDE700BF00A00E40F8B5114B1B685B05DC
:105770001CD5104C237823B101F082FD2378002B37
:10578000FAD10D4B0D4F0E4E0E4D0F4C0F481049D8
:1057900004221A600023FB7040F2031232602A6078
:1057A000226803700B7012B101231370F8BDF8BDAD
:1057B000288004401419FF1F88E100E000A00E407B
:1057C00064D0044060D00440A418FF1FA818FF1F35
:1057D000A918FF1F0A4A38B50546137803F0FF04DD
:1057E000002BFAD101212846FFF7DAFD2146284691
:1057F000FFF7D0FD034A044B52F835201A6038BD3C
:105800001419FF1FE0C200001819FF1F09B140F072
:105810008000104A137898421AD010B40E4C2468B5
:10582000640512D503F07F03212B02D10B4B00241A
:105830001C60002900F07F0314BF60214421212B4C
:1058400003D1064B41F44071196010705DF8044BB0
:10585000704700BF4009FF1F2880044060D004400B
:10586000704700BF0D4B1B6813F4806305D03F28C1
:1058700005D90B4B00201860704718467047094B3C
:1058800010B5074C53F8303023600121FFF788FD35
:10589000236800221A70012010BD00BF2880044038
:1058A000A418FF1FE0C200000C4B1B6813F48063B8
:1058B00006D0182806D00A4A537B03F0FE03537320
:1058C00000207047074B064A40F202311960537BB3
:1058D00043F0010353730120704700BF2880044048
:1058E00000A00E4068D00440034B1B685B0501D547
:1058F000FFF764BE704700BF2880044070B5094EB2
:1059000004464518AC4204F101040AD033685B0533
:10591000F8D514F8010CFFF751FEAC4204F1010474
:10592000F4D170BD2880044010B5044C237823B115
:1059300001F0A6FC2378002BFAD110BD1419FF1F2B
:10594000064A074B1B781078DBB2C0B283422CBFEB
:10595000273000F1FF30C01A704700BF1519FF1F34
:105960001C19FF1F054A064B10781B78C0B2DBB22A
:10597000984238BF4030C01A704700BFA818FF1FB8
:10598000A918FF1F30B4154B154C1A782378D2B2E2
:10599000DBB29A421ED001333F2B0ED91149124B74
:1059A000087819680023C0B2237021B1D31A1A2BCA
:1059B00001DC00230B7030BC70470A480A49C05C08
:1059C0000968DDB2C0B225700029F4D09A4238BF10
:1059D0004032EBE74FF0FF30EDE700BFA818FF1FA4
:1059E000A918FF1FD418FF1FA418FF1F084A094B4E
:1059F00012781B78DBB29A4207D00133402B28BFC4
:105A00000023054AD05CC0B270474FF0FF307047AA
:105A1000A818FF1FA918FF1FD418FF1F054B064A1F
:105A20001B7806491268DBB20B700AB100231370B1
:105A3000704700BFA918FF1FA418FF1FA818FF1F59
:105A400030B42B4B1A7994061FD52A48DA7903789B
:105A5000294901333F2B0978C8BF00238B42D2B2BA
:105A600003D0264CD9B2E2540170254A116861B1C5
:105A7000244A1278D2B2934236BFC2F140029B1A36
:105A80009B18272BC4BF01230B70194AD378DBB2B4
:105A9000180611D45A060DD5154B1B795B0609D58E
:105AA000194B1A491B6800220A7003B11A70104B77
:105AB0002C22DA7030BC704711790906EAD51449F6
:105AC00010480C780178C9B28C420DD04A1C272AA4
:105AD00084BF00210A460F4D054C98BFD1B2AA5C85
