:1000000000000320D10100007D41000035410000C7
:100010003541000035410000354100003541000008
:100020003541000035410000354100007D410000B0
:100030007D41000035410000DD580000E15900001D
:100040007D4100007D4100007D4100007D410000B8
:100050007D4100007D4100007D4100007D410000A8
:100060007D4100007D4100007D4100007D41000098
:100070007D4100007D4100007D4100007D41000088
:100080007D4100007D4100007D4100007D41000078
:100090007D4100007D4100007D4100007D41000068
:1000A000210F00002D0F00007D4100007D41000068
:1000B0007D4100007D4100007D410000B15E0000F7
:1000C0007D410000DD5F00007D410000096100000E
:1000D0007D410000016200007D4100007D41000083
:1000E0007D4100007D4100007D4100007D41000018
:1000F0007D4100007D4100007D4100007D41000008
:100100007D4100007D4100007D4100007D410000F7
:100110007D410000E94800007D4100007D41000074
:100120007D4100007D4100007D4100007D410000D7
:100130007D4100007D4100007D4100007D410000C7
:100140007D4100007D4100005D4600007D410000D2
:100150007D4100007D4100007D4100007D410000A7
:100160007D4100007D410000390F00007D4100000D
:100170007D4100007D4100007D4100007D41000087
:100180007D4100007D4100007D4100007D41000077
:100190007D4100007D410000F96200007D410000CA
:1001A0007D4100007D4100007D4100007D41000057
:1001B0007D4100007D4100007D4100007D41000047
:1001C0007D4100007D4100007D4100007D41000037
:1001D0005C4B4CF2205210B51A804DF628121A8052
:1001E00000BF00BF03F0CEFF574B4FF030621A60E4
:1001F000564A9A60564ADA60564B4FF470021A60BB
:10020000554B564A1A60564A136813F4807304D14A
:1002100054490B604FF4A8531360534B1A781107DD
:1002200003D51A7842F008021A70504B5049AA229E
:100230001A70504A504B8B4204D252F8040F43F8C4
:10024000040BF8E74D4B4E4900228B4202D243F893
:10025000042BFAE74B494C4A002352F8230041F89B
:1002600023000133742BF8D1484B494A802103F80D
:10027000011B9342FBD1474B424A1A60464B8A22EC
:100280001A70A3F5805324225A70A0221A709A790A
:100290009207FCD59A79D406FCD4404A937903F0AE
:1002A0000C03082BFAD13E4B60221A7002331A78E5
:1002B000802AFCD1394B01221A715D225A719A7938
:1002C0009006FCD59979354A4906FBD5354B364918
:1002D00019600021596020231370937903F00C03F7
:1002E0000C2BFAD1314B324A1A60324B324A1A6027
:1002F00000225A60072243F8042C304AC3F80C2D20
:1003000062B604F063F8174B1B68DA0705D52C4872
:1003100003F0ECFF2B4B2C4A1A602C4B1B785B062E
:1003200009D5284C284B22689A4204D1244803F06E
:10033000DDFF0023236006F031FD03F029FF05F007
:1003400057FBFEE70E20054030800440823F04004A
:100350000100002B88ED00E0002008E0030000858C
:1003600010D0034014D0034002D0074000E0074003
:100370002013FF1F908500003007FF1F2013FF1F71
:10038000681BFF1F0002FF1F0000000000E400E0E8
:1003900064E400E008ED00E0005006400040064044
:1003A00001E007404480044000000602048004404D
:1003B000C010070014E000E01FBF02000000202072
:1003C000ECF8AB5B1CE00340A5C3945A00F0074077
:1003D000FFFFFFFFFFFFFFFFFFFFFFFFFFFFFFFF2D
:1003E000FFFFFFFFFFFFFFFFFFFFFFFFFFFFFFFF1D
:1003F000FFFFFFFFFFFFFFFFFFFFFFFFFFFFFFFF0D
:10040000FFFFFFFFFFFFFFFFFFFFFFFFDEF9FFFF23
:1004100010B5054C237833B9044B13B10448AFF33E
:1004200000800123237010BD2013FF1F0000000077
:1004300094850000084B10B51BB108490848AFF37C
:1004400000800848036803B910BD074B002BFBD0A0
:10045000BDE81040184700BF000000002413FF1F34
:10046000948500002013FF1F0000000010B52C4CE5
:1004700040F6B831204603F0CDFC204629494FF420
:10048000165203F0A1FC2046012103F077FC00285E
:1004900037D101220021224803F084FD43F2D40029
:1004A00004F04AF80121242003F038FF17211E48E8
:1004B00005F0AEF8FE211D4801F01EF8C0B1112173
:1004C0001B4805F0A5F8174805F0AEFA08E01948F2
:1004D00005F09EF8134805F0A7FA642003F024FF06
:1004E0001549164800F0E2FD1F210028EFD010BD8D
:1004F0001B21134805F08CF80A48BDE8104005F0B0
:1005000093BA606C0F49036811225B6898472046D4
:100510000A2103F0A5FB204603F054FCB9E700BF15
:10052000B016FF1FC008FF1FAC7E00003414FF1F71
:10053000E07E0000F47E00009C07FF1F1C14FF1FDC
:10054000C47E0000987E000038B5234D234C284619
:1005500000F0D8FDDFED227A224B80EE277A83ED82
:10056000000A17EE100A06F0EBF841EC100B2046DB
:10057000022105F0A9FA08211B4805F049F8284690
:1005800000F062FE194B10EE100A83ED000A06F02F
:10059000D7F841EC100B2046022105F095FA0A210C
:1005A000134805F035F8284600F000FD114B10EE19
:1005B000100A83ED000A06F0C3F841EC100B204648
:1005C000022105F081FA03210B4805F021F82046AD
:1005D000BDE8384005F028BA1C14FF1FC008FF1FF3
:1005E00000007A443C13FF1F147F00002414FF1FF7
:1005F000207F00002814FF1F2C7F000008B504484E
:1006000000F0A0FC0348BDE8084002F093BF00BF23
:100610001C14FF1F4013FF1F10B588B002461323A0
:100620006846314901F014F8684600F05DFF044661
:1006300060B919212D4804F0EBFF2D4805F0F4F9BD
:10064000684600F041FF204608B010BD0522294948
:10065000684600F0B1FE284B186806F071F841ECCE
:10066000100B0221684605F02FFA01222349684643
:1006700000F0A2FE224B186806F062F841EC100B65
:100680000221684605F020FA01221C49684600F064
:1006900093FE1C4803F092FA0621684605F014FA0E
:1006A00001221649684600F087FE164803F0ACFAAE
:1006B0000621684605F008FA01221049684600F054
:1006C0007BFE684605F0B0F9684600F0FFFE0921A0
:1006D0000D4804F09DFF064805F0A6F9684600F0B5
:1006E000F3FE204608B010BD3414FF1F447F000005
:1006F000C008FF1F307F00002814FF1F347F000058
:100700002414FF1F4013FF1F387F000070B5514CA9
:1007100084B023680193019B23B923680293029B51
:10072000012B20D94C4D4D4E284603F0ABFA3268D0
:100730004B4990420346086071D39A1AF92A12D99C
:100740004FF4FA712846336003F0A6FA01212846D7
:1007500003F014FB002864D13F48052103F080FA20
:100760003D4803F001FBFFF7EFFEFA2003F0DCFD4C
:1007700005E003F03FFFC1B23A4803F0B7F903F0D8
:1007800029FF0028F5DC374C3748FFF745FF0621E5
:10079000364804F03DFF204603F010FA06213448A5
:1007A00005F092F90721334804F032FF204603F0A8
:1007B0002BFA06212E4805F087F906212E4804F071
:1007C00027FFD4ED207A9FED2D7AF8EEE77A002509
:1007D000C7EE876A84F8795016EE900A05F0B0FFEC
:1007E00041EC100B0221224805F06EF9204805F07B
:1007F0001BF90121242003F08BFD0621204804F081
:1008000007FFD4F8901084F889502B460A22184824
:1008100005F01AF9164805F007F904B070BD336009
:10082000A1E72846012103F049FA686C15490368DD
:1008300001225B689847236803930399686C00233F
:100840000A2205F001F9284603F07EFA284603F053
:10085000B9FA81E7FC16FF1FB016FF1F1814FF1F1F
:100860002C14FF1F4013FF1F647F0000707F0000E7
:10087000C008FF1F787F0000807F00000000C84292
:10088000887F0000607F00000020704790F83920CA
:1008900090F83800101A704790F8383090F83920E6
:1008A0009A4205D95A1C034480F83820187E7047B4
:1008B0004FF0FF30704700BF90F8383090F8392083
:1008C0009A4286BF1B18187E4FF0FF30704700BF5A
:1008D000704700BF38B50546B0F85E0090B195F896
:1008E0005D301446C3F1210294420CD805F13B005F
:1008F0001844224603F084FB95F85D30234485F8C4
:100900005D30204638BD012014462871EEE700BF57
:10091000B0F85E306BB190F85D30202B07D8C2186C
:10092000013380F85D30012082F83B1070470123CD
:1009300003710020704700BF0023426980F83830FF
:1009400080F8393080F85C3080F85D3080F85E30B7
:1009500080F85F3006CA30B40D68046943662A43E4
:1009600083660A60A370426990F861301649146882
:1009700013441D7A5B7B01EBC5051B026D6803F414
:10098000E06343F064032B6090F8623013449D7C75
:10099000DB7D01EBC5011B02496803F4E06343F012
:1009A00064030B6021685368194205D003692C2247
:1009B0005A70036904229A71036920225A710369EB
:1009C00080229A7030BC7047CC81000038B5026933
:1009D000D478E4B2E106054624D51023D37063062B
:1009E0001FD504F0040404F0FF03002C5AD0424940
:1009F0006A6E00230B7085F85D30002A66D0904740
:100A000095F85D30002B61D02B69D0229A702B694C
:100A100095F83B201A712B69012285F85C2002228F
:100A2000DA7038BD04F0400303F0FF00002BD8D18A
:100A30009379DBB203F0600160294ED0937803F024
:100A4000100303F0FF01B3B114F0010437D195F89E
:100A50005C3095F85D1099424BD9591C2B4485F8B0
:100A60005C1093F83B3013712B69D0229A702B697C
:100A70000222DA70D5E785F86010937943F02003FD
:100A800093712B6995F839101A791F29D2B2C6D8FB
:100A9000194800780028C2D06818013185F839104B
:100AA0000276BCE72A6985F83930C02393702B6938
:100AB000114A1979012111700222DA70B1E7C023BD
:100AC00093702B691A790222DA70AAE701220023B7
:100AD00085F85D2085F83B3096E703F0DF039371DE
:100AE000AB6E23B185F8380095F8390098472A692C
:100AF000A4E71471B8E700BF3014FF1F2DE9F047D9
:100B0000374FDFF8E0903B68026982B006460093F9
:100B1000DDF8008000214FF49675D3789B065BD5F5
:100B20003B680193019BC8EB03030F2BF5D949B137
:100B3000102BF2D000209070336980229A7002B09E
:100B4000BDE8F087726996F8613013440521187A80
:100B500003F0E4FB726996F861301344012193F8C5
:100B600012A0504603F0DAFB09240021504603F09E
:100B7000CFFB2B46013BFDD10121504603F0C8FBC2
:100B80002B46013BFDD1013CEFD1706996F8611015
:100B900001444FF416720C7A4B7B09EBC4011B0223
:100BA000496803F4E06343F064030B6096F8623035
:100BB0000344997CDB7D09EBC1011B02496803F406
:100BC000E06343F064030B60013AFDD13269D378EE
:100BD0009B064FF00101A3D4012002B0BDE8F087CD
:100BE000FC16FF1FCC810000F0B503691222DA70F9
:100BF0000269937803F0200385B004460D46002B6C
:100C00005ED0B42393703C4922690B680093009E28
:100C100005E00B680193019B9B1B042B42D8D37802
:100C200003F0200303F0FF00002BF2D094F85D30B6
:100C3000002B31D04FF0000E4FF0020C04EB0E03EE
:100C400093F83B3013710B680393039F206907E00F
:100C50009B060DD50B680293029BDB1B052B28D846
:100C6000C378DBB203F0020202F0FF06002AEFD0E5
:100C700080F803C02669F378DBB2DF0632462DD454
:100C80009F062BD5DB0731D40EF1010E94F85D30B1
:100C90005FFA8EFE7345D1D800201DBB002384F877
:100CA0005E3004E09070236980229A70042005B0C1
:100CB000F0BD86702369802204209A7005B0F0BDD3
:100CC00003F0FF06FFF71AFF10B9042005B0F0BDCE
:100CD000236984F85F60B0229A7094E78023B37030
:100CE0000420DAE726698023B370D7E7BEF1000F4E
:100CF0000CBF02200320F6E7FC16FF1F2DE9F04190
:100D000006690025122780F8385080F83950F770AE
:100D1000D0F810C09CF802E00EF0200E88B0044617
:100D2000884615461E46BEF1000F49D0B4238CF804
:100D300002307A4B21691A680092DDF800E006E083
:100D40001A6801920198CEEB0000042830D8C878C8
:100D500000F0200000F0FF070028F1D04FEA480221
:100D600042F00102D2B20A711A680292DDF808E07C
:100D7000206906E01A6803920399CEEB0101052968
:100D80002AD8C17801F0020101F0FF070029F1D053
:100D90004FF0020C80F803C02269D17811F01107DE
:100DA00022D12DBB002E0CBFA0238023937003E023
:100DB0008F70236980229A70384608B0BDE8F081B0
:100DC0000EF0FF07FFF79AFE0028F5D0236984F89C
:100DD0005F70B0229A70ACE7877023698022384632
:100DE0009A7008B0BDE8F081802393700027E3E794
:100DF000012D78D0A021917021690A79BE466746FD
:100E00004FF0A80C1A680492049805E01A6805923D
:100E1000059A121A052A4DD8CA7802F0020202F089
:100E2000FF08002AF2D0CF702169CA78D2B212F03E
:100E3000100F08465DD192065BD5013DEDB2012D44
:100E40004CD0BEF11F0F3ED90A79012DDAD11A68B4
:100E50000692069D05E01A680792079A521B052A1A
:100E600056D8C27802F0020202F0FF01002AF2D046
:100E70000223C3702269D378DBB2D9063BD49B0628
:100E800037D5B023BEF11F0F937043D8226904EB0E
:100E90000E0312791A760EF1010E5FFA8EFE00BF74
:100EA00000BF00BF16B1236980229A7084F839E030
:100EB000774681E781F80280236980229A7077461D
:100EC00084F839E078E704EB0E0291F8048082F8A8
:100ED00018800EF1010E5FFA8EFEB6E781F802C0AF
:100EE00021690846ADE7A82191702069BE460279C4
:100EF000ADE7774660E710214FF49673D170013B60
:100F0000FDD12269937803F0F7037746937053E796
:100F10008170D1E723691B79C1E700BFFC16FF1F71
:100F20000148FFF753BD00BF9C07FF1F0148FFF7B3
:100F30004DBD00BF0808FF1F0148FFF747BD00BFB8
:100F40003007FF1F704700BF38B50368C022012576
:100F500083F83B2083F85E5083F85D5004460068B8
:100F600003681B68984700212068FFF73DFE2B4669
:100F70002A4620686021FFF7C1FE20680A4A0368FC
:100F80005B6993420BD190F8383090F839209A423F
:100F900008D95A19034480F83820187E38BD98477C
:100FA000C0B238BDFF2038BD9908000070B50546B5
:100FB00000212846FFF7C8FF04460A2003F0B4F9D1
:100FC000A107F5D52B68294EC022012483F83B20C8
:100FD00083F85E4083F85D402868036804211B683D
:100FE000984700212868FFF7FFFD23460222602171
:100FF0002868FFF783FE286803685B69B3422CD139
:1010000090F8383090F839209A422BD91A190344B5
:1010100080F838201C7E286803685B6964B2B3429C
:101020004FEA04241CD190F8383090F839209A42C5
:1010300018D95A1C034480F83820187E204340F306
:101040000B1003B2020544BF6FEA03536FEA135358
:1010500000EE103ABAEECE0A70BD98470446DAE7C1
:101060009847EBE79FED020A70BD00BF99080000AA
:10107000000080BD38B503680446C025012083F810
:101080003B5083F85E0083F85D00206803681B68AE
:10109000154698472068036829461B6898472068CA
:1010A0000021BDE83840FFF79FBD00BF10B50160CB
:1010B00004460846FFF740FC20460C21FFF744FF9A
:1010C000C42801D0002010BD204604222621FFF7AD
:1010D000D1FF0A2003F028F926212046FFF734FF2C
:1010E00010F0040F4FF00A00F4D1B82262712046CC
:1010F0002621FFF7BFFF204607221321FFF7BAFF83
:10110000012010BD70B5044601E003F00DF9262161
:101110002046FFF719FF00F0020303F0FF010A2049
:10112000002BF2D1627961F3C71262712621D2B22B
:101130002046FFF79FFF627942F00202627126218A
:101140002046FFF797FF00212046FFF7FDFE0546EA
:101150000A2003F0E9F86B07F5D52368384EC02262
:10116000012583F83B2083F85E5083F85D502068AA
:10117000036829461B68984700212068FFF734FD63
:101180002B46032260212068FFF7B8FD23681A6808
:101190005269B24237D193F8381093F83900884237
:1011A0003DD94A1983F83820194423680D7E1A68FE
:1011B0005269B2424FEA05252ED193F8381093F8C0
:1011C000390088422BD94A1C194483F83820087EFC
:1011D00023681A68526940EA0504B2424FEA0424BF
:1011E00021D193F8382093F83910914224D9511C19
:1011F0001A4483F83810107E0443230900EE103A95
:10120000BAEECF0A70BD1846904723681A68526933
:10121000B2424FEA0025D0D018469047D8E7B242F4
:101220000AD06FF0FF04184690472043030900EEF0
:10123000103ABAEECF0A70BD9FED020A70BD00BF32
:10124000990800000000804C70B5044601E003F0EE
:101250006BF826212046FFF777FE10F0020F4FF0C3
:101260000A00F4D1627942F08002627126212046A0
:10127000FFF700FF627942F00202627126212046E8
:10128000FFF7F8FE00212046FFF75EFE05460A2024
:1012900003F04AF86B07F5D52368374EC0220125C5
:1012A00083F83B2083F85E5083F85D502068036824
:1012B00029461B68984700212068FFF795FC2B46BC
:1012C000032260212068FFF719FD23681A6852691C
:1012D000B24235D193F8381093F8390088423BD99F
:1012E0004A1983F83820194423680D7E1A68526918
:1012F000B2424FEA05652CD193F8381093F83900C3
:10130000884229D94A1C194483F83820087E23686A
:101310001A685269B24245EA004420D193F8382055
:1013200093F83910914223D9511C1A4483F838108C
:10133000107E44EA002300EE103ABAEEC80A70BDEF
:101340001846904723681A685269B2424FEA00650E
:10135000D2D018469047DAE7B24209D0074C184677
:10136000904744EA002000EE100ABAEEC80A70BDA9
:101370009FED030A70BD00BF990800000000FFFF49
:10138000000080BB704700BF10B582B002AB02689E
:1013900003F8011D546819460122A04702B010BD90
:1013A000C06938B18369C06847F6FF72181A904265
:1013B00028BF1046704700BFC36910B504463BB153
:1013C00000201871E06901F05DFCE3691B791BB135
:1013D00001232371002010BD10BD00BFC06978B18A
:1013E00000B583B001220DF1070101F01DFA0128BB
:1013F0000CBF9DF807004FF0FF3003B05DF804FB11
:101400004FF0FF30704700BFC369C3B110B582B061
:101410000446012218460DF1070101F005FA0128E2
:1014200003D04FF0FF3002B010BDE0699DF80740D7
:10143000C168013901F0B4FA204602B010BD184667
:10144000704700BFC06908B101F0DCBA704700BF47
:101450002DE9F04105464FF47A731348AB60002341
:1014600028602B712B7324200C46904605F0C2FC9B
:10147000E861B0B1064604F1200E20686168A268F8
:10148000E36837460FC7103474453E46F5D12068EF
:10149000386041460C2205F10D0006F05DFA00238C
:1014A0006B762846BDE8F0811C8000004FF47A720C
:1014B000044982600022016002710273C2614273BA
:1014C000704700BF1C800000704700BFC36953B164
:1014D00010B50446184601F02FF9E06905F092FCBA
:1014E0000023E36110BD7047C06918B180790030F6
:1014F00018BF0120704700BFFE2938B5054617D038
:101500000A46012100F006FE03460BB9002038BD53
:101510002C1D20460122294601F0A4FE98B1214647
:1015200005F12C0001F058F9003018BF012038BD3A
:10153000017000F0DDF9044600F0C8F9B4FA84F354
:101540005B09A870E1E702462946204601F08AFEC1
:101550000028E4D1002038BD2DE9F04F99B04FF0BC
:101560000008DFF8E8A08DF81C808146043106A849
:10157000934601938DF81E808DF840808DF842804F
:10158000CDF818A0CDF83CA001F026F906AE5D46D6
:101590000FAF2F21284605F0A1FF441BE4B22946D6
:1015A00008B32B782F2B02A81BD00C2C28BF0C249F
:1015B000224606F0D1F918AB2344384603F8588C7C
:1015C00001F0BAF8012302AA3146384601F04EFB79
:1015D00088B3304601F0B0F8334625443E461F46F6
:1015E000D7E70135D5E7019831797279B379B468D5
:1015F000377DCBEB05050560F068356989F8041087
:1016000089F80520B16989F80630F269336AC9F8AA
:101610000C004846C9F800A0C9F80840C9F81050A5
:1016200089F81470C9F81810C9F81C20C9F82030BE
:1016300019B0BDE8F08F89F8040089F80600484623
:10164000C9F800A019B0BDE8F08F00BF44800000C9
:10165000F0B59DB005461F4601A86B461446FFF73E
:101660007BFF009AA35C1444002B42D09DF80A2013
:101670002F4E0A9600238DF82C308DF82E30002A3C
:1016800031D00AA83B46224601A901F0EFFA50B337
:1016900001A801F051F817F0060F43D19DF82C7006
:1016A0000C9B9DF82DE0139622469DF82E408DF858
:1016B00050708DF8524015930D990E989DF83C701E
:1016C000109E119C129B8DF851E01691179013A952
:1016D00028468DF8607019961A941B93FFF7B8FE90
:1016E00028461DB0F0BD2846FFF7E0FE28461DB095
:1016F000F0BD9DF808700E4E9DF809409DF80A3027
:10170000039A8DF8507013968DF851408DF8523031
:101710001592049905989DF81870079E089C099BDE
:10172000044AD2E70AA8109901F03AF9B6E700BFD7
:101730004480000038800000064B074ADA6202212C
:10174000002259609A7083F8242083F8302083F8AF
:10175000322070473414FF1F4480000010B4114C35
:10176000114B226811491340184322F0080240F43B
:101770006020226020600B681C0706D40C4B01E03F
:10178000013B02D00A681207FAD5064B094A5DF8F8
:10179000044B40F008001860136843F48013136092
:1017A000704700BF2C100B400700F0FF24100B40C7
:1017B000FFFF0F0030100B402149224A0B6843F015
:1017C00080030B6011461368DB07FCD40B689B0792
:1017D000F9D41D4B30B44FF08072194D186000E001
:1017E000A2B12968194B164C0B40013A002BF7D0D7
:1017F00062B1012B0AD1236813F0800F23680FD048
:1018000043F001132360032030BC70470C4A136877
:1018100043F4702343F001031360012030BC704790
:1018200013F4803305D0236843F0011323600520AF
:10183000F4E7226842F0010218462260EEE700BF9A
:1018400030100B4024100B400C100B4001000E0018
:1018500070B50D4D0D480E4E00232B60FFF7ACFF09
:101860006324034606E04BB92B60FFF7A5FF013C5C
:10187000034605D0326805485207F4D4184670BDB7
:10188000002808BF052070BD08100B400000DB0CCD
:1018900024100B4070B5094C00230546236008480E
:1018A000FFF78AFF00B170BD064E07483368256018
:1018B000FFF782FF0028F6D1336870BD08100B4097
:1018C00000001A3710100B4000000229074B1A784D
:1018D0004AB99A782AB15B78002B0CBF022003200A
:1018E0007047012070470020704700BF8814FF1F19
:1018F0002DE9F047674D684E2B68684F6849694C81
:1019000069486A4ADFF8C8E143F400332B60336862
:1019100043F4005333603B6843F002033B600B68C1
:1019200043F002030B60236805F59F4506F59F46CB
:1019300007F59F4701F5D12123F00103236001F250
:10194000EC7140F2031358355436543703600024C9
:10195000574813602C600A4633603B60CEF8003075
:101960000860136813F08073FBD1524C524A5348FD
:10197000534923604FF481354FF01013282405603C
:101980000C604FF487501360FFF7E8FE4D4A136870
:101990009C07FCD1454EDFF810E14B4C4B4A4C49BB
:1019A0004C4F4D4D4D4840F24343CEF8003033602C
:1019B0004FF48866266013604FF6FF76484C3B6014
:1019C00002F5C8220B6020322E604FF4FA710460D9
:1019D000136843F00063136013681801FCD40139E5
:1019E000F6D13D4A3748136843F08003136003681B
:1019F000DA0308D43B4B0220597099701870596073
:101A00009960BDE8F087374C374E21706170A17046
:101A1000084631606160A160FFF7CEFE68B9334DC2
:101A200033482B684FF4D5733360FFF7C5FE40B9D8
:101A30002B682B68B3F5D57F29D001202070BDE835
:101A4000F0870528F9D10020FFF724FF0028F4D102
:101A5000264B1A6812F4401F58D06278254FDFF8E1
:101A60009880002A05461E4608BF4FF4401704E040
:101A70003268002A42DB454546D03846FFF70AFF68
:101A800001351A4B0028F3D00120BDE8F08701236F
:101A90006370D8E730800440388004403C800440C4
:101AA0004080044000D0004000D0044004D00440F6
:101AB00000800001C0100B4044100B4004100B408C
:101AC00028100B4024100B4008D004400CD00440D8
:101AD00014D0044010D0044030100B4034100B40A0
:101AE000BB007F118814FF1F08100B4010100B4023
:101AF00000001A0800003040A0860100554A9542B7
:101B000002D01B685B0001D400236370524E53481F
:101B100000233360FFF750FE034600288DD1504D5F
:101B200050482A683360FFF747FE002885D12B68AC
:101B30002B684D484D4D1B0C1B0433606360FFF751
:101B40003BFE00287FF479AF494B4A491A68120ED0
:101B5000EA700A6812F4400F71D1196846481B6890
:101B6000026800689B0203F4406343EA9253C0F3A7
:101B7000C2105A1CC1F30321831C093902FA03F372
:101B80008B40AB60344E636833603C48374FFFF79F
:101B900013FE00287FF451AF314D39482B684FF4C4
:101BA00000733360FFF708FE00287FF446AF7B68C0
:101BB0002A6834483360FFF7FFFD00287FF43DAF0B
:101BC00002232A6830483360FFF7F6FD00287FF4CF
:101BD00034AF2E4B2A681A68DFF8B8A0DFF8B89047
:101BE000DFF8B8802A4C22F006021A601A68A6F5BF
:101BF000C726A6F2FC76A5F5C82542F002021A60B7
:101C000040F20313CAF80030C9F80030C8F80000E9
:101C100033604FF498702B602360FFF79FFD40F214
:101C200043434FF48862CAF80030C9F80030C8F85E
:101C3000002033602B6023603878BDE8F0870122F4
:101C40000D4BAA701B68C3F3152313449B02AB60B2
:101C500098E700BFA086010008100B4000000902B1
:101C600010100B4000001A03000009098814FF1F20
:101C700018100B401C100B4014100B4000001B07E9
:101C800000001A1000001A3700001A0628100B4036
:101C900014D0044000D0044004D0044008D00440D4
:101CA000F8B5384B1A780AB10320F8BD5B780646C0
:101CB00003B94902344D354C354B36484FF6FF7762
:101CC0004FF481322F6021601A60FFF775FD002804
:101CD000EBD1314B31491B681C3406F1400206F54B
:101CE00010702B68284F43F0200613F4E00F2E608D
:101CF0003ED123681E05FCD50B6842F8403C0B68BA
:101D000042F83C3C0B6842F8383C0B6842F8343CE3
:101D10000B6842F8303C0B6842F82C3C0B6842F8E8
:101D2000283C0B6842F8243C0B6842F8203C0B68C6
:101D300042F81C3C0B6842F8183C0B6842F8143C13
:101D40000B6842F8103C0B6842F80C3C0B6842F8F8
:101D5000083C0B6842F8043C40328242C1D100206A
:101D600009490B68084A9B07FBD50D4B1360F8BD6A
:101D700043F4E00343F020033B60FFF769FD0120DB
:101D8000EEE700BF8814FF1F30100B4008100B4017
:101D900004100B4010003A1110100B4020100B40A3
:101DA00022000001F8B52B4B1A780AB10320F8BDC8
:101DB0005B78044603B94902274D284E284B294831
:101DC0004FF6FF774FF481322F6031601A60FFF7D2
:101DD000F3FC0028EBD1244B24491B682E4604F564
:101DE00000772B681C4AD806FBD5336813F4E00F44
:101DF0001AD104F1400254F8043B0B60A242FAD11C
:101E00002B68DFF854E043F010032B602B6813F4C9
:101E1000E00013D19742E4D10F490B680E4A9B07AB
:101E2000FBD5134B1360F8BD136843F4E00343F094
:101E300010031360FFF70CFD0120EDE7DEF8003022
:101E400043F4E00343F01003CEF80030FFF700FD49
:101E50000120E1E78814FF1F30100B4008100B40F1
:101E600004100B4000003A1810100B4020100B40DB
:101E700012000001052822D8DFE800F003030F1547
:101E80001B09124B124A1A60124801F015BB0F4B86
:101E9000114A1A600F4801F00FBB0C4B0F4A1A6031
:101EA0000C4801F009BB094B0D4A1A60094801F0C2
:101EB00003BB064B0B4A1A60064801F0FDBA034B00
:101EC000094A1A60034801F0F7BA00BF9814FF1FCF
:101ED000000001B87808FF1F0430003801100038F6
:101EE00003200038010002380650013810B50121E6
:101EF000007802F00DFA114A1378C3B11049CB7A79
:101F000000241846147093B1DA0703D50D4AC86946
:101F1000106018469C0703D50B4B0A6AC87A1A60F2
:101F2000420705D4030702D5084B8A6A1A6010BD20
:101F3000074B4A6AC87A1A60F4E700BF9C14FF1F77
:101F40007808FF1F00E100E004E100E00CE100E0A0
:101F500008E100E0234B1A781AB10078002102F062
:101F6000D7B970B4204A2149D47A096801251D7077
:101F7000002C26D072B6D47AE607234606D51C4D2F
:101F8000D3682E683340D3612B602346A50706D55E
:101F9000184D14692E68D37A344014622C605C07A3
:101FA00006D5154D54692E68D37A344054622C609E
:101FB0001B0705D5114C936925682B40936223605C
:101FC00062B61368DA688A4207D00D4C1C600D4A6D
:101FD000D96041F080441C611A600078002170BC17
:101FE00002F096B99C14FF1F7808FF1F9814FF1F7A
:101FF00080E100E084E100E088E100E08CE100E0C5
:1020000001403F0000003F80F0B41248124A0368CC
:1020100082B016460093009F4FF00045FF241368DE
:1020200043F480631360D5625463D36A002BFCDAF7
:10203000B36BDBB2FF2B09D003680193019BDB1B61
:102040008B42ECD3002002B0F0BC7047012002B0FC
:10205000F0BC7047FC16FF1F00C00240F8B50D46EB
:102060004FF4967116460446FFF7CEFF284B1A68C8
:102070004FF0004042F4806245F040011A60D8629F
:102080001A465963D36A002BFCDA214918204FF015
:1020900000470A6826FA00F342F48062DBB20A6065
:1020A000CF624B63CB6A002BFCDA083810F1080FC3
:1020B000EFD155B3082D0CBF8721FF21144B1A68AF
:1020C0004FF0004042F480621A60D8621A465963A9
:1020D000D36A002BFCDA0E4A002716464FF0004563
:1020E000FF21136843F480631360D5625163D36AA0
:1020F000002BFCDAB36BD8B21B06607000D4F8BDBD
:102100000137B7F5807FECD1F8BD9521D6E700BF48
:1021100000C002402DE9F04300239D4E027085B0BF
:102120008370336801930546884610460121019F5C
:1021300002F0EEF82878012102F0F0F82878012169
:1021400002F0E6F8934A136843F4805313600620C4
:10215000FFF790FEDFF870E28F4B9EF80BC01A6815
:10216000BCF1000F2CD072B69EF80B10C8070B46BE
:1021700008D58A48DEF80C3004682340CEF81C30BD
:1021800003600B468C0709D58548DEF810100468FB
:102190009EF80B302140CEF820100160580709D579
:1021A0008048DEF8141004689EF80B302140CEF809
:1021B00024100160190700F1AB8062B69EF80BC0D5
:1021C000DEF80030D968914207D077481860774927
:1021D000DA6042F0804018611960754A0A244FF0B5
:1021E0000040FF21136843F480631360D0625163A1
:1021F000D36A002BFCDA013C14F0FF04F2D1BCF1ED
:10220000000F21D01CF0010F05D06A4BDEF81C2016
:102210009EF80BC01A601CF0020F05D0664BDEF86A
:1022200020209EF80BC01A601CF0040F05D0634BF1
:10223000DEF824209EF80BC01A601CF0080F03D0B3
:102240005F4BDEF828201A602846FFF783FE06E081
:1022500033680293029BDB1BB3F5FA6F51D800225F
:1022600011462846FFF7FAFE012881466870EFD133
:102270004FF4D57208212846FFF7F0FE430726D514
:1022800085F802904FF0000906E033680393039B42
:10229000DB1BB3F5FA6F34D8002237212846FFF74D
:1022A000DDFE4A4629212846FFF7D8FE687000283F
:1022B000EBD1AB78022B39D02846FFF717FE40460A
:1022C000FFF7D8FD0124204605B0BDE8F083384A69
:1022D000042194464FF0004EFF20136843F48063BE
:1022E0001360C2F82CE05063D36A002BFCDADCF8F0
:1022F00038300139DBB211F0FF016B70EDD1AA2B40
:102300000FD02846FFF7F2FD204605B0BDE8F08368
:102310002C49DEF8183008680340CEF828300B60EE
:102320004BE70223AB704FF08049B5E702463A21F4
:102330002846FFF793FE0028E3D11D4B1A684FF0A3
:10234000004442F48062FF201A601946DC62586340
:10235000CB6A174A002BFBDA936B154A03F0C003D4
:10236000C02B04BF0323AB70032116464FF000447B
:10237000FF20136843F480631360D4625063D36A10
:10238000002BFCDA013911F0FF01B36BF1D193E7B7
:10239000FC16FF1F3C8004409814FF1F80E100E002
:1023A00084E100E088E100E001403F0000003F8060
:1023B00000C0024000E100E004E100E008E100E0CC
:1023C0000CE100E08CE100E07808FF1FF0B4154953
:1023D000154A0B6882B016460093009F4FF00045E7
:1023E000FF24136843F480631360D5625463D36A97
:1023F000002BFCDAB36BDBB2FF2B43700AD10B6806
:102400000193019BDB1BB3F5967FEAD9002002B054
:10241000F0BC7047A3F1FE00B0FA80F0400902B0B2
:10242000F0BC7047FC16FF1F00C00240F8B583786F
:10243000032B0E46044618BF4E021546FFF78AFDD1
:10244000324611212046FFF709FE18B92046FFF752
:10245000BDFF20B92046FFF749FD0020F8BD204B05
:102460002049214A1A608E4659631A4659631E460E
:10247000596305F5FD70A91C05F5FE77D36A13F0C5
:10248000F00FFBD0C6F834E0B36B01F8013C1B122F
:1024900001F8023C02318F42F0D105F50075A842E7
:1024A0000DD20F4A1646D36A13F0F00FFBD0B36B70
:1024B000191200F8021BA84200F8013CF3D3084BA4
:1024C0000949084A196019465A63CB6A044A13F04D
:1024D000F00FFAD02046936BFFF708FD0120F8BDFE
:1024E00000C00240FFFF009000041F80F0B4314E96
:1024F00033684FF0004743F4806333603D46F76232
:10250000344671633346511C02F20127E26A002A05
:10251000FCDA1A6811F8016C42F480621A60DD621C
:102520005E63E26A002AFCDA1A6811F8026B42F470
:1025300080628F421A60DD625E63E7D11D49CA6A1C
:102540001C4B002AFBDA1A684FF0004542F4806207
:10255000FF241A601946DD625C63CB6A154A002BC2
:10256000FBDA13684FF0004543F48063FF241360E7
:102570001146D5625463CB6A0E4A002BFBDA13680E
:102580004FF0004543F48063FF2413601146D56289
:102590005463CB6A074A002BFBDA936BDBB203F080
:1025A0001F024370A2F10500B0FA80F04009F0BCB0
:1025B000704700BF00C0024070B5044671B1837817
:1025C000032B0D4618BF4D021646FFF7C3FC2A46E3
:1025D00018212046FFF742FD054620B12046FFF7AF
:1025E00085FC002070BD3246FE212046FFF77EFFAD
:1025F0000028F3D04FF416712046FFF705FD0028A0
:10260000ECD02A460D212046FFF728FD0028E5D111
:102610000B4B1A684FF0004542F48062FF201A60AD
:102620001946DD625863CB6A054A002BFBDA936BCF
:1026300013F0FF0FD2D12046FFF758FC012070BDE8
:1026400000C00240014B024A1A6070479814FF1FF5
:102650000320003838B590F90530002B03DBBDE8C6
:10266000384000F013BC04460121006900F04EFC24
:10267000F8B1257D104B13EB45151AD0A3790F4AFD
:10268000012B9CBFA369EB61E36912686B831B0C90
:10269000AB8232B105F1160105F1180090472B8B82
:1026A0006B82637903F07F036371BDE8384000F00B
:1026B000EDBB002038BD00BFAC14FF1FA014FF1FEE
:1026C00010B500F1080204460121006A00F012FD75
:1026D00050B1E3693BB96379A268E26163F07F03BB
:1026E0006371012010BD012010BD00BF70B506460A
:1026F000FFF7E6FF98B1326AB568117C5369147927
:10270000023D8D40013B74B11D4402E014F0FF0412
:1027100007D0601900F06AFC013C0028F6D10020C7
:1027200070BD336A197CB0694FF4007202FA01F38C
:102730000344B361012070BD82790AB9002070475B
:1027400010B50446FFF786FF18B10023A3710120DE
:1027500010BD002010BD00BF70B44B1E01F10A0473
:10276000202203F8012FA342FBD1013800250726C0
:1027700010F8014F2CB32E2C1ED0164A01E09C42BB
:1027800017D012F8013B002BF9D1AE421FD3A4F1B0
:1027900021025D2A1BD8A4F16102192A05F1010367
:1027A00098BF203C0D44DBB298BFE4B22C701D46AC
:1027B000DEE7002070BC70470A2EFAD008250A26F2
:1027C000D6E70B78B3F1200018BF0120F2E71846D6
:1027D000F0E700BF5480000038B583793BB991F829
:1027E0002020102A0D46044603D0202A10D00020B5
:1027F00038BD022282714A8CC36153018361002378
:102800000120607123752562A360E360236138BDF8
:1028100003238371496AC16100F11802284600F060
:1028200039FC0028EBD1E2E7837913B94FF0FF3090
:1028300070472DE9F04F8B464179C90783B00546B3
:102840005BD5C1688469641A944228BF1446264641
:102850000194002C69D01A46022ADFF8FC903D4F03
:10286000DFF8F880C1F3080A42D0286A0479013CF5
:1028700004EA5124E4B2BAF1000F62D1002C60D115
:10288000002956D1EA69AA6090F810E04169023A3D
:1028900002FA0EF221441144CAF500746A79B44276
:1028A000A8BF344653062DD4B4F5007F2AD008467D
:1028B000002100F02BFB00B30AEB090E0EEB040025
:1028C00086450BD00BF1FF32734613F8011B02F85B
:1028D000011F9842F9D1CEEB00008344E968361B12
:1028E0002144E96021D0AA79022AC1F3080ABCD1A7
:1028F0002A6A506A00EB5121CEE74FF0FF3003B057
:10290000BDE8F08F3A689142D1D0D8F80000037842
:10291000FE2B18D05A46FFF789FD0028EDD0E96854
:10292000361B2144A344E960DDD1019803B0BDE822
:10293000F08F05F10802A96800F074FB0028DCD0D4
:10294000286AAA68A0E75846FFF7AAF9B0FA80F00B
:102950004009E2E77408FF1FAC14FF1FA814FF1F13
:102960008379012B17D930B5C36883B001220DF1EB
:1029700007010446C3F34315FFF756FF012802D0B1
:10298000002003B030BDE36804481F3300EB45105E
:10299000E36003B030BD0020704700BFAC14FF1FE0
:1029A000F8B5837913B182698A4201D20020F8BD5B
:1029B000022B0F4605461AD007B32B6AE9681C7C28
:1029C0004A1E04F109037C1EDA40DC40A24211D900
:1029D000EB69AB6005F1080606E0A968286A00F01B
:1029E00021FB013C0028E1D03246002CF5D1EF60FC
:1029F0000120F8BD0029EBD0A41AEBE7AF60EF602F
:102A00000120F8BD83790BB1FFF724BE184670474B
:102A10008379012B01D000207047F0B54579AC07D0
:102A200083B002461CD585698D420C4618D3D5B1BA
:102A30002546D6681446FFF7B3FF88B1B5B9E169FA
:102A4000206A00F0E1FB58B1E56122E000F0DCFB18
:102A500030B16FF07042A168206A00F0C3FBC0B9CA
:102A6000002003B0F0BD184603B0F0BD01AAA16874
:102A7000206A00F0D7FA0028F2D0206A0F4B90F8B5
:102A8000207001994FF6F872102F08BF1346994233
:102A9000DCD36379A279A56163F07F036371002AB7
:102AA000DED02046FFF7D6FD0028D9D0B542294612
:102AB000204628BF3146FFF773FFD2E7F8FFFF0F2C
:102AC00070B51D4B03EB4116F37A13F0110F02D0D2
:102AD00012F0420F1ED1194B01751B680361738BF5
:102AE000B18A43EA0141C161F37A13F01803154634
:102AF00004460DD1F36983610123837105F00F034F
:102B0000002163716B06A160E1600FD4012070BDEC
:102B1000102B01D0002070BD00F11802006A00F0F7
:102B2000B9FA0028F6D00423A371E7E72046BDE8F0
:102B30007040FFF76DBF00BFAC14FF1F7408FF1F8C
:102B40002DE9F04784B001AF06460C4610463946E1
:102B50009946FFF701FE78B30022216A31621346DD
:102B60001546A260E260DFF8008108E0E52B1CD08A
:102B700001460B22384604F01BFC88B3E368A269C7
:102B80009A421DD92046C3F3431AFFF7E9FE98B1D4
:102B90000378002BEAD15DB9D8F8003086F814A08C
:102BA0003361037823B10125E8E7002DFBD1F3E77A
:102BB00009F01203122B1DD0002004B0BDE8F087ED
:102BC00009F01203122BF7D1A5B9A379022BF3D088
:102BD0002046FFF78BFD0028EED0214C357514E020
:102BE00009F03003302BE7D04A4651463046FFF714
:102BF00067FFE2E70121306900F088F90028DBD0A7
:102C0000347D174B13EB4414D6D0202200212046EC
:102C100004F000FC97E80700234603C3114923F89A
:102C2000022B0D68120C1A709DB104F10E0104F113
:102C30001000A847238AE28963822383E28200F09E
:102C400025F90028B8D04A46317D3046FFF738FFD5
:102C5000B3E742F621034FF400622382E281EBE7FF
:102C6000AC14FF1FA014FF1F7408FF1F10B4847959
:102C70001CB100205DF8044B70475DF8044BFFF772
:102C80005FBF00BF2DE9F04F8B46817985B00129E8
:102C90000746019205D001233B71002005B0BDE835
:102CA000F08F42799107F6D5530708D5FC68B969CA
:102CB0008C4200F0B480FFF773FE0028EBD0019B3C
:102CC000FC68002B4AD0DFF8A491DFF8A4A1DDF85E
:102CD0000480386A0679013E06EA542616F0FF069B
:102CE000C4F3080443D1002C41D1B968002973D141
:102CF000FA69002A00F08380BA60C4F50075ADB2AD
:102D000045453AD9057C4169023AAA400E44164429
:102D10001FFA88F51CB9F868BA6990424FD230465C
:102D2000012100F0F3F80028B5D04C4404EB050E67
:102D300074450DD00BF1FF31621E0EF1FF3611F814
:102D4000010F02F8010F9642F9D1C4EB0E04A3441F
:102D5000FC68B8EB05082C44FC60BAD1BB69A342FF
:102D600062D27A79BC6142F080027A7165E0C4F582
:102D70000075ADB24545BA68C4D8017C4069023AD5
:102D80008A400644B5F5007F1644C3D1DAF8002026
:102D9000964204BF4FF0FF32CAF800202F4A106855
:102DA0000278FE2A314633D05A46FFF705FC002848
:102DB0003FF471AF0BF5007B4FF40075C8E700F0EE
:102DC00065F800283FF467AF2549CAF800600A7823
:102DD00042F001020A70A8E703AA00F023F90028D4
:102DE0003FF45CAF386A1F4B90F82050039A4FF6BF
:102DF000F871102D18BF19468A42FFF47DAF38468E
:102E0000FFF75EFC00283FF446AF386ABA6874E703
:102E10005846FEF7C7FFB0FA80F04009C7E7019BAC
:102E2000002B7FF450AF08E00F4B7A791B6823B179
:102E3000019B13B142F080027A71120709D5BB7968
:102E4000002B3FF428AF3846FFF704FC00283FF47E
:102E500022AF019805B0BDE8F08F00BFA814FF1F96
:102E6000AC16FF1FF8FFFF0FA014FF1FAC14FF1FCD
:102E70007408FF1F00B583B002AB012203F8011DE7
:102E80001946FFF7FFFE03B05DF804FB70B51A4C5E
:102E900023780BB9012070BD184D194B28681968AB
:102EA0000378FE2B17D0174AFFF786FB88B1164E22
:102EB000316819B900232370012070BD2868037898
:102EC000FE2B0FD00F4AFFF777FB10B100233360C2
:102ED000F0E7002070BD0B48FEF764FFB0FA80F009
:102EE0004009E3E70748FEF75DFFB0FA80F04009CC
:102EF0000028EBD1EDE700BFAC16FF1FA814FF1FA1
:102F00007408FF1FAC14FF1FA414FF1F70B5124DEF
:102F10002B6883420E4611D00446FFF7B7FF08B96D
:102F2000002070BD0D4B18680378FE2B0CD00C4AA6
:102F30002146FFF77BFA0028F2D02C60094B197864
:102F400031431970012070BD21460548FEF7A8FEE7
:102F5000B0FA80F04009EEE77408FF1FA814FF1FC5
:102F6000AC14FF1FAC16FF1FF8B590F82030C469F1
:102F7000102B1A4B05460E4617461B6816D004EB5D
:102F8000D1149C4216D106F07F06154A42F82670ED
:102F90001449287E0A78012842F001020A7018D9E3
:102FA000A968114A0B4413600120F8BD04EB1124F9
:102FB0009C4208D000212046FFF7A8FF50B195F8A9
:102FC0002030102B07D1F6B2054A234622F816709E
:102FD000DEE70120F8BD2346D5E700BF7408FF1FD8
:102FE000AC14FF1FAC16FF1FA414FF1F10B504463E
:102FF000FFF74CFF78B1084B002103F5007203F88E
:10300000011F9342FBD1054A054913780C6043F038
:1030100001031370012010BDAB14FF1FAC16FF1F7E
:103020007408FF1FC36801338B4218D370B590F842
:103030002030102B154B044616460D46C0691B6800
:103040000FD000EBD11098420FD105F07F01104B4B
:1030500053F8213023F070433360012070BD00200D
:10306000704700EB1120984207D00021FFF74EFF78
:1030700050B194F82030102BE7D1E9B2044B33F86B
:1030800011303360012070BD002070BD7408FF1F37
:10309000AC14FF1F2DE9F04782B002ADDFF850807D
:1030A00045F8041D044691464FF0000A4FF400779E
:1030B0004FF6F8760CE094F82030227C0199102B22
:1030C00014BF4346334607FA02F29942924408D2AB
:1030D0002A462046FFF7A6FF0028ECD102B0BDE843
:1030E000F0870120C9F800A002B0BDE8F08700BF5A
:1030F000F8FFFF0F2DE9F04F176883B06FB301376A
:103100004FF0000AC36803F1010813B38B4606466B
:1031100091463C46002505E01C461F46F3680135F4
:10312000AB4216D9A04538BF0224214601AA304639
:1031300038BF2746FFF776FF631CD91B48B1019AB9
:10314000002AE9D18B4510D01C46F3680135AB420B
:10315000E8D8002003B0BDE8F08FA1F1010ABAFA67
:103160008AFA07684FEA5A1ACCE7012CF1D9F368BA
:1031700001339C42EDD86FF0704221463046FFF794
:10318000F3FE0028E5D0A74214D2013C012CE0D97F
:10319000F36801339C42DCD8621C21463046FFF7BD
:1031A000E3FE0028D5D0A74204F1FF3402D0012C61
:1031B000EED1CEE7D9F8001059B10129C9D9F36889
:1031C00001339942C5D83A463046FFF7CDFE002874
:1031D000BFD0C9F80070BAF1000F01D001373760D5
:1031E0000120B7E701290CD9C3680133994210B413
:1031F00003D85DF8044BFFF7B7BE00205DF8044B21
:1032000070470020704700BFF0B5022383B0054629
:10321000134F03600C464FF6F8760FE0EB6801336E
:103220009C4216D8FFF7A0FE98B195F82030019C7B
:10323000102B0CBF33463B469C420DD201AA2146BF
:103240002846FFF7EFFE2146002210B1012C284648
:10325000E4D8002003B0F0BD012003B0F0BD00BFF2
:10326000F8FFFF0FF8B53E4B054619601446DAB17A
:10327000042A01D90020F8BD00210846FFF746FEC8
:103280000028F7D0374B03EB041292F8AE21520618
:10329000F0D11B3403EB0414D4F80A30632BE9D9C2
:1032A000D4F80640002CE5D000212046FFF72EFE82
:1032B0000028DFD02B4AB2F80B30B3F5007FD9D10C
:1032C000117C0029D6D0D389002BD3D0567B002E79
:1032D000D0D0002329762E712B74012703E0092911
:1032E0000B462974C6D007FA03F0B04203F101017E
:1032F000F5D1D68A1B4906B94E6AB2F80EE0AE6027
:10330000A644C5F81CE0B2F81110177C6984480186
:1033100006FB07E600F2FF1006EB60206E626861B4
:10332000B2F813100F4E01B9316A241A0C4424FA72
:1033300003F340F6F4718B42EB600BD94FF6F47156
:103340008B4285BFD36A6B621023202385F820301F
:103350000120F8BD0C2385F820300120F8BD00BF06
:10336000A814FF1FAC14FF1F10B4047F4160022C8F
:10337000C26003D05DF8044B02F04EBA83685DF87A
:10338000044B1847F0B4464B464A986B5C6B017986
:103390001170454922790A701A6B00790870002A69
:1033A00046D05968C9688A423ED82168CC8B24042B
:1033B00002F1FF3065D4C0F30E00C883C88B80B221
:1033C000C882996B0968C88B000452D4C2F30E00FE
:1033D000C883C88B002480B212F1FF32C88218BFA4
:1033E00001221C63596B2E4809680D6800F12C04FA
:1033F000A54236D00068C46814F0804F0C680D6890
:1034000015BF248824780235013544F000440D604E
:103410004463996B254B09791970214912B14A6BA4
:1034200012791A70F0BC7047521A1A630122D9E758
:10343000D86B196805681E4C0A63CC62CC682D688D
:103440001C4E24F080440327B542CC6083F82D70D5
:103450001FD1037F4260022BC2601ED0F0BC02F07D
:10346000DBB9016890F82C00CC6840F0004048635C
:10347000CFE7CC8BC2F3080004F47E442043C8831A
:10348000A7E7CC8BC0F3080004F47E442043C88334
:1034900094E72B461146F0BC18478368F0BC1847E8
:1034A0007808FF1F1F8000401C8000401B800040E8
:1034B00000000FFF6933000090E80C00F0B41C68B6
:1034C00059682568164F174E29432160164D174934
:1034D0001760D66015611160417A154A5C180C318D
:1034E00094F82C4053F8215002EBC40149680D6058
:1034F000017A5C1803EB8101247ECD6902EBC401E3
:1035000049680D60817A581803EB810390F84000F8
:10351000596C02EBC002F0BC53681960704700BFE1
:1035200001401F00011000380110007800001F80CA
:10353000CC810000002202210270427082808260F1
:1035400002730282426102768283026280F8242042
:103550000285C26280F8302080F8382080F8392057
:10356000C26380F8482080F84920C26480F858205F
:1035700080F85920026680F8682080F86920026788
:1035800080F8782080F87920C0F8802080F88820A2
:1035900080F88920C0F8902080F8982080F8992041
:1035A000C0F8A02080F8A82080F8A92080F8BA20D0
:1035B00080F8BB2080F8BC20C0F8C020C0F8C42030
:1035C000C0F8C820C0F8CC20C0F8D020C0F8D42063
:1035D00080F8AA2080F8B910704700BF38B5057888
:1035E00004462D2D08BF0134204603F0CDFB23787F
:1035F000A3F130016422092902FB00F005D814F878
:10360000013FA3F13002092AF9D92E2B03D02D2D29
:1036100008BF404238BD6378303B092BF7D8A27809
:1036200003EB8303303A00EB4300092A98BF80186C
:103630002D2D08BF404238BD70B50D46044603F03D
:10364000A3FB1C4B1C4AA3FB0013590929802378B8
:10365000642606FB1100A3F13001092902FB00F0EA
:1036600005D814F8013FA3F13002092AF9D92E2B0D
:103670000AD000EB8000114B0130A3FB00235B0854
:1036800000226B602A7270BD6178A1F13002092AB4
:1036900004F10104EDD8084B094E14F8011FA6FBF4
:1036A00003E3DB0803FB0200A1F13002092AF4D98D
:1036B000DFE700BF1F85EB5180969800ABAAAAAA4E
:1036C000CDCCCCCC2DE9F04190F8A9608CB004466B
:1036D0004EB390F8AA30A3F14102052A40F282804D
:1036E000A3F16102052A94BFA3F15702A3F13002AE
:1036F00094F8AB30A3F1410112010529D2B200F2D6
:103700009980373B134494F8A820DBB29A4200F02A
:103710009E80D4F8D0300133C4F8D0300026304633
:103720000CB0BDE8F08190F8BA3023BB00F1AA07D5
:103730003846AC4903F048FF002840F0C28001231E
:1037400084F8B930D4F8C050C4F8C4502DB9E6E7B5
:103750002D6BC4F8C450002DE1D03946A86A03F09F
:1037600033FF0028F4DBDAD000233046C4F8C4303D
:103770000CB0BDE8F08190F8B920022A3AD090F858
:10378000AA10B9B343EA4213013B282B32D8DFE831
:1037900013F04F01490141013B01330122012C008B
:1037A0001C011601310031003100310031003100BF
:1037B0003100310031003100310031003100310081
:1037C0003100310031003100310031003100310071
:1037D00031004F010E01490141013B013301090153
:1037E0000401FF00A3F1370282E7AA3003F0CCFA0C
:1037F000C4F89400D4F8C450002D90D02B4604F1A6
:10380000AA0704E02D6B002D89D0D4F8C430996A42
:10381000A86A03F0D9FE002881D1EA6A94F8BA3088
:103820009A423FF77CAFEDD110223946284604F08A
:1038300093F8E7E7A3F16101052994BF573B303BBB
:10384000134494F8A820DBB29A427FF462AFD4F814
:10385000D43094F8BC200133C4F8D430002A47D0C7
:10386000D4F8CC3094F8B9100133C4F8CC30002926
:1038700000F0E380012942D0D4F8C450002D3FF479
:103880004EAFDFF870812B46012712E005F11000E2
:1038900004F004F8D8F800300B930B9B85F82570E2
:1038A00085F824702B622D6B002D3FF438AFD4F8CF
:1038B000C430996AA86A03F087FE29460028E5D03B
:1038C0002DE74949384603F07FFE00283FF437AF23
:1038D0004649384603F078FE002855D0444938461A
:1038E00003F072FE00284FD0022384F8B93029E794
:1038F00094F8B930002B00F0EA80012BBCD13D498F
:10390000256C0B680293029B08680190019F206D53
:10391000636401236765E56384F8393084F83830DF
:1039200084F8493084F84830E064002AA4D0204666
:1039300050F81C7F4568A5606760007A20732046B8
:103940000D6850F8282F0595059F0D68D0F804E004
:103950000495049D22610968C4F814E00391017A7A
:1039600021760398616E626F84F8593084F858307C
:10397000637023706763E565E0662166226784F8FB
:10398000693084F8683077E7002384F8B930D9E6E5
:10399000AA3003F0F9F920642CE7AA30FFF71EFEE5
:1039A000606727E7AA30FFF719FE606622E7A1F1FA
:1039B0004101B1FA81F1490980F8BC101AE7AA3037
:1039C000FFF70CFEC4F8840014E7AA30FFF706FEE8
:1039D000C4F8A4000EE7302994BF0021012180F82B
:1039E000BC1007E7F880000000810000088100009B
:1039F00010810000FC16FF1FA1F15701B1FA81F1FF
:103A0000490980F83010F5E600F12801AA30FFF7E7
:103A100013FEEFE6A1F15301B1FA81F1490980F8F3
:103A20002410E7E600F11C01AA30FFF705FEE1E6ED
:103A3000AA30FFF7D3FD2065DCE620462A4B50F87C
:103A40001C7F19684568A5606760007A207320466E
:103A5000069150F8285F06996165196847680891D2
:103A600025616761089D1F68226D0797E264077AE8
:103A7000D4F8841007982776012284F8492084F826
:103A80004820627022706563E067C4F8801084F893
:103A9000792084F878201A680A920A9D1B68099395
:103AA0000998D4F89410D4F8A420C4F88C500123B9
:103AB000C4F89C00C4F8901084F8893084F88830E9
:103AC00084F8993084F89830C4F8A020D4E6064BE6
:103AD000216D1A680692069A62650122E16484F8F3
:103AE000492084F84820D6E7FC16FF1FD0F8C820EC
:103AF00038B503460132A1F10A00C3F8C8202228D4
:103B00003FD8DFE800F0183E3E183E3E3E3E3E3EC7
:103B10003E3E3E3E3E3E3E3E3E3E3E3E3E3E3E3EC5
:103B20002F3E3E3E3E3E183E120093F8A82082F003
:103B30002C0283F8A8201D4693F8BB300E2B0C46B0
:103B400032D9002095F8BA30A4F12A0101330022BD
:103B5000B1FA81F1490985F8BA3085F8BB2085F8BA
:103B6000A91038BD0020022283F8BB0083F8BA00F8
:103B700083F8A80083F8B92083F8A90083F8BC0073
:103B800038BD93F8BB200D2A05D89818013283F868
:103B9000BB2080F8AA1093F8A90068B993F8A82070
:103BA000514083F8A81038BD2B44002283F8AA2086
:103BB0002846FFF787FDC5E7002038BD90ED027A63
:103BC0009FED106A8388B8EE477A07EE903AC7EE09
:103BD000066A10B5002304464370F8EEE77A76EEE5
:103BE000A77A17EE900A02F0ABFD237B2BB10246B9
:103BF00001F1004343EC102B10BD02460B4643EC91
:103C0000102B10BD286B6E4E90ED057A9FED106A5B
:103C1000038AB8EE477A07EE903AC7EE066A10B507
:103C2000002304464370F8EEE77A76EEA77A17EEA3
:103C3000900A02F085FD237E2BB1024601F100437C
:103C400043EC102B10BD02460B4643EC102B10BD6D
:103C5000286B6E4E01F076BC01F098BC01F0AEBC52
:103C6000074882B003680193019A114401E0994228
:103C700004D303680093009B9A42F8D902B07047BE
:103C8000FC16FF1F034B82B01B680193019802B022
:103C9000704700BFFC16FF1F10B4074B82681B68FB
:103CA000016183B000240193019B4461C260836081
:103CB00003B05DF8044B7047FC16FF1FF0B51E4BB8
:103CC0001E4D1A680446406C83B0036801920F468B
:103CD0005B681B49019E062298473946606C0023A9
:103CE0000A2201F0B1FE606C1649036803225B688A
:103CF00098473146606C00230A2201F0A5FE606CF3
:103D0000036829465B6801229847A168606C711AB4
:103D100000230A2201F098FE606C036829465B6864
:103D200001229847E368A168606CC91A0A2200233F
:103D300001F08AFE03B0F0BDFC16FF1F6481000095
:103D4000588100006081000010B5446C054923686B
:103D500020465B68062298472046BDE8104001F0E7
:103D600063BE00BF68810000034B82B01B680193F3
:103D7000019B836002B07047FC16FF1F10B4104A0D
:103D800085B0A1B9136800934168009B591A312985
:103D90000DD813680293029C04F13203591A01E012
:103DA000994204D313680193019B9C42F8D913688C
:103DB0000393039B4360012005B05DF8044B7047FB
:103DC000FC16FF1F704700BF2DE9F0410D4D0E4E50
:103DD000DFF83C800D4F41641B2401E000F0A4FAA1
:103DE0002B78C82043B13378DB0705D5D8F80030ED
:103DF0003A689B1A0E2B03D8013CEFD1BDE8F08145
:103E0000BDE8F0815C18FF1F7418FF1F601BFF1FC7
:103E1000FC16FF1F00238364436071B1074882B022
:103E200003680193019A114401E0994204D30368A5
:103E30000093009B9A42F8D902B07047FC16FF1F0E
:103E400070B5144C84B00546406C23680393036836
:103E5000039A6A600E465B680F490622984731460E
:103E600000230A22686C01F0EFFD686C0B490368BF
:103E700008225B68984723680293029A02F1320194
:103E800001E0994204D323680193019B9A42F8D937
:103E900004B070BDFC16FF1F708100007881000027
:103EA000F8B5037E0BB96320F8BD0446406C3B4E69
:103EB00003681B69B3420D466AD101F07FFB10F025
:103EC000FF0F01D16520F8BD354F606C03681B6999
:103ED000B3425FD101F072FB10F0FF0FF2D0606CC3
:103EE00003685B69BB4257D101F02CFBC3B2A3F15D
:103EF00058021E2AE9D801A151F822F0893F00009A
:103F0000CB3E0000CB3E0000CB3E0000CB3E00008D
:103F1000CB3E0000CB3E0000CB3E0000CB3E00007D
:103F2000CB3E0000CB3E00007D3F0000CB3E0000BA
:103F3000CB3E0000CB3E0000CB3E0000A73E000081
:103F4000CB3E0000CB3E0000CB3E0000CB3E00004D
:103F5000CB3E0000CB3E0000CB3E0000CB3E00003D
:103F6000A73E0000CB3E0000CB3E0000CB3E000051
:103F7000CB3E0000793F00001846F8BD2046294698
:103F8000FFF75EFF6320F8BD002323766320F8BDB2
:103F9000984794E798479FE79847A7E75D3C00005C
:103FA000553C000070B5054682B01646C9B10123E4
:103FB0000D4C037600212846FFF772FF632810D0CE
:103FC00023680193019A511C23680093009B9A4235
:103FD000F0D89942F8D200212846FFF761FF632804
:103FE000EED12E7602B070BDFC16FF1F034B0022EF
:103FF0009A60DA601A615A61704700BFB016FF1FFD
:10400000844641EA000313F003036DD1403A41D3E3
:1040100051F8043B40F8043B51F8043B40F8043BA2
:1040200051F8043B40F8043B51F8043B40F8043B92
:1040300051F8043B40F8043B51F8043B40F8043B82
:1040400051F8043B40F8043B51F8043B40F8043B72
:1040500051F8043B40F8043B51F8043B40F8043B62
:1040600051F8043B40F8043B51F8043B40F8043B52
:1040700051F8043B40F8043B51F8043B40F8043B42
:1040800051F8043B40F8043B51F8043B40F8043B32
:10409000403ABDD2303211D351F8043B40F8043BD2
:1040A00051F8043B40F8043B51F8043B40F8043B12
:1040B00051F8043B40F8043B103AEDD20C3205D3E2
:1040C00051F8043B40F8043B043AF9D2043208D0DA
:1040D000D2071CBF11F8013B00F8013B01D30B884C
:1040E00003806046704700BF082A13D38B078DD02A
:1040F00010F003038AD0C3F10403D21ADB071CBFFC
:1041000011F8013B00F8013B80D331F8023B20F865
:10411000023B7BE7043AD9D3013A11F8013B00F89E
:10412000013BF9D20B7803704B7843708B78837026
:104130006046704708B5104C08E0236859050DD457
:1041400023681A050FD42368DB0411D423685803AD
:10415000F3D500F0C9FB23685905F1D501F0A8FE9D
:1041600023681A05EFD501F039FF2368DB04EDD58C
:1041700001F0CAFFEAE700BF3480044008B5FFF74A
:10418000D9FF00BF014B10221A8070470020054064
:10419000704700BF094908B50B6830B16A4618443A
:1041A000A2F50052904202D20860184608BD02F003
:1041B000EFFD0C2303604FF0FF3008BDB808FF1F70
:1041C000084A1378802B01D0002070470649074B1E
:1041D00007480860002119701378802BFCD001205B
:1041E000704700BF03E007404480044001E00740FF
:1041F00000002822094A1378012B01D000207047C3
:1042000003F1804303F5FC23602119701378802BA0
:10421000FCD1034B034A1A600120704703E00740BA
:10422000448004400000060210B4114B53F83020C3
:1042300092F8804234B1012379B182F880305DF880
:10424000044B704703EBC0035B681A6851B922F056
:1042500002021A605DF8044B704782F800315DF885
:10426000044B704742F003021A605DF8044B70473C
:10427000CC8100001C4A02EBC00301295B6811D00D
:1042800004291BD052F83000002280F8802229B186
:10429000022920D0032922D01A6070474FF480727F
:1042A0001A60704752F830004FF4A27280F8801202
:1042B0001A601A6822F020021A60704752F8301013
:1042C0004FF4A272012081F880021A601A6842F04D
:1042D00020021A60704740F203121A6070474FF4D0
:1042E00081721A60704700BFCC81000030B4054B6A
:1042F000054D064C002210211A602A6020601960CA
:1043000030BC704714D0034004D0034000D00340B9
:104310003F2801D8FFF788BF704700BF3F2801D86A
:10432000FFF7A8BF704700BF2DE9F843054672B6F6
:10433000224F234B234A1B683C68126862B6520125
:1043400002D5322B88BF0134B5B3C3F52F3303F246
:104350001F331D4EDFF86890DFF868809B084FF42C
:104360007A72A6FB031302FB04F404EB930472B607
:10437000D9F800103A68D8F800E062B6C1F52F33DA
:1043800003F21F339B08A6FB03031EF0806FC4EBF0
:1043900093034FF47A7002D0322988BF013200FBB8
:1043A0000233B3F57A7F04D3013D05D004F57A7466
:1043B000DDE701F075FCDAE7BDE8F883FC16FF1FC6
:1043C00018E000E004ED00E0176CC116F8B54E4BA4
:1043D0004E48DFF85CC14E4C4E49DFF858E14E4E76
:1043E0004E4D4F4F4FF000621A604FF080521A60EE
:1043F0004FF000521A604FF080421A604FF00042B6
:104400001A600022026028234EF6FF70CCF80000EC
:10441000CEF8003023600EF5012E0B6033602B6068
:1044200006F500263B6005F50025A36207F5002789
:104430008B6204F5012401F5012106F6E87605F604
:10444000E87507F57F6710310EF1100E20343360E8
:104450002B60CEF800303B600B602360314CBB61B9
:104460008B6109212160A7F5002704F58054203FC6
:1044700008343A602060BB60E36047F8041C04F530
:10448000FD2407F5FE27043704F2FC74226038602F
:10449000A360FB6044F8041C083404F6FC74C7F8FD
:1044A000FC2F2060A4F5E124A4F2DC7433602B60BF
:1044B000C7F8F81F21681C4841F4007121600168A9
:1044C0001A4C0EF57F4E0EF1E80E07F5883706F50B
:1044D000803605F5803541F000710160CEF800208E
:1044E00047F6FF710822396033602B60226001F0CB
:1044F00039FC1920FFF718FF00F05EFF40F213109F
:10450000BDE8F840FFF710BF04E100E0048003407D
:10451000148003401C800340248003402C8003400F
:1045200034800340008003400480044000900C402D
:10453000088003400C8003401B4BDFF890C01A68D2
:104540001A49F0B542F48062194D1A60DFF880E034
:10455000184F194E194C00238CF800304FF451724B
:104560002B701F2840F213358EF800303B703370EB
:1045700025600A6011D819460124114A114D1170A5
:104580001148547000212C27402693720424917006
:104590001174D7702E700460F0BDC0F34431C0F3C5
:1045A000471400F01F03E8E72880044060D004406F
:1045B0000517FF1F7117FF1F7017FF1F64D00440FE
:1045C00000A00E4042E400E008E100E00417FF1FF5
:1045D0007817FF1F054A064B10781B78C0B2DBB274
:1045E000984238BF4030C01A704700BF0417FF1F01
:1045F0000517FF1F30B4154B154C1A782378D2B22B
:10460000DBB29A421ED001333F2B0ED91149124B17
:10461000087819680023C0B2237021B1D31A1A2B6D
:1046200001DC00230B7030BC70470A480A49C05CAB
:104630000968DDB2C0B225700029F4D09A4238BFB3
:104640004032EBE74FF0FF30EDE700BF0417FF1FEC
:104650000517FF1F3017FF1F0017FF1F30B42B4B2C
:104660001A7994061FD52A48DA7903782949013343
:104670003F2B0978C8BF00238B42D2B203D0264C0F
:10468000D9B2E2540170254A116861B1244A127806
:10469000D2B2934236BFC2F140029B1A9B18272B1D
:1046A000C4BF01230B70194AD378DBB2180611D4AA
:1046B0005A060DD5154B1B795B0609D5194B1A49BE
:1046C0001B6800220A7003B11A70104B2C22DA709A
:1046D00030BC704711790906EAD5144910480C78A6
:1046E0000178C9B28C420DD04A1C272A84BF002110
:1046F0000A460F4D054C98BFD1B2AA5CD2B2E27106
:104700000170D5E76C21D170D2E700BF00A00E4048
:104710000417FF1F0517FF1F3017FF1F0017FF1F8C
:104720007117FF1F7417FF1F7017FF1F7817FF1FE8
:104730000817FF1F431E032B14D872B60A4951F8FD
:10474000230068B170B4094C058834F8132046681A
:1047500041F82360521B24F8132062B670BC7047E6
:1047600062B6704700207047D417FF1F501BFF1F11
:10477000013803280BD872B6074B53F8203043B1E9
:1047800000205B680130002BFBD162B6704700202F
:1047900070471846F9E700BF2818FF1F30B472B6FB
:1047A0002B4A13781D0706D52A4B196A002936D0E3
:1047B000996A002941D053781C0706D5254B196CFE
:1047C00000293ED0996C002939D09378190705D576
:1047D000204B196E002936D0996E89B1D3781B070A
:1047E00007D51C4BD3F880207AB3D3F88820112149
:1047F0003AB162B6184B00221A7030BC00F07CBE91
:104800000D21154C154D227843F8315003EBC103AF
:104810000830013A5860227062B630BC70470422FA
:104820000D4C0F4D217843F8325003EBC203083092
:104830004A1E5860227062B6EFE70521E1E70921C0
:10484000DFE70822ECE70C22EAE71022E8E700BFE6
:10485000048400000000FF1F5118FF1FC800400023
:1048600088004000431E032B1DD81B4A400140F026
:10487000100030B4104472B6184CE25C032A1BD806
:10488000DFE802F00212151703220D88E25410F03F
:10489000080F14BFC823882343EA05430831036087
:1048A000416062B630BC704708300222EDE7052255
:1048B000EBE708300422E8E7094A52F8230038B150
:1048C000084A52F82300416042F8231062B6E9E733
:1048D00042F82310034AF7E70000FF1F6018FF1F8C
:1048E0002818FF1F3818FF1F2DE9F04FDFF80CB311
:1048F000DFF80CA387B044E0AB4F4FEA930807EB17
:10490000C809013ED9F8042003F00803F6B2A2F169
:10491000080003F0FF04002B40F0028157F8383004
:104920001B0C99B222F8081C002B00F0F0809F4B62
:1049300022F8064C42F8044C53F82620002A00F0D6
:10494000C5829B4D55F8263058609A4C45F8260094
:1049500034F81630194424F8161000F0ADFD002884
:1049600000F0AD82944A954B19F0080F00F1080051
:1049700018BF1346C9F8040047F8383008238BF8ED
:1049800000309BF80040E4B261071AD58C4B1B78CD
:10499000A3B18C490A7802F0FF0322B1013BDBB2DC
:1049A0000B7003B900BE88490A7802F0FF032AB1F0
:1049B000013BDBB20B70002B00F0578204238BF815
:1049C000003004F0080303F0FF02002B00F0CC805D
:1049D0009AF80030DBB21E098ED19C08DFF8C8912E
:1049E00059F8342009EBC401C2F38302013A496843
:1049F0000C2A00F28880DFE802F07C7C86868686BE
:104A000086864786868607000868704D4A68704F1C
:104A1000704E286081B240F28160674B6A604FF04F
:104A2000010E0022814249F834303A60C9F8102062
:104A3000C9F8182086F800E05B4C00F2E380B1F57D
:104A4000D06F80F04683B1F5817F00F0FC8200F2E8
:104A50008D82802900F07783822940F0FA82A9882C
:104A600001F07F01042900F2F4825B485B4C89006D
:104A70000844227062700278930740F1588484F8E9
:104A800000E04FF0020E42E3514F3A6832B3544B0C
:104A9000504E5449188834780D784028864645F0A1
:104AA000020828BF4FF0400E002C84F0010434703F
:104AB000CEEB00000CBF8824C82409EBC80680B2E6
:104AC00085F0010544EA0E447260188049F83840C8
:104AD00072440D70002800F045813A603B4B1A8803
:104AE000B2F5A06F0FD100219A7859703E4B1A7021
:104AF00009E0364A108842F22102904200F03781E4
:104B00002D4A49F83420394A0123137036E72A4ADE
:104B10002A4B19F0080F18BF134647F838302DE715
:104B200000F0EAFC324A334952F82630002B00F0FC
:104B3000D18158688C5D42F8260003F10802C9F85B
:104B40000420032C05D8DFE804F02C0229260222D9
:104B50008A551A8819F0080F0CBF8823C82343EA26
:104B6000024347F8383009E7E00700F18181210668
:104B700000F1F281A20706D51F4A204913780220CE
:104B8000DBB213700870E30602D51C4B10221A70BA
:104B900007B0BDE8F08F04228A55DAE705228A556E
:104BA000D7E703228A55D4E70000FF1FD417FF1F61
:104BB0008017FF1F501BFF1FC800400088004000E7
:104BC0005C18FF1FE517FF1F6418FF1F4818FF1F21
:104BD0007C17FF1FE417FF1FC02007405418FF1F5A
:104BE0009017FF1F5018FF1F982007409420074080
:104BF0002818FF1F6018FF1F8820074080200740EB
:104C00009020074042F22100814200F02A8100F208
:104C1000D880B1F5086F00F07682B1F5106F40F0E2
:104C20001882226AB349A8780870120600F13A8304
:104C3000D9F82820B049130600F10C83D9F83020A8
:104C4000AD49150600F10183D9F83820AA491406A8
:104C500000F1F682D9F84020A749100600F14A83F6
:104C6000D9F84820A449120600F13F83D9F8502012
:104C7000A149130600F13483D9F858209E4915063E
:104C800000F12983D9F860209B49140600F11E83A6
:104C9000D9F868209849100600F11383D9F87020DC
:104CA0009549120600F10883D9F878209249130635
:104CB00000F1FD82D9F880208F49150600F131837B
:104CC000D9F888208C49140600F12583D9F8902062
:104CD0008949100600F11983D9F8982086491206EF
:104CE00000F10D838548864A864901908648874DA4
:104CF000874C049700230596029580460F4616467A
:104D00001D460394306828B1446800F0F5FB204646
:104D1000002CF9D100233360029B38681A46002327
:104D200042F8253028B1446800F0E6FB2046002C0C
:104D3000F9D100223A60019A98F800301146002219
:104D400041F8042B039A0191023B4FF0000122F835
:104D50001510032B00F22B81DFE813F07001250101
:104D600070012501BEF1400F18BF0022B5E6694A67
:104D70000D784878157050708D78C8789570D0701F
:104D800010680D79157186284D7989795571917161
:104D900000F09B816049614E0A78307882F001050D
:104DA000002842F002020D700CBF8821C82149F88A
:104DB000321009EBC20280F0010000213070516016
:104DC0009EE642F22120814240F0CB81544B554C6B
:104DD0005549A8781D682560CDF804E008700020CA
:104DE00002908046844604464B490D7845F0020EF9
:104DF00009EBCE030393019B002B039B5C600CBF6C
:104E00008824C82444EA080385F0010449F83E30A8
:104E100032700C70DFF8E0E0404BDFF8FC800028D7
:104E200040F01E81BCF1400F1BD144F0020C09EB95
:104E3000CC03029CDFF8C0E05C60002A40F02681D1
:104E4000020442F088029DF804304EF83C200444ED
:104E500033700D702346402803D10020334A3B6055
:104E60001080334A012313704DE600F0B1FCA5E534
:104E7000214B2F4828491A614FF0020E80F800E0BC
:104E80002C4F0A702C49196099602C4E2C4D2D4CDA
:104E90009A610D213970FF213170DFF8B8E0297077
:104EA0002270294D294A8EF800109F27012406F808
:104EB000047C5D600470DA6007B0BDE8F08F244ABE
:104EC00047F8380013780133137057E543F826008C
:104ED0000E4D3AE58B5D032B00F2F08001A252F8F3
:104EE00023F000BF7D4900007D490000A14F000074
:104EF0009B4F00005C18FF1F0000FF1F3818FF1FAA
:104F0000D417FF1F2818FF1F6018FF1F8017FF1FEF
:104F1000501BFF1F581BFF1F5018FF1FE417FF1FD8
:104F2000FC16FF1F601BFF1F7418FF1F9017FF1F49
:104F300094200740C0200740880040008820074098
:104F400080200740982007409417FF1FE817FF1F95
:104F50005118FF1F8C200740C149C24B80220D20F1
:104F600008701A70A2077FF50EAE05E640F2023215
:104F7000914240F0EE80A98801F07F01042968D8B1
:104F80006A88002A65D1B648CDF804E08900084453
:104F9000017841F00201017021E701238B55EDE416
:104FA00000238B55EAE44FF0010388F80030013507
:104FB000042D06F1040607F1040708F101087FF447
:104FC000A1AEA94CA94B2278A94D049F059E0021B2
:104FD00029701A70130700F105816278A549DFF87E
:104FE000A0820A7010074FF00001C9F83010C9F80C
:104FF000381000F1E080A049A2780A700021C9F8B9
:105000005010C9F858101107DFF8748200F10181BF
:10501000E2789A499A4C0A7000211207C9F8701078
:10502000C9F8781000F1B08033780193002183F043
:105030000102C9F89010C9F89810D0E64FF00003AB
:1050400088F80030B3E7A98801F07F01042940F215
:105050008D80834A0F2313708A4A0123137052E50F
:1050600040287FF6E2AE44F002040EEBC401029E3B
:105070004E60BAB19DF80410834A19703346403827
:1050800088F8005040334EF83420E7E69DF80430AD
:1050900033700204029B0D7042F0C80203444EF8C4
:1050A0003C20D8E69DF804101970029B774A88F8D6
:1050B0000050403840334EF83420CFE619F0080F46
:1050C0000CBF022303238B5558E4714A0F21117042
:1050D00060E6704A5468002CBBD06888B5F804E0DC
:1050E00003E00C325468002CB3D013888342F8D10B
:1050F00053887345F5D1000A03280CBF94F800E0EB
:10510000B2F808E003E0644A644C12782270E88840
:10511000704580F03F8162490D784028844645F013
:10512000020E28BF4FF0400C04EB0C0309EBCE023B
:10513000029301235460CCEB00004FEA0C4800229C
:105140000193C8245EE6554C4FF0020E2270627047
:10515000DDE7B1F5A06F7FF47CAF0123002201935E
:105160003DE642F221329142F7D072E76A88002A86
:105170007FF46FAF3A48CDF804E089000844017825
:1051800021F0020101702AE600F096F9002800F0F3
:10519000EF8008303D4AC4F88400C4F8802000F055
:1051A0008BF9002800F0DE800830374AC9F88C00FF
:1051B000C9F8882038E700F07FF9002800F0C080A7
:1051C0000830324AC8F84400C8F8402000F074F9AA
:1051D000002800F0AF8008302B4AC9F84C00C9F80D
:1051E000482008E700F068F9002800F0CD8008307A
:1051F000264AC9F82400C9F8202000F05DF90028EB
:1052000000F0BC800830204AC9F82C00C9F82820DA
:10521000E3E600F051F9002800F09E8008301B4AB8
:10522000C8F86400C8F8602000F046F9002800F0D3
:105230008D800830144AC9F86C00C9F86820E7E688
:10524000C86B083800F058F904E5486B083800F0DE
:1052500053F9F9E4C86A083800F04EF9EEE400BFEB
:10526000C02007408020074004840000C42007407D
:105270005118FF1FC8200740CC200740D02007400E
:105280000000FF1F94200740C80040008800400035
:10529000E517FF1F088400005C18FF1F5418FF1F4C
:1052A0005018FF1F606A083800F026F9C0E4C86F84
:1052B000083800F021F9FDE4486F083800F01CF9C7
:1052C000F2E4C86E083800F017F9E7E4486E0838D1
:1052D00000F012F9DCE4C86D083800F00DF9D1E4F3
:1052E000486D083800F008F9C6E4C86C083800F0CA
:1052F00003F9BBE4486C083800F0FEF8B0E4D1F8DC
:105300009C00083800F0F8F8ECE4D1F89400083874
:1053100000F0F2F8E0E4D1F88C00083800F0ECF886
:10532000D4E4D1F88400083800F0E6F8C8E44FF07F
:10533000020EECE62A78C9F8480001322A705AE6D3
:105340002A78C8F8400001322A703FE72A78C9F865
:10535000680001322A705BE62A78C8F860000132E2
:105360002A7061E72A78C9F8880001322A705BE662
:105370002A78C4F8800001322A7010E72A78C9F828
:10538000280001322A7028E62A78C9F82000013264
:105390002A7032E7BEF1400FF44628BF4FF0400CB0
:1053A00004EB0C0302930123CCEB0E004FEA0C48F4
:1053B0000022019318E500BF2DE9F04101F00EF83D
:1053C000314C324B3248DFF8E480324EDFF8E0C037
:1053D000314F324DDFF8DCE000221A605A609A60EB
:1053E000DA601A615A619A61DA611A625A629A62E3
:1053F000DA621A635A639A63DA631A645A649A64C3
:10540000DA641A655A659A65DA651A665A669A66A2
:10541000DA661A675A679A67DA67C3F880202168E4
:10542000C3F8842041F480212160016841F040717B
:105430000160032188F80010A020C3F307218CF835
:10544000000004F528343170C3F307401449387064
:105450001B0E2B70CC34FF238EF80030114D0CF84E
:10546000B83C11480B70012306F8083C22707026E6
:105470004FF40014102207F82C3C2E70046081F8C1
:10548000F820BDE8F08100BF348004400000FF1F19
:1054900000D800409C200740B0200740B4200740BF
:1054A0001020074035E400E004E100E0442107401B
:1054B000402107408020074072B60D480268B2FACA
:1054C00082F30B2B10DC4FF00041D94022EA01029D
:1054D000026062B6074803EBC303DB00C218002179
:1054E000C15010465160704762B60020704700BF3F
:1054F000BC08FF1FD003FF1F0D4B0E4AC31AA2FBAF
:1055000003231B090B2B0CD80B4A127852B972B625
:105510000A484FF00041026821FA03F31A4302607F
:1055200062B67047064A1278002AF0D0FFF736B903
:10553000D003FF1F398EE3385118FF1FBC08FF1F2F
:105540005C18FF1F38B50F4D286878B14388028872
:10555000C118013393420C7A02D24380204638BDF1
:10556000FFF7CAFF002320462B6038BD064B1B788F
:105570002BB10320FFF7DEF828600028E6D14FF0BA
:10558000FF3038BD7018FF1F5C18FF1F10B5094CA5
:10559000206818B143881844007A10BD064B1B7868
:1055A0002BB10320FFF7C6F820600028F2D14FF09E
:1055B000FF3010BD7018FF1F5C18FF1F044B054A19
:1055C0001B6890881BB11A885B88D31A18447047EF
:1055D0007018FF1F501BFF1F0B4B1B789BB110B5A2
:1055E0000A4C206848B1FFF787FF0023032023609F
:1055F000FFF7A0F830B1FFF77FFF0320FFF79AF81D
:105600000028F8D110BD70475C18FF1F7018FF1FED
:105610002DE9F04FDFF8F89083B0012289F80020DF
:10562000019169B3DFF8EC80354F019E8346D8F8CD
:105630000000B0B3334D4488C4F14001B14228BFEB
:10564000314604EB010E00221FFA8EFE2A70761AF4
:10565000A0F802E000F1080251B1013C2244594493
:105660001BF8014B02F8014F8B45F9D1B0F802E06D
:10567000BEF13F0F0BD8244A05211170002ED6D160
:105680000198002389F8003003B0BDE8F08F402274
:10569000028001460420FFF7E5F80022C8F8002048
:1056A000E9E73A7822B3194C164D4FF0010A07E0AA
:1056B000013C16D02A78A2B900F0F2FA3A78BAB1D1
:1056C0000420FFF755F80728F2D889F800A0FFF763
:1056D000F3FEC8F800000028ADD10D4B013C187056
:1056E000E8D101234FF0FF302B7003B0BDE8F08FFD
:1056F00000234FF0FF3089F8003003B0BDE8F08F91
:105700005C18FF1F6C18FF1F6418FF1F2148010061
:105710006518FF1F6818FF1F00B583B002AB012199
:1057200003F8010D1846FFF773FF03B05DF804FBA3
:1057300038B50E4D0E4C28680123237028B14088DF
:1057400000232370C0F1400038BD0A4B1B7813B909
:105750000020207038BD0420FFF70AF80728F7D88A
:10576000FFF7AAFE28600028E9D1F1E76818FF1FBB
:105770006518FF1F5C18FF1FF8B5114B1B788BB124
:10578000104E114D346801272F7064B10F4A6388A1
:1057900000271770214623800420FFF763F8376045
:1057A00000232B70F8BDFFF787FE084B28B1014698
:1057B00004201C70FFF756F8F2E71F70F0E700BFF7
:1057C0005C18FF1F6818FF1F6518FF1F6418FF1F74
:1057D00038B50E4B1B7873B90D4C216861B103F0DD
:1057E000FF054B880B800420FFF73CF8256038BD8F
:1057F000084B01221A7038BDFFF75EFE0028F7D073
:105800000146BDE838400420FFF72CB86518FF1F9B
:105810006818FF1F6418FF1F10B4EFF3108272B6F0
:10582000437F33B9017F012908D0032910D0012318
:10583000437702B962B65DF8044B7047114C21689A
:10584000A1B1114943610B68836108605861EEE7BB
:105850000E4C216881B10E4943610B688361086079
:1058600058610C4B4FF080511960E0E7064B4161E5
:10587000816120601860DAE7054B41618161206039
:105880001860EEE78818FF1F8418FF1F7818FF1FA5
:105890007C18FF1F04ED00E070B5EFF3108272B6C4
:1058A0000C4C206880B10C4E00254369236073B115
:1058B0009D6102B962B6457783689847EFF310821D
:1058C00072B620680028F0D102B962B670BD3360AC
:1058D000EFE700BF7818FF1F7C18FF1FFFF7DCBF42
:1058E000184A30B41468002C27D0036821688B4212
:1058F0000ED2CB1A00218460C1602360E06010608A
:105900000223037530BC704711688B42144608D3DC
:10591000A2685B1A0360002AF6D18260C460A060AE
:10592000EEE7D268C2608460E060C568CB1A0222EC
:10593000A8602360027530BC70478460C46010604A
:10594000DEE700BF8018FF1FF8B5224E34682CB385
:105950002368002B3AD1204F1D4604E03468ECB197
:105960002368002B32D1A36803B1DD602069336066
:10597000036825751B68BB4221D1037F4560022B5C
:10598000C46020D0FFF748FF6368002BE6D0236097
:105990002046FFF7A5FF3468002CE1D1EFF3108318
:1059A00072B60E4A00211068116003B962B628B1C0
:1059B0008468FFF795FF20460028F9D1F8BD2246FC
:1059C00000219847E0E783689847DDE7013B2360C3
:1059D000E4E700BF8018FF1F693300009018FF1F25
:1059E000024A136801331360FFF7AEBFFC16FF1FB6
:1059F00008B5FAF73BFDFAF789FE00F051F9FAE72E
:105A0000F8B572B106460F4614460025336817F8FC
:105A1000011B1B6830469847013C0544F6D12846D7
:105A2000F8BD1546FBE700BF00B5064A03681288BB
:105A30005B6883B001A9ADF804200222984703B047
:105A40005DF804FBCC830000F0B507468BB0002A5C
:105A500033D0012A08BF0A2251B3212400E0F4B256
:105A6000B1FBF2F502FB1511C8B2092900F13001B2
:105A700098BFC8B20AA988BF3730214488BFC0B2D6
:105A800001F8240C661E2946002DE8D133B1013CF3
:105A9000E4B20AAB23442D2203F8242C3B6801AA6C
:105AA00011195B683846C4F1220298470BB0F0BD6B
:105AB00030228DF825202124E8E70368C9B21B684D
:105AC00098470BB0F0BD00BF2DE9F04357EC106BC9
:105AD00085B005460C4610EE102A3B4610EE100A23
