:1000000000000320990100005D530000155300001B
:100010001553000015530000155300001553000040
:100020001553000015530000155300005D530000E8
:100030005D530000155300009D6D0000A16E00008F
:100040005D5300005D5300005D5300005D530000F0
:100050005D5300005D5300005D5300005D530000E0
:100060005D5300005D5300005D5300005D530000D0
:100070005D5300005D5300005D5300005D530000C0
:100080005D5300005D5300005D5300005D530000B0
:100090005D5300005D5300005D5300005D530000A0
:1000A00055110000611100005D5300005D53000018
:1000B0005D5300005D5300005D530000217500009A
:1000C0005D5300004D7600005D530000797700001D
:1000D0005D530000717800005D5300005D53000027
:1000E0005D5300005D5300005D5300005D53000050
:1000F0005D5300005D5300005D5300005D53000040
:100100000170000015700000297000003D700000B3
:100110005D530000B55D00005D5300005D530000BD
:100120005D5300005D5300005D5300005D5300000F
:100130005D5300005D5300005D5300005D530000FF
:100140005D5300005D530000295B00005D5300001B
:10015000697900005D5300005D5300005D530000AD
:100160005D5300005D5300006D1100005D53000001
:100170005D5300005D5300005D5300005D530000BF
:100180005D5300005D5300005D5300005D530000AF
:100190005D5300005D530000584B4CF2205210B5E7
:1001A0001A804DF628121A8000BF00BF05F0DAF859
:1001B000534B4FF030621A60524A9A60524ADA60EA
:1001C000524B4FF470021A60514A136813F4807353
:1001D00004D150490B604FF4A85313604E4B1A786A
:1001E000110703D51A7842F008021A704B4B4C499C
:1001F0002A221A704B4A4C4B8B4204D252F8040FFD
:1002000043F8040BF8E7494B494900228B4202D2DC
:1002100043F8042BFAE74749474A002352F82300E2
:1002200041F823000133662BF8D1444B444A802126
:1002300003F8011B9342FBD1424B3E4A1A60424BEA
:100240008A221A70A3F5805324225A70A0221A70B1
:100250009A799207FCD59A79D406FCD43B4A9379D3
:1002600003F00C03082B394BF9D103221A714622F3
:100270005A719A799006FCD5344A9179334B4906E4
:10028000FBD5334A4FF08271116009215160202261
:100290001A709A7902F00C020C2AFAD12D4B2E4AD0
:1002A0001A602E4B2E4A1A6000225A60072243F829
:1002B000042C2C4AC3F80C2D62B605F05FF9154BDF
:1002C0001B68DA0705D5284805F0ECF8274B284AC3
:1002D0001A60284B1B785B0609D5244C244B2268F6
:1002E0009A4204D1204805F0DDF80023236008F08D
:1002F00081FA05F03DF806F0ABFEFEE70E20054062
:1003000030800440823F04000100002B88ED00E0B3
:1003100010D0034014D0034002D0074000E0074053
:100320009013FF1F5CCA0000F806FF1F9013FF1F09
:10033000781CFF1F0002FF1F0000000000E400E027
:1003400056E400E008ED00E00050064000400640A2
:100350004480044004800440C010050014E000E024
:10036000BFD4010000002020EB8DB35B1CE00340F4
:10037000A5C3945A00F00740FFFFFFFFFFFFFFFFF8
:10038000FFFFFFFFFFFFFFFFFFFFFFFFFFFFFFFF7D
:10039000FFFFFFFFFFFFFFFFFFFFFFFFFFFFFFFF6D
:1003A000FFFFFFFFFFFFFFFFFFFFFFFFFFFFFFFF5D
:1003B000FFFFFFFFFFFFFFFFFFFFFFFFFFFFFFFF4D
:1003C000FFFFFFFFFFFFFFFFFFFFFFFFFFFFFFFF3D
:1003D000FFFFFFFFFFFFFFFFFFFFFFFFFFFFFFFF2D
:1003E000FFFFFFFFFFFFFFFFFFFFFFFFFFFFFFFF1D
:1003F000FFFFFFFFFFFFFFFFFFFFFFFFFFFFFFFF0D
:10040000FFFFFFFFFFFFFFFFFFFFFFFFDEF9FFFF23
:1004100010B5054C237833B9044B13B10448AFF33E
:1004200000800123237010BD9013FF1F0000000007
:1004300060CA0000084B10B51BB108490848AFF36B
:1004400000800848036803B910BD074B002BFBD0A0
:10045000BDE81040184700BF000000009413FF1FC4
:1004600060CA00009013FF1F0000000010B53C4C54
:1004700040F6B831204604F0BDFD204639494FF41E
:10048000E13204F091FD2046012104F067FD0028CF
:1004900058D101220021324804F074FE01212420A9
:1004A00005F018F81721304806F012FBFE212F48FE
:1004B00001F03CF900283CD011212D4806F008FB42
:1004C000284806F0E1FD08E02A4806F001FB25482F
:1004D00006F0DAFD642005F003F82749274800F00C
:1004E000FFFE1F210028EFD04FF41651244803F0DF
:1004F0003BFF2449224803F041FF2349204803F0F1
:100500003DFF22491E4803F039FF4FF47A7004F092
:10051000E7FF0B211E4805F065FA1E4806F0B4FD02
:1005200008211D4806F0D4FA0E48BDE8104006F038
:10053000ABBD1B21194806F0CBFA0A48BDE81040B4
:1005400006F0A2BD606C1649036811225B689847EB
:1005500020460A2104F074FC204604F023FD98E7AD
:10056000C017FF1F2C09FF1FD0BC00002014FF1F65
:1005700004BD000018BD00006407FF1F0414FF1F26
:10058000B013FF1F38BD00006CBD000080BD00002F
:1005900090BD00000C09FF1F9CBD0000E8BC0000DE
:1005A000BCBC000030B5132185B0834C834806F0F5
:1005B0008FFA834806F068FD204603F051FE20467E
:1005C00003F0EEFE002840F0DE807E4B7E491A6884
:1005D000009200980A68824209D81B680293029B25
:1005E00078489B1AB3F5FA6F06D805B030BD1A6883
:1005F0000192019A0A60F0E703680393039B0B6082
:1006000072486D4D072106F063FA00230A22217813
:100610006B4806F049FD3A2006F0DEFA00230A2274
:100620006178674806F040FD3A2006F0D5FA0023CD
:100630000A22A178624806F037FD2E2006F0CCFA97
:10064000E1885F4806F070FD5D4806F01DFD06215B
:100650005F4806F03DFA00230A226179584806F007
:1006600023FD2F2006F0B8FA00230A2221795448EE
:1006700006F01AFD0321574806F02AFA00230A2241
:10068000E1784F4806F010FD4D4806F0FDFC0521CD
:10069000514806F01DFA94F83B10494806F044FD15
:1006A0000A214E4806F014FA94F83C10444806F02B
:1006B0003BFD434806F0E8FC94F83B30002B94D017
:1006C0000A21474806F004FAA86807F00DFD41EC3E
:1006D000100B04213A4806F02FFD95F8380006F07B
:1006E0007BFA02213F4806F0F3F9E86807F0FCFCCA
:1006F00041EC100B0421324806F01EFD95F839003C
:1007000006F06AFA2E4806F0BFFC0F21364806F0C4
:10071000DFF9A86A07F0E8FC41EC100B0221284839
:1007200006F00AFD264806F0AFFC07212F4806F028
:10073000CFF9E86A07F0D8FC41EC100B0221204801
:1007400006F0FAFC1E4806F09FFC0A21284806F035
:10075000BFF9686A07F0C8FC41EC100B0221184889
:1007600006F0EAFC164806F08FFC0C21214806F042
:10077000AFF995F83D10124806F0D6FC104806F087
:1007800083FC05B030BD204603F010FE054608F09E
:1007900057FC0146284606F09BF9094806F074FC10
:1007A000204603F003FE0146204603F089F90028A5
:1007B0007FF40BAF05B030BDB013FF1FA8BD000024
:1007C0002C09FF1F0C18FF1F0C14FF1FBCBD0000DD
:1007D000C4BD0000CCBD0000D0BD0000D8BD0000ED
:1007E000E4BD0000F0BD0000F4BD000004BE000048
:1007F0000CBE000018BE000038B5284C284D294812
:10080000172106F065F9204606F03EFC284600F068
:1008100093FDDFED257A254B80EE277A83ED000AE4
:1008200017EE100A07F060FC41EC100B2046022185
:1008300006F082FC08211E4806F04AF9284600F01E
:100840001DFE1C4B10EE100A83ED000A07F04CFC55
:1008500041EC100B2046022106F06EFC0A211648DE
:1008600006F036F9284600F0BBFC144B10EE100AD7
:1008700083ED000A07F038FC41EC100B2046022102
:1008800006F05AFC03210E4806F022F9204606F035
:10089000FBFB2046BDE8384006F0F6BB2C09FF1FE5
:1008A0000414FF1F28BE000000007A44AC13FF1F91
:1008B00040BE00001014FF1F4CBE00001414FF1FA8
:1008C00058BE000000B50849084883B003F012FD87
:1008D000074A084B12680192019A07481A6000F013
:1008E0004BFC03B05DF804FB0C09FF1FB013FF1FA6
:1008F0000C18FF1F0C14FF1F0414FF1F10B5132149
:1009000088B004462E4806F0E3F82E4806F0BCFBFB
:100910002246684613232C4900F0B4FF684600F0D5
:10092000FDFE044660B91A21284806F0D1F8254892
:1009300006F0AAFB684600F0E1FE204608B010BDB4
:1009400005222349684600F051FE224B186807F043
:10095000CBFB41EC100B0221684606F0EDFB0122B7
:100960001D49684600F042FE1C4B186807F0BCFBAE
:1009700041EC100B0221684606F0DEFB012216490D
:10098000684600F033FE01221349684600F02EFE4F
:1009900001221149684600F029FE684606F074FB02
:1009A000684600F0ADFE0A210D4806F091F80548B2
:1009B00006F06AFB684600F0A1FE204608B010BDB4
:1009C0005CBE00002C09FF1F2014FF1F84BE000026
:1009D00070BE00001414FF1F74BE00001014FF1F2F
:1009E00078BE000070B52D4C84B023680193019B44
:1009F00023B923680293029B012B1FD9284D294E4E
:100A0000284604F02FFA32682749904203460860CE
:100A100028D39A1AF92A11D94FF4FA71284633606B
:100A200004F02AFA0121284604F098FAE0B91C489B
:100A3000052104F005FA1A4804F086FAFFF7DCFEF7
:100A40001A48FFF75BFF0121242004F03DFDFFF76A
:100A5000A9FD2121164806F03BF8164806F014FBC4
:100A600004B070BD3360E9E72846012104F016FAAE
:100A7000686C1149036801225B68984723680393F7
:100A80000399686C00230A2206F00EFB284604F046
:100A90004BFA284604F086FAC9E700BF0C18FF1F7E
:100AA000C017FF1F0014FF1F1814FF1FA4BE000073
:100AB000B0BE00002C09FF1FA0BE00000020704740
:100AC00090F8392090F83800101A704790F83830B4
:100AD00090F839209A4205D95A1C034480F83820EE
:100AE000187E70474FF0FF30704700BF90F83830E5
:100AF00090F839209A4286BF1B18187E4FF0FF30BD
:100B0000704700BF704700BF38B50546B0F85E00BB
:100B100090B195F85D301446C3F1210294420CD88F
:100B200005F13B001844224604F05AFB95F85D306D
:100B3000234485F85D30204638BD012014462871D5
:100B4000EEE700BFB0F85E306BB190F85D30202B5F
:100B500007D8C218013380F85D30012082F83B10BD
:100B60007047012303710020704700BF00234269D2
:100B700080F8383080F8393080F85C3080F85D30AB
:100B800080F85E3080F85F3006CA30B40D680469C2
:100B900043662A4383660A60A370426990F8613015
:100BA0001649146813441D7A5B7B01EBC5051B02D3
:100BB0006D6803F4E06343F064032B6090F86230E7
:100BC00013449D7CDB7D01EBC5011B02496803F4E6
:100BD000E06343F064030B6021685368194205D059
:100BE00003692C225A70036904229A710369202236
:100BF0005A71036980229A7030BC7047ACC3000000
:100C000038B50269D478E4B2E106054624D510234C
:100C1000D37063061FD504F0040404F0FF03002C16
:100C20005AD042496A6E00230B7085F85D30002A65
:100C300066D0904795F85D30002B61D02B69D022AB
:100C40009A702B6995F83B201A712B69012285F85F
:100C50005C200222DA7038BD04F0400303F0FF008C
:100C6000002BD8D19379DBB203F0600160294ED01C
:100C7000937803F0100303F0FF01B3B114F0010403
:100C800037D195F85C3095F85D1099424BD9591CD5
:100C90002B4485F85C1093F83B3013712B69D022FC
:100CA0009A702B690222DA70D5E785F86010937983
:100CB00043F0200393712B6995F839101A791F2995
:100CC000D2B2C6D8194800780028C2D068180131BD
:100CD00085F839100276BCE72A6985F83930C023D7
:100CE00093702B69114A1979012111700222DA706F
:100CF000B1E7C02393702B691A790222DA70AAE750
:100D00000122002385F85D2085F83B3096E703F04B
:100D1000DF039371AB6E23B185F8380095F8390085
:100D200098472A69A4E71471B8E700BF1C14FF1F95
:100D30002DE9F047374FDFF8E0903B68026982B059
:100D400006460093DDF8008000214FF49675D378B5
:100D50009B065BD53B680193019BC8EB03030F2BFC
:100D6000F5D949B1102BF2D0002090703369802260
:100D70009A7002B0BDE8F087726996F8613013444A
:100D80000521187A04F0A6FB726996F861301344C5
:100D9000012193F812A0504604F09CFB0924002185
:100DA000504604F091FB2B46013BFDD101215046FA
:100DB00004F08AFB2B46013BFDD1013CEFD1706969
:100DC00096F8611001444FF416720C7A4B7B09EBD4
:100DD000C4011B02496803F4E06343F064030B6041
:100DE00096F862300344997CDB7D09EBC1011B025C
:100DF000496803F4E06343F064030B60013AFDD1FA
:100E00003269D3789B064FF00101A3D4012002B0D0
:100E1000BDE8F0870C18FF1FACC30000F0B50369F4
:100E20001222DA700269937803F0200385B0044639
:100E30000D46002B5ED0B42393703C4922690B68A9
:100E40000093009E05E00B680193019B9B1B042B04
:100E500042D8D37803F0200303F0FF00002BF2D038
:100E600094F85D30002B31D04FF0000E4FF0020CA3
:100E700004EB0E0393F83B3013710B680393039F4D
:100E8000206907E09B060DD50B680293029BDB1BD4
:100E9000052B28D8C378DBB203F0020202F0FF066C
:100EA000002AEFD080F803C02669F378DBB2DF06B2
:100EB00032462DD49F062BD5DB0731D40EF1010E1F
:100EC00094F85D305FFA8EFE7345D1D800201DBBCB
:100ED000002384F85E3004E09070236980229A70C9
:100EE000042005B0F0BD86702369802204209A702A
:100EF00005B0F0BD03F0FF06FFF71AFF10B904209C
:100F000005B0F0BD236984F85F60B0229A7094E761
:100F10008023B3700420DAE726698023B370D7E713
:100F2000BEF1000F0CBF02200320F6E70C18FF1FD4
:100F30002DE9F04106690025122780F8385080F825
:100F40003950F770D0F810C09CF802E00EF0200E77
:100F500088B00446884615461E46BEF1000F49D0AB
:100F6000B4238CF802307A4B21691A680092DDF8BC
:100F700000E006E01A6801920198CEEB0000042818
:100F800030D8C87800F0200000F0FF070028F1D02A
:100F90004FEA480242F00102D2B20A711A68029284
:100FA000DDF808E0206906E01A6803920399CEEBA9
:100FB000010105292AD8C17801F0020101F0FF07DB
:100FC0000029F1D04FF0020C80F803C02269D178DB
:100FD00011F0110722D12DBB002E0CBFA0238023BE
:100FE000937003E08F70236980229A70384608B0AE
:100FF000BDE8F0810EF0FF07FFF79AFE0028F5D05C
:10100000236984F85F70B0229A70ACE78770236917
:10101000802238469A7008B0BDE8F0818023937032
:101020000027E3E7012D78D0A021917021690A798A
:10103000BE4667464FF0A80C1A680492049805E073
:101040001A680592059A121A052A4DD8CA7802F034
:10105000020202F0FF08002AF2D0CF702169CA789C
:10106000D2B212F0100F08465DD192065BD5013D59
:10107000EDB2012D4CD0BEF11F0F3ED90A79012DE2
:10108000DAD11A680692069D05E01A680792079A57
:10109000521B052A56D8C27802F0020202F0FF0164
:1010A000002AF2D00223C3702269D378DBB2D906BA
:1010B0003BD49B0637D5B023BEF11F0F937043D8A6
:1010C000226904EB0E0312791A760EF1010E5FFA13
:1010D0008EFE00BF00BF00BF16B1236980229A7048
:1010E00084F839E0774681E781F80280236980221D
:1010F0009A70774684F839E078E704EB0E0291F8AD
:10110000048082F818800EF1010E5FFA8EFEB6E7B9
:1011100081F802C021690846ADE7A82191702069D5
:10112000BE460279ADE7774660E710214FF496732B
:10113000D170013BFDD12269937803F0F703774624
:10114000937053E78170D1E723691B79C1E700BF32
:101150000C18FF1F0148FFF753BD00BF6407FF1FB6
:101160000148FFF74DBD00BFD007FF1F0148FFF743
:1011700047BD00BFF806FF1F704700BF38B50368C2
:10118000C022012583F83B2083F85E5083F85D5030
:101190000446006803681B68984700212068FFF731
:1011A0003DFE2B462A4620686021FFF7C1FE2068DD
:1011B0000A4A03685B6993420BD190F8383090F883
:1011C00039209A4208D95A19034480F83820187EE9
:1011D00038BD9847C0B238BDFF2038BDCD0A0000E9
:1011E00070B5054600212846FFF7C8FF04460A20CF
:1011F00004F076F9A107F5D52B68294EC022012409
:1012000083F83B2083F85E4083F85D4028680368DC
:1012100004211B68984700212868FFF7FFFD23463B
:10122000022260212868FFF783FE286803685B6953
:10123000B3422CD190F8383090F839209A422BD90B
:101240001A19034480F838201C7E286803685B69FB
:1012500064B2B3424FEA04241CD190F8383090F8BD
:1012600039209A4218D95A1C034480F83820187E35
:10127000204340F30B1003B2020544BF6FEA03534F
:101280006FEA135300EE103ABAEECE0A70BD9847DB
:101290000446DAE79847EBE79FED020A70BD00BF0E
:1012A000CD0A0000000080BD38B503680446C025A3
:1012B000012083F83B5083F85E0083F85D002068CE
:1012C00003681B68154698472068036829461B6811
:1012D000984720680021BDE83840FFF79FBD00BF58
:1012E00010B5016004460846FFF740FC20460C217B
:1012F000FFF744FFC42801D0002010BD204604227F
:101300002621FFF7D1FF0A2004F0EAF82621204623
:10131000FFF734FF10F0040F4FF00A00F4D1B822A9
:10132000627120462621FFF7BFFF204607221321C6
:10133000FFF7BAFF012010BD70B5044601E004F0CC
:10134000CFF826212046FFF719FF00F0020303F033
:10135000FF010A20002BF2D1627961F3C71262719A
:101360002621D2B22046FFF79FFF627942F00202A7
:10137000627126212046FFF797FF00212046FFF7E4
:10138000FDFE05460A2004F0ABF86B07F5D523688F
:10139000384EC022012583F83B2083F85E5083F845
:1013A0005D502068036829461B6898470021206823
:1013B000FFF734FD2B46032260212068FFF7B8FDBC
:1013C00023681A685269B24237D193F8381093F8FB
:1013D000390088423DD94A1983F8382019442368D6
:1013E0000D7E1A685269B2424FEA05252ED193F854
:1013F000381093F8390088422BD94A1C194483F8D5
:101400003820087E23681A68526940EA0504B2420F
:101410004FEA042421D193F8382093F839109142EF
:1014200024D9511C1A4483F83810107E0443230930
:1014300000EE103ABAEECF0A70BD18469047236806
:101440001A685269B2424FEA0025D0D01846904738
:10145000D8E7B2420AD06FF0FF0418469047204305
:10146000030900EE103ABAEECF0A70BD9FED020AF2
:1014700070BD00BFCD0A00000000804C70B504466E
:1014800001E004F02DF826212046FFF777FE10F04A
:10149000020F4FF00A00F4D1627942F080026271CB
:1014A00026212046FFF700FF627942F002026271B6
:1014B00026212046FFF7F8FE00212046FFF75EFEBA
:1014C00005460A2004F00CF86B07F5D52368374E63
:1014D000C022012583F83B2083F85E5083F85D50DD
:1014E0002068036829461B68984700212068FFF799
:1014F00095FC2B46032260212068FFF719FD236825
:101500001A685269B24235D193F8381093F839000D
:1015100088423BD94A1983F83820194423680D7E44
:101520001A685269B2424FEA05652CD193F8381017
:1015300093F83900884229D94A1C194483F8382085
:10154000087E23681A685269B24245EA004420D1F5
:1015500093F8382093F83910914223D9511C1A443A
:1015600083F83810107E44EA002300EE103ABAEEF9
:10157000C80A70BD1846904723681A685269B2427B
:101580004FEA0065D2D018469047DAE7B24209D058
:10159000074C1846904744EA002000EE100ABAEEC5
:1015A000C80A70BD9FED030A70BD00BFCD0A0000E0
:1015B0000000FFFF000080BB704700BF10B582B085
:1015C00002AB026803F8011D546819460122A047C6
:1015D00002B010BDC06938B18369C06847F6FF72B8
:1015E000181A904228BF1046704700BFC36910B553
:1015F00004463BB100201871E06901F05DFCE3692D
:101600001B791BB101232371002010BD10BD00BF49
:10161000C06978B100B583B001220DF1070101F076
:101620001DFA01280CBF9DF807004FF0FF3003B0F2
:101630005DF804FB4FF0FF30704700BFC369C3B1D2
:1016400010B582B00446012218460DF1070101F0E1
:1016500005FA012803D04FF0FF3002B010BDE06959
:101660009DF80740C168013901F0B4FA204602B084
:1016700010BD1846704700BFC06908B101F0DCBA60
:10168000704700BF2DE9F04105464FF47A731348C7
:10169000AB60002328602B712B7324200C469046EE
:1016A00007F0D4F8E861B0B1064604F1200E2068D6
:1016B0006168A268E36837460FC7103474453E4638
:1016C000F5D12068386041460C2205F10D0007F085
:1016D00075FD00236B762846BDE8F08160BF0000F1
:1016E0004FF47A7204498260002201600271027331
:1016F000C2614273704700BF60BF0000704700BF07
:10170000C36953B110B50446184601F02FF9E069DA
:1017100007F0A4F80023E36110BD7047C06918B159
:101720008079003018BF0120704700BFFE2938B50E
:10173000054617D00A46012100F006FE03460BB904
:10174000002038BD2C1D20460122294601F0A4FEB0
:1017500098B1214605F12C0001F058F9003018BF6E
:10176000012038BD017000F0DDF9044600F0C8F931
:10177000B4FA84F35B09A870E1E7024629462046E3
:1017800001F08AFE0028E4D1002038BD2DE9F04F99
:1017900099B04FF00008DFF8E8A08DF81C80814672
:1017A000043106A8934601938DF81E808DF8408081
:1017B0008DF84280CDF818A0CDF83CA001F026F9B4
:1017C00006AE5D460FAF2F21284607F0B3FB441B42
:1017D000E4B2294608B32B782F2B02A81BD00C2C7F
:1017E00028BF0C24224607F0E9FC18AB23443846F6
:1017F00003F8588C01F0BAF8012302AA31463846A2
:1018000001F04EFB88B3304601F0B0F83346254472
:101810003E461F46D7E70135D5E701983179727901
:10182000B379B468377DCBEB05050560F0683569A1
:1018300089F8041089F80520B16989F80630F26941
:10184000336AC9F80C004846C9F800A0C9F8084036
:10185000C9F8105089F81470C9F81810C9F81C207C
:10186000C9F8203019B0BDE8F08F89F8040089F874
:1018700006004846C9F800A019B0BDE8F08F00BFC7
:1018800088BF0000F0B59DB005461F4601A86B4615
:101890001446FFF77BFF009AA35C1444002B42D050
:1018A0009DF80A202F4E0A9600238DF82C308DF8D3
:1018B0002E30002A31D00AA83B46224601A901F069
:1018C000EFFA50B301A801F051F817F0060F43D119
:1018D0009DF82C700C9B9DF82DE0139622469DF8E8
:1018E0002E408DF850708DF8524015930D990E983A
:1018F0009DF83C70109E119C129B8DF851E0169142
:10190000179013A928468DF8607019961A941B93A6
:10191000FFF7B8FE28461DB0F0BD2846FFF7E0FEF1
:1019200028461DB0F0BD9DF808700E4E9DF8094088
:101930009DF80A30039A8DF8507013968DF8514037
:101940008DF852301592049905989DF81870079EED
:10195000089C099B044AD2E70AA8109901F03AF9B9
:10196000B6E700BF88BF00007CBF0000064B074AF7
:10197000DA620221002259609A7083F8242083F8E9
:10198000302083F8322070472014FF1F88BF0000EA
:1019900010B4114C114B226811491340184322F026
:1019A000080240F46020226020600B681C0706D407
:1019B0000C4B01E0013B02D00A681207FAD5064B36
:1019C000094A5DF8044B40F008001860136843F4BE
:1019D00080131360704700BF2C100B400700F0FF0E
:1019E00024100B40FFFF0F0030100B402149224A0A
:1019F0000B6843F080030B6011461368DB07FCD4CF
:101A00000B689B07F9D41D4B30B44FF08072194D11
:101A1000186000E0A2B12968194B164C0B40013A3E
:101A2000002BF7D062B1012B0AD1236813F0800F8D
:101A300023680FD043F001132360032030BC7047AC
:101A40000C4A136843F4702343F001031360012030
:101A500030BC704713F4803305D0236843F0011382
:101A600023600520F4E7226842F001021846226054
:101A7000EEE700BF30100B4024100B400C100B4061
:101A800001000E0070B50D4D0D480E4E00232B6069
:101A9000FFF7ACFF6324034606E04BB92B60FFF76A
:101AA000A5FF013C034605D0326805485207F4D42F
:101AB000184670BD002808BF052070BD08100B40F7
:101AC0000000DB0C24100B4070B5094C00230546C8
:101AD00023600848FFF78AFF00B170BD064E074833
:101AE00033682560FFF782FF0028F6D1336870BDA8
:101AF00008100B4000001A3710100B40000002299C
:101B0000074B1A784AB99A782AB15B78002B0CBF38
:101B1000022003207047012070470020704700BF5B
:101B20007414FF1F2DE9F047674D684E2B68684F0E
:101B30006849694C69486A4ADFF8C8E143F40033F0
:101B40002B60336843F4005333603B6843F0020377
:101B50003B600B6843F002030B60236805F59F456B
:101B600006F59F4607F59F4701F5D12123F00103B4
:101B7000236001F2EC7140F20313583554365437A8
:101B800003600024574813602C600A4633603B60B2
:101B9000CEF800300860136813F08073FBD1524C0C
:101BA000524A5348534923604FF481354FF0101384
:101BB000282405600C604FF487501360FFF7E8FE9F
:101BC0004D4A13689C07FCD1454EDFF810E14B4CA1
:101BD0004B4A4C494C4F4D4D4D4840F24343CEF893
:101BE000003033604FF48866266013604FF6FF764E
:101BF000484C3B6002F5C8220B6020322E604FF447
:101C0000FA710460136843F00063136013681801ED
:101C1000FCD40139F6D13D4A3748136843F08003BC
:101C200013600368DA0308D43B4B022059709970A3
:101C3000187059609960BDE8F087374C374E2170B5
:101C40006170A170084631606160A160FFF7CEFE4F
:101C500068B9334D33482B684FF4D5733360FFF7C1
:101C6000C5FE40B92B682B68B3F5D57F29D001207C
:101C70002070BDE8F0870528F9D10020FFF724FF88
:101C80000028F4D1264B1A6812F4401F58D062780D
:101C9000254FDFF89880002A05461E4608BF4FF4FE
:101CA000401704E03268002A42DB454546D03846FA
:101CB000FFF70AFF01351A4B0028F3D00120BDE8D9
:101CC000F08701236370D8E73080044038800440F7
:101CD0003C8004404080044000D0004000D00440DC
:101CE00004D0044000800001C0100B4044100B40A1
:101CF00004100B4028100B4024100B4008D0044067
:101D00000CD0044014D0044010D0044030100B40DC
:101D100034100B40BB007F117414FF1F08100B40E0
:101D200010100B4000001A0800003040A08601008F
:101D3000554A954202D01B685B0001D400236370B2
:101D4000524E534800233360FFF750FE03460028ED
:101D50008DD1504D50482A683360FFF747FE002868
:101D600085D12B682B684D484D4D1B0C1B043360EF
:101D70006360FFF73BFE00287FF479AF494B4A4987
:101D80001A68120EEA700A6812F4400F71D11968CD
:101D900046481B68026800689B0203F4406343EAFC
:101DA0009253C0F3C2105A1CC1F30321831C09399A
:101DB00002FA03F38B40AB60344E636833603C48F7
:101DC000374FFFF713FE00287FF451AF314D3948EC
:101DD0002B684FF400733360FFF708FE00287FF490
:101DE00046AF7B682A6834483360FFF7FFFD002860
:101DF0007FF43DAF02232A6830483360FFF7F6FDD9
:101E000000287FF434AF2E4B2A681A68DFF8B8A098
:101E1000DFF8B890DFF8B8802A4C22F006021A608A
:101E20001A68A6F5C726A6F2FC76A5F5C82542F0E5
:101E300002021A6040F20313CAF80030C9F80030F9
:101E4000C8F8000033604FF498702B602360FFF7F0
:101E50009FFD40F243434FF48862CAF80030C9F84E
:101E60000030C8F8002033602B6023603878BDE86C
:101E7000F08701220D4BAA701B68C3F3152313448E
:101E80009B02AB6098E700BFA086010008100B40E2
:101E90000000090210100B4000001A03000009099D
:101EA0007414FF1F18100B401C100B4014100B4033
:101EB00000001B0700001A1000001A3700001A0665
:101EC00028100B4014D0044000D0044004D004403B
:101ED00008D00440F8B5384B1A780AB10320F8BD91
:101EE0005B78064603B94902344D354C354B3648CC
:101EF0004FF6FF774FF481322F6021601A60FFF7B1
:101F000075FD0028EBD1314B31491B681C3406F1BB
:101F1000400206F510702B68284F43F0200613F49A
:101F2000E00F2E603ED123681E05FCD50B6842F8F9
:101F3000403C0B6842F83C3C0B6842F8383C0B686C
:101F400042F8343C0B6842F8303C0B6842F82C3CB9
:101F50000B6842F8283C0B6842F8243C0B6842F8B6
:101F6000203C0B6842F81C3C0B6842F8183C0B689C
:101F700042F8143C0B6842F8103C0B6842F80C3CE9
:101F80000B6842F8083C0B6842F8043C403282423D
:101F9000C1D1002009490B68084A9B07FBD50D4BAE
:101FA0001360F8BD43F4E00343F020033B60FFF708
:101FB00069FD0120EEE700BF7414FF1F30100B40D5
:101FC00008100B4004100B4010003A1110100B4089
:101FD00020100B4022000001F8B52B4B1A780AB1F3
:101FE0000320F8BD5B78044603B94902274D284E0B
:101FF000284B29484FF6FF774FF481322F6031602C
:102000001A60FFF7F3FC0028EBD1244B24491B682E
:102010002E4604F500772B681C4AD806FBD533689A
:1020200013F4E00F1AD104F1400254F8043B0B60A2
:10203000A242FAD12B68DFF854E043F010032B6082
:102040002B6813F4E00013D19742E4D10F490B68D9
:102050000E4A9B07FBD5134B1360F8BD136843F47E
:10206000E00343F010031360FFF70CFD0120EDE7E0
:10207000DEF8003043F4E00343F01003CEF8003004
:10208000FFF700FD0120E1E77414FF1F30100B4043
:1020900008100B4004100B4000003A1810100B40C1
:1020A00020100B4012000001052822D8DFE800F0C4
:1020B00003030F151B09124B124A1A60124801F054
:1020C00049BC0F4B114A1A600F4801F043BC0C4B3E
:1020D0000F4A1A600C4801F03DBC094B0D4A1A60CA
:1020E000094801F037BC064B0B4A1A60064801F05C
:1020F00031BC034B094A1A60034801F02BBC00BFF6
:102100008414FF1F000001B84008FF1F043000388E
:102110000110003803200038010002380650013851
:1021200010B50121007803F0CFF9114A1378C3B13B
:102130001049CB7A00241846147093B1DA0703D5FE
:102140000D4AC869106018469C0703D50B4B0A6AF4
:10215000C87A1A60420705D4030702D5084B8A6A79
:102160001A6010BD074B4A6AC87A1A60F4E700BFCC
:102170008814FF1F4008FF1F00E100E004E100E0B9
:102180000CE100E008E100E0234B1A781AB1007876
:10219000002103F099B970B4204A2149D47A096822
:1021A00001251D70002C26D072B6D47AE60723468E
:1021B00006D51C4DD3682E683340D3612B6023466F
:1021C000A50706D5184D14692E68D37A34401462D9
:1021D0002C605C0706D5154D54692E68D37A3440BF
:1021E00054622C601B0705D5114C936925682B4060
:1021F0009362236062B61368DA688A4207D00D4C96
:102200001C600D4AD96041F080441C611A6000785E
:10221000002170BC03F058B98814FF1F4008FF1F4D
:102220008414FF1F80E100E084E100E088E100E029
:102230008CE100E001403F0000003F80F0B4124814
:10224000124A036882B016460093009F4FF0004583
:10225000FF24136843F480631360D5625463D36A28
:10226000002BFCDAB36BDBB2FF2B09D003680193C0
:10227000019BDB1B8B42ECD3002002B0F0BC70470B
:10228000012002B0F0BC70470C18FF1F00C00240D4
:10229000F8B50D464FF4967116460446FFF7CEFF8B
:1022A000284B1A684FF0004042F4806245F040012C
:1022B0001A60D8621A465963D36A002BFCDA2149A6
:1022C00018204FF000470A6826FA00F342F48062B3
:1022D000DBB20A60CF624B63CB6A002BFCDA0838B2
:1022E00010F1080FEFD155B3082D0CBF8721FF2146
:1022F000144B1A684FF0004042F480621A60D862B2
:102300001A465963D36A002BFCDA0E4A0027164698
:102310004FF00045FF21136843F480631360D562DA
:102320005163D36A002BFCDAB36BD8B21B06607022
:1023300000D4F8BD0137B7F5807FECD1F8BD952109
:10234000D6E700BF00C002402DE9F04300239D4EB8
:10235000027085B083703368019305468846104645
:102360000121019F03F0B0F82878012103F0B2F8B1
:102370002878012103F0A8F8934A136843F48053A6
:1023800013600620FFF790FEDFF870E28F4B9EF897
:102390000BC01A68BCF1000F2CD072B69EF80B105F
:1023A000C8070B4608D58A48DEF80C30046823407D
:1023B000CEF81C3003600B468C0709D58548DEF843
:1023C000101004689EF80B302140CEF820100160F8
:1023D000580709D58048DEF8141004689EF80B30C1
:1023E0002140CEF824100160190700F1AB8062B6DD
:1023F0009EF80BC0DEF80030D968914207D07748CC
:1024000018607749DA6042F0804018611960754AB7
:102410000A244FF00040FF21136843F480631360E7
:10242000D0625163D36A002BFCDA013C14F0FF0444
:10243000F2D1BCF1000F21D01CF0010F05D06A4B86
:10244000DEF81C209EF80BC01A601CF0020F05D0AD
:10245000664BDEF820209EF80BC01A601CF0040FBB
:1024600005D0634BDEF824209EF80BC01A601CF0E8
:10247000080F03D05F4BDEF828201A602846FFF7CC
:1024800083FE06E033680293029BDB1BB3F5FA6F11
:1024900051D8002211462846FFF7FAFE012881464E
:1024A0006870EFD14FF4D57208212846FFF7F0FE8F
:1024B000430726D585F802904FF0000906E03368FF
:1024C0000393039BDB1BB3F5FA6F34D8002237214B
:1024D0002846FFF7DDFE4A4629212846FFF7D8FEA9
:1024E00068700028EBD1AB78022B39D02846FFF773
:1024F00017FE4046FFF7D8FD0124204605B0BDE891
:10250000F083384A042194464FF0004EFF201368B0
:1025100043F480631360C2F82CE05063D36A002B4D
:10252000FCDADCF838300139DBB211F0FF016B70F6
:10253000EDD1AA2B0FD02846FFF7F2FD204605B0BB
:10254000BDE8F0832C49DEF8183008680340CEF867
:1025500028300B604BE70223AB704FF08049B5E7A2
:1025600002463A212846FFF793FE0028E3D11D4B8F
:102570001A684FF0004442F48062FF201A60194646
:10258000DC625863CB6A174A002BFBDA936B154A5F
:1025900003F0C003C02B04BF0323AB700321164616
:1025A0004FF00044FF20136843F480631360D4624B
:1025B0005063D36A002BFCDA013911F0FF01B36BD1
:1025C000F1D193E70C18FF1F3C8004408414FF1FD7
:1025D00080E100E084E100E088E100E001403F00AC
:1025E00000003F8000C0024000E100E004E100E0A4
:1025F00008E100E00CE100E08CE100E04008FF1F92
:10260000F0B41549154A0B6882B016460093009F36
:102610004FF00045FF24136843F480631360D562D4
:102620005463D36A002BFCDAB36BDBB2FF2B43702D
:102630000AD10B680193019BDB1BB3F5967FEAD9A6
:10264000002002B0F0BC7047A3F1FE00B0FA80F0A9
:10265000400902B0F0BC70470C18FF1F00C00240D8
:10266000F8B58378032B0E46044618BF4E02154674
:10267000FFF78AFD324611212046FFF709FE18B9FF
:102680002046FFF7BDFF20B92046FFF749FD002097
:10269000F8BD204B2049214A1A608E4659631A46DC
:1026A00059631E46596305F5FD70A91C05F5FE77B3
:1026B000D36A13F0F00FFBD0C6F834E0B36B01F827
:1026C000013C1B1201F8023C02318F42F0D105F5AA
:1026D0000075A8420DD20F4A1646D36A13F0F00FC8
:1026E000FBD0B36B191200F8021BA84200F8013CA2
:1026F000F3D3084B0949084A196019465A63CB6A53
:10270000044A13F0F00FFAD02046936BFFF708FD50
:102710000120F8BD00C00240FFFF009000041F80B0
:10272000F0B4314E33684FF0004743F480633360B8
:102730003D46F762344671633346511C02F201276D
:10274000E26A002AFCDA1A6811F8016C42F480622D
:102750001A60DD625E63E26A002AFCDA1A6811F828
:10276000026B42F480628F421A60DD625E63E7D1E1
:102770001D49CA6A1C4B002AFBDA1A684FF0004553
:1027800042F48062FF241A601946DD625C63CB6A02
:10279000154A002BFBDA13684FF0004543F48063C1
:1027A000FF2413601146D5625463CB6A0E4A002B96
:1027B000FBDA13684FF0004543F48063FF24136095
:1027C0001146D5625463CB6A074A002BFBDA936B40
:1027D000DBB203F01F024370A2F10500B0FA80F0F3
:1027E0004009F0BC704700BF00C0024070B504460D
:1027F00071B18378032B0D4618BF4D021646FFF7C3
:10280000C3FC2A4618212046FFF742FD054620B1A9
:102810002046FFF785FC002070BD3246FE21204691
:10282000FFF77EFF0028F3D04FF416712046FFF724
:1028300005FD0028ECD02A460D212046FFF728FD93
:102840000028E5D10B4B1A684FF0004542F4806236
:10285000FF201A601946DD625863CB6A054A002BD7
:10286000FBDA936B13F0FF0FD2D12046FFF758FC31
:10287000012070BD00C00240014B024A1A6070473F
:102880008414FF1F0320003838B590F90530002B61
:1028900003DBBDE8384000F013BC044601210069A9
:1028A00000F04EFCF8B1257D104B13EB45151AD006
:1028B000A3790F4A012B9CBFA369EB61E3691268FE
:1028C0006B831B0CAB8232B105F1160105F11800C8
:1028D00090472B8B6B82637903F07F036371BDE8B4
:1028E000384000F0EDBB002038BD00BF9814FF1F3A
:1028F0008C14FF1F10B500F1080204460121006A84
:1029000000F012FD50B1E3693BB96379A268E2615E
:1029100063F07F036371012010BD012010BD00BF73
:1029200070B50646FFF7E6FF98B1326AB568117CCC
:1029300053691479023D8D40013B74B11D4402E09E
:1029400014F0FF0407D0601900F06AFC013C002875
:10295000F6D1002070BD336A197CB0694FF4007263
:1029600002FA01F30344B361012070BD82790AB910
:102970000020704710B50446FFF786FF18B100230A
:10298000A371012010BD002010BD00BF70B44B1E0C
:1029900001F10A04202203F8012FA342FBD10138E0
:1029A0000025072610F8014F2CB32E2C1ED0164AF6
:1029B00001E09C4217D012F8013B002BF9D1AE4246
:1029C0001FD3A4F121025D2A1BD8A4F16102192AA8
:1029D00005F1010398BF203C0D44DBB298BFE4B27F
:1029E0002C701D46DEE7002070BC70470A2EFAD01E
:1029F00008250A26D6E70B78B3F1200018BF01207E
:102A0000F2E71846F0E700BF98BF000038B58379B9
:102A10003BB991F82020102A0D46044603D0202A05
:102A200010D0002038BD022282714A8CC36153014C
:102A3000836100230120607123752562A360E36038
:102A4000236138BD03238371496AC16100F1180213
:102A5000284600F039FC0028EBD1E2E7837913B96E
:102A60004FF0FF3070472DE9F04F8B464179C90791
:102A700083B005465BD5C1688469641A944228BF57
:102A8000144626460194002C69D01A46022ADFF823
:102A9000FC903D4FDFF8F880C1F3080A42D0286A65
:102AA0000479013C04EA5124E4B2BAF1000F62D186
:102AB000002C60D1002956D1EA69AA6090F810E094
:102AC0004169023A02FA0EF221441144CAF5007437
:102AD0006A79B442A8BF344653062DD4B4F5007FBA
:102AE0002AD00846002100F02BFB00B30AEB090EA8
:102AF0000EEB040086450BD00BF1FF32734613F842
:102B0000011B02F8011F9842F9D1CEEB000083446B
:102B1000E968361B2144E96021D0AA79022AC1F371
:102B2000080ABCD12A6A506A00EB5121CEE74FF067
:102B3000FF3003B0BDE8F08F3A689142D1D0D8F8A9
:102B400000000378FE2B18D05A46FFF789FD0028B5
:102B5000EDD0E968361B2144A344E960DDD101983A
:102B600003B0BDE8F08F05F10802A96800F074FB1E
:102B70000028DCD0286AAA68A0E75846FFF7AAF91F
:102B8000B0FA80F04009E2E73C08FF1F9814FF1FED
:102B90009414FF1F8379012B17D930B5C36883B014
:102BA00001220DF107010446C3F34315FFF756FF59
:102BB000012802D0002003B030BDE36804481F3371
:102BC00000EB4510E36003B030BD0020704700BF4C
:102BD0009814FF1FF8B5837913B182698A4201D234
:102BE0000020F8BD022B0F4605461AD007B32B6A0A
:102BF000E9681C7C4A1E04F109037C1EDA40DC40B3
:102C0000A24211D9EB69AB6005F1080606E0A9689C
:102C1000286A00F021FB013C0028E1D03246002C5C
:102C2000F5D1EF600120F8BD0029EBD0A41AEBE745
:102C3000AF60EF600120F8BD83790BB1FFF724BED0
:102C4000184670478379012B01D000207047F0B5FA
:102C50004579AC0783B002461CD585698D420C4688
:102C600018D3D5B12546D6681446FFF7B3FF88B10F
:102C7000B5B9E169206A00F0E1FB58B1E56122E0F5
:102C800000F0DCFB30B16FF07042A168206A00F008
:102C9000C3FBC0B9002003B0F0BD184603B0F0BDBF
:102CA00001AAA168206A00F0D7FA0028F2D0206AB1
:102CB0000F4B90F8207001994FF6F872102F08BF53
:102CC00013469942DCD36379A279A56163F07F034F
:102CD0006371002ADED02046FFF7D6FD0028D9D048
:102CE000B5422946204628BF3146FFF773FFD2E799
:102CF000F8FFFF0F70B51D4B03EB4116F37A13F08D
:102D0000110F02D012F0420F1ED1194B01751B6832
:102D10000361738BB18A43EA0141C161F37A13F015
:102D20001803154604460DD1F369836101238371AD
:102D300005F00F03002163716B06A160E1600FD401
:102D4000012070BD102B01D0002070BD00F11802D1
:102D5000006A00F0B9FA0028F6D00423A371E7E76F
:102D60002046BDE87040FFF76DBF00BF9814FF1FFD
:102D70003C08FF1F2DE9F04784B001AF06460C4622
:102D8000104639469946FFF701FE78B30022216AC2
:102D9000316213461546A260E260DFF8008108E068
:102DA000E52B1CD001460B22384606F02DF888B3DF
:102DB000E368A2699A421DD92046C3F3431AFFF77C
:102DC000E9FE98B10378002BEAD15DB9D8F800305C
:102DD00086F814A03361037823B10125E8E7002DBC
:102DE000FBD1F3E709F01203122B1DD0002004B031
:102DF000BDE8F08709F01203122BF7D1A5B9A3792A
:102E0000022BF3D02046FFF78BFD0028EED0214C9B
:102E1000357514E009F03003302BE7D04A465146AF
:102E20003046FFF767FFE2E70121306900F088F9DB
:102E30000028DBD0347D174B13EB4414D6D020226E
:102E40000021204606F012F897E80700234603C346
:102E5000114923F8022B0D68120C1A709DB104F170
:102E60000E0104F11000A847238AE28963822383BC
:102E7000E28200F025F90028B8D04A46317D30467C
:102E8000FFF738FFB3E742F621034FF400622382D5
:102E9000E281EBE79814FF1F8C14FF1F3C08FF1F13
:102EA00010B484791CB100205DF8044B70475DF8C4
:102EB000044BFFF75FBF00BF2DE9F04F8B468179D0
:102EC00085B001290746019205D001233B710020FE
:102ED00005B0BDE8F08F42799107F6D5530708D5C4
:102EE000FC68B9698C4200F0B480FFF773FE0028DB
:102EF000EBD0019BFC68002B4AD0DFF8A491DFF8EF
:102F0000A4A1DDF80480386A0679013E06EA542659
:102F100016F0FF06C4F3080443D1002C41D1B96870
:102F2000002973D1FA69002A00F08380BA60C4F5E1
:102F30000075ADB245453AD9057C4169023AAA40CF
:102F40000E4416441FFA88F51CB9F868BA69904215
:102F50004FD23046012100F0F3F80028B5D04C44A0
:102F600004EB050E74450DD00BF1FF31621E0EF11E
:102F7000FF3611F8010F02F8010F9642F9D1C4EBA8
:102F80000E04A344FC68B8EB05082C44FC60BAD1DD
:102F9000BB69A34262D27A79BC6142F080027A7145
:102FA00065E0C4F50075ADB24545BA68C4D8017C8A
:102FB0004069023A8A400644B5F5007F1644C3D101
:102FC000DAF80020964204BF4FF0FF32CAF8002022
:102FD0002F4A10680278FE2A314633D05A46FFF74E
:102FE00005FC00283FF471AF0BF5007B4FF4007532
:102FF000C8E700F065F800283FF467AF2549CAF834
:1030000000600A7842F001020A70A8E703AA00F003
:1030100023F900283FF45CAF386A1F4B90F820502A
:10302000039A4FF6F871102D18BF19468A42FFF423
:103030007DAF3846FFF75EFC00283FF446AF386AA4
:10304000BA6874E75846FEF7C7FFB0FA80F0400947
:10305000C7E7019B002B7FF450AF08E00F4B7A7954
:103060001B6823B1019B13B142F080027A711207F1
:1030700009D5BB79002B3FF428AF3846FFF704FC95
:1030800000283FF422AF019805B0BDE8F08F00BFE3
:103090009414FF1F9816FF1FF8FFFF0F8C14FF1FDB
:1030A0009814FF1F3C08FF1F00B583B002AB01223C
:1030B00003F8011D1946FFF7FFFE03B05DF804FB9E
:1030C00070B51A4C23780BB9012070BD184D194BFF
:1030D000286819680378FE2B17D0174AFFF786FB7C
:1030E00088B1164E316819B900232370012070BDD4
:1030F00028680378FE2B0FD00F4AFFF777FB10B13B
:1031000000233360F0E7002070BD0B48FEF764FF3A
:10311000B0FA80F04009E3E70748FEF75DFFB0FA38
:1031200080F040090028EBD1EDE700BF9816FF1FA3
:103130009414FF1F3C08FF1F9814FF1F9014FF1FDB
:1031400070B5124D2B6883420E4611D00446FFF72E
:10315000B7FF08B9002070BD0D4B18680378FE2B2F
:103160000CD00C4A2146FFF77BFA0028F2D02C60E5
:10317000094B197831431970012070BD214605486B
:10318000FEF7A8FEB0FA80F04009EEE73C08FF1F0A
:103190009414FF1F9814FF1F9816FF1FF8B590F89E
:1031A0002030C469102B1A4B05460E4617461B6883
:1031B00016D004EBD1149C4216D106F07F06154AB6
:1031C00042F826701449287E0A78012842F001024C
:1031D0000A7018D9A968114A0B4413600120F8BD80
:1031E00004EB11249C4208D000212046FFF7A8FFE1
:1031F00050B195F82030102B07D1F6B2054A23467E
:1032000022F81670DEE70120F8BD2346D5E700BF9F
:103210003C08FF1F9814FF1F9816FF1F9014FF1FF4
:1032200010B50446FFF74CFF78B1084B002103F5B9
:10323000007203F8011F9342FBD1054A0549137838
:103240000C6043F001031370012010BD9714FF1FA1
:103250009816FF1F3C08FF1FC36801338B4218D329
:1032600070B590F82030102B154B044616460D46CD
:10327000C0691B680FD000EBD11098420FD105F048
:103280007F01104B53F8213023F07043336001204D
:1032900070BD0020704700EB1120984207D000213C
:1032A000FFF74EFF50B194F82030102BE7D1E9B270
:1032B000044B33F811303360012070BD002070BD25
:1032C0003C08FF1F9814FF1F2DE9F04782B002ADA4
:1032D000DFF8508045F8041D044691464FF0000A7F
:1032E0004FF400774FF6F8760CE094F82030227C0B
:1032F0000199102B14BF4346334607FA02F2994254
:10330000924408D22A462046FFF7A6FF0028ECD1B7
:1033100002B0BDE8F0870120C9F800A002B0BDE806
:10332000F08700BFF8FFFF0F2DE9F04F176883B05B
:103330006FB301374FF0000AC36803F1010813B3FC
:103340008B46064691463C46002505E01C461F4636
:10335000F3680135AB4216D9A04538BF0224214697
:1033600001AA304638BF2746FFF776FF631CD91BFA
:1033700048B1019A002AE9D18B4510D01C46F36868
:103380000135AB42E8D8002003B0BDE8F08FA1F1D1
:10339000010ABAFA8AFA07684FEA5A1ACCE7012CEE
:1033A000F1D9F36801339C42EDD86FF070422146A9
:1033B0003046FFF7F3FE0028E5D0A74214D2013CC7
:1033C000012CE0D9F36801339C42DCD8621C214611
:1033D0003046FFF7E3FE0028D5D0A74204F1FF34C2
:1033E00002D0012CEED1CEE7D9F8001059B1012955
:1033F000C9D9F36801339942C5D83A463046FFF738
:10340000CDFE0028BFD0C9F80070BAF1000F01D07E
:10341000013737600120B7E701290CD9C3680133B0
:10342000994210B403D85DF8044BFFF7B7BE0020F3
:103430005DF8044B70470020704700BFF0B50223D1
:1034400083B00546134F03600C464FF6F8760FE045
:10345000EB6801339C4216D8FFF7A0FE98B195F8AF
:103460002030019C102B0CBF33463B469C420DD2B2
:1034700001AA21462846FFF7EFFE2146002210B19F
:10348000012C2846E4D8002003B0F0BD012003B091
:10349000F0BD00BFF8FFFF0FF8B53E4B05461960C1
:1034A0001446DAB1042A01D90020F8BD00210846EB
:1034B000FFF746FE0028F7D0374B03EB041292F8D3
:1034C000AE215206F0D11B3403EB0414D4F80A30B9
:1034D000632BE9D9D4F80640002CE5D00021204622
:1034E000FFF72EFE0028DFD02B4AB2F80B30B3F5E1
:1034F000007FD9D1117C0029D6D0D389002BD3D01D
:10350000567B002ED0D0002329762E712B740127F4
:1035100003E009290B462974C6D007FA03F0B0422C
:1035200003F10101F5D1D68A1B4906B94E6AB2F8FA
:103530000EE0AE60A644C5F81CE0B2F81110177C8E
:103540006984480106FB07E600F2FF1006EB6020E5
:103550006E626861B2F813100F4E01B9316A241A15
:103560000C4424FA03F340F6F4718B42EB600BD960
:103570004FF6F4718B4285BFD36A6B621023202310
:1035800085F820300120F8BD0C2385F8203001207B
:10359000F8BD00BF9414FF1F9814FF1F10B4047FE0
:1035A0004160022CC26003D05DF8044B03F094BB71
:1035B00083685DF8044B1847F0B4464B464A986B55
:1035C0005C6B01791170454922790A701A6B007998
:1035D0000870002A46D05968C9688A423ED82168D6
:1035E000CC8B240402F1FF3065D4C0F30E00C883F5
:1035F000C88B80B2C882996B0968C88B000452D40A
:10360000C2F30E00C883C88B002480B212F1FF32CF
:10361000C88218BF01221C63596B2E4809680D68C7
:1036200000F12C04A54236D00068C46814F0804F25
:103630000C680D6815BF248824780235013544F0E4
:1036400000440D604463996B254B09791970214939
:1036500012B14A6B12791A70F0BC7047521A1A6391
:103660000122D9E7D86B196805681E4C0A63CC6241
:10367000CC682D681C4E24F080440327B542CC60F2
:1036800083F82D701FD1037F4260022BC2601ED0D1
:10369000F0BC03F021BB016890F82C00CC6840F02E
:1036A00000404863CFE7CC8BC2F3080004F47E44AB
:1036B0002043C883A7E7CC8BC0F3080004F47E4402
:1036C0002043C88394E72B461146F0BC1847836813
:1036D000F0BC18478008FF1F1F8000401C8000407E
:1036E0001B80004000000FFF9D350000F0B4464BEA
:1036F000464A986B5C6B01791170454922790A70D2
:103700001A6B00790870002A46D05968C9688A4245
:103710003ED82168CC8B240402F1FF3065D4C0F37D
:103720000E00C883C88B80B2C882996B0968C88BA9
:10373000000452D4C2F30E00C883C88B002480B2A8
:1037400012F1FF32C88218BF01221C63596B2E4848
:1037500009680D6800F12C04A54236D00068C468E1
:1037600014F0804F0C680D6815BF2488247802354A
:10377000013544F000440D604463996B254B097991
:103780001970214912B14A6B12791A70F0BC704756
:10379000521A1A630122D9E7D86B196805681E4CC2
:1037A0000A63CC62CC682D681C4E24F08044032749
:1037B000B542CC6083F82D701FD1037F4260022B8D
:1037C000C2601ED0F0BC03F087BA016890F82C00EC
:1037D000CC6840F000404863CFE7CC8BC2F30800D0
:1037E00004F47E442043C883A7E7CC8BC0F30800D1
:1037F00004F47E442043C88394E72B461146F0BC72
:1038000018478368F0BC1847C008FF1F1F8000409E
:103810001C8000401B80004000000FFF9D35000011
:10382000F0B4464B464A986B5C6B01791170454980
:1038300022790A701A6B00790870002A46D05968FC
:10384000C9688A423ED82168CC8B240402F1FF303B
:1038500065D4C0F30E00C883C88B80B2C882996B50
:103860000968C88B000452D4C2F30E00C883C88B09
:10387000002480B212F1FF32C88218BF01221C63FB
:10388000596B2E4809680D6800F12C04A54236D00A
:103890000068C46814F0804F0C680D6815BF248858
:1038A00024780235013544F000440D604463996B7F
:1038B000254B09791970214912B14A6B12791A7096
:1038C000F0BC7047521A1A630122D9E7D86B196805
:1038D00005681E4C0A63CC62CC682D681C4E24F02F
:1038E00080440327B542CC6083F82D701FD1037F3D
:1038F0004260022BC2601ED0F0BC03F0EDB901683B
:1039000090F82C00CC6840F000404863CFE7CC8BA7
:10391000C2F3080004F47E442043C883A7E7CC8B9D
:10392000C0F3080004F47E442043C88394E72B4688
:103930001146F0BC18478368F0BC18474008FF1FC9
:103940001F8000401C8000401B80004000000FFFD3
:103950009D35000090E80C00F0B41C68596825689B
:10396000164F174E29432160164D17491760D66030
:1039700015611160417A154A5C180C3194F82C409D
:1039800053F8215002EBC40149680D60017A5C18BC
:1039900003EB8101247ECD6902EBC40149680D600F
:1039A000817A581803EB810390F84000596C02EBC0
:1039B000C002F0BC53681960704700BF01401F008F
:1039C000011000380110007800001F80ACC3000017
:1039D00070B4417A44680E4B05680E4E21440022B3
:1039E00091F82C1003EBC10149680A60017A214467
:1039F000097E03EBC10149680A60817A214491F88C
:103A0000401003EBC1035B681A602E6070BC704706
:103A1000ACC3000001401F004268036805CA10B42F
:103A2000046822430260DA6889B942F08072D9687A
:103A30008A4209D0196848040CD40A48186042F038
:103A40008040DA60186119605DF8044B704722F01D
:103A50008072ECE742F08041DA605DF8044B196156
:103A6000704700BF01401F004268036805CA10B4D8
:103A7000046822430260D868840100F0E06205D542
:103A8000080900F4706021F470410143D8681143C3
:103A9000814209D01A68500409D40848186041F0DE
:103AA0008040D96018611A605DF8044B704741F09E
:103AB0008042D9605DF8044B1A61704701401F00D5
:103AC0002DE9F047044684B008460D4605F0B8FAE3
:103AD000061FAB5D2A2B00F03583C349284605F04D
:103AE000FDFC0646002800F093812C21284605F0B5
:103AF00021FA451C284604F06BFE51EC100B04F033
:103B000017FE07EE900AFCEEE77AB84AB84E17EEB9
:103B1000907AA2FB0712520B42F2107303FB12734E
:103B2000A6FB07E14909A6FB036364265B0906FBC4
:103B3000117122706370A17004F0D6FA9FEDA81B7A
:103B400041EC100B03F0C4FFAA4B002251EC100B08
:103B500004F01EFB04F0CCFD2C21E080284605F08B
:103B6000E9F943782C2B804600F101055AD029460B
:103B700002220DF1100901A805F020FB4FF0000A08
:103B800001A809F80AAD04F02BFE9B4F022207FBA7
:103B900000F708F1030101A808F1060505F00EFB86
:103BA00029460422484605F009FB01A88DF80AA021
:103BB00004F016FE3221914B914ADFED926A9FED9F
:103BC000927A9FED926A01FB00F082FB001283FB68
:103BD0000731FB17A2EBE070C3EB613307EE903ABD
:103BE00005EE900AF8EEE77AF8EEE55A3844E5EE8D
:103BF000A67A2061C7EE876AC4ED027AFDEEE66A16
:103C000016EE903A06FB03F607EE106AB8EEC77A96
:103C1000F8EEE66A77EEC77A87EE867A77EE266A5E
:103C2000C4ED066A28462C2105F084F943782C2B34
:103C300000F1010208D0532B00F0CE824E2B40F051
:103C4000A6814E2384F8383010462C2105F072F9F5
:103C500043782C2B054600F1010658D0314603224B
:103C600001A805F0ABFA4FF0000801A88DF8078015
:103C700004F0B6FD604F022207FB00F7291D01A8E2
:103C8000EE1D05F09BFA314604220DF1060005F009
:103C900095FA01A88DF80A8004F0A2FD3221574B55
:103CA000574A9FED587ADFED586A9FED586A01FB3D
:103CB00000F082FB001283FB0731FB17A2EBE070E0
:103CC000C3EB613307EE903A05EE900AF8EEE77A1F
:103CD000F8EEE55A6423E5EE877A3844606187EEB2
:103CE000A67AC4ED037ABDEEC77A17EE102A03FB5D
:103CF00002F306EE903AF8EEE66AB8EEC77A77EE8F
:103D0000E67AC7EE866A36EE877A84ED077A304621
:103D10002C2105F00FF943782C2B00F1010208D07B
:103D2000572B00F06C82452B40F03181452384F8FD
:103D3000393010462C2105F0FDF843782C2B00F18A
:103D4000010504D0284604F047FD84F83C002846CD
:103D50002C2105F0EFF843782C2B00F1010504D05D
:103D6000284604F039FD84F83D0028462C2105F052
:103D7000E1F843782C2B00F1010507D0284604F028
:103D800027FD51EC100B04F0D3FC606328462C2176
:103D900005F0D0F843782C2B00F1010507D0284618
:103DA00004F016FD51EC100B04F0C2FC60622C21F3
:103DB000284605F0BFF82C21013005F0BBF8437808
:103DC0002C2B00F0BA81013004F002FD51EC100BF5
:103DD00004F0AEFC01232062184604B0BDE8F08771
:103DE000000000000000F03FF0C100005917B7D1FB
:103DF0001F85EB5100408F408096980089B5F814DC
:103E0000565555559C53C9360000C84200007042B3
:103E1000DF49284605F062FB002800F0B8802C211D
:103E2000284605F087F8451C284604F0D1FC51ECE3
:103E3000100B04F07DFC07EE900AFCEEE77AD54A01
:103E4000DFF870E317EE901AA2FB0132AEFB0137E8
:103E5000520B42F2107303FB12134FF0640CAEFBD3
:103E600003E37F090CFB17115B0922706370A170DB
:103E700004F03AF99FEDC41B41EC100B03F028FE4F
:103E8000C54B002251EC100B04F082F904F030FC19
:103E90002C21E080284605F04DF84378412B00F0B6
:103EA0009181562B73D184F83B6001302C2105F0B1
:103EB00041F843782C2B054600F1010659D03146D4
:103EC00002220DF1100801A805F078F94FF0000961
:103ED00001A808F80A9D04F083FCB04F022207FBFA
:103EE00000F7E91C01A8AE1D05F068F9314604226F
:103EF000404605F063F901A88DF80A9004F070FCC3
:103F00003221A74BA74A9FEDA87ADFEDA86A9FED63
:103F1000A86A01FB00F082FB001283FB0731FB174C
:103F2000A2EBE070C3EB613307EE903A05EE900A26
:103F3000F8EEE77AF8EEE55A6423E5EE877A38443E
:103F4000206187EEA67AC4ED027ABDEEC77A17EE3D
:103F5000102A03FB02F306EE903AF8EEE66AB8EE9A
:103F6000C77A77EEE67AC7EE866A36EE877A84ED10
:103F7000067A30462C2104F0DDFF43782C2B00F12B
:103F800001021AD0532B07D04E2B00F0568100238C
:103F9000184604B0BDE8F087D4ED067AF1EE677AF2
:103FA000C4ED067A43784E2B00F04781532B02D0A4
:103FB0002C2BECD1002384F8383010462C2104F04F
:103FC000B9FF43782C2B054600F1010658D0314645
:103FD000032201A805F0F2F84FF0000801A88DF8BF
:103FE000078004F0FDFB6D4F022207FB00F7291D3F
:103FF00001A8EE1D05F0E2F8314604220DF106009D
:1040000005F0DCF801A88DF80A8004F0E9FB654BA7
:1040100063499FED657ADFED656A9FED656A32223F
:1040200002FB00F083FB003281FB0731FB17A2EBA0
:10403000E070C3EB613307EE903A05EE900AF8EEBC
:10404000E77AF8EEE55A6423E5EE877A3844606152
:1040500087EEA67AC4ED037ABDEEC77A17EE102A72
:1040600003FB02F306EE903AF8EEE66AB8EEC77A82
:1040700077EEE67AC7EE866A36EE877A84ED077ABF
:1040800030462C2104F056FF43782C2B00F101021E
:104090000ED0572B40F0C780D4ED077AF1EE677A47
:1040A000C4ED077A4378572B40F0D38084F8393039
:1040B00010462C2104F03EFF43782C2B00F1010523
:1040C00007D0284604F084FB51EC100B04F030FBC1
:1040D000A06228462C2104F02DFF43782C2B00F100
:1040E000010507D0284604F073FB51EC100B04F0D7
:1040F0001FFBE06228462C2104F01CFF43782C2B88
:104100001BD0013004F064FB51EC100B04F0F0FA0A
:10411000204A284EA2FB0032520B42F21073A6FB3B
:10412000001503FB12036D096421A6FB036301FB69
:1041300015015B09E170627123710123184604B017
:10414000BDE8F087284410F8033C2F2B34D8002317
:1041500010F8022C2F2A3DD9392A37D8303AD2B25A
:10416000022E1A4409D902210B46695C0133DBB2E5
:104170004A409E4292B21946F7D8002A3FF4ADACAD
:1041800005E700BFAFF30080000000000000F03F33
:10419000F8C100005917B7D100408F4080969800B1
:1041A00089B5F814565555559C53C9360000C84278
:1041B000000070421F85EB51392B2CD8303BDBB20D
:1041C0001B01C5E7012384F83B306EE6A2F14101F3
:1041D00005292FD90022C3E7D4ED067AF1EE677ADC
:1041E000C4ED067A43784E2B3FF42BAD532B03D00E
:1041F0002C2B7FF4CCAE002384F8383024E5D4EDAA
:10420000077AF1EE677AC4ED077A4378572B18D115
:1042100084F839308DE5A3F14102052A97D8373B60
:10422000DBB21B0194E7452B7FF4B1AE452384F844
:1042300039303DE7373AD2B292E74E2384F838302E
:10424000BBE6452B3FF472AD2C2B7FF4A0AE0023D0
:10425000DEE7452BEAD02C2B7FF499AE002325E72F
:1042600070B590F84A500DB1002070BD0446C06C86
:1042700003681B6998470028F6D0E06C03685B6907
:104280009847C0B20A280FD0144B154A1C681378FF
:10429000134DDBB2591CC9B21170E0541378772B5F
:1042A00084BF77232B7070BD0D4A0C4B11781E68AC
:1042B0000C4CC9B275541968A14209D00A490B4D7A
:1042C0001C600D600A4B0025012115701970DEE796
:1042D000054D064C1C602960F4E700BF9C16FF1FCB
:1042E000A016FF1FA416FF1F9817FF1F1C17FF1F04
:1042F0009417FF1FF0B4164B164E174F174A1A604B
:10430000174DC164002200243270164E3A702E60A0
:1043100044630463C462846244620462C46084606F
:1043200080F84A2080F83D2080F83C2042710271DC
:10433000C27082704270027080F83A2080F8392092
:1043400080F8382080F83B20C280F0BC704700BF66
:104350009C16FF1F9417FF1FA016FF1FA416FF1F18
:104360009817FF1F1C17FF1F08B5C06C0368DB6997
:1043700098470A20BDE8084001F0B2B838B5C46CCF
:1043800008460D4604F05CFE2368024629465B6839
:10439000204698472046BDE8384002F075BE00BF71
:1043A000014B1878704700BF9417FF1F024A034B58
:1043B00000211170186870479417FF1F9817FF1F8E
:1043C000704700BF704700BF704700BF704700BF15
:1043D00041717047817170470171704730B4034D6E
:1043E000056001714271837130BC704774C2000076
:1043F000054B1A684FF00043D3625163D36A002B18
:10440000FCDA906BC0B27047C008FF1F704700BF56
:1044100030B41D4B8268D97A01B372B6D87AC50719
:10442000014606D5194CD96825682940D961216013
:104430000146840706D5164C18692568D97A2840A4
:1044400018622060480706D5124C58692568D97A49
:1044500028405862206009070ED462B61B68D968EC
:10446000914207D00C4818600C49DA6042F0804055
:104470001861196030BC7047094899690468214087
:1044800099620160E9E700BFC008FF1F80E100E01A
:1044900084E100E088E100E001403F0000003F804F
:1044A0008CE100E00148FFF793BA00BFC008FF1F8E
:1044B0000D4AD37A1946B3B1D80703D50B49D06951
:1044C000086019469B0703D5094B106AD17A18601A
:1044D000480703D5074B506AD17A18600B0702D5FD
:1044E000054B926A1A607047C008FF1F00E100E0A8
:1044F00004E100E008E100E00CE100E082792DE950
:10450000F04104464AB1012A00F09680022A00F0E8
:10451000A680032A00F09380002215467249734852
:104520000B6843F480530B60C368990167D423F090
:1045300080636E49C868834203D00868470466D523
:10454000CB602379042B6CD0032B6FD0022B70D05F
:1045500067496848012B14BF8E46864694F805C00B
:104560006549DFF8C081BCF1010F0CBF4FF0645604
:104570004FF06056002702E0172808D0074631F8B0
:10458000023F98FBF3F39E4507F10100F4D30DB110
:1045900046F08066594B53F827303AB11A0902F4B5
:1045A000706223F4704346F00076134333431CF1EA
:1045B000FF31A36018BF01215148FFF72DFA23797D
:1045C000013BDBB2032B74D84E4AD35C042B56D08C
:1045D000002B37D0052B5FD0012B6AD0062B75D06E
:1045E000022B3FD048494648FFF73EFA4448FFF7C0
:1045F000B1F945494248BDE8F041FFF735BA23F02B
:10460000C06323F47F43190389B20B4391E740F45D
:10461000804646F001060E60CB6023790860042BCB
:1046200092D194F805C0DFF800E199E7DFF8FCE0EB
:1046300094E7DFF8FCE091E7042200256EE704220E
:1046400008256BE731492E48FFF70EFA2C48FFF793
:1046500081F92E492A48BDE8F041FFF705BA00224A
:1046600008255BE72A492648FFF7FEF92448FFF7AB
:1046700071F927492248BDE8F041FFF7F5B925490E
:104680001F48FFF7F1F91E48FFF764F921491C485C
:10469000BDE8F041FFF7E8B91F491948FFF7E4F911
:1046A0001748FFF757F91C491548BDE8F041FFF7D7
:1046B000DBB91A491248FFF7D7F91148FFF74AF951
:1046C00016490F48BDE8F041FFF7CEB914490C4830
:1046D000FFF7CAF90A48FFF73DF911490848BDE854
:1046E000F041FFF7C1B900BF3C80044000C0024068
:1046F00040420F0080841E00CEC0000094C1000024
:10470000C008FF1F9CC2000008700038032000385A
:1047100007600038000002B8043000380540003857
:1047200006500038008793030024F40000127A003A
:1047300000093D0010B5064C00231A4619462046D4
:10474000FFF74CFE034A044B2260A36010BD00BF7C
:104750009C17FF1FA8C2000003200038054B1A68F1
:104760004FF00043D3625163D36A002BFCDA906BA5
:10477000C0B270478008FF1F704700BF30B41D4BA8
:104780008268D97A01B372B6D87AC507014606D5D0
:10479000194CD96825682940D961216001468407F0
:1047A00006D5164C18692568D97A28401862206009
:1047B000480706D5124C58692568D97A28405862AE
:1047C000206009070ED462B61B68D968914207D0F1
:1047D0000C4818600C49DA6042F08040186119609A
:1047E00030BC7047094899690468214099620160AA
:1047F000E9E700BF8008FF1F80E100E084E100E0FE
:1048000088E100E001403F0000003F808CE100E0D3
:104810000148FFF7DDB800BF8008FF1F0D4AD37ABB
:104820001946B3B1D80703D50B49D06908601946BA
:104830009B0703D5094B106AD17A1860480703D546
:10484000074B506AD17A18600B0702D5054B926A64
:104850001A6070478008FF1F00E100E004E100E0FB
:1048600008E100E00CE100E082792DE9F041044626
:104870004AB1012A00F09680022A00F0A680032A9D
:1048800000F0938000221546724973480B6843F488
:1048900080530B60C368990167D423F080636E492D
:1048A000C868834203D00868470466D5CB60237983
:1048B000042B6CD0032B6FD0022B70D06749684853
:1048C000012B14BF8E46864694F805C06549DFF873
:1048D000C081BCF1010F0CBF4FF064564FF0605621
:1048E000002702E0172808D0074631F8023F98FB5E
:1048F000F3F39E4507F10100F4D30DB146F0806655
:10490000594B53F827303AB11A0902F4706223F474
:10491000704346F00076134333431CF1FF31A3602C
:1049200018BF01215148FFF777F82379013BDBB22B
:10493000032B74D84E4AD35C042B56D0002B37D0AF
:10494000052B5FD0012B6AD0062B75D0022B3FD0F0
:1049500048494648FFF788F84448FEF7FBFF4549B9
:104960004248BDE8F041FFF77FB823F0C06323F46D
:104970007F43190389B20B4391E740F4804646F028
:1049800001060E60CB6023790860042B92D194F865
:1049900005C0DFF800E199E7DFF8FCE094E7DFF815
:1049A000FCE091E7042200256EE7042208256BE76E
:1049B00031492E48FFF758F82C48FEF7CBFF2E4917
:1049C0002A48BDE8F041FFF74FB8002208255BE711
:1049D0002A492648FFF748F82448FEF7BBFF274935
:1049E0002248BDE8F041FFF73FB825491F48FFF7CF
:1049F0003BF81E48FEF7AEFF21491C48BDE8F041D8
:104A0000FFF732B81F491948FFF72EF81748FEF78D
:104A1000A1FF1C491548BDE8F041FFF725B81A4928
:104A20001248FFF721F81148FEF794FF16490F4886
:104A3000BDE8F041FFF718B814490C48FFF714F827
:104A40000A48FEF787FF11490848BDE8F041FFF723
:104A50000BB800BF3C80044000C0024040420F0041
:104A600080841E00CEC0000094C100008008FF1F9B
:104A7000D0C20000087000380320003807600038FA
:104A8000000002B8043000380540003806500038F5
:104A9000008793030024F40000127A0000093D000F
:104AA00010B5064C00231A4619462046FFF796FC1F
:104AB000034A044B2260A36010BD00BFA817FF1F6C
:104AC000DCC2000003200038054B1A684FF0004399
:104AD000D3625163D36A002BFCDA906BC0B270478B
:104AE0004008FF1F704700BF30B41D4B8268D97A61
:104AF00001B372B6D87AC507014606D5194CD968F4
:104B000025682940D96121600146840706D5164CE5
:104B100018692568D97A284018622060480706D5A8
:104B2000124C58692568D97A2840586220600907D4
:104B30000ED462B61B68D968914207D00C48186041
:104B40000C49DA6042F080401861196030BC70474F
:104B5000094899690468214099620160E9E700BF4A
:104B60004008FF1F80E100E084E100E088E100E010
:104B700001403F0000003F808CE100E00148FEF76B
:104B800027BF00BF4008FF1F0D4AD37A1946B3B1B3
:104B9000D80703D50B49D069086019469B0703D590
:104BA000094B106AD17A1860480703D5074B506A41
:104BB000D17A18600B0702D5054B926A1A607047CC
:104BC0004008FF1F00E100E004E100E008E100E030
:104BD0000CE100E082792DE9F04104464AB1012A56
:104BE00000F09680022A00F0A680032A00F093804D
:104BF00000221546724973480B6843F480530B60DA
:104C0000C368990167D423F080636E49C868834202
:104C100003D00868470466D5CB602379042B6CD099
:104C2000032B6FD0022B70D067496848012B14BF4B
:104C30008E46864694F805C06549DFF8C081BCF110
:104C4000010F0CBF4FF064564FF06056002702E092
:104C5000172808D0074631F8023F98FBF3F39E452A
:104C600007F10100F4D30DB146F08066594B53F8BB
:104C700027303AB11A0902F4706223F4704346F007
:104C80000076134333431CF1FF31A36018BF0121A9
:104C90005148FEF7C1FE2379013BDBB2032B74D8E8
:104CA0004E4AD35C042B56D0002B37D0052B5FD057
:104CB000012B6AD0062B75D0022B3FD048494648BD
:104CC000FEF7D2FE4448FEF745FE45494248BDE89E
:104CD000F041FEF7C9BE23F0C06323F47F431903FC
:104CE00089B20B4391E740F4804646F001060E601E
:104CF000CB6023790860042B92D194F805C0DFF8CB
:104D000000E199E7DFF8FCE094E7DFF8FCE091E7E9
:104D1000042200256EE7042208256BE731492E485E
:104D2000FEF7A2FE2C48FEF715FE2E492A48BDE8E4
:104D3000F041FEF799BE002208255BE72A49264884
:104D4000FEF792FE2448FEF705FE27492248BDE8FB
:104D5000F041FEF789BE25491F48FEF785FE1E4833
:104D6000FEF7F8FD21491C48BDE8F041FEF77CBE86
:104D70001F491948FEF778FE1748FEF7EBFD1C495E
:104D80001548BDE8F041FEF76FBE1A491248FEF71C
:104D90006BFE1148FEF7DEFD16490F48BDE8F041F5
:104DA000FEF762BE14490C48FEF75EFE0A48FEF7A5
:104DB000D1FD11490848BDE8F041FEF755BE00BFDE
:104DC0003C80044000C0024040420F0080841E002E
:104DD000CEC0000094C100004008FF1F34C3000093
:104DE000087000380320003807600038000002B85F
:104DF000043000380540003806500038008793031F
:104E00000024F40000127A0000093D0010B5064CA1
:104E100000231A4619462046FFF7E0FA034A044BDE
:104E20002260A36010BD00BFB417FF1F0CC30000B9
:104E30000320003801F0E6BD01F008BE01F01EBEFF
:104E4000074882B003680193019A114401E0994236
:104E500004D303680093009B9A42F8D902B07047CC
:104E60000C18FF1F034B82B01B680193019802B01E
:104E7000704700BF0C18FF1F10B4074B82681B68F7
:104E8000016183B000240193019B4461C26083608F
:104E900003B05DF8044B70470C18FF1FF0B51E4BB4
:104EA0001E4D1A680446406C83B0036801920F4699
:104EB0005B681B49019E062298473946606C0023B7
:104EC0000A2202F0F1F8606C1649036803225B685D
:104ED00098473146606C00230A2202F0E5F8606CC6
:104EE000036829465B6801229847A168606C711AC3
:104EF00000230A2202F0D8F8606C036829465B6838
:104F000001229847E368A168606CC91A0A2200234D
:104F100002F0CAF803B0F0BD0C18FF1F44C3000034
:104F200038C3000040C3000010B5446C0549236835
:104F300020465B68062298472046BDE8104002F0F4
:104F4000A3B800BF48C30000034B82B01B680193A5
:104F5000019B836002B070470C18FF1F10B4104A09
:104F600085B0A1B9136800934168009B591A312993
:104F70000DD813680293029C04F13203591A01E020
:104F8000994204D313680193019B9C42F8D913689A
:104F90000393039B4360012005B05DF8044B704709
:104FA0000C18FF1F704700BF2DE9F0410D4D0E4E4C
:104FB000DFF83C800D4F41641B2401E000F090FAC3
:104FC0002B78C82043B13378DB0705D5D8F80030FB
:104FD0003A689B1A0E2B03D8013CEFD1BDE8F08153
:104FE000BDE8F0816C19FF1F8419FF1F701CFF1FA3
:104FF0000C18FF1F00238364436071B1074882B01F
:1050000003680193019A114401E0994204D30368B3
:105010000093009B9A42F8D902B070470C18FF1F0A
:1050200070B5144C84B00546406C23680393036844
:10503000039A6A600E465B680F490622984731461C
:1050400000230A22686C02F02FF8686C0B49036891
:1050500008225B68984723680293029A02F13201A2
:1050600001E0994204D323680193019B9A42F8D945
:1050700004B070BD0C18FF1F50C3000058C30000DF
:10508000F8B5037E0BB96320F8BD0446406C3B4E77
:1050900003681B69B3420D466AD101F0EFFC10F0C2
:1050A000FF0F01D16520F8BD354F606C03681B69A7
:1050B000B3425FD101F0E2FC10F0FF0FF2D0606C60
:1050C00003685B69BB4257D101F09CFCC3B2A3F1FA
:1050D00058021E2AE9D801A151F822F069510000B6
:1050E000AB500000AB500000AB500000AB500000D4
:1050F000AB500000AB500000AB500000AB500000C4
:10510000AB500000AB5000005D510000AB50000000
:10511000AB500000AB500000AB50000087500000C7
:10512000AB500000AB500000AB500000AB50000093
:10513000AB500000AB500000AB500000AB50000083
:1051400087500000AB500000AB500000AB50000097
:10515000AB500000595100001846F8BD20462946C2
:10516000FFF75EFF6320F8BD002323766320F8BDC0
:10517000984794E798479FE79847A7E73D4E000078
:10518000354E000070B5054682B01646C9B1012300
:105190000D4C037600212846FFF772FF632810D0DC
:1051A00023680193019A511C23680093009B9A4243
:1051B000F0D89942F8D200212846FFF761FF632812
:1051C000EED12E7602B070BD0C18FF1F034B0022EB
:1051D0009A60DA601A615A61704700BFC017FF1FFA
:1051E000844641EA000313F003036DD1403A41D3F2
:1051F00051F8043B40F8043B51F8043B40F8043BB1
:1052000051F8043B40F8043B51F8043B40F8043BA0
:1052100051F8043B40F8043B51F8043B40F8043B90
:1052200051F8043B40F8043B51F8043B40F8043B80
:1052300051F8043B40F8043B51F8043B40F8043B70
:1052400051F8043B40F8043B51F8043B40F8043B60
:1052500051F8043B40F8043B51F8043B40F8043B50
:1052600051F8043B40F8043B51F8043B40F8043B40
:10527000403ABDD2303211D351F8043B40F8043BE0
:1052800051F8043B40F8043B51F8043B40F8043B20
:1052900051F8043B40F8043B103AEDD20C3205D3F0
:1052A00051F8043B40F8043B043AF9D2043208D0E8
:1052B000D2071CBF11F8013B00F8013B01D30B885A
:1052C00003806046704700BF082A13D38B078DD038
:1052D00010F003038AD0C3F10403D21ADB071CBF0A
:1052E00011F8013B00F8013B80D331F8023B20F874
:1052F000023B7BE7043AD9D3013A11F8013B00F8AD
:10530000013BF9D20B7803704B7843708B78837034
:105310006046704708B5104C08E0236859050DD465
:1053200023681A050FD42368DB0411D423685803BB
:10533000F3D500F03FFD23685905F1D502F0F0F8F0
:1053400023681A05EFD502F081F92368DB04EDD557
:1053500002F012FAEAE700BF3480044008B5FFF714
:10536000D9FF00BF014B10221A8070470020054072
:10537000704700BF094908B50B6830B16A46184448
:10538000A2F50052904202D20860184608BD03F010
:105390002BFA0C2303604FF0FF3008BD0009FF1FFC
:1053A000FEE700BFEFF3138070B9EFF310836BB922
:1053B000EFF305825AB94FF48070EFF311832BB1EC
:1053C000984228BF184670474FF0FF3070470F2AA9
:1053D00001D81846F1E7014BD05CEEE7F0E300E0BE
:1053E00010B4114B53F8302092F8804234B10123AD
:1053F00079B182F880305DF8044B704703EBC0034D
:105400005B681A6851B922F002021A605DF8044B19
:10541000704782F800315DF8044B704742F0030298
:105420001A605DF8044B7047ACC300001C4A02EBE5
:10543000C00301295B6811D004291BD052F8300049
:10544000002280F8802229B1022920D0032922D00D
:105450001A6070474FF480721A60704752F830003B
:105460004FF4A27280F880121A601A6822F02002AB
:105470001A60704752F830104FF4A272012081F880
:1054800080021A601A6842F020021A60704740F2E7
:1054900003121A6070474FF481721A60704700BFA0
:1054A000ACC3000030B4054B054D064C0022102162
:1054B0001A602A602060196030BC704714D0034025
:1054C00004D0034000D003403F2801D8FFF788BF35
:1054D000704700BF3F2801D8FFF7A8BF704700BF43
:1054E0002DE9F843054672B6204F214B214A1B682F
:1054F0003C68126862B6520102D5322B88BF013473
:1055000095B3C3F5EA331C4EDFF86490DFF864808E
:10551000BF334FF47A72A6FB031302FB04F404EBCF
:10552000931472B6D9F800103A68D8F800E062B661
:10553000C1F5EA33BF33A6FB03031EF0806FC4EB53
:1055400093134FF47A7002D0322988BF013200FBE6
:105550000233B3F57A7F04D3013D05D004F57A74A4
:10556000DFE701F0D5FEDCE7BDE8F8830C18FF1F8C
:1055700018E000E004ED00E089888888F8B53E4B2B
:105580003E49DFF818C13E4E3E4ADFF814E13E4D79
:105590003E4C3F4F4FF0006018604FF08050186055
:1055A0004FF0005018604FF0804018604FF00040FE
:1055B00018600020086028234EF6FF71CCF8001018
:1055C000CEF8003033600EF5012E13602B6023609F
:1055D00005F500253B6004F50024B36207F50027BC
:1055E000936206F5012602F501220EF1100E05F672
:1055F000E87504F6E87407F57F67103220362B60F3
:105600002360CEF800303B6013603360214EBB61F5
:10561000936109223260A7F5002706F58056203FE6
:10562000083638603160BB60F36047F8042C06F53B
:10563000FD2607F5FE2706F2FC7604373060396058
:10564000B360FB6046F8042C0836C7F8FC0F06F67A
:10565000FC76114831602B602360026001F0BAFED5
:105660001920FFF73DFF01F00DF940F21310BDE8DE
:10567000F840FFF735BF00BF04E100E004800340BD
:10568000148003401C800340248003402C8003408E
:10569000348003400080034000900B4008800340AA
:1056A0000C8003402DE9F84F214B1B6807460BB1D6
:1056B00001221A70DFF888901E4D99F80040DFF83B
:1056C00084801D4E0134272C8ABF4FF0000A5FFAF8
:1056D00084FA5446AB462B78A34216D1FFF762FEFC
:1056E00040281FDC33791B06F5D59BF800300133C9
:1056F000272B86BF00221346DAB218F80330DBB23C
:10570000F3712A702B78A342E8D00C490A4BFFB200
:1057100008F804700120AC22087089F800A0DA7043
:10572000BDE8F88FFF28D6DD01F0F2FDD3E700BF1A
:105730008418FF1F8118FF1F00A00E408018FF1F54
:105740008818FF1F1818FF1F1B4BDFF890C01A683E
:105750001A49F0B542F48062194D1A60DFF880E012
:10576000184F194E194C00238CF800304FF4517229
:105770002B701F2840F213358EF800303B703370C9
:1057800025600A6011D819460124114A114D117083
:105790001148547000212C274026937204249170E4
:1057A0001174D7702E700460F0BDC0F34431C0F3A3
:1057B000471400F01F03E8E72880044060D004404D
:1057C0001518FF1F8118FF1F8018FF1F64D00440A9
:1057D00000A00E4042E400E008E100E01418FF1FC2
:1057E0008818FF1F194B19499B7803F0EC0200F051
:1057F00003031343420700F00F0248BF43F01003B6
:10580000042A8B701CD0114B104A5B79C10603F03F
:10581000EF0348BF43F0100353719379820603F0FE
:10582000EF030A4A48BF43F010039371C30506D53E
:1058300053781178DBB241F020011170537070473A
:105840008B7943F040038B71DDE700BF00A00E4071
:10585000F8B5114B1B685B051CD5104C237823B1A0
:1058600001F056FD2378002BFAD10D4B0D4F0E4E53
:105870000E4D0F4C0F48104904221A600023FB7094
:1058800040F2031232602A60226803700B7012B17A
:1058900001231370F8BDF8BD288004408018FF1F55
:1058A00088E100E000A00E4064D0044060D00440D5
:1058B0001018FF1F1418FF1F1518FF1F0A4A38B5CC
:1058C0000546137803F0FF04002BFAD10121284686
:1058D000FFF700FE21462846FFF7F6FD034A044B7A
:1058E00052F835201A6038BD8018FF1FACC3000085
:1058F0008418FF1F09B140F08000104A13789842C5
:105900001AD010B40E4C2468640512D503F07F033E
:10591000212B02D10B4B00241C60002900F07F03D7
:1059200014BF60214421212B03D1064B41F4407167
:10593000196010705DF8044B704700BF0409FF1F29
:105940002880044060D00440704700BF0D4B1B68A6
:1059500013F4806305D03F2805D90B4B0020186055
:10596000704718467047094B10B5074C53F8303054
:1059700023600121FFF7AEFD236800221A70012089
:1059800010BD00BF288004401018FF1FACC30000EA
:105990000C4B1B6813F4806306D0182806D00A4A03
:1059A000537B03F0FE03537300207047074B064AF6
:1059B00040F202311960537B43F00103537301201D
:1059C000704700BF2880044000A00E4068D004400B
:1059D000034B1B685B0501D5FFF764BE704700BF32
:1059E0002880044070B5094E04464518AC4204F1C5
:1059F00001040AD033685B05F8D514F8010CFFF7F1
:105A000051FEAC4204F10104F4D170BD2880044081
:105A100010B5044C237823B101F07AFC2378002BD5
:105A2000FAD110BD8018FF1F064A074B1B7810786B
:105A3000DBB2C0B283422CBF273000F1FF30C01A66
:105A4000704700BF8118FF1F8818FF1F054A064BCB
:105A500010781B78C0B2DBB2984238BF4030C01A11
:105A6000704700BF1418FF1F1518FF1F30B4154BE7
:105A7000154C1A782378D2B2DBB29A421ED0013389
:105A80003F2B0ED91149124B087819680023C0B278
:105A9000237021B1D31A1A2B01DC00230B7030BC08
:105AA00070470A480A49C05C0968DDB2C0B2257077
:105AB0000029F4D09A4238BF4032EBE74FF0FF3074
:105AC000EDE700BF1418FF1F1518FF1F4018FF1F38
:105AD0001018FF1F084A094B12781B78DBB29A4254
