:1000000000000320D1010000A95700006157000043
:100010006157000061570000615700006157000000
:10002000615700006157000061570000A9570000A8
:10003000A957000061570000A9720000AD730000CD
:10004000A9570000A9570000A9570000A9570000B0
:10005000A9570000A9570000A9570000A9570000A0
:10006000A9570000A9570000A9570000A957000090
:10007000A9570000A9570000A9570000A957000080
:10008000A9570000A9570000A9570000A957000070
:10009000A9570000A9570000A9570000A957000060
:1000A000D5110000E1110000A9570000A957000078
:1000B000A9570000A9570000A9570000817A000045
:1000C000A9570000AD7B0000A9570000D97C0000B3
:1000D000A9570000D17D0000A9570000A9570000D2
:1000E000A9570000A9570000A9570000A957000010
:1000F000A9570000A9570000A9570000A957000000
:100100005175000065750000797500008D7500005F
:10011000A9570000B5620000A9570000A9570000C8
:10012000A9570000A9570000A9570000A9570000CF
:10013000A9570000A9570000A9570000A9570000BF
:10014000A9570000A957000029600000A957000026
:10015000A9570000A9570000A9570000A95700009F
:10016000A9570000A9570000ED110000A957000091
:10017000A9570000A9570000A9570000A95700007F
:10018000A9570000A9570000A9570000A95700006F
:10019000A9570000A9570000C97E0000A957000018
:1001A000A9570000A9570000A9570000A95700004F
:1001B000A9570000A9570000A9570000A95700003F
:1001C000A9570000A9570000A9570000A95700002F
:1001D0005C4B4CF2205210B51A804DF628121A8052
:1001E00000BF00BF05F0E4FA574B4FF030621A60D1
:1001F000564A9A60564ADA60564B4FF470021A60BB
:10020000554B564A1A60564A136813F4807304D14A
:1002100054490B604FF4A8531360534B1A781107DD
:1002200003D51A7842F008021A70504B5049AA229E
:100230001A70504A504B8B4204D252F8040F43F8C4
:10024000040BF8E74D4B4E4900228B4202D243F893
:10025000042BFAE74B494C4A002352F8230041F89B
:1002600023000133742BF8D1484B494A802103F80D
:10027000011B9342FBD1474B424A1A60464B8A22EC
:100280001A70A3F5805324225A70A0221A709A790A
:100290009207FCD59A79D406FCD4404A937903F0AE
:1002A0000C03082BFAD13E4B60221A7002331A78E5
:1002B000802AFCD1394B01221A715D225A719A7938
:1002C0009006FCD59979354A4906FBD5354B364918
:1002D00019600021596020231370937903F00C03F7
:1002E0000C2BFAD1314B324A1A60324B324A1A6027
:1002F00000225A60072243F8042C304AC3F80C2D20
:1003000062B605F099FB174B1B68DA0705D52C4838
:1003100005F022FB2B4B2C4A1A602C4B1B785B06FA
:1003200009D5284C284B22689A4204D1244805F06C
:1003300013FB0023236008F023FD05F03FFA07F0CC
:100340002FF9FEE70E20054030800440823F040074
:100350000100002B88ED00E0002008E0030000858C
:1003600010D0034014D0034002D0074000E0074003
:10037000C813FF1FA8CF00003007FF1FC813FF1FBF
:10038000101DFF1F0002FF1F0000000000E400E03E
:1003900064E400E008ED00E0005006400040064044
:1003A00001E007404480044000000602048004404D
:1003B000C010070014E000E01FBF02000000202072
:1003C00089DCB75B1CE00340A5C3945A00F00740EA
:1003D000FFFFFFFFFFFFFFFFFFFFFFFFFFFFFFFF2D
:1003E000FFFFFFFFFFFFFFFFFFFFFFFFFFFFFFFF1D
:1003F000FFFFFFFFFFFFFFFFFFFFFFFFFFFFFFFF0D
:10040000FFFFFFFFFFFFFFFFFFFFFFFFDEF9FFFF23
:1004100010B5054C237833B9044B13B10448AFF33E
:1004200000800123237010BDC813FF1F00000000CF
:10043000ACCF0000084B10B51BB108490848AFF31A
:1004400000800848036803B910BD074B002BFBD0A0
:10045000BDE81040184700BF00000000CC13FF1F8C
:10046000ACCF0000C813FF1F0000000008B50F4EFE
:100470000F4D104C104800F09FFF32210F4886EDC1
:10048000000A04F04BFF0C4801F038F832210B4809
:1004900085ED000A04F042FF074800F0E1FE07483E
:1004A00084ED000A04F038FFE4E700BF3414FF1FB6
:1004B0004414FF1F4814FF1F3814FF1F1818FF1F94
:1004C00010B54B4C82B040F6B831204604F0B8FF6E
:1004D000204648494FF4E13204F08CFF20460121C8
:1004E00004F062FF002874D101220021404805F089
:1004F0006FF80121242005F047FA17213E4806F045
:100500006DFDFE213D4801F051F9002857D0112121
:100510003B4806F063FD374807F064F808E03948C7
:1005200006F05CFD334807F05DF8642005F032FA10
:100530003549364800F014FF1F210028EFD04FF452
:100540001651334803F050FF3249314803F056FF4B
:1005500031492F4803F052FF30492D4803F04EFF38
:100560004FF47A7005F016FA0B212D4805F0BAFC0D
:100570002C4807F037F808212B4806F02FFD1D48BE
:1005800007F030F80A21294806F028FD194807F03D
:1005900029F8002200924FF0FF332549254804F046
:1005A00023FE0A21244806F019FD124807F01AF824
:1005B0000121242002B0BDE8104005F0DFB91B2165
:1005C0001E4806F00BFD0B4802B0BDE8104007F0D6
:1005D00009B8606C1A49036811225B689847204685
:1005E0000A2104F0CFFE204604F002FF7CE700BFA2
:1005F0005818FF1F6809FF1F4CC200005014FF1F4E
:1006000080C2000094C20000A007FF1F3814FF1F23
:10061000E413FF1FB4C20000E8C20000FCC20000E7
:100620000CC300004809FF1F18C3000024C30000CA
:100630006D0400001818FF1F30C3000064C20000E2
:1006400038C2000008B5084803F04AFE064803F027
:10065000E7FE00B908BD044803F0E8FEBDE8084025
:100660000146014803F06CBAE413FF1F10B5614C5A
:100670006148072106F0B2FC2178604800230A2275
:1006800006F0C0FF3A2006F02DFD61785B4800239C
:100690000A2206F0B7FF3A2006F024FD00230A22C2
:1006A000A178564806F0AEFF2E2006F01BFDE1882B
:1006B000524806F0E7FF514806F094FF06215048E3
:1006C00006F08CFC61794D4800230A2206F09AFF5F
:1006D0002F2006F007FD00230A222179474806F063
:1006E00091FF0321474806F079FC00230A22E178B4
:1006F000424806F087FF414806F074FF0521424852
:1007000006F06CFC94F83B103C4806F0BBFF0A2155
:100710003E4806F063FC94F83C10384806F0B2FFFF
:10072000364806F05FFF94F83B3003B910BD0A214C
:10073000374806F053FCA06807F090FF41EC100B1F
:1007400004212E4806F0A8FF94F8380006F0CAFCF1
:100750000221304806F042FCE06807F07FFF41ECE0
:10076000100B0421254806F097FF94F8390006F095
:10077000B9FC224806F036FF0F21274806F02EFC70
:10078000A06A07F06BFF41EC100B02211B4806F03A
:1007900083FF1A4806F026FF0721204806F01EFCBA
:1007A000E06A07F05BFF41EC100B0221134806F0F2
:1007B00073FF124806F016FF0A21194806F00EFCD6
:1007C000606A07F04BFF41EC100B02210B4806F06A
:1007D00063FF0A4806F006FF0C21124806F0FEFBF4
:1007E00094F83D10054806F04DFF0448BDE8104060
:1007F00006F0F8BEE413FF1F3CC300006809FF1FAA
:1008000044C300004CC3000050C3000058C30000A4
:1008100064C3000070C3000074C3000084C3000000
:100820008CC3000098C3000000B50849084883B095
:1008300003F0A0FD074A084B12680192019A07488D
:100840001A6000F0D9FC03B05DF804FB4809FF1FF3
:10085000E413FF1FA418FF1F4014FF1F3814FF1FCD
:1008600030B589B00246132368466D4901F04AF855
:10087000684600F093FF054660B91A21694806F002
:10088000ADFB694806F0AEFE684600F077FF2846EB
:1008900009B030BD654C002361790A22684606F034
:1008A000B1FE2F21684600F0C9FE217900230A22FB
:1008B000684606F0A7FE03225D49684600F0D6FEB2
:1008C000E17800230A22684606F09CFE012259497D
:1008D000684600F0CBFE217800230A22684606F025
:1008E00091FE3A21684600F0A9FE617800230A22B1
:1008F000684606F087FE3A21684600F09FFE002316
:10090000A1780A22684606F07DFE01224949684620
:1009100000F0ACFEA06807F0A1FE41EC100B042132
:10092000684606F0B9FE94F83810684600F086FE76
:1009300001224049684600F099FEE06807F08EFE0B
:1009400041EC100B0421684606F0A6FE94F839101D
:10095000684600F073FE684606F044FE0122354901
:10096000684600F083FE606A07F078FE41EC100BE9
:100970000221684606F090FE01222E49684600F0EA
:1009800075FE2D4B186807F069FE41EC100B022133
:10099000684606F081FE01222649684600F066FEA0
:1009A000264B186807F05AFE41EC100B02216846EE
:1009B00006F072FE01221F49684600F057FE94F8C7
:1009C0003B10684606F05EFE01221A49684600F0B8
:1009D0004DFE94F83C10684606F054FE012215497D
:1009E000684600F043FE94F83D10684606F04AFE63
:1009F00001221349684600F039FE684606F0F2FD10
:100A0000684600F0BDFE0A210E4806F0E7FA0648E7
:100A100006F0E8FD684600F0B1FE284609B030BD9A
:100A20005014FF1FBCC300006809FF1FE413FF1F21
:100A30004CC30000A8C300004814FF1F4414FF1F4C
:100A4000ACC30000B0C3000000B585B0FFF7FAFDED
:100A50002E4B2F491A68009200980A68824203D9E7
:100A60001A680192019A0A601B680293029B274848
:100A70009B1AB3F57A7F46D90368264A0393039BF2
:100A800010680B6007F0EAFD41EC100B02212248D0
:100A900006F002FE0A21214806F0A0FA204B186851
:100AA00007F0DCFD41EC100B02211B4806F0F4FDC1
:100AB00003211C4806F092FA174806F093FD1A4BE2
:100AC000DFED1A7A93ED007AC7EE276A16EE900AE8
:100AD00007F0C4FD41EC100B02210F4806F0DCFDCD
:100AE0000821134806F07AFA0B4806F07BFD1148FE
:100AF000FFF7B6FEFFF7BAFD21210F4806F06EFAA8
:100B0000054806F06FFD05B05DF804FBA418FF1F53
:100B10004014FF1F4414FF1F6809FF1FD8C30000C3
:100B20004814FF1FE4C300003414FF1F00007A4480
:100B3000E8C30000F4C30000FCC3000000207047BD
:100B400090F8392090F83800101A704790F8383033
:100B500090F839209A4205D95A1C034480F838206D
:100B6000187E70474FF0FF30704700BF90F8383064
:100B700090F839209A4286BF1B18187E4FF0FF303C
:100B8000704700BF704700BF38B50546B0F85E003B
:100B900090B195F85D301446C3F1210294420CD80F
:100BA00005F13B001844224604F040FD95F85D3005
:100BB000234485F85D30204638BD01201446287155
:100BC000EEE700BFB0F85E306BB190F85D30202BDF
:100BD00007D8C218013380F85D30012082F83B103D
:100BE0007047012303710020704700BF0023426952
:100BF00080F8383080F8393080F85C3080F85D302B
:100C000080F85E3080F85F3006CA30B40D68046941
:100C100043662A4383660A60A370426990F8613094
:100C20001649146813441D7A5B7B01EBC5051B0252
:100C30006D6803F4E06343F064032B6090F8623066
:100C400013449D7CDB7D01EBC5011B02496803F465
:100C5000E06343F064030B6021685368194205D0D8
:100C600003692C225A70036904229A7103692022B5
:100C70005A71036980229A7030BC7047F8C800002E
:100C800038B50269D478E4B2E106054624D51023CC
:100C9000D37063061FD504F0040404F0FF03002C96
:100CA0005AD042496A6E00230B7085F85D30002AE5
:100CB00066D0904795F85D30002B61D02B69D0222B
:100CC0009A702B6995F83B201A712B69012285F8DF
:100CD0005C200222DA7038BD04F0400303F0FF000C
:100CE000002BD8D19379DBB203F0600160294ED09C
:100CF000937803F0100303F0FF01B3B114F0010483
:100D000037D195F85C3095F85D1099424BD9591C54
:100D10002B4485F85C1093F83B3013712B69D0227B
:100D20009A702B690222DA70D5E785F86010937902
:100D300043F0200393712B6995F839101A791F2914
:100D4000D2B2C6D8194800780028C2D0681801313C
:100D500085F839100276BCE72A6985F83930C02356
:100D600093702B69114A1979012111700222DA70EE
:100D7000B1E7C02393702B691A790222DA70AAE7CF
:100D80000122002385F85D2085F83B3096E703F0CB
:100D9000DF039371AB6E23B185F8380095F8390005
:100DA00098472A69A4E71471B8E700BF4C14FF1FE5
:100DB0002DE9F047374FDFF8E0903B68026982B0D9
:100DC00006460093DDF8008000214FF49675D37835
:100DD0009B065BD53B680193019BC8EB03030F2B7C
:100DE000F5D949B1102BF2D00020907033698022E0
:100DF0009A7002B0BDE8F087726996F861301344CA
:100E00000521187A04F0C0FD726996F86130134428
:100E1000012193F812A0504604F0B6FD09240021E8
:100E2000504604F0ABFD2B46013BFDD1012150465D
:100E300004F0A4FD2B46013BFDD1013CEFD17069CC
:100E400096F8611001444FF416720C7A4B7B09EB53
:100E5000C4011B02496803F4E06343F064030B60C0
:100E600096F862300344997CDB7D09EBC1011B02DB
:100E7000496803F4E06343F064030B60013AFDD179
:100E80003269D3789B064FF00101A3D4012002B050
:100E9000BDE8F087A418FF1FF8C80000F0B503698B
:100EA0001222DA700269937803F0200385B00446B9
:100EB0000D46002B5ED0B42393703C4922690B6829
:100EC0000093009E05E00B680193019B9B1B042B84
:100ED00042D8D37803F0200303F0FF00002BF2D0B8
:100EE00094F85D30002B31D04FF0000E4FF0020C23
:100EF00004EB0E0393F83B3013710B680393039FCD
:100F0000206907E09B060DD50B680293029BDB1B53
:100F1000052B28D8C378DBB203F0020202F0FF06EB
:100F2000002AEFD080F803C02669F378DBB2DF0631
:100F300032462DD49F062BD5DB0731D40EF1010E9E
:100F400094F85D305FFA8EFE7345D1D800201DBB4A
:100F5000002384F85E3004E09070236980229A7048
:100F6000042005B0F0BD86702369802204209A70A9
:100F700005B0F0BD03F0FF06FFF71AFF10B904201B
:100F800005B0F0BD236984F85F60B0229A7094E7E1
:100F90008023B3700420DAE726698023B370D7E793
:100FA000BEF1000F0CBF02200320F6E7A418FF1FBC
:100FB0002DE9F04106690025122780F8385080F8A5
:100FC0003950F770D0F810C09CF802E00EF0200EF7
:100FD00088B00446884615461E46BEF1000F49D02B
:100FE000B4238CF802307A4B21691A680092DDF83C
:100FF00000E006E01A6801920198CEEB0000042898
:1010000030D8C87800F0200000F0FF070028F1D0A9
:101010004FEA480242F00102D2B20A711A68029203
:10102000DDF808E0206906E01A6803920399CEEB28
:10103000010105292AD8C17801F0020101F0FF075A
:101040000029F1D04FF0020C80F803C02269D1785A
:1010500011F0110722D12DBB002E0CBFA02380233D
:10106000937003E08F70236980229A70384608B02D
:10107000BDE8F0810EF0FF07FFF79AFE0028F5D0DB
:10108000236984F85F70B0229A70ACE78770236997
:10109000802238469A7008B0BDE8F08180239370B2
:1010A0000027E3E7012D78D0A021917021690A790A
:1010B000BE4667464FF0A80C1A680492049805E0F3
:1010C0001A680592059A121A052A4DD8CA7802F0B4
:1010D000020202F0FF08002AF2D0CF702169CA781C
:1010E000D2B212F0100F08465DD192065BD5013DD9
:1010F000EDB2012D4CD0BEF11F0F3ED90A79012D62
:10110000DAD11A680692069D05E01A680792079AD6
:10111000521B052A56D8C27802F0020202F0FF01E3
:10112000002AF2D00223C3702269D378DBB2D90639
:101130003BD49B0637D5B023BEF11F0F937043D825
:10114000226904EB0E0312791A760EF1010E5FFA92
:101150008EFE00BF00BF00BF16B1236980229A70C7
:1011600084F839E0774681E781F80280236980229C
:101170009A70774684F839E078E704EB0E0291F82C
:10118000048082F818800EF1010E5FFA8EFEB6E739
:1011900081F802C021690846ADE7A8219170206955
:1011A000BE460279ADE7774660E710214FF49673AB
:1011B000D170013BFDD12269937803F0F7037746A4
:1011C000937053E78170D1E723691B79C1E700BFB2
:1011D000A418FF1F0148FFF753BD00BFA007FF1F62
:1011E0000148FFF74DBD00BF0C08FF1F0148FFF786
:1011F00047BD00BF3407FF1F704700BF38B5036805
:10120000C022012583F83B2083F85E5083F85D50AF
:101210000446006803681B68984700212068FFF7B0
:101220003DFE2B462A4620686021FFF7C1FE20685C
:101230000A4A03685B6993420BD190F8383090F802
:1012400039209A4208D95A19034480F83820187E68
:1012500038BD9847C0B238BDFF2038BD4D0B0000E7
:1012600070B5054600212846FFF7C8FF04460A204E
:1012700004F090FBA107F5D52B68294EC02201246C
:1012800083F83B2083F85E4083F85D40286803685C
:1012900004211B68984700212868FFF7FFFD2346BB
:1012A000022260212868FFF783FE286803685B69D3
:1012B000B3422CD190F8383090F839209A422BD98B
:1012C0001A19034480F838201C7E286803685B697B
:1012D00064B2B3424FEA04241CD190F8383090F83D
:1012E00039209A4218D95A1C034480F83820187EB5
:1012F000204340F30B1003B2020544BF6FEA0353CF
:101300006FEA135300EE103ABAEECE0A70BD98475A
:101310000446DAE79847EBE79FED020A70BD00BF8D
:101320004D0B0000000080BD38B503680446C025A1
:10133000012083F83B5083F85E0083F85D0020684D
:1013400003681B68154698472068036829461B6890
:10135000984720680021BDE83840FFF79FBD00BFD7
:1013600010B5016004460846FFF740FC20460C21FA
:10137000FFF744FFC42801D0002010BD20460422FE
:101380002621FFF7D1FF0A2004F004FB2621204686
:10139000FFF734FF10F0040F4FF00A00F4D1B82229
:1013A000627120462621FFF7BFFF20460722132146
:1013B000FFF7BAFF012010BD70B5044601E004F04C
:1013C000E9FA26212046FFF719FF00F0020303F097
:1013D000FF010A20002BF2D1627961F3C71262711A
:1013E0002621D2B22046FFF79FFF627942F0020227
:1013F000627126212046FFF797FF00212046FFF764
:10140000FDFE05460A2004F0C5FA6B07F5D52368F2
:10141000384EC022012583F83B2083F85E5083F8C4
:101420005D502068036829461B68984700212068A2
:10143000FFF734FD2B46032260212068FFF7B8FD3B
:1014400023681A685269B24237D193F8381093F87A
:10145000390088423DD94A1983F838201944236855
:101460000D7E1A685269B2424FEA05252ED193F8D3
:10147000381093F8390088422BD94A1C194483F854
:101480003820087E23681A68526940EA0504B2428F
:101490004FEA042421D193F8382093F8391091426F
:1014A00024D9511C1A4483F83810107E04432309B0
:1014B00000EE103ABAEECF0A70BD18469047236886
:1014C0001A685269B2424FEA0025D0D018469047B8
:1014D000D8E7B2420AD06FF0FF0418469047204385
:1014E000030900EE103ABAEECF0A70BD9FED020A72
:1014F00070BD00BF4D0B00000000804C70B504466D
:1015000001E004F047FA26212046FFF777FE10F0AD
:10151000020F4FF00A00F4D1627942F0800262714A
:1015200026212046FFF700FF627942F00202627135
:1015300026212046FFF7F8FE00212046FFF75EFE39
:1015400005460A2004F026FA6B07F5D52368374EC6
:10155000C022012583F83B2083F85E5083F85D505C
:101560002068036829461B68984700212068FFF718
:1015700095FC2B46032260212068FFF719FD2368A4
:101580001A685269B24235D193F8381093F839008D
:1015900088423BD94A1983F83820194423680D7EC4
:1015A0001A685269B2424FEA05652CD193F8381097
:1015B00093F83900884229D94A1C194483F8382005
:1015C000087E23681A685269B24245EA004420D175
:1015D00093F8382093F83910914223D9511C1A44BA
:1015E00083F83810107E44EA002300EE103ABAEE79
:1015F000C80A70BD1846904723681A685269B242FB
:101600004FEA0065D2D018469047DAE7B24209D0D7
:10161000074C1846904744EA002000EE100ABAEE44
:10162000C80A70BD9FED030A70BD00BF4D0B0000DE
:101630000000FFFF000080BB704700BF10B582B004
:1016400002AB026803F8011D546819460122A04745
:1016500002B010BDC06938B18369C06847F6FF7237
:10166000181A904228BF1046704700BFC36910B5D2
:1016700004463BB100201871E06901F05DFCE369AC
:101680001B791BB101232371002010BD10BD00BFC9
:10169000C06978B100B583B001220DF1070101F0F6
:1016A0001DFA01280CBF9DF807004FF0FF3003B072
:1016B0005DF804FB4FF0FF30704700BFC369C3B152
:1016C00010B582B00446012218460DF1070101F061
:1016D00005FA012803D04FF0FF3002B010BDE069D9
:1016E0009DF80740C168013901F0B4FA204602B004
:1016F00010BD1846704700BFC06908B101F0DCBAE0
:10170000704700BF2DE9F04105464FF47A73134846
:10171000AB60002328602B712B7324200C4690466D
:1017200007F05AFBE861B0B1064604F1200E2068CC
:101730006168A268E36837460FC7103474453E46B7
:10174000F5D12068386041460C2205F10D0007F004
:10175000F5FF00236B762846BDE8F081ACC400009D
:101760004FF47A72044982600022016002710273B0
:10177000C2614273704700BFACC40000704700BF35
:10178000C36953B110B50446184601F02FF9E0695A
:1017900007F02AFB0023E36110BD7047C06918B150
:1017A0008079003018BF0120704700BFFE2938B58E
:1017B000054617D00A46012100F006FE03460BB984
:1017C000002038BD2C1D20460122294601F0A4FE30
:1017D00098B1214605F12C0001F058F9003018BFEE
:1017E000012038BD017000F0DDF9044600F0C8F9B1
:1017F000B4FA84F35B09A870E1E702462946204663
:1018000001F08AFE0028E4D1002038BD2DE9F04F18
:1018100099B04FF00008DFF8E8A08DF81C808146F1
:10182000043106A8934601938DF81E808DF8408000
:101830008DF84280CDF818A0CDF83CA001F026F933
:1018400006AE5D460FAF2F21284607F039FE441B38
:10185000E4B2294608B32B782F2B02A81BD00C2CFE
:1018600028BF0C24224607F069FF18AB23443846F2
:1018700003F8588C01F0BAF8012302AA3146384621
:1018800001F04EFB88B3304601F0B0F833462544F2
:101890003E461F46D7E70135D5E701983179727981
:1018A000B379B468377DCBEB05050560F068356921
:1018B00089F8041089F80520B16989F80630F269C1
:1018C000336AC9F80C004846C9F800A0C9F80840B6
:1018D000C9F8105089F81470C9F81810C9F81C20FC
:1018E000C9F8203019B0BDE8F08F89F8040089F8F4
:1018F00006004846C9F800A019B0BDE8F08F00BF47
:10190000D4C40000F0B59DB005461F4601A86B4643
:101910001446FFF77BFF009AA35C1444002B42D0CF
:101920009DF80A202F4E0A9600238DF82C308DF852
:101930002E30002A31D00AA83B46224601A901F0E8
:10194000EFFA50B301A801F051F817F0060F43D198
:101950009DF82C700C9B9DF82DE0139622469DF867
:101960002E408DF850708DF8524015930D990E98B9
:101970009DF83C70109E119C129B8DF851E01691C1
:10198000179013A928468DF8607019961A941B9326
:10199000FFF7B8FE28461DB0F0BD2846FFF7E0FE71
:1019A00028461DB0F0BD9DF808700E4E9DF8094008
:1019B0009DF80A30039A8DF8507013968DF85140B7
:1019C0008DF852301592049905989DF81870079E6D
:1019D000089C099B044AD2E70AA8109901F03AF939
:1019E000B6E700BFD4C40000C8C40000064B074AD5
:1019F000DA620221002259609A7083F8242083F869
:101A0000302083F8322070475014FF1FD4C40000E8
:101A100010B4114C114B226811491340184322F0A5
:101A2000080240F46020226020600B681C0706D486
:101A30000C4B01E0013B02D00A681207FAD5064BB5
:101A4000094A5DF8044B40F008001860136843F43D
:101A500080131360704700BF2C100B400700F0FF8D
:101A600024100B40FFFF0F0030100B402149224A89
:101A70000B6843F080030B6011461368DB07FCD44E
:101A80000B689B07F9D41D4B30B44FF08072194D91
:101A9000186000E0A2B12968194B164C0B40013ABE
:101AA000002BF7D062B1012B0AD1236813F0800F0D
:101AB00023680FD043F001132360032030BC70472C
:101AC0000C4A136843F4702343F0010313600120B0
:101AD00030BC704713F4803305D0236843F0011302
:101AE00023600520F4E7226842F0010218462260D4
:101AF000EEE700BF30100B4024100B400C100B40E1
:101B000001000E0070B50D4D0D480E4E00232B60E8
:101B1000FFF7ACFF6324034606E04BB92B60FFF7E9
:101B2000A5FF013C034605D0326805485207F4D4AE
:101B3000184670BD002808BF052070BD08100B4076
:101B40000000DB0C24100B4070B5094C0023054647
:101B500023600848FFF78AFF00B170BD064E0748B2
:101B600033682560FFF782FF0028F6D1336870BD27
:101B700008100B4000001A3710100B40000002291B
:101B8000074B1A784AB99A782AB15B78002B0CBFB8
:101B9000022003207047012070470020704700BFDB
:101BA000A414FF1F2DE9F047674D684E2B68684F5E
:101BB0006849694C69486A4ADFF8C8E143F4003370
:101BC0002B60336843F4005333603B6843F00203F7
:101BD0003B600B6843F002030B60236805F59F45EB
:101BE00006F59F4607F59F4701F5D12123F0010334
:101BF000236001F2EC7140F2031358355436543728
:101C000003600024574813602C600A4633603B6031
:101C1000CEF800300860136813F08073FBD1524C8B
:101C2000524A5348534923604FF481354FF0101303
:101C3000282405600C604FF487501360FFF7E8FE1E
:101C40004D4A13689C07FCD1454EDFF810E14B4C20
:101C50004B4A4C494C4F4D4D4D4840F24343CEF812
:101C6000003033604FF48866266013604FF6FF76CD
:101C7000484C3B6002F5C8220B6020322E604FF4C6
:101C8000FA710460136843F000631360136818016D
:101C9000FCD40139F6D13D4A3748136843F080033C
:101CA00013600368DA0308D43B4B02205970997023
:101CB000187059609960BDE8F087374C374E217035
:101CC0006170A170084631606160A160FFF7CEFECF
:101CD00068B9334D33482B684FF4D5733360FFF741
:101CE000C5FE40B92B682B68B3F5D57F29D00120FC
:101CF0002070BDE8F0870528F9D10020FFF724FF08
:101D00000028F4D1264B1A6812F4401F58D062788C
:101D1000254FDFF89880002A05461E4608BF4FF47D
:101D2000401704E03268002A42DB454546D0384679
:101D3000FFF70AFF01351A4B0028F3D00120BDE858
:101D4000F08701236370D8E7308004403880044076
:101D50003C8004404080044000D0004000D004405B
:101D600004D0044000800001C0100B4044100B4020
:101D700004100B4028100B4024100B4008D00440E6
:101D80000CD0044014D0044010D0044030100B405C
:101D900034100B40BB007F11A414FF1F08100B4030
:101DA00010100B4000001A0800003040A08601000F
:101DB000554A954202D01B685B0001D40023637032
:101DC000524E534800233360FFF750FE034600286D
:101DD0008DD1504D50482A683360FFF747FE0028E8
:101DE00085D12B682B684D484D4D1B0C1B0433606F
:101DF0006360FFF73BFE00287FF479AF494B4A4907
:101E00001A68120EEA700A6812F4400F71D119684C
:101E100046481B68026800689B0203F4406343EA7B
:101E20009253C0F3C2105A1CC1F30321831C093919
:101E300002FA03F38B40AB60344E636833603C4876
:101E4000374FFFF713FE00287FF451AF314D39486B
:101E50002B684FF400733360FFF708FE00287FF40F
:101E600046AF7B682A6834483360FFF7FFFD0028DF
:101E70007FF43DAF02232A6830483360FFF7F6FD58
:101E800000287FF434AF2E4B2A681A68DFF8B8A018
:101E9000DFF8B890DFF8B8802A4C22F006021A600A
:101EA0001A68A6F5C726A6F2FC76A5F5C82542F065
:101EB00002021A6040F20313CAF80030C9F8003079
:101EC000C8F8000033604FF498702B602360FFF770
:101ED0009FFD40F243434FF48862CAF80030C9F8CE
:101EE0000030C8F8002033602B6023603878BDE8EC
:101EF000F08701220D4BAA701B68C3F3152313440E
:101F00009B02AB6098E700BFA086010008100B4061
:101F10000000090210100B4000001A03000009091C
:101F2000A414FF1F18100B401C100B4014100B4082
:101F300000001B0700001A1000001A3700001A06E4
:101F400028100B4014D0044000D0044004D00440BA
:101F500008D00440F8B5384B1A780AB10320F8BD10
:101F60005B78064603B94902344D354C354B36484B
:101F70004FF6FF774FF481322F6021601A60FFF730
:101F800075FD0028EBD1314B31491B681C3406F13B
:101F9000400206F510702B68284F43F0200613F41A
:101FA000E00F2E603ED123681E05FCD50B6842F879
:101FB000403C0B6842F83C3C0B6842F8383C0B68EC
:101FC00042F8343C0B6842F8303C0B6842F82C3C39
:101FD0000B6842F8283C0B6842F8243C0B6842F836
:101FE000203C0B6842F81C3C0B6842F8183C0B681C
:101FF00042F8143C0B6842F8103C0B6842F80C3C69
:102000000B6842F8083C0B6842F8043C40328242BC
:10201000C1D1002009490B68084A9B07FBD50D4B2D
:102020001360F8BD43F4E00343F020033B60FFF787
:1020300069FD0120EEE700BFA414FF1F30100B4024
:1020400008100B4004100B4010003A1110100B4008
:1020500020100B4022000001F8B52B4B1A780AB172
:102060000320F8BD5B78044603B94902274D284E8A
:10207000284B29484FF6FF774FF481322F603160AB
:102080001A60FFF7F3FC0028EBD1244B24491B68AE
:102090002E4604F500772B681C4AD806FBD533681A
:1020A00013F4E00F1AD104F1400254F8043B0B6022
:1020B000A242FAD12B68DFF854E043F010032B6002
:1020C0002B6813F4E00013D19742E4D10F490B6859
:1020D0000E4A9B07FBD5134B1360F8BD136843F4FE
:1020E000E00343F010031360FFF70CFD0120EDE760
:1020F000DEF8003043F4E00343F01003CEF8003084
:10210000FFF700FD0120E1E7A414FF1F30100B4092
:1021100008100B4004100B4000003A1810100B4040
:1021200020100B4012000001052822D8DFE800F043
:1021300003030F151B09124B124A1A60124801F0D3
:1021400049BC0F4B114A1A600F4801F043BC0C4BBD
:102150000F4A1A600C4801F03DBC094B0D4A1A6049
:10216000094801F037BC064B0B4A1A60064801F0DB
:1021700031BC034B094A1A60034801F02BBC00BF75
:10218000B414FF1F000001B87C08FF1F04300038A2
:1021900001100038032000380100023806500138D1
:1021A00010B50121007803F0E9FB114A1378C3B19F
:1021B0001049CB7A00241846147093B1DA0703D57E
:1021C0000D4AC869106018469C0703D50B4B0A6A74
:1021D000C87A1A60420705D4030702D5084B8A6AF9
:1021E0001A6010BD074B4A6AC87A1A60F4E700BF4C
:1021F000B814FF1F7C08FF1F00E100E004E100E0CD
:102200000CE100E008E100E0234B1A781AB10078F5
:10221000002103F0B3BB70B4204A2149D47A096885
:1022200001251D70002C26D072B6D47AE60723460D
:1022300006D51C4DD3682E683340D3612B602346EE
:10224000A50706D5184D14692E68D37A3440146258
:102250002C605C0706D5154D54692E68D37A34403E
:1022600054622C601B0705D5114C936925682B40DF
:102270009362236062B61368DA688A4207D00D4C15
:102280001C600D4AD96041F080441C611A600078DE
:10229000002170BC03F072BBB814FF1F7C08FF1F45
:1022A000B414FF1F80E100E084E100E088E100E079
:1022B0008CE100E001403F0000003F80F0B4124894
:1022C000124A036882B016460093009F4FF0004503
:1022D000FF24136843F480631360D5625463D36AA8
:1022E000002BFCDAB36BDBB2FF2B09D00368019340
:1022F000019BDB1B8B42ECD3002002B0F0BC70478B
:10230000012002B0F0BC7047A418FF1F00C00240BB
:10231000F8B50D464FF4967116460446FFF7CEFF0A
:10232000284B1A684FF0004042F4806245F04001AB
:102330001A60D8621A465963D36A002BFCDA214925
:1023400018204FF000470A6826FA00F342F4806232
:10235000DBB20A60CF624B63CB6A002BFCDA083831
:1023600010F1080FEFD155B3082D0CBF8721FF21C5
:10237000144B1A684FF0004042F480621A60D86231
:102380001A465963D36A002BFCDA0E4A0027164618
:102390004FF00045FF21136843F480631360D5625A
:1023A0005163D36A002BFCDAB36BD8B21B066070A2
:1023B00000D4F8BD0137B7F5807FECD1F8BD952189
:1023C000D6E700BF00C002402DE9F04300239D4E38
:1023D000027085B0837033680193054688461046C5
:1023E0000121019F03F0CAFA2878012103F0CCFAF9
:1023F0002878012103F0C2FA934A136843F480530A
:1024000013600620FFF790FEDFF870E28F4B9EF816
:102410000BC01A68BCF1000F2CD072B69EF80B10DE
:10242000C8070B4608D58A48DEF80C3004682340FC
:10243000CEF81C3003600B468C0709D58548DEF8C2
:10244000101004689EF80B302140CEF82010016077
:10245000580709D58048DEF8141004689EF80B3040
:102460002140CEF824100160190700F1AB8062B65C
:102470009EF80BC0DEF80030D968914207D077484B
:1024800018607749DA6042F0804018611960754A37
:102490000A244FF00040FF21136843F48063136067
:1024A000D0625163D36A002BFCDA013C14F0FF04C4
:1024B000F2D1BCF1000F21D01CF0010F05D06A4B06
:1024C000DEF81C209EF80BC01A601CF0020F05D02D
:1024D000664BDEF820209EF80BC01A601CF0040F3B
:1024E00005D0634BDEF824209EF80BC01A601CF068
:1024F000080F03D05F4BDEF828201A602846FFF74C
:1025000083FE06E033680293029BDB1BB3F5FA6F90
:1025100051D8002211462846FFF7FAFE01288146CD
:102520006870EFD14FF4D57208212846FFF7F0FE0E
:10253000430726D585F802904FF0000906E033687E
:102540000393039BDB1BB3F5FA6F34D800223721CA
:102550002846FFF7DDFE4A4629212846FFF7D8FE28
:1025600068700028EBD1AB78022B39D02846FFF7F2
:1025700017FE4046FFF7D8FD0124204605B0BDE810
:10258000F083384A042194464FF0004EFF20136830
:1025900043F480631360C2F82CE05063D36A002BCD
:1025A000FCDADCF838300139DBB211F0FF016B7076
:1025B000EDD1AA2B0FD02846FFF7F2FD204605B03B
:1025C000BDE8F0832C49DEF8183008680340CEF8E7
:1025D00028300B604BE70223AB704FF08049B5E722
:1025E00002463A212846FFF793FE0028E3D11D4B0F
:1025F0001A684FF0004442F48062FF201A601946C6
:10260000DC625863CB6A174A002BFBDA936B154ADE
:1026100003F0C003C02B04BF0323AB700321164695
:102620004FF00044FF20136843F480631360D462CA
:102630005063D36A002BFCDA013911F0FF01B36B50
:10264000F1D193E7A418FF1F3C800440B414FF1F8E
:1026500080E100E084E100E088E100E001403F002B
:1026600000003F8000C0024000E100E004E100E023
:1026700008E100E00CE100E08CE100E07C08FF1FD5
:10268000F0B41549154A0B6882B016460093009FB6
:102690004FF00045FF24136843F480631360D56254
:1026A0005463D36A002BFCDAB36BDBB2FF2B4370AD
:1026B0000AD10B680193019BDB1BB3F5967FEAD926
:1026C000002002B0F0BC7047A3F1FE00B0FA80F029
:1026D000400902B0F0BC7047A418FF1F00C00240C0
:1026E000F8B58378032B0E46044618BF4E021546F4
:1026F000FFF78AFD324611212046FFF709FE18B97F
:102700002046FFF7BDFF20B92046FFF749FD002016
:10271000F8BD204B2049214A1A608E4659631A465B
:1027200059631E46596305F5FD70A91C05F5FE7732
:10273000D36A13F0F00FFBD0C6F834E0B36B01F8A6
:10274000013C1B1201F8023C02318F42F0D105F529
:102750000075A8420DD20F4A1646D36A13F0F00F47
:10276000FBD0B36B191200F8021BA84200F8013C21
:10277000F3D3084B0949084A196019465A63CB6AD2
:10278000044A13F0F00FFAD02046936BFFF708FDD0
:102790000120F8BD00C00240FFFF009000041F8030
:1027A000F0B4314E33684FF0004743F48063336038
:1027B0003D46F762344671633346511C02F20127ED
:1027C000E26A002AFCDA1A6811F8016C42F48062AD
:1027D0001A60DD625E63E26A002AFCDA1A6811F8A8
:1027E000026B42F480628F421A60DD625E63E7D161
:1027F0001D49CA6A1C4B002AFBDA1A684FF00045D3
:1028000042F48062FF241A601946DD625C63CB6A81
:10281000154A002BFBDA13684FF0004543F4806340
:10282000FF2413601146D5625463CB6A0E4A002B15
:10283000FBDA13684FF0004543F48063FF24136014
:102840001146D5625463CB6A074A002BFBDA936BBF
:10285000DBB203F01F024370A2F10500B0FA80F072
:102860004009F0BC704700BF00C0024070B504468C
:1028700071B18378032B0D4618BF4D021646FFF742
:10288000C3FC2A4618212046FFF742FD054620B129
:102890002046FFF785FC002070BD3246FE21204611
:1028A000FFF77EFF0028F3D04FF416712046FFF7A4
:1028B00005FD0028ECD02A460D212046FFF728FD13
:1028C0000028E5D10B4B1A684FF0004542F48062B6
:1028D000FF201A601946DD625863CB6A054A002B57
:1028E000FBDA936B13F0FF0FD2D12046FFF758FCB1
:1028F000012070BD00C00240014B024A1A607047BF
:10290000B414FF1F0320003838B590F90530002BB0
:1029100003DBBDE8384000F013BC04460121006928
:1029200000F04EFCF8B1257D104B13EB45151AD085
:10293000A3790F4A012B9CBFA369EB61E36912687D
:102940006B831B0CAB8232B105F1160105F1180047
:1029500090472B8B6B82637903F07F036371BDE833
:10296000384000F0EDBB002038BD00BFC814FF1F89
:10297000BC14FF1F10B500F1080204460121006AD3
:1029800000F012FD50B1E3693BB96379A268E261DE
:1029900063F07F036371012010BD012010BD00BFF3
:1029A00070B50646FFF7E6FF98B1326AB568117C4C
:1029B00053691479023D8D40013B74B11D4402E01E
:1029C00014F0FF0407D0601900F06AFC013C0028F5
:1029D000F6D1002070BD336A197CB0694FF40072E3
:1029E00002FA01F30344B361012070BD82790AB990
:1029F0000020704710B50446FFF786FF18B100238A
:102A0000A371012010BD002010BD00BF70B44B1E8B
:102A100001F10A04202203F8012FA342FBD101385F
:102A20000025072610F8014F2CB32E2C1ED0164A75
:102A300001E09C4217D012F8013B002BF9D1AE42C5
:102A40001FD3A4F121025D2A1BD8A4F16102192A27
:102A500005F1010398BF203C0D44DBB298BFE4B2FE
:102A60002C701D46DEE7002070BC70470A2EFAD09D
:102A700008250A26D6E70B78B3F1200018BF0120FD
:102A8000F2E71846F0E700BFE4C4000038B58379E8
:102A90003BB991F82020102A0D46044603D0202A85
:102AA00010D0002038BD022282714A8CC3615301CC
:102AB000836100230120607123752562A360E360B8
:102AC000236138BD03238371496AC16100F1180293
:102AD000284600F039FC0028EBD1E2E7837913B9EE
:102AE0004FF0FF3070472DE9F04F8B464179C90711
:102AF00083B005465BD5C1688469641A944228BFD7
:102B0000144626460194002C69D01A46022ADFF8A2
:102B1000FC903D4FDFF8F880C1F3080A42D0286AE4
:102B20000479013C04EA5124E4B2BAF1000F62D105
:102B3000002C60D1002956D1EA69AA6090F810E013
:102B40004169023A02FA0EF221441144CAF50074B6
:102B50006A79B442A8BF344653062DD4B4F5007F39
:102B60002AD00846002100F02BFB00B30AEB090E27
:102B70000EEB040086450BD00BF1FF32734613F8C1
:102B8000011B02F8011F9842F9D1CEEB00008344EB
:102B9000E968361B2144E96021D0AA79022AC1F3F1
:102BA000080ABCD12A6A506A00EB5121CEE74FF0E7
:102BB000FF3003B0BDE8F08F3A689142D1D0D8F829
:102BC00000000378FE2B18D05A46FFF789FD002835
:102BD000EDD0E968361B2144A344E960DDD10198BA
:102BE00003B0BDE8F08F05F10802A96800F074FB9E
:102BF0000028DCD0286AAA68A0E75846FFF7AAF99F
:102C0000B0FA80F04009E2E77808FF1FC814FF1F00
:102C1000C414FF1F8379012B17D930B5C36883B063
:102C200001220DF107010446C3F34315FFF756FFD8
:102C3000012802D0002003B030BDE36804481F33F0
:102C400000EB4510E36003B030BD0020704700BFCB
:102C5000C814FF1FF8B5837913B182698A4201D283
:102C60000020F8BD022B0F4605461AD007B32B6A89
:102C7000E9681C7C4A1E04F109037C1EDA40DC4032
:102C8000A24211D9EB69AB6005F1080606E0A9681C
:102C9000286A00F021FB013C0028E1D03246002CDC
:102CA000F5D1EF600120F8BD0029EBD0A41AEBE7C5
:102CB000AF60EF600120F8BD83790BB1FFF724BE50
:102CC000184670478379012B01D000207047F0B57A
:102CD0004579AC0783B002461CD585698D420C4608
:102CE00018D3D5B12546D6681446FFF7B3FF88B18F
:102CF000B5B9E169206A00F0E1FB58B1E56122E075
:102D000000F0DCFB30B16FF07042A168206A00F087
:102D1000C3FBC0B9002003B0F0BD184603B0F0BD3E
:102D200001AAA168206A00F0D7FA0028F2D0206A30
:102D30000F4B90F8207001994FF6F872102F08BFD2
:102D400013469942DCD36379A279A56163F07F03CE
:102D50006371002ADED02046FFF7D6FD0028D9D0C7
:102D6000B5422946204628BF3146FFF773FFD2E718
:102D7000F8FFFF0F70B51D4B03EB4116F37A13F00C
:102D8000110F02D012F0420F1ED1194B01751B68B2
:102D90000361738BB18A43EA0141C161F37A13F095
:102DA0001803154604460DD1F3698361012383712D
:102DB00005F00F03002163716B06A160E1600FD481
:102DC000012070BD102B01D0002070BD00F1180251
:102DD000006A00F0B9FA0028F6D00423A371E7E7EF
:102DE0002046BDE87040FFF76DBF00BFC814FF1F4D
:102DF0007808FF1F2DE9F04784B001AF06460C4666
:102E0000104639469946FFF701FE78B30022216A41
:102E1000316213461546A260E260DFF8008108E0E7
:102E2000E52B1CD001460B22384606F0B3FA88B3D6
:102E3000E368A2699A421DD92046C3F3431AFFF7FB
:102E4000E9FE98B10378002BEAD15DB9D8F80030DB
:102E500086F814A03361037823B10125E8E7002D3B
:102E6000FBD1F3E709F01203122B1DD0002004B0B0
:102E7000BDE8F08709F01203122BF7D1A5B9A379A9
:102E8000022BF3D02046FFF78BFD0028EED0214C1B
:102E9000357514E009F03003302BE7D04A4651462F
:102EA0003046FFF767FFE2E70121306900F088F95B
:102EB0000028DBD0347D174B13EB4414D6D02022EE
:102EC0000021204606F098FA97E80700234603C33E
:102ED000114923F8022B0D68120C1A709DB104F1F0
:102EE0000E0104F11000A847238AE289638223833C
:102EF000E28200F025F90028B8D04A46317D3046FC
:102F0000FFF738FFB3E742F621034FF40062238254
:102F1000E281EBE7C814FF1FBC14FF1F7808FF1FF6
:102F200010B484791CB100205DF8044B70475DF843
:102F3000044BFFF75FBF00BF2DE9F04F8B4681794F
:102F400085B001290746019205D001233B7100207D
:102F500005B0BDE8F08F42799107F6D5530708D543
:102F6000FC68B9698C4200F0B480FFF773FE00285A
:102F7000EBD0019BFC68002B4AD0DFF8A491DFF86E
:102F8000A4A1DDF80480386A0679013E06EA5426D9
:102F900016F0FF06C4F3080443D1002C41D1B968F0
:102FA000002973D1FA69002A00F08380BA60C4F561
:102FB0000075ADB245453AD9057C4169023AAA404F
:102FC0000E4416441FFA88F51CB9F868BA69904295
:102FD0004FD23046012100F0F3F80028B5D04C4420
:102FE00004EB050E74450DD00BF1FF31621E0EF19E
:102FF000FF3611F8010F02F8010F9642F9D1C4EB28
:103000000E04A344FC68B8EB05082C44FC60BAD15C
:10301000BB69A34262D27A79BC6142F080027A71C4
:1030200065E0C4F50075ADB24545BA68C4D8017C09
:103030004069023A8A400644B5F5007F1644C3D180
:10304000DAF80020964204BF4FF0FF32CAF80020A1
:103050002F4A10680278FE2A314633D05A46FFF7CD
:1030600005FC00283FF471AF0BF5007B4FF40075B1
:10307000C8E700F065F800283FF467AF2549CAF8B3
:1030800000600A7842F001020A70A8E703AA00F083
:1030900023F900283FF45CAF386A1F4B90F82050AA
:1030A000039A4FF6F871102D18BF19468A42FFF4A3
:1030B0007DAF3846FFF75EFC00283FF446AF386A24
:1030C000BA6874E75846FEF7C7FFB0FA80F04009C7
:1030D000C7E7019B002B7FF450AF08E00F4B7A79D4
:1030E0001B6823B1019B13B142F080027A71120771
:1030F00009D5BB79002B3FF428AF3846FFF704FC15
:1031000000283FF422AF019805B0BDE8F08F00BF62
:10311000C414FF1FC816FF1FF8FFFF0FBC14FF1FCA
:10312000C814FF1F7808FF1F00B583B002AB01224F
:1031300003F8011D1946FFF7FFFE03B05DF804FB1D
:1031400070B51A4C23780BB9012070BD184D194B7E
:10315000286819680378FE2B17D0174AFFF786FBFB
:1031600088B1164E316819B900232370012070BD53
:1031700028680378FE2B0FD00F4AFFF777FB10B1BA
:1031800000233360F0E7002070BD0B48FEF764FFBA
:10319000B0FA80F04009E3E70748FEF75DFFB0FAB8
:1031A00080F040090028EBD1EDE700BFC816FF1FF3
:1031B000C414FF1F7808FF1FC814FF1FC014FF1F8F
:1031C00070B5124D2B6883420E4611D00446FFF7AE
:1031D000B7FF08B9002070BD0D4B18680378FE2BAF
:1031E0000CD00C4A2146FFF77BFA0028F2D02C6065
:1031F000094B197831431970012070BD21460548EB
:10320000FEF7A8FEB0FA80F04009EEE77808FF1F4D
:10321000C414FF1FC814FF1FC816FF1FF8B590F88D
:103220002030C469102B1A4B05460E4617461B6802
:1032300016D004EBD1149C4216D106F07F06154A35
:1032400042F826701449287E0A78012842F00102CB
:103250000A7018D9A968114A0B4413600120F8BDFF
:1032600004EB11249C4208D000212046FFF7A8FF60
:1032700050B195F82030102B07D1F6B2054A2346FD
:1032800022F81670DEE70120F8BD2346D5E700BF1F
:103290007808FF1FC814FF1FC816FF1FC014FF1FA8
:1032A00010B50446FFF74CFF78B1084B002103F539
:1032B000007203F8011F9342FBD1054A05491378B8
:1032C0000C6043F001031370012010BDC714FF1FF1
:1032D000C816FF1F7808FF1FC36801338B4218D33D
:1032E00070B590F82030102B154B044616460D464D
:1032F000C0691B680FD000EBD11098420FD105F0C8
:103300007F01104B53F8213023F0704333600120CC
:1033100070BD0020704700EB1120984207D00021BB
:10332000FFF74EFF50B194F82030102BE7D1E9B2EF
:10333000044B33F811303360012070BD002070BDA4
:103340007808FF1FC814FF1F2DE9F04782B002ADB7
:10335000DFF8508045F8041D044691464FF0000AFE
:103360004FF400774FF6F8760CE094F82030227C8A
:103370000199102B14BF4346334607FA02F29942D3
:10338000924408D22A462046FFF7A6FF0028ECD137
:1033900002B0BDE8F0870120C9F800A002B0BDE886
:1033A000F08700BFF8FFFF0F2DE9F04F176883B0DB
:1033B0006FB301374FF0000AC36803F1010813B37C
:1033C0008B46064691463C46002505E01C461F46B6
:1033D000F3680135AB4216D9A04538BF0224214617
:1033E00001AA304638BF2746FFF776FF631CD91B7A
:1033F00048B1019A002AE9D18B4510D01C46F368E8
:103400000135AB42E8D8002003B0BDE8F08FA1F150
:10341000010ABAFA8AFA07684FEA5A1ACCE7012C6D
:10342000F1D9F36801339C42EDD86FF07042214628
:103430003046FFF7F3FE0028E5D0A74214D2013C46
:10344000012CE0D9F36801339C42DCD8621C214690
:103450003046FFF7E3FE0028D5D0A74204F1FF3441
:1034600002D0012CEED1CEE7D9F8001059B10129D4
:10347000C9D9F36801339942C5D83A463046FFF7B7
:10348000CDFE0028BFD0C9F80070BAF1000F01D0FE
:10349000013737600120B7E701290CD9C368013330
:1034A000994210B403D85DF8044BFFF7B7BE002073
:1034B0005DF8044B70470020704700BFF0B5022351
:1034C00083B00546134F03600C464FF6F8760FE0C5
:1034D000EB6801339C4216D8FFF7A0FE98B195F82F
:1034E0002030019C102B0CBF33463B469C420DD232
:1034F00001AA21462846FFF7EFFE2146002210B11F
:10350000012C2846E4D8002003B0F0BD012003B010
:10351000F0BD00BFF8FFFF0FF8B53E4B0546196040
:103520001446DAB1042A01D90020F8BD002108466A
:10353000FFF746FE0028F7D0374B03EB041292F852
:10354000AE215206F0D11B3403EB0414D4F80A3038
:10355000632BE9D9D4F80640002CE5D000212046A1
:10356000FFF72EFE0028DFD02B4AB2F80B30B3F560
:10357000007FD9D1117C0029D6D0D389002BD3D09C
:10358000567B002ED0D0002329762E712B74012774
:1035900003E009290B462974C6D007FA03F0B042AC
:1035A00003F10101F5D1D68A1B4906B94E6AB2F87A
:1035B0000EE0AE60A644C5F81CE0B2F81110177C0E
:1035C0006984480106FB07E600F2FF1006EB602065
:1035D0006E626861B2F813100F4E01B9316A241A95
:1035E0000C4424FA03F340F6F4718B42EB600BD9E0
:1035F0004FF6F4718B4285BFD36A6B621023202390
:1036000085F820300120F8BD0C2385F820300120FA
:10361000F8BD00BFC414FF1FC814FF1F10B4047FFF
:103620004160022CC26003D05DF8044B03F0DABDA8
:1036300083685DF8044B1847F0B4464B464A986BD4
:103640005C6B01791170454922790A701A6B007917
:103650000870002A46D05968C9688A423ED8216855
:10366000CC8B240402F1FF3065D4C0F30E00C88374
:10367000C88B80B2C882996B0968C88B000452D489
:10368000C2F30E00C883C88B002480B212F1FF324F
:10369000C88218BF01221C63596B2E4809680D6847
:1036A00000F12C04A54236D00068C46814F0804FA5
:1036B0000C680D6815BF248824780235013544F064
:1036C00000440D604463996B254B097919702149B9
:1036D00012B14A6B12791A70F0BC7047521A1A6311
:1036E0000122D9E7D86B196805681E4C0A63CC62C1
:1036F000CC682D681C4E24F080440327B542CC6072
:1037000083F82D701FD1037F4260022BC2601ED050
:10371000F0BC03F067BD016890F82C00CC6840F065
:1037200000404863CFE7CC8BC2F3080004F47E442A
:103730002043C883A7E7CC8BC0F3080004F47E4481
:103740002043C88394E72B461146F0BC1847836892
:10375000F0BC1847BC08FF1F1F8000401C800040C1
:103760001B80004000000FFF1D360000F0B4464BE8
:10377000464A986B5C6B01791170454922790A7051
:103780001A6B00790870002A46D05968C9688A42C5
:103790003ED82168CC8B240402F1FF3065D4C0F3FD
:1037A0000E00C883C88B80B2C882996B0968C88B29
:1037B000000452D4C2F30E00C883C88B002480B228
:1037C00012F1FF32C88218BF01221C63596B2E48C8
:1037D00009680D6800F12C04A54236D00068C46861
:1037E00014F0804F0C680D6815BF248824780235CA
:1037F000013544F000440D604463996B254B097911
:103800001970214912B14A6B12791A70F0BC7047D5
:10381000521A1A630122D9E7D86B196805681E4C41
:103820000A63CC62CC682D681C4E24F080440327C8
:10383000B542CC6083F82D701FD1037F4260022B0C
:10384000C2601ED0F0BC03F0CDBC016890F82C0023
:10385000CC6840F000404863CFE7CC8BC2F308004F
:1038600004F47E442043C883A7E7CC8BC0F3080050
:1038700004F47E442043C88394E72B461146F0BCF1
:1038800018478368F0BC1847FC08FF1F1F800040E2
:103890001C8000401B80004000000FFF1D36000010
:1038A000F0B4464B464A986B5C6B01791170454900
:1038B00022790A701A6B00790870002A46D059687C
:1038C000C9688A423ED82168CC8B240402F1FF30BB
:1038D00065D4C0F30E00C883C88B80B2C882996BD0
:1038E0000968C88B000452D4C2F30E00C883C88B89
:1038F000002480B212F1FF32C88218BF01221C637B
:10390000596B2E4809680D6800F12C04A54236D089
:103910000068C46814F0804F0C680D6815BF2488D7
:1039200024780235013544F000440D604463996BFE
:10393000254B09791970214912B14A6B12791A7015
:10394000F0BC7047521A1A630122D9E7D86B196884
:1039500005681E4C0A63CC62CC682D681C4E24F0AE
:1039600080440327B542CC6083F82D701FD1037FBC
:103970004260022BC2601ED0F0BC03F033BC016871
:1039800090F82C00CC6840F000404863CFE7CC8B27
:10399000C2F3080004F47E442043C883A7E7CC8B1D
:1039A000C0F3080004F47E442043C88394E72B4608
:1039B0001146F0BC18478368F0BC18477C08FF1F0D
:1039C0001F8000401C8000401B80004000000FFF53
:1039D0001D36000090E80C00F0B41C68596825689A
:1039E000164F174E29432160164D17491760D660B0
:1039F00015611160417A154A5C180C3194F82C401D
:103A000053F8215002EBC40149680D60017A5C183B
:103A100003EB8101247ECD6902EBC40149680D608E
:103A2000817A581803EB810390F84000596C02EB3F
:103A3000C002F0BC53681960704700BF01401F000E
:103A4000011000380110007800001F80F8C8000045
:103A500070B4417A44680E4B05680E4E2144002232
:103A600091F82C1003EBC10149680A60017A2144E6
:103A7000097E03EBC10149680A60817A214491F80B
:103A8000401003EBC1035B681A602E6070BC704786
:103A9000F8C8000001401F004268036805CA10B45E
:103AA000046822430260DA6889B942F08072D968FA
:103AB0008A4209D0196848040CD40A48186042F0B8
:103AC0008040DA60186119605DF8044B704722F09D
:103AD0008072ECE742F08041DA605DF8044B1961D6
:103AE000704700BF01401F004268036805CA10B458
:103AF000046822430260D868840100F0E06205D5C2
:103B0000080900F4706021F470410143D868114342
:103B1000814209D01A68500409D40848186041F05D
:103B20008040D96018611A605DF8044B704741F01D
:103B30008042D9605DF8044B1A61704701401F0054
:103B40002DE9F047044684B008460D4605F038FDDF
:103B5000061FAB5D2A2B00F03583C349284605F0CC
:103B60007DFF0646002800F093812C21284605F0B1
:103B7000A7FC451C284605F0EBF851EC100B05F0AE
:103B800091F807EE900AFCEEE77AB84AB84E17EEC5
:103B9000907AA2FB0712520B42F2107303FB1273CE
:103BA000A6FB07E14909A6FB036364265B0906FB44
:103BB000117122706370A17004F050FD9FEDA81B7D
:103BC00041EC100B04F03EFAAA4B002251EC100B12
:103BD00004F098FD05F046F82C21E080284605F019
:103BE0006FFC43782C2B804600F101055AD0294602
:103BF00002220DF1100901A805F0A0FD4FF0000A06
:103C000001A809F80AAD05F0ABF89B4F022207FBAB
:103C100000F708F1030101A808F1060505F08EFD83
:103C200029460422484605F089FD01A88DF80AA01E
:103C300005F096F83221914B914ADFED926A9FEDA3
:103C4000927A9FED926A01FB00F082FB001283FBE7
:103C50000731FB17A2EBE070C3EB613307EE903A3C
:103C600005EE900AF8EEE77AF8EEE55A3844E5EE0C
:103C7000A67A2061C7EE876AC4ED027AFDEEE66A95
:103C800016EE903A06FB03F607EE106AB8EEC77A16
:103C9000F8EEE66A77EEC77A87EE867A77EE266ADE
:103CA000C4ED066A28462C2105F00AFC43782C2B2B
:103CB00000F1010208D0532B00F0CE824E2B40F0D1
:103CC000A6814E2384F8383010462C2105F0F8FBED
:103CD00043782C2B054600F1010658D031460322CB
:103CE00001A805F02BFD4FF0000801A88DF8078012
:103CF00005F036F8604F022207FB00F7291D01A8E6
:103D0000EE1D05F01BFD314604220DF1060005F005
:103D100015FD01A88DF80A8005F022F83221574BD5
:103D2000574A9FED587ADFED586A9FED586A01FBBC
:103D300000F082FB001283FB0731FB17A2EBE0705F
:103D4000C3EB613307EE903A05EE900AF8EEE77A9E
:103D5000F8EEE55A6423E5EE877A3844606187EE31
:103D6000A67AC4ED037ABDEEC77A17EE102A03FBDC
:103D700002F306EE903AF8EEE66AB8EEC77A77EE0E
:103D8000E67AC7EE866A36EE877A84ED077A3046A1
:103D90002C2105F095FB43782C2B00F1010208D073
:103DA000572B00F06C82452B40F03181452384F87D
:103DB000393010462C2105F083FB43782C2B00F181
:103DC000010504D0284604F0C7FF84F83C002846CB
:103DD0002C2105F075FB43782C2B00F1010504D054
:103DE000284604F0B9FF84F83D0028462C2105F050
:103DF00067FB43782C2B00F1010507D0284604F01F
:103E0000A7FF51EC100B04F04DFF606328462C21F6
:103E100005F056FB43782C2B00F1010507D028460E
:103E200004F096FF51EC100B04F03CFF60622C2173
:103E3000284605F045FB2C21013005F041FB437875
:103E40002C2B00F0BA81013004F082FF51EC100BF2
:103E500004F028FF01232062184604B0BDE8F08773
:103E6000000000000000F03F3CC700005917B7D128
:103E70001F85EB5100408F408096980089B5F8145B
:103E8000565555559C53C9360000C8420000704233
:103E9000DF49284605F0E2FD002800F0B8802C211B
:103EA000284605F00DFB451C284604F051FF51EC57
:103EB000100B04F0F7FE07EE900AFCEEE77AD54A05
:103EC000DFF870E317EE901AA2FB0132AEFB013768
:103ED000520B42F2107303FB12134FF0640CAEFB53
:103EE00003E37F090CFB17115B0922706370A1705B
:103EF00004F0B4FB9FEDC41B41EC100B04F0A2F8DE
:103F0000C54B002251EC100B04F0FCFB04F0AAFEA0
:103F10002C21E080284605F0D3FA4378412B00F0AD
:103F20009181562B73D184F83B6001302C2105F030
:103F3000C7FA43782C2B054600F1010659D03146CB
:103F400002220DF1100801A805F0F8FB4FF000095E
:103F500001A808F80A9D04F003FFB04F022207FBF6
:103F600000F7E91C01A8AE1D05F0E8FB314604226C
:103F7000404605F0E3FB01A88DF80A9004F0F0FE3E
:103F80003221A74BA74A9FEDA87ADFEDA86A9FEDE3
:103F9000A86A01FB00F082FB001283FB0731FB17CC
:103FA000A2EBE070C3EB613307EE903A05EE900AA6
:103FB000F8EEE77AF8EEE55A6423E5EE877A3844BE
:103FC000206187EEA67AC4ED027ABDEEC77A17EEBD
:103FD000102A03FB02F306EE903AF8EEE66AB8EE1A
:103FE000C77A77EEE67AC7EE866A36EE877A84ED90
:103FF000067A30462C2105F063FA43782C2B00F129
:1040000001021AD0532B07D04E2B00F0568100230B
:10401000184604B0BDE8F087D4ED067AF1EE677A71
:10402000C4ED067A43784E2B00F04781532B02D023
:104030002C2BECD1002384F8383010462C2105F0CD
:104040003FFA43782C2B054600F1010658D0314643
:10405000032201A805F072FB4FF0000801A88DF8BB
:10406000078004F07DFE6D4F022207FB00F7291D3B
:1040700001A8EE1D05F062FB314604220DF1060099
:1040800005F05CFB01A88DF80A8004F069FE654B21
:1040900063499FED657ADFED656A9FED656A3222BF
:1040A00002FB00F083FB003281FB0731FB17A2EB20
:1040B000E070C3EB613307EE903A05EE900AF8EE3C
:1040C000E77AF8EEE55A6423E5EE877A38446061D2
:1040D00087EEA67AC4ED037ABDEEC77A17EE102AF2
:1040E00003FB02F306EE903AF8EEE66AB8EEC77A02
:1040F00077EEE67AC7EE866A36EE877A84ED077A3F
:1041000030462C2105F0DCF943782C2B00F101021C
:104110000ED0572B40F0C780D4ED077AF1EE677AC6
:10412000C4ED077A4378572B40F0D38084F83930B8
:1041300010462C2105F0C4F943782C2B00F1010521
:1041400007D0284604F004FE51EC100B04F0AAFD41
:10415000A06228462C2105F0B3F943782C2B00F1FE
:10416000010507D0284604F0F3FD51EC100B04F0D4
:1041700099FDE06228462C2105F0A2F943782C2B0A
:104180001BD0013004F0E4FD51EC100B04F06AFD8B
:10419000204A284EA2FB0032520B42F21073A6FBBB
:1041A000001503FB12036D096421A6FB036301FBE9
:1041B00015015B09E170627123710123184604B097
:1041C000BDE8F087284410F8033C2F2B34D8002397
:1041D00010F8022C2F2A3DD9392A37D8303AD2B2DA
:1041E000022E1A4409D902210B46695C0133DBB265
:1041F0004A409E4292B21946F7D8002A3FF4ADAC2D
:1042000005E700BFAFF30080000000000000F03FB2
:1042100044C700005917B7D100408F4080969800DE
:1042200089B5F814565555559C53C9360000C842F7
:10423000000070421F85EB51392B2CD8303BDBB28C
:104240001B01C5E7012384F83B306EE6A2F1410172
:1042500005292FD90022C3E7D4ED067AF1EE677A5B
:10426000C4ED067A43784E2B3FF42BAD532B03D08D
:104270002C2B7FF4CCAE002384F8383024E5D4ED29
:10428000077AF1EE677AC4ED077A4378572B18D195
:1042900084F839308DE5A3F14102052A97D8373BE0
:1042A000DBB21B0194E7452B7FF4B1AE452384F8C4
:1042B00039303DE7373AD2B292E74E2384F83830AE
:1042C000BBE6452B3FF472AD2C2B7FF4A0AE002350
:1042D000DEE7452BEAD02C2B7FF499AE002325E7AF
:1042E00070B590F84A500DB1002070BD0446C06C06
:1042F00003681B6998470028F6D0E06C03685B6987
:104300009847C0B20A280FD0144B154A1C6813787E
:10431000134DDBB2591CC9B21170E0541378772BDE
:1043200084BF77232B7070BD0D4A0C4B11781E682B
:104330000C4CC9B275541968A14209D00A490B4DF9
:104340001C600D600A4B0025012115701970DEE715
:10435000054D064C1C602960F4E700BFCC16FF1F1A
:10436000D016FF1FD416FF1FC817FF1F4C17FF1FC3
:10437000C417FF1FF0B4164B164E174F174A1A609A
:10438000174DC164002200243270164E3A702E6020
:1043900044630463C462846244620462C4608460EF
:1043A00080F84A2080F83D2080F83C20427102715C
:1043B000C27082704270027080F83A2080F8392012
:1043C00080F8382080F83B20C280F0BC704700BFE6
:1043D000CC16FF1FC417FF1FD016FF1FD416FF1FD8
:1043E000C817FF1F4C17FF1F08B5C06C0368DB69B7
:1043F00098470A20BDE8084001F0CCBA38B5C46C33
:1044000008460D4605F0DCF82368024629465B683D
:10441000204698472046BDE8384003F0E3B800BF87
:10442000014B1878704700BFC417FF1F024A034BA7
:104430000021117018687047C417FF1FC817FF1FAD
:10444000704700BF704700BF704700BF704700BF94
:1044500041717047817170470171704730B4034DED
:10446000056001714271837130BC7047C0C70000A4
:10447000054B1A684FF00043D3625163D36A002B97
:10448000FCDA906BC0B27047FC08FF1F704700BF9A
:1044900030B41D4B8268D97A01B372B6D87AC50799
:1044A000014606D5194CD96825682940D961216093
:1044B0000146840706D5164C18692568D97A284024
:1044C00018622060480706D5124C58692568D97AC9
:1044D00028405862206009070ED462B61B68D9686C
:1044E000914207D00C4818600C49DA6042F08040D5
:1044F0001861196030BC7047094899690468214007
:1045000099620160E9E700BFFC08FF1F80E100E05D
:1045100084E100E088E100E001403F0000003F80CE
:104520008CE100E00148FFF793BA00BFFC08FF1FD1
:104530000D4AD37A1946B3B1D80703D50B49D069D0
:10454000086019469B0703D5094B106AD17A186099
:10455000480703D5074B506AD17A18600B0702D57C
:10456000054B926A1A607047FC08FF1F00E100E0EB
:1045700004E100E008E100E00CE100E082792DE9CF
:10458000F04104464AB1012A00F09680022A00F068
:10459000A680032A00F093800022154672497348D2
:1045A0000B6843F480530B60C368990167D423F010
:1045B00080636E49C868834203D00868470466D5A3
:1045C000CB602379042B6CD0032B6FD0022B70D0DF
:1045D00067496848012B14BF8E46864694F805C08B
:1045E0006549DFF8C081BCF1010F0CBF4FF0645684
:1045F0004FF06056002702E0172808D0074631F830
:10460000023F98FBF3F39E4507F10100F4D30DB18F
:1046100046F08066594B53F827303AB11A0902F434
:10462000706223F4704346F00076134333431CF169
:10463000FF31A36018BF01215148FFF72DFA2379FC
:10464000013BDBB2032B74D84E4AD35C042B56D00B
:10465000002B37D0052B5FD0012B6AD0062B75D0ED
:10466000022B3FD048494648FFF73EFA4448FFF73F
:10467000B1F945494248BDE8F041FFF735BA23F0AA
:10468000C06323F47F43190389B20B4391E740F4DD
:10469000804646F001060E60CB6023790860042B4B
:1046A00092D194F805C0DFF800E199E7DFF8FCE06B
:1046B00094E7DFF8FCE091E7042200256EE704228E
:1046C00008256BE731492E48FFF70EFA2C48FFF713
:1046D00081F92E492A48BDE8F041FFF705BA0022CA
:1046E00008255BE72A492648FFF7FEF92448FFF72B
:1046F00071F927492248BDE8F041FFF7F5B925498E
:104700001F48FFF7F1F91E48FFF764F921491C48DB
:10471000BDE8F041FFF7E8B91F491948FFF7E4F990
:104720001748FFF757F91C491548BDE8F041FFF756
:10473000DBB91A491248FFF7D7F91148FFF74AF9D0
:1047400016490F48BDE8F041FFF7CEB914490C48AF
:10475000FFF7CAF90A48FFF73DF911490848BDE8D3
:10476000F041FFF7C1B900BF3C80044000C00240E7
:1047700040420F0080841E001AC60000E0C6000000
:10478000FC08FF1FE8C7000008700038032000384D
:1047900007600038000002B80430003805400038D7
:1047A00006500038008793030024F40000127A00BA
:1047B00000093D0010B5064C00231A461946204654
:1047C000FFF74CFE034A044B2260A36010BD00BFFC
:1047D000CC17FF1FF4C7000003200038054B1A68F0
:1047E0004FF00043D3625163D36A002BFCDA906B25
:1047F000C0B27047BC08FF1F704700BF30B41D4BEC
:104800008268D97A01B372B6D87AC507014606D54F
:10481000194CD96825682940D9612160014684076F
:1048200006D5164C18692568D97A28401862206088
:10483000480706D5124C58692568D97A284058622D
:10484000206009070ED462B61B68D968914207D070
:104850000C4818600C49DA6042F080401861196019
:1048600030BC704709489969046821409962016029
:10487000E9E700BFBC08FF1F80E100E084E100E041
:1048800088E100E001403F0000003F808CE100E053
:104890000148FFF7DDB800BFBC08FF1F0D4AD37AFF
:1048A0001946B3B1D80703D50B49D069086019463A
:1048B0009B0703D5094B106AD17A1860480703D5C6
:1048C000074B506AD17A18600B0702D5054B926AE4
:1048D0001A607047BC08FF1F00E100E004E100E03F
:1048E00008E100E00CE100E082792DE9F0410446A6
:1048F0004AB1012A00F09680022A00F0A680032A1D
:1049000000F0938000221546724973480B6843F407
:1049100080530B60C368990167D423F080636E49AC
:10492000C868834203D00868470466D5CB60237902
:10493000042B6CD0032B6FD0022B70D067496848D2
:10494000012B14BF8E46864694F805C06549DFF8F2
:10495000C081BCF1010F0CBF4FF064564FF06056A0
:10496000002702E0172808D0074631F8023F98FBDD
:10497000F3F39E4507F10100F4D30DB146F08066D4
:10498000594B53F827303AB11A0902F4706223F4F4
:10499000704346F00076134333431CF1FF31A360AC
:1049A00018BF01215148FFF777F82379013BDBB2AB
:1049B000032B74D84E4AD35C042B56D0002B37D02F
:1049C000052B5FD0012B6AD0062B75D0022B3FD070
:1049D00048494648FFF788F84448FEF7FBFF454939
:1049E0004248BDE8F041FFF77FB823F0C06323F4ED
:1049F0007F43190389B20B4391E740F4804646F0A8
:104A000001060E60CB6023790860042B92D194F8E4
:104A100005C0DFF800E199E7DFF8FCE094E7DFF894
:104A2000FCE091E7042200256EE7042208256BE7ED
:104A300031492E48FFF758F82C48FEF7CBFF2E4996
:104A40002A48BDE8F041FFF74FB8002208255BE790
:104A50002A492648FFF748F82448FEF7BBFF2749B4
:104A60002248BDE8F041FFF73FB825491F48FFF74E
:104A70003BF81E48FEF7AEFF21491C48BDE8F04157
:104A8000FFF732B81F491948FFF72EF81748FEF70D
:104A9000A1FF1C491548BDE8F041FFF725B81A49A8
:104AA0001248FFF721F81148FEF794FF16490F4806
:104AB000BDE8F041FFF718B814490C48FFF714F8A7
:104AC0000A48FEF787FF11490848BDE8F041FFF7A3
:104AD0000BB800BF3C80044000C0024040420F00C1
:104AE00080841E001AC60000E0C60000BC08FF1F3C
:104AF0001CC8000008700038032000380760003828
:104B0000000002B804300038054000380650003874
:104B1000008793030024F40000127A0000093D008E
:104B200010B5064C00231A4619462046FFF796FC9E
:104B3000034A044B2260A36010BD00BFD817FF1FBB
:104B400028C8000003200038054B1A684FF00043C6
:104B5000D3625163D36A002BFCDA906BC0B270470A
:104B60007C08FF1F704700BF30B41D4B8268D97AA4
:104B700001B372B6D87AC507014606D5194CD96873
:104B800025682940D96121600146840706D5164C65
:104B900018692568D97A284018622060480706D528
:104BA000124C58692568D97A284058622060090754
:104BB0000ED462B61B68D968914207D00C481860C1
:104BC0000C49DA6042F080401861196030BC7047CF
:104BD000094899690468214099620160E9E700BFCA
:104BE0007C08FF1F80E100E084E100E088E100E054
:104BF00001403F0000003F808CE100E00148FEF7EB
:104C000027BF00BF7C08FF1F0D4AD37A1946B3B1F6
:104C1000D80703D50B49D069086019469B0703D50F
:104C2000094B106AD17A1860480703D5074B506AC0
:104C3000D17A18600B0702D5054B926A1A6070474B
:104C40007C08FF1F00E100E004E100E008E100E073
:104C50000CE100E082792DE9F04104464AB1012AD5
:104C600000F09680022A00F0A680032A00F09380CC
:104C700000221546724973480B6843F480530B6059
:104C8000C368990167D423F080636E49C868834282
:104C900003D00868470466D5CB602379042B6CD019
:104CA000032B6FD0022B70D067496848012B14BFCB
:104CB0008E46864694F805C06549DFF8C081BCF190
:104CC000010F0CBF4FF064564FF06056002702E012
:104CD000172808D0074631F8023F98FBF3F39E45AA
:104CE00007F10100F4D30DB146F08066594B53F83B
:104CF00027303AB11A0902F4706223F4704346F087
:104D00000076134333431CF1FF31A36018BF012128
:104D10005148FEF7C1FE2379013BDBB2032B74D867
:104D20004E4AD35C042B56D0002B37D0052B5FD0D6
:104D3000012B6AD0062B75D0022B3FD0484946483C
:104D4000FEF7D2FE4448FEF745FE45494248BDE81D
:104D5000F041FEF7C9BE23F0C06323F47F4319037B
:104D600089B20B4391E740F4804646F001060E609D
:104D7000CB6023790860042B92D194F805C0DFF84A
:104D800000E199E7DFF8FCE094E7DFF8FCE091E769
:104D9000042200256EE7042208256BE731492E48DE
:104DA000FEF7A2FE2C48FEF715FE2E492A48BDE864
:104DB000F041FEF799BE002208255BE72A49264804
:104DC000FEF792FE2448FEF705FE27492248BDE87B
:104DD000F041FEF789BE25491F48FEF785FE1E48B3
:104DE000FEF7F8FD21491C48BDE8F041FEF77CBE06
:104DF0001F491948FEF778FE1748FEF7EBFD1C49DE
:104E00001548BDE8F041FEF76FBE1A491248FEF79B
:104E10006BFE1148FEF7DEFD16490F48BDE8F04174
:104E2000FEF762BE14490C48FEF75EFE0A48FEF724
:104E3000D1FD11490848BDE8F041FEF755BE00BF5D
:104E40003C80044000C0024040420F0080841E00AD
:104E50001AC60000E0C600007C08FF1F80C80000E2
:104E6000087000380320003807600038000002B8DE
:104E7000043000380540003806500038008793039E
:104E80000024F40000127A0000093D0010B5064C21
:104E900000231A4619462046FFF7E0FA034A044B5E
:104EA0002260A36010BD00BFE417FF1F58C80000B8
:104EB0000320003872B616E072B618E072B62248C7
:104EC00000680121016006E072B61EF10F0F38D0B4
:104ED0001EF11F0F35D01D480168002903D0A1F134
:104EE000010101602DE01A480068012829D1194804
:104EF0000068A0E8F04FA0EC200AF1EE101A02C002
:104F000015480068002803D1EFF3098013490860B1
:104F100000F064F90F480068B0E8F04FB0EC200AE8
:104F200002C8E1EE101A0EF0100E6EF0160E0A48CE
:104F30000068002805D10948006880F309884EF010
:104F4000040E62B6704700005418FF1F1018FF1FB0
:104F50000C18FF1FF017FF1FF417FF1F1418FF1F77
:104F6000064B1B681BB11FB59847BDE81F40044B9B
:104F70001B680BB1FFF7A8BF704700BF0418FF1FE5
:104F80000818FF1F0F4B1B681BB11FB59847BDE8E2
:104F90001F401EF0040F0CBFEFF30880EFF30980F1
:104FA000836913F8023C212B08D0222B00D07047D4
:104FB000054B01221A60FFF77FBF7047FFF77ABFEA
:104FC000704700BF5018FF1F0C18FF1F30B472B697
:104FD0000A4902250B680D6062B6094AD468106957
:104FE0000634013852F824401061C4F8B45072B647
:104FF0005A1C08BF01230B6062B6FEE70C18FF1FA6
:105000001818FF1F10B5044602F080FA204610BDA4
:10501000024B1B680222C3F8B4207047F817FF1F29
:10502000F8B50446034600220A214FF480654FF488
:105030002050A16025606060E260226143F8142F77
:1050400004F1340143F8042F8B424FF00005F9D1ED
:10505000C42002F0ADFA2946C42206461B4F04F0D4
:10506000CBF961681A4A3E60521A1A4F1A4B3160E6
:1050700072601A49DFF884E0A66106F10C023A601A
:105080000122D86AC6F8B4500A60C6F8B420CEF837
:105090000020134ADFF868C0A168C6F8C01090422B
:1050A000104A114FCCF80010104918BF10604FF093
:1050B00003060F4808BF15603D600E60DD6B0D49AB
:1050C0000D4A0560D9622046DA63F8BDF817FF1F64
:1050D00000000320F017FF1F0002FF1FF417FF1F3F
:1050E000A95700005018FF1F1418FF1F0C18FF1FAE
:1050F0000418FF1F854F0000614F00000818FF1FB4
:105100001018FF1FC168F0B58B1D2F4E50F82330CB
:105110003268C3F8BC2083B02C4F31B13A68D2F862
:10512000BC3052689B1A082B42DD00F114040022A7
:1051300002E00132082A1AD054F8043F8D1D002BDA
:10514000F7D050F82550D5F8B450012DF1D1D3F84F
:10515000B850002DEDD01E4CD3F8C050C2600021D5
:10516000B2FA82F252092560C3F8B81015E0CA1DE0
:1051700000EB82020131072920DC52F8043B002BAE
:10518000F8D0D3F8B440012CF4D1B1FA81F2C16067
:1051900052090F49D3F8C0000860D3F8BC000D4C89
:1051A0000D493B600C33236030600A6003B0F0BDF2
:1051B0000190FFF72DFF0198C168B6E70023C36097
:1051C00001228369E5E700BF1418FF1FF817FF1FCE
:1051D0001018FF1FF017FF1FF417FF1F0148FFF7FC
:1051E00091BF00BF1818FF1F2DE9F04F83B0804614
:1051F00000919346994672B6454F0223D7F800A016
:105200003B6062B6B9F1FF3F08BFD0F8009000F1F3
:105210001806012556F8044F002C50D0D4F8B430AD
:10522000022B0DD0D4F8B43053B10135082DF1D193
:10523000BAF1010F51D04FF0FF3003B0BDE8F08F4D
:10524000606810B1A368002B50D10C9B002B57D085
:105250000023A3600C9AD8F810106260A9F128030B
:10526000C4F8009042F803B013444FF08076009ADF
:105270009A612AF002000022DFF898E0C7F800A047
:10528000D8F80870DE610126C3F814E05A609A600D
:10529000DA601A610131C4F8BC30B0426FF0060325
:1052A000E362C4F8B820C4F8C070C4F8B460184B06
:1052B000C8F810101DD0284603B0BDE8F08FC420F8
:1052C00002F076F92146C422019004F095F8019B82
:1052D0003360C3F8B4401C46A0E772B6C7F800A01C
:1052E00062B64FF0FF3003B0BDE8F08F02F064F912
:1052F000ABE772B6186062B6284603B0BDE8F08F1F
:10530000484602F057F901230C90A360A2E700BFC2
:105310000C18FF1FCD4F000021DF7047094A82B0F3
:1053200013680093009813680193019B1B1A99421C
:1053300006DD21DF13680193019B1B1A8B42F8DB0A
:1053400002B07047A418FF1F38B5074B074A084939
:105350000025802418461D601C7103F0F3FC0548ED
:10536000BDE83840FFF75CBEFC17FF1F3007FF1F8A
:10537000055000001818FF1F01F0CABD01F0ECBD78
:1053800001F002BE074882B003680193019A1144FC
:1053900001E0994204D303680093009B9A42F8D934
:1053A00002B07047A418FF1F10B4104A85B0A1B90D
:1053B000136800934168009B591A31290DD813686E
:1053C0000293029C04F13203591A01E0994204D37A
:1053D00013680193019B9C42F8D913680393039BC4
:1053E0004360012005B05DF8044B7047A418FF1F0F
:1053F000704700BF2DE9F0410D4D0E4EDFF83C80A7
:105400000D4F41641B2401E000F0C4FA2B78C82042
:1054100043B13378DB0705D5D8F800303A689B1ADA
:105420000E2B03D8013CEFD1BDE8F081BDE8F0813F
:10543000041AFF1F1C1AFF1F081DFF1FA418FF1FBF
:1054400000238364436071B1074882B0036801930D
:10545000019A114401E0994204D303680093009B30
:105460009A42F8D902B07047A418FF1F70B5144CC7
:1054700084B00546406C236803930368039A6A600E
:105480000E465B680F4906229847314600230A22E0
:10549000686C02F0B7F8686C0B49036808225B6817
:1054A000984723680293029A02F1320101E099427F
:1054B00004D323680193019B9A42F8D904B070BDCC
:1054C000A418FF1F9CC80000A4C80000F8B5037E04
:1054D0000BB96320F8BD0446406C3B4E03681B6962
:1054E000B3420D466AD101F04FFD10F0FF0F01D11C
:1054F0006520F8BD354F606C03681B69B3425FD10E
:1055000001F042FD10F0FF0FF2D0606C03685B69A0
:10551000BB4257D101F0FCFCC3B2A3F158021E2AD2
:10552000E9D801A151F822F0B5550000F754000068
:10553000F7540000F7540000F7540000F75400003F
:10554000F7540000F7540000F7540000F75400002F
:10555000F7540000A9550000F7540000F75400006C
:10556000F7540000F7540000D3540000F754000033
:10557000F7540000F7540000F7540000F7540000FF
:10558000F7540000F7540000F7540000D354000013
:10559000F7540000F7540000F7540000F7540000DF
:1055A000A55500001846F8BD20462946FFF75EFFC6
:1055B0006320F8BD002323766320F8BD984794E765
:1055C00098479FE79847A7E7815300007953000069
:1055D00070B5054682B01646C9B101230D4C03765D
:1055E00000212846FFF772FF632810D0236801933B
:1055F000019A511C23680093009B9A42F0D899426B
:10560000F8D200212846FFF761FF6328EED12E76FD
:1056100002B070BDA418FF1F034B00229A60DA602D
:105620001A615A61704700BF5818FF1F844641EA4B
:10563000000313F003036DD1403A41D351F8043B0A
:1056400040F8043B51F8043B40F8043B51F8043B5C
:1056500040F8043B51F8043B40F8043B51F8043B4C
:1056600040F8043B51F8043B40F8043B51F8043B3C
:1056700040F8043B51F8043B40F8043B51F8043B2C
:1056800040F8043B51F8043B40F8043B51F8043B1C
:1056900040F8043B51F8043B40F8043B51F8043B0C
:1056A00040F8043B51F8043B40F8043B51F8043BFC
:1056B00040F8043B51F8043B40F8043B403ABDD26B
:1056C000303211D351F8043B40F8043B51F8043B0D
:1056D00040F8043B51F8043B40F8043B51F8043BCC
:1056E00040F8043B103AEDD20C3205D351F8043B9C
:1056F00040F8043B043AF9D2043208D0D2071CBF68
:1057000011F8013B00F8013B01D30B880380604690
:10571000704700BF082A13D38B078DD010F0030306
:105720008AD0C3F10403D21ADB071CBF11F8013B76
:1057300000F8013B80D331F8023B20F8023B7BE7C5
:10574000043AD9D3013A11F8013B00F8013BF9D2F0
:105750000B7803704B7843708B788370604670478A
:1057600008B5104C08E0236859050DD423681A05C4
:105770000FD42368DB0411D423685803F3D500F059
:1057800099FD23685905F1D502F07AF923681A05C5
:10579000EFD502F00BFA2368DB04EDD502F09CFA9A
:1057A000EAE700BF3480044008B5FFF7D9FF00BF27
:1057B000014B10221A80704700200540704700BF3F
:1057C000094908B50B6830B16A461844A2F5005281
:1057D000904202D20860184608BD03F0CBFA0C23B1
:1057E00003604FF0FF3008BD3C09FF1FFEE700BF1C
:1057F000EFF3138070B9EFF310836BB9EFF3058209
:105800005AB94FF48070EFF311832BB1984228BF3F
:10581000184670474FF0FF3070470F2A01D81846DE
:10582000F1E7014BD05CEEE7F0E300E0084A1378C3
:10583000802B01D0002070470649074B07480860BD
:10584000002119701378802BFCD00120704700BF15
:1058500003E007404480044001E0074000002822A4
:10586000094A1378012B01D00020704703F18043CF
:1058700003F5FC23602119701378802BFCD1034BB6
:10588000034A1A600120704703E007404480044047
:105890000000060210B4114B53F8302092F88042F9
:1058A00034B1012379B182F880305DF8044B704740
:1058B00003EBC0035B681A6851B922F002021A6058
:1058C0005DF8044B704782F800315DF8044B704777
:1058D00042F003021A605DF8044B7047F8C80000FC
:1058E0001C4A02EBC00301295B6811D004291BD0BC
:1058F00052F83000002280F8802229B1022920D0FD
:10590000032922D01A6070474FF480721A607047E2
:1059100052F830004FF4A27280F880121A601A68B0
:1059200022F020021A60704752F830104FF4A27231
:10593000012081F880021A601A6842F020021A6081
:10594000704740F203121A6070474FF481721A6078
:10595000704700BFF8C8000030B4054B054D064C39
:10596000002210211A602A602060196030BC704744
:1059700014D0034004D0034000D003403F2801D896
:10598000FFF788BF704700BF3F2801D8FFF7A8BFC7
:10599000704700BF2DE9F843054672B6224F234BEE
:1059A000234A1B683C68126862B6520102D5322B4A
:1059B00088BF0134B5B3C3F52F3303F21F331D4E37
:1059C000DFF86890DFF868809B084FF47A72A6FBD6
:1059D000031302FB04F404EB930472B6D9F800102D
:1059E0003A68D8F800E062B6C1F52F3303F21F33EE
:1059F0009B08A6FB03031EF0806FC4EB93034FF4D8
:105A00007A7002D0322988BF013200FB0233B3F52D
:105A10007A7F04D3013D05D004F57A74DDE701F007
:105A200027FFDAE7BDE8F883A418FF1F18E000E0BD
:105A300004ED00E0176CC116F8B54E4B4E48DFF888
:105A40005CC14E4C4E49DFF858E14E4E4E4D4F4F23
:105A50004FF000621A604FF080521A604FF000520F
:105A60001A604FF080421A604FF000421A60002224
:105A7000026028234EF6FF70CCF80000CEF800300C
:105A800023600EF5012E0B6033602B6006F50026B7
:105A90003B6005F50025A36207F500278B6204F53E
:105AA000012401F5012106F6E87605F6E87507F50B
:105AB0007F6710310EF1100E203433602B60CEF86A
:105AC00000303B600B602360314CBB618B6109216E
:105AD0002160A7F5002704F58054203F08343A6080
