:1000000000000320D1010000A9330000613300008B
:100010006133000061330000613300006133000090
:10002000613300006133000061330000A933000038
:10003000A9330000613300008D3B0000913C0000BB
:10004000A9330000A9330000A9330000A933000040
:10005000A9330000A9330000A9330000A933000030
:10006000A9330000A9330000A9330000A933000020
:10007000A9330000A9330000A9330000A933000010
:10008000A9330000A9330000A9330000A933000000
:10009000A9330000A9330000A9330000A9330000F0
:1000A000A9330000A9330000A9330000A9330000E0
:1000B000A9330000A9330000A9330000FD3400007B
:1000C000A933000029360000A9330000553700008D
:1000D000A93300004D380000A9330000A933000007
:1000E000A9330000A9330000A9330000A9330000A0
:1000F000A9330000A9330000A9330000A933000090
:10010000A9330000A9330000A9330000A93300007F
:10011000A9330000751D0000A9330000A9330000B9
:10012000A9330000A9330000A9330000A93300005F
:10013000A9330000A9330000A9330000A93300004F
:10014000A9330000A9330000E91A0000A933000018
:10015000A9330000A9330000A9330000A93300002F
:10016000A9330000A9330000A9330000A93300001F
:10017000A9330000A9330000A9330000A93300000F
:10018000A9330000A9330000A9330000A9330000FF
:10019000A9330000A933000045390000A93300004D
:1001A000A9330000A9330000A9330000A9330000DF
:1001B000A9330000A9330000A9330000A9330000CF
:1001C000A9330000A9330000A9330000A9330000BF
:1001D0005C4B4CF2205210B51A804DF628121A8052
:1001E00000BF00BF03F0E4F8574B4FF030621A60D5
:1001F000564A9A60564ADA60564B4FF470021A60BB
:10020000554B564A1A60564A136813F4807304D14A
:1002100054490B604FF4A8531360534B1A781107DD
:1002200003D51A7842F008021A70504B5049AA229E
:100230001A70504A504B8B4204D252F8040F43F8C4
:10024000040BF8E74D4B4E4900228B4202D243F893
:10025000042BFAE74B494C4A002352F8230041F89B
:1002600023000133742BF8D1484B494A802103F80D
:10027000011B9342FBD1474B424A1A60464B8A22EC
:100280001A70A3F5805324225A70A0221A709A790A
:100290009207FCD59A79D406FCD4404A937903F0AE
:1002A0000C03082BFAD13E4B60221A7002331A78E5
:1002B000802AFCD1394B01221A715D225A719A7938
:1002C0009006FCD59979354A4906FBD5354B364918
:1002D00019600021596020231370937903F00C03F7
:1002E0000C2BFAD1314B324A1A60324B324A1A6027
:1002F00000225A60072243F8042C304AC3F80C2D20
:1003000062B601F0F9F8174B1B68DA0705D52C48DF
:1003100001F082F82B4B2C4A1A602C4B1B785B06A1
:1003200009D5284C284B22689A4204D1244801F070
:1003300073F80023236004F04FFB03F03FF802F052
:1003400057FDFEE70E20054030800440823F040048
:100350000100002B88ED00E0002008E0030000858C
:1003600010D0034014D0034002D0074000E0074003
:10037000B011FF1FF08600003007FF1FB011FF1FF4
:10038000D417FF1F0002FF1F0000000000E400E080
:1003900064E400E008ED00E0005006400040064044
:1003A00001E007404480044000000602048004404D
:1003B000C010070014E000E01FBF02000000202072
:1003C00029FAAB5B1CE00340A5C3945A00F0074038
:1003D000FFFFFFFFFFFFFFFFFFFFFFFFFFFFFFFF2D
:1003E000FFFFFFFFFFFFFFFFFFFFFFFFFFFFFFFF1D
:1003F000FFFFFFFFFFFFFFFFFFFFFFFFFFFFFFFF0D
:10040000FFFFFFFFFFFFFFFFFFFFFFFFDEF9FFFF23
:1004100010B5054C237833B9044B13B10448AFF33E
:1004200000800123237010BDB011FF1F00000000E9
:10043000F4860000084B10B51BB108490848AFF31B
:1004400000800848036803B910BD074B002BFBD0A0
:10045000BDE81040184700BF00000000B411FF1FA6
:10046000F4860000B011FF1F0000000010B5244CFE
:1004700040F6B831204600F077FE204621494FF47F
:10048000E13200F04BFE2046012100F021FE60B178
:10049000606C1D49036811225B68984720460A2159
:1004A00000F004FE204600F037FE0122002114482F
:1004B00000F022FF2021154802F0F0FA114802F066
:1004C0009FFC4FF41651124800F0BEFD1149104830
:1004D00000F0C4FD10490E4800F0C0FD0F490C4863
:1004E00000F0BCFD4FF47A7000F0B4FF0C480B2113
:1004F00001F058FA0B48BDE8104002F081BC00BF83
:100500002013FF1F4807FF1F607E0000747E00005D
:10051000CC11FF1F987E0000CC7E0000E07E000022
:10052000F07E00003807FF1F30B5814C85B02046B3
:1005300000F006FD204600F0A3FD002840F0DE801C
:100540007C4B7D491A68009200980A68824209D85B
:100550001B680293029B77489B1AB3F5FA6F06D883
:1005600005B030BD1A680192019A0A60F0E703688D
:100570000393039B0B6071486D4D072102F08EFAC7
:1005800000230A2221786E4802F04AFC3A2002F049
:1005900009FB00230A226178694802F041FC3A20F5
:1005A00002F000FB00230A22A178654802F038FC23
:1005B0002E2002F0F7FAE188614802F071FC6048F1
:1005C00002F01EFC06215F4802F068FA00230A22AE
:1005D00061795B4802F024FC2F2002F0E3FA00234B
:1005E0000A222179564802F01BFC0321564802F0EA
:1005F00055FA00230A22E178514802F011FC5048D4
:1006000002F0FEFB0521514802F048FA94F83B1035
:100610004B4802F045FC0A214D4802F03FFA94F89D
:100620003C10474802F03CFC454802F0E9FB94F8D6
:100630003B30002B94D00A21464802F02FFAA868DC
:1006400003F044FE41EC100B04213D4802F030FC65
:1006500095F8380002F0A6FA02213F4802F01EFA8F
:10066000E86803F033FE41EC100B0421344802F03B
:100670001FFC95F8390002F095FA314802F0C0FBF2
:100680000F21364802F00AFAA86A03F01FFE41EC77
:10069000100B02212A4802F00BFC294802F0B0FBA3
:1006A00007212F4802F0FAF9E86A03F00FFE41EC47
:1006B000100B0221224802F0FBFB214802F0A0FBB4
:1006C0000A21284802F0EAF9686A03F0FFFD41ECCC
:1006D000100B02211A4802F0EBFB194802F090FBC4
:1006E0000C21214802F0DAF995F83D10144802F087
:1006F000D7FB134802F084FB05B030BD204600F064
:10070000C5FC054604F03CFD0146284602F0C6F94A
:100710000B4802F075FB204600F0B8FC014620466D
:1007200000F03EF800287FF40BAF05B030BD00BFED
:10073000CC11FF1F6C13FF1F1C12FF1FFC7E00005B
:100740004807FF1F047F00000C7F0000107F00009F
:10075000187F0000247F0000307F0000347F0000FD
:10076000447F00004C7F0000587F000000B507491F
:10077000074883B000F02EFC064A074B126801922E
:10078000019A1A6003B05DF804FB00BF3807FF1F31
:10079000CC11FF1F6C13FF1F1C12FF1FFFFFFFFF79
:1007A0002DE9F047044684B008460D4604F0E8FC05
:1007B000061FAB5D2A2B00F03583C349284604F0A1
:1007C0002DFF0646002800F093812C21284604F0D6
:1007D00069FC451C284604F0EDF851EC100B04F0C0
:1007E00099F807EE900AFCEEE77AB84AB84E17EE91
:1007F000907AA2FB0712520B42F2107303FB1273A2
:10080000A6FB07E14909A6FB036364265B0906FB17
:10081000117122706370A17003F058FD9FEDA81B49
:1008200041EC100B03F046FAAA4B002251EC100BDE
:1008300003F0A0FD04F04EF82C21E080284604F0DF
:1008400031FC43782C2B804600F101055AD0294613
:1008500002220DF1100901A804F050FD4FF0000A2A
:1008600001A809F80AAD04F0ADF89B4F022207FB7E
:1008700000F708F1030101A808F1060504F03EFDA8
:1008800029460422484604F039FD01A88DF80AA043
:1008900004F098F83221914B914ADFED926A9FED76
:1008A000927A9FED926A01FB00F082FB001283FBBB
:1008B0000731FB17A2EBE070C3EB613307EE903A10
:1008C00005EE900AF8EEE77AF8EEE55A3844E5EEE0
:1008D000A67A2061C7EE876AC4ED027AFDEEE66A69
:1008E00016EE903A06FB03F607EE106AB8EEC77AEA
:1008F000F8EEE66A77EEC77A87EE867A77EE266AB2
:10090000C4ED066A28462C2104F0CCFB43782C2B3E
:1009100000F1010208D0532B00F0CE824E2B40F0A4
:10092000A6814E2384F8383010462C2104F0BAFBFF
:1009300043782C2B054600F1010658D0314603229E
:1009400001A804F0DBFC4FF0000801A88DF8078037
:1009500004F038F8604F022207FB00F7291D01A8B8
:10096000EE1D04F0CBFC314604220DF1060004F02C
:10097000C5FC01A88DF80A8004F024F83221574BF9
:10098000574A9FED587ADFED586A9FED586A01FB90
:1009900000F082FB001283FB0731FB17A2EBE07033
:1009A000C3EB613307EE903A05EE900AF8EEE77A72
:1009B000F8EEE55A6423E5EE877A3844606187EE05
:1009C000A67AC4ED037ABDEEC77A17EE102A03FBB0
:1009D00002F306EE903AF8EEE66AB8EEC77A77EEE2
:1009E000E67AC7EE866A36EE877A84ED077A304675
:1009F0002C2104F057FB43782C2B00F1010208D086
:100A0000572B00F06C82452B40F03181452384F850
:100A1000393010462C2104F045FB43782C2B00F193
:100A2000010504D0284603F0C9FF84F83C0028469D
:100A30002C2104F037FB43782C2B00F1010504D066
:100A4000284603F0BBFF84F83D0028462C2104F023
:100A500029FB43782C2B00F1010507D0284603F031
:100A6000A9FF51EC100B03F055FF606328462C21C1
:100A700004F018FB43782C2B00F1010507D0284621
:100A800003F098FF51EC100B03F044FF60622C213F
:100A9000284604F007FB2C21013004F003FB4378C7
:100AA0002C2B00F0BA81013003F084FF51EC100BC5
:100AB00003F030FF01232062184604B0BDE8F08740
:100AC000000000000000F03F687F00005917B7D118
:100AD0001F85EB5100408F408096980089B5F8142F
:100AE000565555559C53C9360000C8420000704207
:100AF000DF49284604F092FD002800F0B8802C2140
:100B0000284604F0CFFA451C284603F053FF51EC69
:100B1000100B03F0FFFE07EE900AFCEEE77AD54AD1
:100B2000DFF870E317EE901AA2FB0132AEFB01373B
:100B3000520B42F2107303FB12134FF0640CAEFB26
:100B400003E37F090CFB17115B0922706370A1702E
:100B500003F0BCFB9FEDC41B41EC100B03F0AAF8A3
:100B6000C54B002251EC100B03F004FC03F0B2FE65
:100B70002C21E080284604F095FA4378412B00F0C0
:100B80009181562B73D184F83B6001302C2104F005
:100B900089FA43782C2B054600F1010659D03146DD
:100BA00002220DF1100801A804F0A8FB4FF0000983
:100BB00001A808F80A9D03F005FFB04F022207FBC9
:100BC00000F7E91C01A8AE1D04F098FB3146042291
:100BD000404604F093FB01A88DF80A9003F0F2FE62
:100BE0003221A74BA74A9FEDA87ADFEDA86A9FEDB7
:100BF000A86A01FB00F082FB001283FB0731FB17A0
:100C0000A2EBE070C3EB613307EE903A05EE900A79
:100C1000F8EEE77AF8EEE55A6423E5EE877A384491
:100C2000206187EEA67AC4ED027ABDEEC77A17EE90
:100C3000102A03FB02F306EE903AF8EEE66AB8EEED
:100C4000C77A77EEE67AC7EE866A36EE877A84ED63
:100C5000067A30462C2104F025FA43782C2B00F13B
:100C600001021AD0532B07D04E2B00F056810023DF
:100C7000184604B0BDE8F087D4ED067AF1EE677A45
:100C8000C4ED067A43784E2B00F04781532B02D0F7
:100C90002C2BECD1002384F8383010462C2104F0A2
:100CA00001FA43782C2B054600F1010658D0314655
:100CB000032201A804F022FB4FF0000801A88DF8E0
:100CC000078003F07FFE6D4F022207FB00F7291D0E
:100CD00001A8EE1D04F012FB314604220DF10600BE
:100CE00004F00CFB01A88DF80A8003F06BFE654B45
:100CF00063499FED657ADFED656A9FED656A322293
:100D000002FB00F083FB003281FB0731FB17A2EBF3
:100D1000E070C3EB613307EE903A05EE900AF8EE0F
:100D2000E77AF8EEE55A6423E5EE877A38446061A5
:100D300087EEA67AC4ED037ABDEEC77A17EE102AC5
:100D400003FB02F306EE903AF8EEE66AB8EEC77AD5
:100D500077EEE67AC7EE866A36EE877A84ED077A12
:100D600030462C2104F09EF943782C2B00F101022F
:100D70000ED0572B40F0C780D4ED077AF1EE677A9A
:100D8000C4ED077A4378572B40F0D38084F839308C
:100D900010462C2104F086F943782C2B00F1010534
:100DA00007D0284603F006FE51EC100B03F0B2FD0D
:100DB000A06228462C2104F075F943782C2B00F111
:100DC000010507D0284603F0F5FD51EC100B03F0A8
:100DD000A1FDE06228462C2104F064F943782C2B15
:100DE0001BD0013003F0E6FD51EC100B03F072FD57
:100DF000204A284EA2FB0032520B42F21073A6FB8F
:100E0000001503FB12036D096421A6FB036301FBBC
:100E100015015B09E170627123710123184604B06A
:100E2000BDE8F087284410F8033C2F2B34D800236A
:100E300010F8022C2F2A3DD9392A37D8303AD2B2AD
:100E4000022E1A4409D902210B46695C0133DBB238
:100E50004A409E4292B21946F7D8002A3FF4ADAC00
:100E600005E700BFAFF30080000000000000F03F86
:100E7000707F00005917B7D100408F4080969800CE
:100E800089B5F814565555559C53C9360000C842CB
:100E9000000070421F85EB51392B2CD8303BDBB260
:100EA0001B01C5E7012384F83B306EE6A2F1410146
:100EB00005292FD90022C3E7D4ED067AF1EE677A2F
:100EC000C4ED067A43784E2B3FF42BAD532B03D061
:100ED0002C2B7FF4CCAE002384F8383024E5D4EDFD
:100EE000077AF1EE677AC4ED077A4378572B18D169
:100EF00084F839308DE5A3F14102052A97D8373BB4
:100F0000DBB21B0194E7452B7FF4B1AE452384F897
:100F100039303DE7373AD2B292E74E2384F8383081
:100F2000BBE6452B3FF472AD2C2B7FF4A0AE002323
:100F3000DEE7452BEAD02C2B7FF499AE002325E782
:100F400070B590F84A500DB1002070BD0446C06CD9
:100F500003681B6998470028F6D0E06C03685B695A
:100F60009847C0B20A280FD0144B154A1C68137852
:100F7000134DDBB2591CC9B21170E0541378772BB2
:100F800084BF77232B7070BD0D4A0C4B11781E68FF
:100F90000C4CC9B275541968A14209D00A490B4DCD
:100FA0001C600D600A4B0025012115701970DEE7E9
:100FB000054D064C1C602960F4E700BF2012FF1F9E
:100FC0002412FF1F2812FF1F1C13FF1FA012FF1F58
:100FD0001813FF1FF0B4164B164E174F174A1A601E
:100FE000174DC164002200243270164E3A702E60F4
:100FF00044630463C462846244620462C4608460C3
:1010000080F84A2080F83D2080F83C20427102712F
:10101000C27082704270027080F83A2080F83920E5
:1010200080F8382080F83B20C280F0BC704700BFB9
:101030002012FF1F1813FF1F2412FF1F2812FF1F6B
:101040001C13FF1FA012FF1F08B5C06C0368DB69EB
:1010500098470A20BDE8084000F0FCB938B5C46CD8
:1010600008460D4604F08CF82368024629465B6862
:10107000204698472046BDE8384001F0C1BE00BF79
:10108000014B1878704700BF1813FF1F024A034B2B
:1010900000211170186870471813FF1F1C13FF1FE1
:1010A00001F096BC01F0B8BC01F0CEBC074882B09C
:1010B00003680193019A114401E0994204D3036843
:1010C0000093009B9A42F8D902B070476C13FF1F3F
:1010D00010B4104A85B0A1B9136800934168009B11
:1010E000591A31290DD813680293029C04F1320376
:1010F000591A01E0994204D313680193019B9C4261
:10110000F8D913680393039B4360012005B05DF891
:10111000044B70476C13FF1F704700BF2DE9F0416F
:101120000D4D0E4EDFF83C800D4F41641B2401E055
:1011300000F090F92B78C82043B13378DB0705D550
:10114000D8F800303A689B1A0E2B03D8013CEFD137
:10115000BDE8F081BDE8F081CC14FF1FE414FF1F4F
:10116000CC17FF1F6C13FF1F00238364436071B112
:10117000074882B003680193019A114401E0994243
:1011800004D303680093009B9A42F8D902B07047D9
:101190006C13FF1F70B5144C84B00546406C236877
:1011A00003930368039A6A600E465B680F49062240
:1011B0009847314600230A22686C01F031FE686CC2
:1011C0000B49036808225B68984723680293029AD8
:1011D00002F1320101E0994204D323680193019B9B
:1011E0009A42F8D904B070BD6C13FF1FFC7F000059
:1011F00004800000F8B5037E0BB96320F8BD0446F7
:10120000406C3B4E03681B69B3420D466AD101F046
:101210001BFC10F0FF0F01D16520F8BD354F606C4D
:1012200003681B69B3425FD101F00EFC10F0FF0FA1
:10123000F2D0606C03685B69BB4257D101F0C8FB18
:10124000C3B2A3F158021E2AE9D801A151F822F035
:10125000DD1200001F1200001F1200001F1200000C
:101260001F1200001F1200001F1200001F120000BA
:101270001F1200001F1200001F120000D1120000F8
:101280001F1200001F1200001F1200001F1200009A
:10129000FB1100001F1200001F1200001F120000AF
:1012A0001F1200001F1200001F1200001F1200007A
:1012B0001F120000FB1100001F1200001F1200008F
:1012C0001F1200001F120000CD1200001846F8BDCA
:1012D00020462946FFF75EFF6320F8BD00232376F2
:1012E0006320F8BD984794E798479FE79847A7E79A
:1012F000A9100000A110000070B5054682B0164686
:10130000C9B101230D4C037600212846FFF772FF77
:10131000632810D023680193019A511C236800931D
:10132000009B9A42F0D89942F8D200212846FFF754
:1013300061FF6328EED12E7602B070BD6C13FF1FE3
:10134000034B00229A60DA601A615A61704700BF4D
:101350002013FF1F10B4114B53F8302092F8804235
:1013600034B1012379B182F880305DF8044B7047C5
:1013700003EBC0035B681A6851B922F002021A60DD
:101380005DF8044B704782F800315DF8044B7047FC
:1013900042F003021A605DF8044B70475880000069
:1013A0001C4A02EBC00301295B6811D004291BD041
:1013B00052F83000002280F8802229B1022920D082
:1013C000032922D01A6070474FF480721A60704768
:1013D00052F830004FF4A27280F880121A601A6836
:1013E00022F020021A60704752F830104FF4A272B7
:1013F000012081F880021A601A6842F020021A6007
:10140000704740F203121A6070474FF481721A60FD
:10141000704700BF5880000030B4054B054D064CA6
:10142000002210211A602A602060196030BC7047C9
:1014300014D0034004D0034000D003403F2801D81B
:10144000FFF788BF704700BF3F2801D8FFF7A8BF4C
:10145000704700BF2DE9F843054672B6224F234B73
:10146000234A1B683C68126862B6520102D5322BCF
:1014700088BF0134B5B3C3F52F3303F21F331D4EBC
:10148000DFF86890DFF868809B084FF47A72A6FB5B
:10149000031302FB04F404EB930472B6D9F80010B2
:1014A0003A68D8F800E062B6C1F52F3303F21F3373
:1014B0009B08A6FB03031EF0806FC4EB93034FF45D
:1014C0007A7002D0322988BF013200FB0233B3F5B3
:1014D0007A7F04D3013D05D004F57A74DDE701F08D
:1014E000D3FDDAE7BDE8F8836C13FF1F18E000E0D6
:1014F00004ED00E0176CC116F8B54E4B4E48DFF80E
:101500005CC14E4C4E49DFF858E14E4E4E4D4F4FA8
:101510004FF000621A604FF080521A604FF0005294
:101520001A604FF080421A604FF000421A600022A9
:10153000026028234EF6FF70CCF80000CEF8003091
:1015400023600EF5012E0B6033602B6006F500263C
:101550003B6005F50025A36207F500278B6204F5C3
:10156000012401F5012106F6E87605F6E87507F590
:101570007F6710310EF1100E203433602B60CEF8EF
:1015800000303B600B602360314CBB618B610921F3
:101590002160A7F5002704F58054203F08343A6005
:1015A0002060BB60E36047F8041C04F5FD2407F5E8
:1015B000FE27043704F2FC7422603860A360FB60ED
:1015C00044F8041C083404F6FC74C7F8FC2F2060AF
:1015D000A4F5E124A4F2DC7433602B60C7F8F81F93
:1015E00021681C4841F40071216001681A4C0EF515
:1015F0007F4E0EF1E80E07F5883706F5803605F5C3
:10160000803541F000710160CEF8002047F6FF718F
:101610000822396033602B60226001F031FE19200E
:10162000FFF718FF01F00EF940F21310BDE8F84083
:10163000FFF710BF04E100E0048003401480034082
:101640001C800340248003402C80034034800340EE
:10165000008003400480044000900C400880034058
:101660000C8003402DE9F84F214B1B6807460BB156
:1016700001221A70DFF888901E4D99F80040DFF8BB
:1016800084801D4E0134272C8ABF4FF0000A5FFA78
:1016900084FA5446AB462B78A34216D101F0A6FE3D
:1016A00040281FDC33791B06F5D59BF80030013349
:1016B000272B86BF00221346DAB218F80330DBB2BC
:1016C000F3712A702B78A342E8D00C490A4BFFB281
:1016D00008F804700120AC22087089F800A0DA70C4
:1016E000BDE8F88FFF28D6DD01F0CEFCD3E700BFC0
:1016F000E413FF1FE113FF1F00A00E40E013FF1FC4
:10170000E813FF1F7813FF1F1B4BDFF890C01A6808
:101710001A49F0B542F48062194D1A60DFF880E092
:10172000184F194E194C00238CF800304FF45172A9
:101730002B701F2840F213358EF800303B70337049
:1017400025600A6011D819460124114A114D117003
:101750001148547000212C27402693720424917064
:101760001174D7702E700460F0BDC0F34431C0F323
:10177000471400F01F03E8E72880044060D00440CD
:101780007513FF1FE113FF1FE013FF1F64D0044018
:1017900000A00E4042E400E008E100E07413FF1FE7
:1017A000E813FF1F194B19499B7803F0EC0200F076
:1017B00003031343420700F00F0248BF43F0100336
:1017C000042A8B701CD0114B104A5B79C10603F0C0
:1017D000EF0348BF43F0100353719379820603F07F
:1017E000EF030A4A48BF43F010039371C30506D5BF
:1017F00053781178DBB241F02001117053707047BB
:101800008B7943F040038B71DDE700BF00A00E40F1
:10181000F8B5114B1B685B051CD5104C237823B120
:1018200001F032FC2378002BFAD10D4B0D4F0E4EF8
:101830000E4D0F4C0F48104904221A600023FB7014
:1018400040F2031232602A60226803700B7012B1FA
:1018500001231370F8BDF8BD28800440E013FF1F7A
:1018600088E100E000A00E4064D0044060D0044055
:101870007013FF1F7413FF1F7513FF1F0A4A38B53B
:101880000546137803F0FF04002BFAD10121284606
:10189000FFF7DAFD21462846FFF7D0FD034A044B47
:1018A00052F835201A6038BDE013FF1F5880000041
:1018B000E413FF1F09B140F08000104A13789842EA
:1018C0001AD010B40E4C2468640512D503F07F03BF
:1018D000212B02D10B4B00241C60002900F07F0358
:1018E00014BF60214421212B03D1064B41F44071E8
:1018F000196010705DF8044B704700BF3007FF1F80
:101900002880044060D00440704700BF0D4B1B6826
:1019100013F4806305D03F2805D90B4B00201860D5
:10192000704718467047094B10B5074C53F83030D4
:1019300023600121FFF788FD236800221A7001202F
:1019400010BD00BF288004407013FF1F58800000A6
:101950000C4B1B6813F4806306D0182806D00A4A83
:10196000537B03F0FE03537300207047074B064A76
:1019700040F202311960537B43F00103537301209D
:10198000704700BF2880044000A00E4068D004408B
:10199000034B1B685B0501D5FFF764BE704700BFB2
:1019A0002880044070B5094E04464518AC4204F145
:1019B00001040AD033685B05F8D514F8010CFFF771
:1019C00051FEAC4204F10104F4D170BD2880044002
:1019D00010B5044C237823B101F056FB2378002B7B
:1019E000FAD110BDE013FF1F064A074B1B78107891
:1019F000DBB2C0B283422CBF273000F1FF30C01AE7
:101A0000704700BFE113FF1FE813FF1F054A064B95
:101A100010781B78C0B2DBB2984238BF4030C01A91
:101A2000704700BF7413FF1F7513FF1F30B4154BB1
:101A3000154C1A782378D2B2DBB29A421ED0013309
:101A40003F2B0ED91149124B087819680023C0B2F8
:101A5000237021B1D31A1A2B01DC00230B7030BC88
:101A600070470A480A49C05C0968DDB2C0B22570F7
:101A70000029F4D09A4238BF4032EBE74FF0FF30F4
:101A8000EDE700BF7413FF1F7513FF1FA013FF1FA7
:101A90007013FF1F084A094B12781B78DBB29A4279
:101AA00007D00133402B28BF0023054AD05CC0B2C9
:101AB00070474FF0FF3070477413FF1F7513FF1FFF
:101AC000A013FF1F054B064A1B7806491268DBB2BC
:101AD0000B700AB100231370704700BF7513FF1F0E
:101AE0007013FF1F7413FF1F30B42B4B1A79940629
:101AF0001FD52A48DA790378294901333F2B097821
:101B0000C8BF00238B42D2B203D0264CD9B2E254D4
:101B10000170254A116861B1244A1278D2B2934209
:101B200036BFC2F140029B1A9B18272BC4BF01236A
:101B30000B70194AD378DBB2180611D45A060DD5AA
:101B4000154B1B795B0609D5194B1A491B680022F6
:101B50000A7003B11A70104B2C22DA7030BC704737
:101B600011790906EAD5144910480C780178C9B2F0
:101B70008C420DD04A1C272A84BF00210A460F4DF3
:101B8000054C98BFD1B2AA5CD2B2E2710170D5E720
:101B90006C21D170D2E700BF00A00E407413FF1F6C
:101BA0007513FF1FA013FF1F7013FF1FE113FF1F0B
:101BB000E413FF1FE013FF1FE813FF1F7813FF1F3D
:101BC000431E032B14D872B60A4951F8230068B19A
:101BD00070B4094C058834F81320466841F8236036
:101BE000521B24F8132062B670BC704762B670476F
:101BF000002070474414FF1FBC17FF1F0138032843
:101C00000BD872B6074B53F8203043B100205B6805
:101C10000130002BFBD162B6704700207047184698
:101C2000F9E700BF9814FF1F30B472B62B4A13783F
:101C30001D0706D52A4B196A002936D0996A002952
:101C400041D053781C0706D5254B196C00293ED08E
:101C5000996C002939D09378190705D5204B196E56
:101C6000002936D0996E89B1D3781B0707D51C4B54
:101C7000D3F880207AB3D3F8882011213AB162B624
:101C8000184B00221A7030BC00F07CBE0D21154CA0
:101C9000154D227843F8315003EBC1030830013A67
:101CA0005860227062B630BC704704220D4C0F4D54
:101CB000217843F8325003EBC20308304A1E5860C3
:101CC000227062B6EFE70521E1E70921DFE708228C
:101CD000ECE70C22EAE71022E8E700BFF082000000
:101CE0000000FF1FC114FF1FC80040008800400013
:101CF000431E032B1DD81B4A400140F0100030B496
:101D0000104472B6184CE25C032A1BD8DFE802F0DC
:101D10000212151703220D88E25410F0080F14BFA9
:101D2000C823882343EA054308310360416062B653
:101D300030BC704708300222EDE70522EBE708309F
:101D40000422E8E7094A52F8230038B1084A52F859
:101D50002300416042F8231062B6E9E742F82310FD
:101D6000034AF7E70000FF1FD014FF1F9814FF1F5E
:101D7000A814FF1F2DE9F04FDFF80CB3DFF80CA318
:101D800087B044E0AB4F4FEA930807EBC809013E28
:101D9000D9F8042003F00803F6B2A2F1080003F01A
:101DA000FF04002B40F0028157F838301B0C99B229
:101DB00022F8081C002B00F0F0809F4B22F8064C04
:101DC00042F8044C53F82620002A00F0C5829B4DAF
:101DD00055F8263058609A4C45F8260034F81630ED
:101DE000194424F8161000F0ADFD002800F0AD8273
:101DF000944A954B19F0080F00F1080018BF1346DC
:101E0000C9F8040047F8383008238BF800309BF8F5
:101E10000040E4B261071AD58C4B1B78A3B18C4902
:101E20000A7802F0FF0322B1013BDBB20B7003B969
:101E300000BE88490A7802F0FF032AB1013BDBB2F9
:101E40000B70002B00F0578204238BF8003004F055
:101E5000080303F0FF02002B00F0CC809AF800305A
:101E6000DBB21E098ED19C08DFF8C89159F83420E6
:101E700009EBC401C2F38302013A49680C2A00F25B
:101E80008880DFE802F07C7C8686868686864786A8
:101E9000868607000868704D4A68704F704E28604B
:101EA00081B240F28160674B6A604FF0010E002200
:101EB000814249F834303A60C9F81020C9F8182036
:101EC00086F800E05B4C00F2E380B1F5D06F80F063
:101ED0004683B1F5817F00F0FC8200F28D8280297B
:101EE00000F07783822940F0FA82A98801F07F010F
:101EF000042900F2F4825B485B4C8900084422709C
:101F000062700278930740F1588484F800E04FF043
:101F1000020E42E3514F3A6832B3544B504E54498B
:101F2000188834780D784028864645F0020828BF86
:101F30004FF0400E002C84F001043470CEEB000012
:101F40000CBF8824C82409EBC80680B285F00105BF
:101F500044EA0E447260188049F8384072440D70AB
:101F6000002800F045813A603B4B1A88B2F5A06F1B
:101F70000FD100219A7859703E4B1A7009E0364A09
:101F8000108842F22102904200F037812D4A49F830
:101F90003420394A0123137036E72A4A2A4B19F0B4
:101FA000080F18BF134647F838302DE700F0EAFC59
:101FB000324A334952F82630002B00F0D18158685C
:101FC0008C5D42F8260003F10802C9F80420032CB6
:101FD00005D8DFE804F02C02292602228A551A8847
:101FE00019F0080F0CBF8823C82343EA024347F8BF
:101FF000383009E7E00700F18181210600F1F28124
:10200000A20706D51F4A204913780220DBB21370BD
:102010000870E30602D51C4B10221A7007B0BDE809
:10202000F08F04228A55DAE705228A55D7E7032282
:102030008A55D4E70000FF1F4414FF1FF013FF1F51
:10204000BC17FF1FC800400088004000CC14FF1FD1
:102050005514FF1FD414FF1FB814FF1FEC13FF1FEC
:102060005414FF1FC0200740C414FF1F0014FF1F9B
:10207000C014FF1F98200740942007409814FF1FAA
:10208000D014FF1F88200740802007409020074081
:1020900042F22100814200F02A8100F2D880B1F59D
:1020A000086F00F07682B1F5106F40F01882226A56
:1020B000B349A8780870120600F13A83D9F82820AD
:1020C000B049130600F10C83D9F83020AD4915064C
:1020D00000F10183D9F83820AA49140600F1F682EC
:1020E000D9F84020A749100600F14A83D9F84820C2
:1020F000A449120600F13F83D9F85020A1491306E4
:1021000000F13483D9F858209E49150600F129833F
:10211000D9F860209B49140600F11E83D9F8682085
:102120009849100600F11383D9F8702095491206DA
:1021300000F10883D9F878209249130600F1FD8256
:10214000D9F880208F49150600F13183D9F888200D
:102150008C49140600F12583D9F89020894910068E
:1021600000F11983D9F898208649120600F10D83F1
:102170008548864A864901908648874D874C049752
:1021800000230596029580460F4616461D46039489
:10219000306828B1446800F0F5FB2046002CF9D1E6
:1021A00000233360029B38681A46002342F825302A
:1021B00028B1446800F0E6FB2046002CF9D100224B
:1021C0003A60019A98F800301146002241F8042B39
:1021D000039A0191023B4FF0000122F81510032BE6
:1021E00000F22B81DFE813F0700125017001250159
:1021F000BEF1400F18BF0022B5E6694A0D78487855
:10220000157050708D78C8789570D07010680D7901
:10221000157186284D7989795571917100F09B81EE
:102220006049614E0A78307882F00105002842F05A
:1022300002020D700CBF8821C82149F8321009EB49
:10224000C20280F001000021307051609EE642F22F
:102250002120814240F0CB81544B554C5549A87800
:102260001D682560CDF804E00870002002908046CB
:10227000844604464B490D7845F0020E09EBCE0327
:102280000393019B002B039B5C600CBF8824C82434
:1022900044EA080385F0010449F83E3032700C70BE
:1022A000DFF8E0E0404BDFF8FC80002840F01E81C2
:1022B000BCF1400F1BD144F0020C09EBCC03029C93
:1022C000DFF8C0E05C60002A40F02681020442F0A2
:1022D00088029DF804304EF83C20044433700D70A1
:1022E0002346402803D10020334A3B601080334A04
:1022F000012313704DE600F0B1FCA5E5214B2F48FA
:1023000028491A614FF0020E80F800E02C4F0A7045
:102310002C49196099602C4E2C4D2D4C9A610D2141
:102320003970FF213170DFF8B8E029702270294D33
:10233000294A8EF800109F27012406F8047C5D606E
:102340000470DA6007B0BDE8F08F244A47F838001F
:1023500013780133137057E543F826000E4D3AE524
:102360008B5D032B00F2F08001A252F823F000BF36
:10237000091E0000091E00002D2400002724000073
:10238000CC14FF1F0000FF1FA814FF1F4414FF1FE1
:102390009814FF1FD014FF1FF013FF1FBC17FF1F5F
:1023A000C417FF1FC014FF1F5414FF1F6C13FF1F1F
:1023B000CC17FF1FE414FF1F0014FF1F94200740D9
:1023C000C020074088004000882007408020074048
:1023D000982007400414FF1F5814FF1FC114FF1F4B
:1023E0008C200740C149C24B80220D2008701A7012
:1023F000A2077FF50EAE05E640F20232914240F0B0
:10240000EE80A98801F07F01042968D86A88002A33
:1024100065D1B648CDF804E089000844017841F060
:102420000201017021E701238B55EDE400238B5558
:10243000EAE44FF0010388F800300135042D06F17D
:10244000040607F1040708F101087FF4A1AEA94CC6
:10245000A94B2278A94D049F059E002129701A706E
:10246000130700F105816278A549DFF8A0820A70A0
:1024700010074FF00001C9F83010C9F8381000F10A
:10248000E080A049A2780A700021C9F85010C9F86C
:1024900058101107DFF8748200F10181E2789A493F
:1024A0009A4C0A7000211207C9F87010C9F8781008
:1024B00000F1B08033780193002183F00102C9F864
:1024C0009010C9F89810D0E64FF0000388F800305B
:1024D000B3E7A98801F07F01042940F28D80834A87
:1024E0000F2313708A4A0123137052E540287FF6A8
:1024F000E2AE44F002040EEBC401029E4E60BAB19B
:102500009DF80410834A19703346403888F800500B
:1025100040334EF83420E7E69DF80430337002046F
:10252000029B0D7042F0C80203444EF83C20D8E6EE
:102530009DF804101970029B774A88F800504038C3
:1025400040334EF83420CFE619F0080F0CBF0223B9
:1025500003238B5558E4714A0F21117060E6704ACD
:102560005468002CBBD06888B5F804E003E00C3256
:102570005468002CB3D013888342F8D15388734534
:10258000F5D1000A03280CBF94F800E0B2F808E087
:1025900003E0644A644C12782270E888704580F049
:1025A0003F8162490D784028844645F0020E28BFDD
:1025B0004FF0400C04EB0C0309EBCE020293012315
:1025C0005460CCEB00004FEA0C4800220193C82471
:1025D0005EE6554C4FF0020E22706270DDE7B1F5F9
:1025E000A06F7FF47CAF0123002201933DE642F20D
:1025F00021329142F7D072E76A88002A7FF46FAFE8
:102600003A48CDF804E089000844017821F002013D
:1026100001702AE600F096F9002800F0EF800830FB
:102620003D4AC4F88400C4F8802000F08BF90028EB
:1026300000F0DE800830374AC9F88C00C9F88820DD
:1026400038E700F07FF9002800F0C0800830324AF7
:10265000C8F84400C8F8402000F074F9002800F0E1
:10266000AF8008302B4AC9F84C00C9F8482008E769
:1026700000F068F9002800F0CD800830264AC9F83B
:102680002400C9F8202000F05DF9002800F0BC808B
:102690000830204AC9F82C00C9F82820E3E600F0E9
:1026A00051F9002800F09E8008301B4AC8F86400E9
:1026B000C8F8602000F046F9002800F08D8008304E
:1026C000144AC9F86C00C9F86820E7E6C86B0838F6
:1026D00000F058F904E5486B083800F053F9F9E4C4
:1026E000C86A083800F04EF9EEE400BFC020074089
:1026F00080200740F0820000C4200740C114FF1F63
:10270000C8200740CC200740D02007400000FF1F12
:1027100094200740C8004000880040005514FF1F67
:10272000F4820000CC14FF1FC414FF1FC014FF1F4D
:10273000606A083800F026F9C0E4C86F083800F075
:1027400021F9FDE4486F083800F01CF9F2E4C86E86
:10275000083800F017F9E7E4486E083800F012F97D
:10276000DCE4C86D083800F00DF9D1E4486D083894
:1027700000F008F9C6E4C86C083800F003F9BBE4BF
:10278000486C083800F0FEF8B0E4D1F89C00083836
:1027900000F0F8F8ECE4D1F89400083800F0F2F812
:1027A000E0E4D1F88C00083800F0ECF8D4E4D1F87B
:1027B0008400083800F0E6F8C8E44FF0020EECE6BA
:1027C0002A78C9F8480001322A705AE62A78C8F8EF
:1027D000400001322A703FE72A78C9F868000132C8
:1027E0002A705BE62A78C8F8600001322A7061E737
:1027F0002A78C9F8880001322A705BE62A78C4F882
:10280000800001322A7010E72A78C9F828000132C6
:102810002A7028E62A78C9F8200001322A7032E7A7
:10282000BEF1400FF44628BF4FF0400C04EB0C0300
:1028300002930123CCEB0E004FEA0C4800220193D7
:1028400018E500BF2DE9F04101F0EEF8314C324BB4
:102850003248DFF8E480324EDFF8E0C0314F324DCD
:10286000DFF8DCE000221A605A609A60DA601A61D0
:102870005A619A61DA611A625A629A62DA621A637A
:102880005A639A63DA631A645A649A64DA641A655A
:102890005A659A65DA651A665A669A66DA661A673A
:1028A0005A679A67DA67C3F880202168C3F88420E2
:1028B00041F480212160016841F0407101600321F1
:1028C00088F80010A020C3F307218CF8000004F55D
:1028D00028343170C3F30740144938701B0E2B7035
:1028E000CC34FF238EF80030114D0CF8B83C114861
:1028F0000B70012306F8083C227070264FF4001478
:10290000102207F82C3C2E70046081F8F820BDE8F6
:10291000F08100BF348004400000FF1F00D8004059
:102920009C200740B0200740B420074010200740FB
:1029300035E400E004E100E0442107404021074085
:102940008020074072B60D480268B2FA82F30B2B62
:1029500010DC4FF00041D94022EA0102026062B669
:10296000074803EBC303DB00C2180021C150104627
:102970005160704762B60020704700BF3407FF1FE8
:10298000D003FF1F0D4B0E4AC31AA2FB03231B09E2
:102990000B2B0CD80B4A127852B972B60A484FF07A
:1029A0000041026821FA03F31A43026062B67047DD
:1029B000064A1278002AF0D0FFF736B9D003FF1F7D
:1029C000398EE338C114FF1F3407FF1FCC14FF1FDB
:1029D00038B50F4D286878B143880288C118013393
:1029E00093420C7A02D24380204638BDFFF7CAFFDB
:1029F000002320462B6038BD064B1B782BB10320EB
:102A0000FFF7DEF828600028E6D14FF0FF3038BD30
:102A1000E014FF1FCC14FF1F10B5094C206818B13B
:102A200043881844007A10BD064B1B782BB1032055
:102A3000FFF7C6F820600028F2D14FF0FF3010BD3C
:102A4000E014FF1FCC14FF1F044B054A1B6890883D
:102A50001BB11A885B88D31A18447047E014FF1F13
:102A6000BC17FF1F0B4B1B789BB110B50A4C20689D
:102A700048B1FFF787FF002303202360FFF7A0F88A
:102A800030B1FFF77FFF0320FFF79AF80028F8D155
:102A900010BD7047CC14FF1FE014FF1F2DE9F04F4D
:102AA000DFF8F89083B0012289F80020019169B322
:102AB000DFF8EC80354F019E8346D8F80000B0B3B4
:102AC000334D4488C4F14001B14228BF314604EB84
:102AD000010E00221FFA8EFE2A70761AA0F802E07C
:102AE00000F1080251B1013C224459441BF8014B4A
:102AF00002F8014F8B45F9D1B0F802E0BEF13F0F6B
:102B00000BD8244A05211170002ED6D1019800233C
:102B100089F8003003B0BDE8F08F40220280014602
:102B20000420FFF7E5F80022C8F80020E9E73A782A
:102B300022B3194C164D4FF0010A07E0013C16D0A4
:102B40002A78A2B900F0A0FA3A78BAB10420FFF7C7
:102B500055F80728F2D889F800A0FFF7F3FEC8F867
:102B600000000028ADD10D4B013C1870E8D10123C5
:102B70004FF0FF302B7003B0BDE8F08F00234FF013
:102B8000FF3089F8003003B0BDE8F08FCC14FF1F90
:102B9000DC14FF1FD414FF1F21480100D514FF1FB0
:102BA000D814FF1F00B583B002AB012103F8010D5B
:102BB0001846FFF773FF03B05DF804FB38B50E4D00
:102BC0000E4C28680123237028B14088002323700D
:102BD000C0F1400038BD0A4B1B7813B900202070AB
:102BE00038BD0420FFF70AF80728F7D8FFF7AAFE38
:102BF00028600028E9D1F1E7D814FF1FD514FF1F82
:102C0000CC14FF1FF8B5114B1B788BB1104E114D32
:102C1000346801272F7064B10F4A6388002717704A
:102C2000214623800420FFF763F8376000232B70D0
:102C3000F8BDFFF787FE084B28B1014604201C7041
:102C4000FFF756F8F2E71F70F0E700BFCC14FF1F44
:102C5000D814FF1FD514FF1FD414FF1F38B50E4B17
:102C60001B7873B90D4C216861B103F0FF054B88E7
:102C70000B800420FFF73CF8256038BD084B01228B
:102C80001A7038BDFFF75EFE0028F7D00146BDE898
:102C900038400420FFF72CB8D514FF1FD814FF1FAD
:102CA000D414FF1F08B50846FEF772FE012008BDC8
:102CB00008B50846FEF76CFE012008BD38B5084689
:102CC0000D4602F05DFA044601462846FEF76AFE0C
:102CD000204638BD10B5084614461146FEF762FE80
:102CE000204610BDFEF7EEBE08B50846FEF730FEE2
:102CF000003018BF012008BD08B50846FEF706FEE3
:102D0000003018BF012008BD08461146FEF7D2BDAD
:102D10000846FEF7F9BD00BF0846FEF7AFBD00BF8D
:102D2000FEF776BD034B03EB5100B0FBF1F0FEF76D
:102D3000EBBC00BF000E270710B5064B144603EB93
:102D40005100B0FBF1F0FEF7DFFC2046BDE810407B
:102D5000FEF728BD000E2707FEF79CBEFEF766BEF5
:102D6000FEF754BEFEF734BEFEF73EBE0368064AC9
:102D70001B68934205D110B5C8B2FEF709FE0120C9
:102D800010BDC9B2184700BFB12C00000368064A45
:102D90001B68934205D110B5C8B2FEF7F9FD0120BA
:102DA00010BDC9B2184700BFB12C00000368064A25
:102DB0001B68934205D110B5C8B2FEF7E9FD0120AA
:102DC00010BDC9B2184700BFB12C00000368064A05
:102DD0001B68934205D110B5C8B2FEF7D9FD01209A
:102DE00010BDC9B2184700BFB12C0000704700BF2A
:102DF00008B5FDF73BFBFDF797FB00F045F9FAE757
:102E000000B5064A036812885B6883B001A9ADF873
:102E100004200222984703B05DF804FBB88200004A
:102E2000F0B507468BB0002A33D0012A08BF0A222A
:102E300051B3212400E0F4B2B1FBF2F502FB15110D
:102E4000C8B2092900F1300198BFC8B20AA988BFE9
:102E50003730214488BFC0B201F8240C661E2946D1
:102E6000002DE8D133B1013CE4B20AAB23442D225A
:102E700003F8242C3B6801AA11195B683846C4F199
:102E8000220298470BB0F0BD30228DF82520212476
:102E9000E8E70368C9B21B6898470BB0F0BD00BFF4
:102EA0000029BABF49422D2300230A22FFF7B8BFE9
:102EB0002DE9F04357EC106B85B005460C4610EE3B
:102EC000102A3B4610EE100A394601F0EDFC0028AE
:102ED00040F0B28027F00049304649464FF0FF32BB
:102EE000594B01F0E1FC90B9304649464FF0FF32B2
:102EF000554B01F0BBFC50B92B6854495B68284620
:102F0000032298478046404605B0BDE8F0834FF065
:102F100060424F4B3046394601F0BCFC002872D16C
:102F20004FF060424B4B3046394601F095FC00288B
:102F300069D1002200233046394601F08DFC00287B
:102F400064D18146002C67D0434900204FF000082F
:102F50003BA3D3E9002308F1010801F00BFA5FFA63
:102F600088F39C42F4D802460B463046394601F0BD
:102F70004FF80F46064601F0ADFC804601F084F99B
:102F800002460B463046394601F040F84B460646AD
:102F90000F460A2241462846FFF742FF0F2C28BF62
:102FA0000F2404F101092E2380465FFA89F98DF878
:102FB000003001240022294B3046394601F0DAF96D
:102FC0000F46064601F086FC04AB2344C0B200F174
:102FD000300203F8102C01F067F902460B46304628
:102FE000394601F013F80134E4B24C4506460F4669
:102FF000E0D12B6822465B682846694698474046E0
:1030000005B0BDE8F0832B68154977E707F1004369
:103010001F464FF0010995E700220F4B3046394615
:1030200000F0F6FF01F056FC4B4601460A22284606
:10303000FFF7F6FE804666E72B680A495EE700BFA9
:10304000000000A09999B93FFFFFEF7FC482000004
:10305000FFFFEF41FFFFEFC10000E03F0000244011
:10306000C0820000BC820000FFF7FCBCFFF7CABDB5
:10307000FFF7A4BD08461146FFF710BD0846FFF74D
:1030800091BD00BF704700BF38B52C4C237803B109
:1030900038BD01232370FFF7D7FC002842D100F090
:1030A0001DFA00283BD100F0AFFA002834D100F01F
:1030B00041FB70BB00F0BAFB40BBFEF7A7FC10BBA6
:1030C00000F030FCE0B900232370EFF30583002B00
:1030D000DED1EFF3108172B6194B186828B3194C82
:1030E000227812BB45691D60012323700DB3AA61CC
:1030F00001B962B600254577836898472570C7E710
:1031000000F0D6FDDFE7FFF771FED9E700F0CEFD56
:10311000D3E700F0C9FDCDE700F0C4FDC7E700F03C
:10312000BFFDC0E7FFF7AEFFB9E70029B0D162B637
:1031300038BD054B1D600029DCD1DAE7E514FF1F1F
:103140007C17FF1F8017FF1F7817FF1F844641EA77
:10315000000313F003036DD1403A41D351F8043B0F
:1031600040F8043B51F8043B40F8043B51F8043B61
:1031700040F8043B51F8043B40F8043B51F8043B51
:1031800040F8043B51F8043B40F8043B51F8043B41
:1031900040F8043B51F8043B40F8043B51F8043B31
:1031A00040F8043B51F8043B40F8043B51F8043B21
:1031B00040F8043B51F8043B40F8043B51F8043B11
:1031C00040F8043B51F8043B40F8043B51F8043B01
:1031D00040F8043B51F8043B40F8043B403ABDD270
:1031E000303211D351F8043B40F8043B51F8043B12
:1031F00040F8043B51F8043B40F8043B51F8043BD1
:1032000040F8043B103AEDD20C3205D351F8043BA0
:1032100040F8043B043AF9D2043208D0D2071CBF6C
:1032200011F8013B00F8013B01D30B880380604695
:10323000704700BF082A13D38B078DD010F003030B
:103240008AD0C3F10403D21ADB071CBF11F8013B7B
:1032500000F8013B80D331F8023B20F8023B7BE7CA
:10326000043AD9D3013A11F8013B00F8013BF9D2F5
:103270000B7803704B7843708B788370604670478F
:1032800030B42948294A2A4B2A4D6024E121047090
:1032900011701B78284C082B30D00A2B274828495E
:1032A00037D00C2B0CBF35225D2212232A602360FD
:1032B00002600B60234B24491B78244ABBB10123D5
:1032C0000B601360224B23491B78234A012B26D91C
:1032D000042B0FD9082B1ED9102B94BF86238723CC
:1032E0000B6013601D4B01221A7030BC70470B60DD
:1032F0001360E7E784230B601360F3E700F58E208B
:103300000F490830212213232A60236002600B60DA
:10331000D0E73922F7E785230B601360E2E78023CB
:103320000B601360DEE700BF00400740014007402C
:103330005807FF1F08B003400CB0034008B00B4013
:103340000CB00B40E714FF1F20B0034020B00B402F
:103350005907FF1F24B0034024B00B40E614FF1FA1
:1033600008B5104C08E0236859050DD423681A05E8
:103370000FD42368DB0411D423685803F3D5FEF778
:10338000F9FC23685905F1D500F0B8F823681A054F
:10339000EFD500F049F92368DB04EDD500F0DAF948
:1033A000EAE700BF3480044008B5FFF7D9FF00BF4B
:1033B000014B10221A80704700200540704700BF63
:1033C000094908B50B6830B16A461844A2F50052A5
:1033D000904202D20860184608BD01F0F7FA0C23AB
:1033E00003604FF0FF3008BD5C07FF1FEFF3138051
:1033F00070B9EFF310836BB9EFF305825AB94FF44C
:103400008070EFF311832BB1984228BF18467047A4
:103410004FF0FF3070470F2A01D81846F1E7014BF3
:10342000D05CEEE7F0E300E0084A1378802B01D08F
:10343000002070470649074B0748086000211970B3
:103440001378802BFCD00120704700BF03E00740B9
:103450004480044001E0074000002822094A137814
:10346000012B01D00020704703F1804303F5FC23BA
:10347000602119701378802BFCD1034B034A1A602A
:103480000120704703E0074044800440000006022A
:10349000F0B44D1E2E46002400E00134B0FBF2F3E0
:1034A00002FB1300092800F130078ABF3730F8B259
:1034B000C0B206F8010F1846002BEED10A1953705E
:1034C0004CB1107815F8016F28700133E01A83426F
:1034D00002F80169F5DB0846F0BC7047054A064B67
:1034E00010781B78C0B2DBB2984238BF4030C01AA7
:1034F000704700BFEC14FF1FED14FF1FF0B4384BF2
:103500001A7912F0300F2CD072B6997D01F0FF02BB
:1035100000293DD062B6334F334938780D78334EA9
:103520001C46C0B2EDB2431C402BE17928BF0023FA
:10353000AB4202F1FF32C9B21CBFF154184612F07F
:10354000FF02F0D12A4B1B68C2B23A704BB1A842BD
:1035500036BFC5F14005401B40192728C4BF0122D2
:103560001A701F49CA78D2B2150616D452060DD564
:103570001B4B1B795B0609D51E4B1F491B6800229C
:103580000A7003B11A70164B3C22DA70F0BC704717
:103590004022D9795A7462B6E3E70B791C06E5D567
:1035A000164B174E1C783378E4B2DBB29C420ED037
:1035B000144D01E0A3420AD00133402B28BF002361
:1035C0000879E85CC0B2C871087D0728F2D9DBB27F
:1035D000034933700B79180644BF7C23CB70C5E7D1
:1035E00000A00640EC14FF1FED14FF1F3015FF1F55
:1035F000E814FF1F7415FF1F7015FF1F7815FF1FBC
:103600007115FF1FF014FF1F054A064B10781B7839
:10361000C0B2DBB2984238BF4030C01A704700BF1A
:10362000EC15FF1F8115FF1FF0B4384B1A7912F00B
:10363000300F2CD072B6997D01F0FF0200293DD0E9
:1036400062B6334F334938780D78334E1C46C0B2DA
:10365000EDB2431C402BE17928BF0023AB4202F1BD
:10366000FF32C9B21CBFF154184612F0FF02F0D16C
:103670002A4B1B68C2B23A704BB1A84236BFC5F1A3
:103680004005401B40192728C4BF01221A701F495A
:10369000CA78D2B2150616D452060DD51B4B1B792B
:1036A0005B0609D51E4B1F491B6800220A7003B137
:1036B0001A70164B3C22DA70F0BC70474022D97960
:1036C0005A7462B6E3E70B791C06E5D5164B174E24
:1036D0001C783378E4B2DBB29C420ED0144D01E08A
:1036E000A3420AD00133282B28BF00230879E85CC5
:1036F000C0B2C871087D0728F2D9DBB20349337024
:103700000B79180644BF7C23CB70C5E700B0064098
:10371000EC15FF1F8115FF1FAC15FF1F7C15FF1F48
:10372000F015FF1F8015FF1FF415FF1FED15FF1F7C
:103730008415FF1F054A064B10781B78C0B2DBB218
:10374000984238BF4030C01A704700BFFC15FF1FB9
:10375000FD15FF1F30B42B4B1A7994061FD52A484C
:10376000DA790378294901333F2B0978C8BF002350
:103770008B42D2B203D0264CD9B2E2540170254A12
:10378000116861B1244A1278D2B2934236BFC2F1B5
:1037900040029B1A9B18272BC4BF01230B70194AA8
:1037A000D378DBB2180611D45A060DD5154B1B7908
:1037B0005B0609D5194B1A491B6800220A7003B130
:1037C0001A70104B2C22DA7030BC70471179090640
:1037D000EAD5144910480C780178C9B28C420DD052
:1037E0004A1C272A84BF00210A460F4D054C98BF6A
:1037F000D1B2AA5CD2B2E2710170D5E76C21D1706E
:10380000D2E700BF00C00640FC15FF1FFD15FF1FDB
:103810002816FF1FF815FF1F6916FF1F6C16FF1FE4
:103820006816FF1F7016FF1F0016FF1F054A064B84
:1038300010781B78C0B2DBB2984238BF4030C01A53
:10384000704700BF7816FF1F7916FF1F30B42B4B4F
:103850001A7994061FD52A48DA7903782949013361
:103860003F2B0978C8BF00238B42D2B203D0264C2D
:10387000D9B2E2540170254A116861B1244A127824
:10388000D2B2934236BFC2F140029B1A9B18272B3B
:10389000C4BF01230B70194AD378DBB2180611D4C8
:1038A0005A060DD5154B1B795B0609D5194B1A49DC
:1038B0001B6800220A7003B11A70104B2C22DA70B8
:1038C00030BC704711790906EAD5144910480C78C4
:1038D0000178C9B28C420DD04A1C272A84BF00212E
:1038E0000A460F4D054C98BFD1B2AA5CD2B2E27124
:1038F0000170D5E76C21D170D2E700BF00D006403F
:103900007816FF1F7916FF1FA416FF1F7416FF1FDE
:10391000E516FF1FE816FF1FE416FF1FEC16FF1F3A
:103920007C16FF1F054A064B10781B78C0B2DBB22D
:10393000984238BF4030C01A704700BFF416FF1FCE
:10394000F516FF1F30B42C4B5A6894021FD52B4834
:10395000DA6803782A4901333F2B0978C8BF00236E
:103960008B4204D0274CD2B2D9B2E2540170264A1D
:10397000116861B1254A1278D2B2934236BFC2F1C2
:1039800040029B1A9B18272BC4BF01230B701A4AB5
:103990009368180202D55268110211D45A020DD54B
:1039A000154B5B685B0209D5194B1A491B6800224D
:1039B0000A7003B11A70184B00221A6030BC7047AD
:1039C000164A124910780A78D2B290420DD00132CC
:1039D000272A84BF00200246114D074C98BFD0B261
:1039E000AA5CD2B2E2600870D8E70E480A4A002406
:1039F000012104601160D1E700400C40F416FF1F64
:103A0000F516FF1F2017FF1FF016FF1F6117FF1F7E
:103A10006417FF1F6017FF1F580188436817FF1FB7
:103A2000F816FF1F5C01884310B584B072B6FFF72B
:103A3000FBFC184A184B19491160702280211A703A
:103A40001A46197013781B06FCD5154B1C68FFF736
:103A500005FD62B6134B9C429CBF04EB84046400DA
:103A60002046114C01A90A22FFF712FD01A92046A8
:103A7000002311F8012B01333AB10A2B20F8022F51
:103A8000F7D11623237004B010BD5B00DBB22370A6
:103A900004B010BD040002400000024000000741D5
:103AA0000C0002407F969800EC07FF1F10B4EFF364
:103AB000108272B6437F33B9017F012908D00329F0
:103AC00010D00123437702B962B65DF8044B70470A
:103AD000114C2168A1B1114943610B6883610860F1
:103AE0005861EEE70E4C216881B10E4943610B68C5
:103AF0008361086058610C4B4FF080511960E0E71A
:103B0000064B4161816120601860DAE7054B416135
:103B1000816120601860EEE77C17FF1F7817FF1F98
:103B20006C17FF1F7017FF1F04ED00E010B4047F37
:103B30004160022CC26003D05DF8044BFFF7B6BFB2
:103B400083685DF8044B184770B5EFF3108272B6C6
:103B50000C4C206880B10C4E00254369236073B182
:103B60009D6102B962B6457783689847EFF310828A
:103B700072B620680028F0D102B962B670BD336019
:103B8000EFE700BF6C17FF1F7017FF1FFFF7DCBFC9
:103B9000184A30B41468002C27D0036821688B427F
:103BA0000ED2CB1A00218460C1602360E0601060F7
:103BB0000223037530BC704711688B42144608D34A
:103BC000A2685B1A0360002AF6D18260C460A0601C
:103BD000EEE7D268C2608460E060C568CB1A02225A
:103BE000A8602360027530BC70478460C4601060B8
:103BF000DEE700BF7417FF1FF8B5224E34682CB300
:103C00002368002B3AD1204F1D4604E03468ECB104
:103C10002368002B32D1A36803B1DD6020693360D3
:103C2000036825751B68BB4221D1037F4560022BC9
:103C3000C46020D0FFF73AFF6368002BE6D0236012
:103C40002046FFF7A5FF3468002CE1D1EFF3108385
:103C500072B60E4A00211068116003B962B628B12D
:103C60008468FFF795FF20460028F9D1F8BD224669
:103C700000219847E0E783689847DDE7013B236030
:103C8000E4E700BF7417FF1F2D3B00008417FF1FE0
:103C9000024A136801331360FFF7AEBF6C13FF1FB6
:103CA000704700BF704700BF704700BF704700BF3C
:103CB000704700BF2DE9F0432DED028B8BB057EC20
:103CC000106B55EC114B00F061F82E4BB0EE408AB2
:103CD000F0EE608A93F90080B8F1FF3F31D02246C0
:103CE0002B462046294600F0DFFD50BB32463B46BE
:103CF0003046394600F0D8FD814610BB0022002333
:103D00002046294600F09EFDD8B11F4BCDF82090EB
:103D10000122CDE90267CDE904458DE80C00B8F138
:103D2000000F17D1CDE90667684600F069F9E0B1E8
:103D3000089B0BBB9DED060B0BB0BDEC028BBDE8E9
:103D4000F083B0EE480AF0EE680A0BB0BDEC028BCF
:103D5000BDE8F083002200231046194600F034FC31
:103D6000B8F1020FCDE90601DED100F02FFE2123CC
:103D70000360089B002BDDD000F028FE089B036049
:103D8000D8E700BF0208FF1F488300002DE9F84F65
:103D900053EC112B23F0004952EA090055EC104B6B
:103DA00025D005F000468F4885EA060B83451EDCCA
:103DB00050421043DFF844C249EAD070604511EE2A
:103DC000108A14D8CB451F4610EE10AA11EE10EA47
:103DD00010EE101A17DC28DB944226D313D1824B45
:103DE000F60F03EBC60393ED000BBDE8F88F2046FA
:103DF000294600F0BFFA02460B4600F0E5FB41EC15
:103E0000100BBDE8F88FBBF5801F12DABBF1000F75
:103E100040F0A780BAF1000F534674480DDD5B00F7
:103E2000002B00F1FF30FADC07E045EC104BBDE859
:103E3000F88F4FEA2B50A0F2FF30B9F5801F0FDA50
:103E4000B9F1000F40F0A780B8F1000F4346DFF84A
:103E50009CC109DD5B00002B0CF1FF3CFADC03E0A8
:103E60004FEA295CACF2FF3C614B98425BDBCBF341
:103E7000130343F480135E4A944563DBC7F31305D1
:103E800045F48015CCEB000007E052EA040313D0A0
:103E9000E30F03EB420361000138CEEB01045A1B30
:103EA00090B1714538BF02F1FF32002AEDDACA0F36
:103EB00002EB43034900EFE74B4BF60F03EBC6065B
:103EC00096ED000BBDE8F88F7145154638BF02F13D
:103ED000FF35002DACBFCEEB01011D4655EA0103B5
:103EE000EAD0444A954208DCCB0F03EB45059542E6
:103EF0000CF1FF3C4FEA4101F6DD3D4B9C4554DAA5
:103F00003B4ACCEB0202142A5BDCC2F1200305FA27
:103F100003F3D1400B43154145EA0601184641EC35
:103F2000100BBDE8F88F3249091A1F292DDCC1F1A9
:103F300020030BFA01FB2AFA03F343EA0B030AFA04
:103F400001F198E72A4CCCEB04041F2C15DCC4F1DA
:103F5000200209FA04F528FA02F2154308FA04FED1
:103F600090E74FEACB23002B21487FF766AF5B0039
:103F7000002B00F1FF30FADC5FE71F4DCCEB0505AD
:103F800008FA05F54FF0000E7CE71B4B1B1A0AFAE6
:103F900003F300216FE7DFF858C04FEAC9235B0045
:103FA000002B0CF1FF3CFADC5EE7A5F580152E43F3
:103FB0000CF2FF3C46EA0C530A4643EC102BBDE8DA
:103FC000F88F1F2A07DCC2F120039D40D14045EA4B
:103FD00001033546A0E7084BCCEB030345FA03F396
:103FE000354699E7FFFFEF7F50830000EDFBFFFFB1
:103FF00002FCFFFFFFFF0F00E2FBFFFF0000F07F6E
:104000000020704781F0004102E000BF83F00043D0
:1040100030B54FEA41044FEA430594EA050F08BF63
:1040200090EA020F1FBF54EA000C55EA020C7FEA27
:10403000645C7FEA655C00F0E2804FEA5454D4EBA4
:104040005555B8BF6D420CDD2C4480EA020281EA6E
:10405000030382EA000083EA010180EA020281EAA6
:104060000303362D88BF30BD11F0004F4FEA0131F8
:104070004FF4801C4CEA113102D0404261EB410107
:1040800013F0004F4FEA03334CEA133302D052428D
:1040900063EB430394EA050F00F0A780A4F1010449
:1040A000D5F1200E0DDB02FA0EFC22FA05F2801883
:1040B00041F1000103FA0EF2801843FA05F3594169
:1040C0000EE0A5F120050EF1200E012A03FA0EFCE8
:1040D00028BF4CF0020C43FA05F3C01851EBE37112
:1040E00001F0004507D54FF0000EDCF1000C7EEB2F
:1040F00000006EEB0101B1F5801F1BD3B1F5001F6D
:104100000CD349085FEA30004FEA3C0C04F101048B
:104110004FEA445212F5800F80F09A80BCF1004FB4
:1041200008BF5FEA500C50F1000041EB045141EA36
:10413000050130BD5FEA4C0C404141EB010111F437
:10414000801FA4F10104E9D191F0000F04BF0146E2
:104150000020B1FA81F308BF2033A3F10B03B3F1C0
:1041600020020CDA0C3208DD02F1140CC2F10C0250
:1041700001FA0CF021FA02F10CE002F11402D8BFAE
:10418000C2F1200C01FA02F120FA0CFCDCBF41EA7A
:104190000C019040E41AA2BF01EB0451294330BD49
:1041A0006FEA04041F3C1CDA0C340EDC04F1140426
:1041B000C4F1200220FA04F001FA02F340EA0300FD
:1041C00021FA04F345EA030130BDC4F10C04C4F143
:1041D000200220FA02F001FA04F340EA0300294623
:1041E00030BD21FA04F0294630BD94F0000F83F46D
:1041F000801306BF81F480110134013D4EE77FEA50
:10420000645C18BF7FEA655C29D094EA050F08BF9B
:1042100090EA020F05D054EA000C04BF194610467C
:1042200030BD91EA030F1EBF0021002030BD5FEAC0
:10423000545C05D14000494128BF41F0004130BDE8
:1042400014F580043CBF01F5801130BD01F000453C
:1042500045F0FE4141F470014FF0000030BD7FEAAF
:10426000645C1ABF194610467FEA655C1CBF0B46AA
:10427000024650EA013406BF52EA033591EA030FC1
:1042800041F4002130BD00BF90F0000F04BF0021B9
:10429000704730B54FF4806404F132044FF00005EC
:1042A0004FF0000150E700BF90F0000F04BF002165
:1042B000704730B54FF4806404F1320410F00045CB
:1042C00048BF40424FF000013EE700BF42004FEAC6
:1042D000E2014FEA31014FEA02701FBF12F07F4343
:1042E00093F07F4F81F06051704792F0000F14BF40
:1042F00093F07F4F704730B54FF4607401F0004584
:1043000021F0004120E700BF50EA010208BF7047DA
:1043100030B54FF000050AE050EA010208BF7047CF
:1043200030B511F0004502D5404261EB41014FF438
:10433000806404F132045FEA915C3FF4DCAE4FF03C
:1043400003025FEADC0C18BF03325FEADC0C18BF23
:10435000033202EBDC02C2F1200300FA03FC20FA74
:1043600002F001FA03FE40EA0E0021FA02F11444C1
:10437000C1E600BF70B54FF0FF0C4CF4E06C1CEAD6
:1043800011541DBF1CEA135594EA0C0F95EA0C0F4B
:1043900000F0DEF82C4481EA030621EA4C5123EABE
:1043A0004C5350EA013518BF52EA033541F48011ED
:1043B00043F4801338D0A0FB02CE4FF00005E1FBA0
:1043C00002E506F00042E0FB03E54FF00006E1FBEA
:1043D00003569CF0000F18BF4EF0010EA4F1FF042D
:1043E000B6F5007F64F5407404D25FEA4E0E6D416D
:1043F00046EB060642EAC62141EA55514FEAC5207E
:1044000040EA5E504FEACE2EB4F1FD0C88BFBCF5F9
:10441000E06F1ED8BEF1004F08BF5FEA500E50F1AA
:10442000000041EB045170BD06F0004646EA010170
:1044300040EA020081EA0301B4EB5C04C2BFD4EBA2
:104440000C0541EA045170BD41F480114FF0000E9B
:10445000013C00F3AB8014F1360FDEBF002001F009
:10446000004170BDC4F10004203C35DA0C341BDC83
:1044700004F11404C4F1200500FA05F320FA04F055
:1044800001FA05F240EA020001F0004221F0004189
:1044900010EBD37021FA04F642EB06015EEA430EFC
:1044A00008BF20EAD37070BDC4F10C04C4F120052C
:1044B00000FA04F320FA05F001FA04F240EA0200DF
:1044C00001F0004110EBD37041F100015EEA430EB0
:1044D00008BF20EAD37070BDC4F1200500FA05F2D0
:1044E0004EEA020E20FA04F301FA05F243EA02034F
:1044F00021FA04F001F0004121FA04F220EA02005E
:1045000000EBD3705EEA430E08BF20EAD37070BDA3
:1045100094F0000F0FD101F00046400041EB010183
:1045200011F4801F08BF013CF7D041EA060195F065
:10453000000F18BF704703F00046520043EB03031F
:1045400013F4801F08BF013DF7D043EA060370470C
:1045500094EA0C0F0CEA135518BF95EA0C0F0CD017
:1045600050EA410618BF52EA4306D1D181EA03015D
:1045700001F000414FF0000070BD50EA410606BF57
:104580001046194652EA430619D094EA0C0F02D19C
:1045900050EA013613D195EA0C0F05D152EA0336E1
:1045A0001CBF104619460AD181EA030101F00041FF
:1045B00041F0FE4141F470014FF0000070BD41F048
:1045C000FE4141F4780170BD70B54FF0FF0C4CF422
:1045D000E06C1CEA11541DBF1CEA135594EA0C0F41
:1045E00095EA0C0F00F0A7F8A4EB050481EA030E8E
:1045F00052EA03354FEA013100F088804FEA033375
:104600004FF0805545EA131343EA12634FEA022242
:1046100045EA111545EA10654FEA00260EF0004103
:104620009D4208BF964244F1FD0404F5407402D255
:104630005B084FEA3202B61A65EB03055B084FEAE6
:1046400032024FF480104FF4002CB6EB020E75EBE3
:10465000030E22BFB61A754640EA0C005B084FEA0B
:104660003202B6EB020E75EB030E22BFB61A754688
:1046700040EA5C005B084FEA3202B6EB020E75EBD3
:10468000030E22BFB61A754640EA9C005B084FEA4B
:104690003202B6EB020E75EB030E22BFB61A754658
:1046A00040EADC0055EA060E18D04FEA051545EA47
:1046B00016754FEA06164FEAC30343EA52734FEAF0
:1046C000C2025FEA1C1CC0D111F4801F0BD141EA69
:1046D00000014FF000004FF0004CB6E711F4801FCE
:1046E00004BF01430020B4F1FD0C88BFBCF5E06FAE
:1046F0003FF6AFAEB5EB030C04BFB6EB020C5FEABE
:10470000500C50F1000041EB045170BD0EF0004E12
:104710004EEA113114EB5C04C2BFD4EB0C0541EA44
:10472000045170BD41F480114FF0000E013C90E641
:1047300045EA060E8DE60CEA135594EA0C0F08BF05
:1047400095EA0C0F3FF43BAF94EA0C0F0AD150EA04
:1047500001347FF434AF95EA0C0F7FF425AF104697
:1047600019462CE795EA0C0F06D152EA03353FF4BF
:10477000FDAE1046194622E750EA410618BF52EA3C
:1047800043067FF4C5AE50EA41047FF40DAF52EA10
:1047900043057FF4EBAE12E74FF0FF3C06E000BFAD
:1047A0004FF0010C02E000BF4FF0010C4DF804CDBA
:1047B0004FEA410C7FEA6C5C4FEA430C18BF7FEA7A
:1047C0006C5C1BD001B050EA410C0CBF52EA430CA8
:1047D00091EA030F02BF90EA020F0020704710F128
:1047E000000F91EA030F58BF994208BF90422CBFB7
:1047F000D8176FEAE37040F0010070474FEA410CB0
:104800007FEA6C5C02D150EA013C07D14FEA430CCD
:104810007FEA6C5CD6D152EA033CD3D05DF8040B3E
:10482000704700BF8446104662468C461946634670
:1048300000E000BF01B5FFF7B7FF002848BF10F147
:10484000000F01BD4DF808EDFFF7F4FF0CBF01208C
:1048500000205DF808FB00BF4DF808EDFFF7EAFF08
:1048600034BF012000205DF808FB00BF4DF808EDC3
:10487000FFF7E0FF94BF012000205DF808FB00BFB8
:104880004DF808EDFFF7CEFF94BF012000205DF842
:1048900008FB00BF4DF808EDFFF7C4FF34BF01204F
:1048A00000205DF808FB00BF4FEA410C7FEA6C5C1A
:1048B00002D150EA013C0AD14FEA430C7FEA6C5C1A
:1048C00002D152EA033C02D14FF0000070474FF092
:1048D000010070474A0011D212F5001211D20DD515
:1048E0006FF47873B3EB62520ED44FEAC12343F0F6
:1048F000004343EA505323FA02F070474FF00000A0
:10490000704750EA013002D14FF0FF3070474FF04E
:10491000000070474FEA4102B2F1E04324BFB3F513
:10492000001CDCF1FE5C0DD901F0004C4FEAC00226
:104930004CEA5070B2F1004F40EB830008BF20F00A
:104940000100704711F0804F21D113F13872BCBFC4
:1049500001F00040704741F480114FEA5252C2F119
:104960001802C2F1200C10FA0CF320FA02F018BF62
:1049700040F001004FEAC1234FEAD32303FA0CFCB5
:1049800040EA0C0023FA02F34FEA4303CCE77FEA44
:10499000625307D150EA01331EBF4FF0FE4040F48E
:1049A0004000704701F0004040F0FE4040F400003D
:1049B000704700BF002101F0CBBE00BF0A220021DA
:1049C00001F074BF0A22002101F070BF014B18688A
:1049D000704700BF300CFF1F70B50F4E0F4D761B98
:1049E000B61018BF002405D0013455F8043B984791
:1049F000A642F9D10A4E0B4D761B03F06BFEB610A2
:104A000018BF002406D0013455F8043B9847A6424D
:104A1000F9D170BD70BD00BFE0860000E0860000E7
:104A2000F0860000E0860000D0F8EC00704700BF80
:104A3000024B0146186800F003B800BF300CFF1F9E
:104A40002DE9F04F01F10B05162D83B0064640F21B
:104A50009F8035F0070500F1BF80A94200F2BC80BD
:104A600000F00AFBB5F5FC7FC0F09C826B0A00F0F9
:104A7000BA80042B00F28381A80900F1390E4FEAB5
:104A80004E033830C44F07EB8303A3F108015C6881
:104A9000A14207D1ACE0002A80F2AC80E468A142D8
:104AA00000F0A680636823F003035A1B0F2AF2DD8F
:104AB000B9493C6901F1080E744500F0B38163689F
:104AC00023F003035A1B0F2A00F39981002AC1F82F
:104AD00014E0C1F810E080F29E80B3F5007F80F012
:104AE0006781DB0803F1010C01229B1002FA03F33A
:104AF0004A6851F83C80C4F8088001EBCC091A439D
:104B0000A9F10803E3604A6041F83C40C8F80C4052
:104B1000831001249C40944200F28A80144206D102
:104B200020F003006400144200F10400FAD007EB07
:104B3000C009CC468046DCF80C108C4507D173E1E7
:104B4000002A80F28181C9688C4500F06D814B6834
:104B500023F003035A1B0F2AF2DD0C46D1F80CC0D8
:104B600054F8088F4B1945F001054D6042F00101E2
:104B7000C8F80CC03046CCF808807B613B61C3F8B4
:104B80000CE0C3F808E059609A5000F077FA1FE093
:104B9000102921D800F070FA1025062302207E4F3C
:104BA00007EB8303A3F108025C68944200F045819F
:104BB0006368E168A56823F00303234430465A681C
:104BC000E96042F001028D605A6000F057FA083443
:104BD000204603B0BDE8F08F00240C23204633604C
:104BE00003B0BDE8F08F80234FF0400E3F2049E72F
:104BF00070465DE72344E1685A68A56842F0010207
:104C0000E96030468D605A6000F038FA083420467A
:104C100003B0BDE8F08F234430465A6842F00102E9
:104C20005A6000F02BFA0834204603B0BDE8F08F3C
:104C3000BC68636823F00308A84504D3C5EB0803E8
:104C40000F2B00F38C80554BDFF860911A68D9F870
:104C5000003001332A4404EB080A00F0608102F5B9
:104C600080520F3222F47F6222F00F02114630464A
:104C7000019200F005FAB0F1FF3F8346019A00F07F
:104C80005881824500F2FC80454B1968DA45114491
:104C9000196000F05381D9F80000DFF810E101300D
:104CA0001BBFCAEB0B0A5144CEF800B019601BF0D1
:104CB000070100F01781C1F10800C1F5805183445C
:104CC00008315A44C2F30B02C2EB0109494630468F
:104CD000019300F0D5F9431C019B00F03F81CBEB21
:104CE00000024A4442F001021968C7F808B049447A
:104CF000BC42CBF804201960DFF8A49016D0B8F1BC
:104D00000F0F40F2FD806268A8F10C0323F0070347
:104D1000E01802F001024FF0050E1A430F2B6260FB
:104D2000C0F804E0C0F808E000F21C811D4BBC682C
:104D30001A68914288BF19601B4B1A6891426268D9
:104D400088BF196022F003029542A2EB050301D847
:104D50000F2B04DC304600F091F9002438E762198B
:104D600043F0010345F0010565603046BA605360C9
:104D700000F084F90834204603B0BDE8F08F142B0E
:104D800071D9542B00F2A480280B00F16F0E4FEA6A
:104D90004E036E3076E600BFA00DFF1F9017FF1F79
:104DA0009417FF1F8C17FF1F8817FF1FAC11FF1FE1
:104DB0005A0A042A5ED9142A00F2B38002F15C0177
:104DC00049005B3207EB810C57F82110DFF8DC81DA
:104DD000ACF1080C8C4500F088804A6822F0030290
:104DE000934202D289688C45F7D1D1F80CC07A6819
:104DF000C4F80CC0A160CCF80840CC6088E6631908
:104E000042F0010745F00105656030464B610B61DA
:104E1000C3F80CE0C3F808E05F609A50083400F073
:104E20002DF9D5E64A6873E608F1010818F0030F7A
:104E30000CF1080C7FF47FAE30E0DC68A34208BFC1
:104E400002303FF435AEB3E60B440C465A68C968ED
:104E500054F8085F42F001025A603046E9608D6004
:104E600000F00CF9B4E603F15C0E03F15B004FEACD
:104E70004E0307E69A0902F1390149003832A1E7E9
:104E8000BC424A4B3FF400AF9C68626822F00302C8
:104E90005AE759F80839994540F0828010F0030F1D
:104EA00000F1FF30F5D17B6823EA04037B606400E6
:104EB0009C423FF6BDAE002C3FF4BAAE1C424046C9
:104EC0007FF435AE64001C4200F10400FAD02EE6F7
:104ED000B3F5AA7F18D8E80B00F1780E4FEA4E031D
:104EE0007730CFE54FF48051EBE60121D8F804305C
:104EF000921001FA02F21A43C8F80420614677E7DB
:104F00000123CBF8043025E740F25452934220D8D5
:104F1000A80C00F17D0E4FEA4E037C30B2E5103252
:104F2000A4E6542A26D81A0B02F16F0149006E320A
:104F300048E7BC68626822F0030205E7CAF30B0089
:104F400000287FF4A8AE4244BB6842F001025A60D8
:104F5000ECE6FE234FF07F0E7E2093E501224FF01A
:104F60000009C1E604F10801304601F035FDD9F829
:104F70000010DBE6B2F5AA7F05D8DA0B02F1780162
:104F8000490077321EE740F254518A4205D89A0C04
:104F900002F17D0149007C3214E7FE217E2211E7F7
:104FA0007B6884E7E808431C5B00F8E5A00DFF1F61
:104FB00082B049B15AB16BB113780B601278101CF2
:104FC00018BF012002B0704701A9002AF3D1104692
:104FD00002B070476FF00100F4E700BF70B48407BF
:104FE00046D0541E002A41D0CDB2034602E0621ED4
:104FF000E4B3144603F8015B9A07F8D1032C2ED9C9
:10500000CDB245EA05250F2C45EA054519D903F12E
:1050100010022646103E0F2E42F8105C42F80C5C3F
:1050200042F8085C42F8045C02F11002F2D8A4F1E4
:10503000100222F00F0204F00F041032032C13446C
:105040000DD91E462246043A032A46F8045BFAD8D4
:10505000221F22F003020432134404F003042CB193
:10506000C9B21C4403F8011BA342FBD170BC7047BA
:1050700014460346C2E700BF704700BF704700BF39
:1050800038B5074C0023054608462360FEF798F91B
:10509000431C00D038BD2368002BFBD02B6038BDEB
:1050A000D017FF1F70B411F0FF0434D085070FD064
:1050B0000378002B5AD09C422BD0431C05E013F8F8
:1050C000012B002A4FD0944223D09A071846F6D1DC
:1050D0000E0206F47F462643036846EA064601E0D0
:1050E00050F8043F86EA0305A5F10132A3F101312E
:1050F00022EA050221EA0303134313F0803FEFD0B5
:10510000037823B932E010F8013F002B2ED09C42E7
:10511000F9D170BC704784070BD00378002BF8D00E
:10512000431C03E002780133002AF2D099071846A5
:10513000F8D10268A2F1013323EA020313F0803FA1
:1051400008D150F8042FA2F1013323EA020313F02F
:10515000803FF6D00378002BDBD010F8013F002B06
:10516000FBD170BC7047104670BC7047184670BCCD
:10517000704700BFFFFFFFFFFFFFFFFFFFFFFFFFC5
:1051800090F800F06DE9024520F007016FF0000C87
:1051900010F0070491F820F040F049804FF000042F
:1051A0006FF00700D1E9002391F840F000F108000A
:1051B00082FA4CF2A4FA8CF283FA4CF3A2FA8CF342
:1051C0004BBBD1E9022382FA4CF200F10800A4FAA9
:1051D0008CF283FA4CF3A2FA8CF3E3B9D1E90423FD
:1051E00082FA4CF200F10800A4FA8CF283FA4CF334
:1051F000A2FA8CF37BB9D1E9062301F1200182FAEE
:105200004CF200F10800A4FA8CF283FA4CF3A2FAF3
:105210008CF3002BC6D0002A04BF04301A4612BA01
:10522000B2FA82F2FDE8024500EBD2007047D1E904
:10523000002304F00305C4F100004FEAC50514F093
:10524000040F91F840F00CFA05F562EA05021CBF64
:1052500063EA050362464FF00004A9E7002A41D043
:1052600040EA010313F00303F0B425D1032A23D944
:1052700004680D68AC421FD1043A35D0A4F1013561
:1052800025EA040414F0803F31D1071D0D1D0DE007
:1052900057F8043B0E68A3F10134B34224EA030437
:1052A0000AD1043A20D014F0803F23D1032A2946A2
:1052B000384605F10405EBD803780C789C4202F1DE
:1052C000FF320CD182B114B916E06AB17BB110F88B
:1052D000013F11F8014FA34202F1FF32F5D0181B34
:1052E000F0BC7047104670471046F0BC7047184637
:1052F000F0BC70470020F3E72046F1E740EA0103E5
:105300009B0770B42BD1032A29D90C4603462146AA
:1053100054F8046BA6F1013525EA060515F0803F27
:1053200006D1043A032A43F8046B2146EFD8A2B110
:105330000C781C70013A013301313CB16AB111F8AB
:10534000014B03F8014B013A002CF7D12AB11A4462
:10535000002103F8011B9A42FBD170BC7047034641
:10536000E5E700BF2DE9F0414FF0010E744600253E
:105370004FF0FF362B198B4200EB06070DD23F5D35
:1053800010F803C0BC452DD21D460124C6EB030E08
:105390002B198B4200EB0607F1D34FF00108C2F83E
:1053A00000E0444600254FF0FF372B19994200EBEF
:1053B000070E0ED91EF804E010F803C0F44518D902
:1053C0001D460124C7EB03082B19994200EB070E79
:1053D000F0D80137701C874224BFC2F800803846DD
:1053E000BDE8F0810CD04FF0010E2E467446754496
:1053F000C0E70CD04FF001082F4644464544D4E79F
:10540000744509BFA64601341D460124B2E7444550
:1054100009BFA04601341D460124C6E72DE9F04F1F
:10542000ADF2144D164605468B461046194603AAA2
:105430001C46FFF797FF03AB81460DF20C4243F881
:10544000044F9342FBD14CB1631E324604A812F8BC
:10545000011B40F8213013F1FF33F8D203994A467B
:105460003144304601F0ACFF002871D109F1FF331F
:105470000093F318824601932346804654465846CB
:105480009A4608EB0A073A1A0021284401F048FF1F
:10549000002858D1002F56D0EB1904AA13F8013C6C
:1054A00052F823304BB124B1039A934201D2C2EB9C
:1054B0000A03984400243846E3E74C4523460AF1A2
:1054C000FF3E38BF4B46734513D208EB030216F874
:1054D00003C0A85C84452A4406EB030106D02EE0F5
:1054E00011F801CF12F8010F844528D1013373451B
:1054F000F6D34C45009980F08B80009B019808EB17
:1055000003020378A85C83422A4440F08180019B17
:1055100006EB040B06E013F801ED12F8010D8645C9
:1055200004D161469B4501F1FF3CF4D101348C422A
:1055300070D8039C3846A044C4EB0A04A1E7C9F123
:1055400001029044B5E700200DF2144DBDE8F08F44
:10555000C9EB04034B4538BF4B46013309F1FF3813
:10556000039306EB080358464FF0000ACB469946D2
:105570000AEB04073A1A0021284401F0D1FE002862
:10558000E1D1002FDFD0EB1904AA13F8013C52F847
:105590002330A3BB611E8B4515D20AEB0B0216F814
:1055A0000B3015F802E09E452A4406EB0B005B46E3
:1055B00006D027E010F801CF12F801EFF44521D111
:1055C00001338B42F6D3B8F1FF3F11D00AEB08024A
:1055D00099F80010AB5C99422A440FD14B4605E084
:1055E00013F8010D12F8011D884207D1B342F7D11B
:1055F00005EB0A000DF2144DBDE8F08F039B9A44B1
:105600003846B5E7CBF1010292449A443846AFE7F9
:1056100049468BE705EB080096E700BF0378002BAF
:1056200000F004812DE9F04F91F8008085B04446E8
:10563000B8F1000F16D0864601F1010C012703E0F6
:1056400012F8014B6CB194469C4214BF002707F03E
:1056500001071EF8013F6246002BF1D19CF8003093
:105660000BBB17B105B0BDE8F08F0E4605464146AD
:105670000130C6EB0C04FFF715FD074698B1012C6D
:10568000F0D02819874294BFC7EB000B4FF0010BF5
:105690001F2C0CD92346324659463846FFF7BEFE2A
:1056A00005B0BDE8F08F002005B0BDE8F08F03AA7B
:1056B00021463046FFF756FE0399804602463144A4
:1056C000304601F07DFE002858D108F1FF330193E8
:1056D000F3188146054600935846B2466619321AB9
:1056E0000021384401F01CFE0028DCD1002EDAD065
:1056F000C845434638BF4B469C4212D95A191AF83E
:105700000310B85C88423A440AEB030E06D02DE041
:105710001EF8010F12F8011F884227D101339C4265
:10572000F6D8019BC845194640F28380EA180098D4
:105730000378B85C83423A447BD1009B0AEB090BA7
:1057400006E013F801CD12F801EDF44504D101464D
:105750005B4501F1FF30F4D109F10109894557D8C2
:10576000039B30461D44C3EB0409B7E7C8F10102AF
:1057700015441D444FF000093046AFE7C8EB040361
:10578000434538BF4346013308F1FF39039306EB25
:10579000090358460025BB469A4667193A1A002164
:1057A000584401F0BDFD00287FF47DAF002F3FF489
:1057B0007AAF444515D908EB050216F808301BF8F6
:1057C000020098425A4406EB0801434606D023E003
:1057D00011F801EF12F8010F86451DD101339C42EB
:1057E000F6D8B9F1FF3F12D005EB09029AF8001084
:1057F0001BF8023099425A4414D1534605E013F87D
:10580000010D12F8011D88420CD1B342F7D15F4659
:10581000781905B0BDE8F08FC8F1010215441D44A8
:105820003846BAE7039B38461D44B6E70B7813B9F0
:105830007047414690E70020704700BF70B50446AE
:105840000D4645EC104B164602F0ECF851EC100BEF
:105850007EB1C5F30A53C3F16B03002B09DD1B05B1
:1058600003F17F55002405F5401522462B46FEF72F
:1058700081FD70BDFFFFFFFF2DE9F04F1D46A1B078
:105880000023834628460E4606921C9301F040FDF5
:105890000024002382460068CDE90434FFF770FC41
:1058A0001B9681463246144612F8017B2D2F00F2DA
:1058B000AF80DFE807F017ADADADADADADADAD81FB
:1058C00081818181ADADADADADADADADADADADADB8
:1058D000ADADADADADAD81ADADADADADADADADAD24
:1058E000AD2BAD7E069B4FF000084FF0000943B191
:1058F00000230793069B1E60079B13B109F1004329
:10590000994649EC108B21B0BDE8F08F0023079336
:10591000621C1B926778002FE4D0302F14467BD096
:10592000002308940A93A7F13003092B00F207849F
:105930004FF00008204645464446082CC8BF08EBF7
:10594000880805EB850300F1010007EB43031B907A
:10595000C4BF07EB4807A7F130080778D8BFA3F109
:105960003005A7F13003092B04F10104E5D9DAF879
:1059700000104A46FFF772FC00B300203B46814608
:105980000746A246652B00F0B280452B00F0AF80A1
:105990000022002C52D118B90A9A002A00F0D182B4
:1059A0004FF000084FF00009069B002BA4D01B9E6F
:1059B000A0E701230793ABE71B9274E71B9B03EB64
:1059C00009021B9213F809300746A246A3F13002E0
:1059D000092A00F27982411C1346002A00F09F86B2
:1059E00001290F4418BF001905D100F094BE4D00E5
:1059F000844200F0BB840134611E082905EB850157
:105A0000F5DD102CDCBF08EB88084FEA4808EFE70B
:105A10000023302F079383D16378582B00F07383D2
:105A2000782B00F0708301341B942778302FFAD044
:105A3000002FB5D0012308940A9374E7102CA2EB31
:105A400007032846A1460B93A8BF4FF01009FEF7A5
:105A50001BFCBAF1000F08BFA246B9F1090FCDE94E
:105A6000040113DD494B03EBC90353E91223FEF78D
:105A700081FC064640460F46FEF706FC02460B46F2
:105A800030463946FEF7C4FACDE904010F2C00F385
:105A900085800B9B002B27D040F31C850B9B162B7E
:105AA00000F37E84394F07EBC307D7E90001DDE936
:105AB0000423FEF75FFC8046894675E71BA834493E
:105AC00001F04EFB00283FF40DAF1B9B3149013B19
:105AD0001BA81B9301F044FB10B91B9B01331B93C4
